{
  "contractName": "Ballot",
  "abi": [
    {
      "inputs": [
        {
          "internalType": "bytes32[]",
          "name": "proposalsNames",
          "type": "bytes32[]"
        }
      ],
      "stateMutability": "nonpayable",
      "type": "constructor"
    },
    {
      "inputs": [],
      "name": "chairperson",
      "outputs": [
        {
          "internalType": "address",
          "name": "",
          "type": "address"
        }
      ],
      "stateMutability": "view",
      "type": "function",
      "constant": true
    },
    {
      "inputs": [
        {
          "internalType": "uint256",
          "name": "",
          "type": "uint256"
        }
      ],
      "name": "proposals",
      "outputs": [
        {
          "internalType": "bytes32",
          "name": "name",
          "type": "bytes32"
        },
        {
          "internalType": "uint256",
          "name": "voteCount",
          "type": "uint256"
        }
      ],
      "stateMutability": "view",
      "type": "function",
      "constant": true
    },
    {
      "inputs": [
        {
          "internalType": "address",
          "name": "",
          "type": "address"
        }
      ],
      "name": "voters",
      "outputs": [
        {
          "internalType": "uint256",
          "name": "weight",
          "type": "uint256"
        },
        {
          "internalType": "bool",
          "name": "voted",
          "type": "bool"
        },
        {
          "internalType": "address",
          "name": "delegate",
          "type": "address"
        },
        {
          "internalType": "uint256",
          "name": "vote",
          "type": "uint256"
        }
      ],
      "stateMutability": "view",
      "type": "function",
      "constant": true
    },
    {
      "inputs": [
        {
          "internalType": "address",
          "name": "voter",
          "type": "address"
        }
      ],
      "name": "giveRightToVote",
      "outputs": [],
      "stateMutability": "nonpayable",
      "type": "function"
    },
    {
      "inputs": [
        {
          "internalType": "address",
          "name": "to",
          "type": "address"
        }
      ],
      "name": "delegate",
      "outputs": [],
      "stateMutability": "nonpayable",
      "type": "function"
    },
    {
      "inputs": [
        {
          "internalType": "uint256",
          "name": "proposal",
          "type": "uint256"
        }
      ],
      "name": "vote",
      "outputs": [],
      "stateMutability": "nonpayable",
      "type": "function"
    },
    {
      "inputs": [],
      "name": "weinningProposal",
      "outputs": [
        {
          "internalType": "uint256",
          "name": "winningProposal_",
          "type": "uint256"
        }
      ],
      "stateMutability": "view",
      "type": "function",
      "constant": true
    },
    {
      "inputs": [],
      "name": "winnerName",
      "outputs": [
        {
          "internalType": "bytes32",
          "name": "winnerName_",
          "type": "bytes32"
        }
      ],
      "stateMutability": "view",
      "type": "function",
      "constant": true
    }
  ],
  "bytecode": "0x60806040523480156200001157600080fd5b50604051620011d5380380620011d5833981810160405281019062000037919062000342565b336000806101000a81548173ffffffffffffffffffffffffffffffffffffffff021916908373ffffffffffffffffffffffffffffffffffffffff16021790555060018060008060009054906101000a900473ffffffffffffffffffffffffffffffffffffffff1673ffffffffffffffffffffffffffffffffffffffff1673ffffffffffffffffffffffffffffffffffffffff1681526020019081526020016000206000018190555060005b81518110156200017657600260405180604001604052808484815181106200010f576200010e62000393565b5b60200260200101518152602001600081525090806001815401808255809150506001900390600052602060002090600202016000909190919091506000820151816000015560208201518160010155505080806200016d90620003fb565b915050620000e2565b505062000449565b6000604051905090565b600080fd5b600080fd5b600080fd5b6000601f19601f8301169050919050565b7f4e487b7100000000000000000000000000000000000000000000000000000000600052604160045260246000fd5b620001e28262000197565b810181811067ffffffffffffffff82111715620002045762000203620001a8565b5b80604052505050565b6000620002196200017e565b9050620002278282620001d7565b919050565b600067ffffffffffffffff8211156200024a5762000249620001a8565b5b602082029050602081019050919050565b600080fd5b6000819050919050565b620002758162000260565b81146200028157600080fd5b50565b60008151905062000295816200026a565b92915050565b6000620002b2620002ac846200022c565b6200020d565b90508083825260208201905060208402830185811115620002d857620002d76200025b565b5b835b81811015620003055780620002f0888262000284565b845260208401935050602081019050620002da565b5050509392505050565b600082601f83011262000327576200032662000192565b5b8151620003398482602086016200029b565b91505092915050565b6000602082840312156200035b576200035a62000188565b5b600082015167ffffffffffffffff8111156200037c576200037b6200018d565b5b6200038a848285016200030f565b91505092915050565b7f4e487b7100000000000000000000000000000000000000000000000000000000600052603260045260246000fd5b7f4e487b7100000000000000000000000000000000000000000000000000000000600052601160045260246000fd5b6000819050919050565b60006200040882620003f1565b91507fffffffffffffffffffffffffffffffffffffffffffffffffffffffffffffffff8214156200043e576200043d620003c2565b5b600182019050919050565b610d7c80620004596000396000f3fe608060405234801561001057600080fd5b50600436106100885760003560e01c80639e7b8d611161005b5780639e7b8d61146101145780639f6eacf014610130578063a3ec138d1461014e578063e2ba53f01461018157610088565b80630121b93f1461008d578063013cf08b146100a95780632e4176cf146100da5780635c19a95c146100f8575b600080fd5b6100a760048036038101906100a2919061082d565b61019f565b005b6100c360048036038101906100be919061082d565b61029e565b6040516100d1929190610882565b60405180910390f35b6100e26102d2565b6040516100ef91906108ec565b60405180910390f35b610112600480360381019061010d9190610933565b6102f6565b005b61012e60048036038101906101299190610933565b610522565b005b6101386106d9565b6040516101459190610960565b60405180910390f35b61016860048036038101906101639190610933565b610761565b6040516101789493929190610996565b60405180910390f35b6101896107be565b60405161019691906109db565b60405180910390f35b6000600160003373ffffffffffffffffffffffffffffffffffffffff1673ffffffffffffffffffffffffffffffffffffffff16815260200190815260200160002090508060010160009054906101000a900460ff1615610234576040517f08c379a000000000000000000000000000000000000000000000000000000000815260040161022b90610a53565b60405180910390fd5b60018160010160006101000a81548160ff02191690831515021790555081816002018190555080600001546002838154811061027357610272610a73565b5b906000526020600020906002020160010160008282546102939190610ad1565b925050819055505050565b600281815481106102ae57600080fd5b90600052602060002090600202016000915090508060000154908060010154905082565b60008054906101000a900473ffffffffffffffffffffffffffffffffffffffff1681565b6000600160003373ffffffffffffffffffffffffffffffffffffffff1673ffffffffffffffffffffffffffffffffffffffff16815260200190815260200160002090508060010160009054906101000a900460ff161561038b576040517f08c379a000000000000000000000000000000000000000000000000000000000815260040161038290610b73565b60405180910390fd5b3373ffffffffffffffffffffffffffffffffffffffff168273ffffffffffffffffffffffffffffffffffffffff1614156103fa576040517f08c379a00000000000000000000000000000000000000000000000000000000081526004016103f190610bdf565b60405180910390fd5b60018160010160006101000a81548160ff021916908315150217905550818160010160016101000a81548173ffffffffffffffffffffffffffffffffffffffff021916908373ffffffffffffffffffffffffffffffffffffffff1602179055506000600160008473ffffffffffffffffffffffffffffffffffffffff1673ffffffffffffffffffffffffffffffffffffffff16815260200190815260200160002090508060010160009054906101000a900460ff16156104fd57816000015460028260020154815481106104d1576104d0610a73565b5b906000526020600020906002020160010160008282546104f19190610ad1565b9250508190555061051d565b81600001548160000160008282546105159190610ad1565b925050819055505b505050565b60008054906101000a900473ffffffffffffffffffffffffffffffffffffffff1673ffffffffffffffffffffffffffffffffffffffff163373ffffffffffffffffffffffffffffffffffffffff16146105b0576040517f08c379a00000000000000000000000000000000000000000000000000000000081526004016105a790610c71565b60405180910390fd5b600160008273ffffffffffffffffffffffffffffffffffffffff1673ffffffffffffffffffffffffffffffffffffffff16815260200190815260200160002060010160009054906101000a900460ff1615610640576040517f08c379a000000000000000000000000000000000000000000000000000000000815260040161063790610cdd565b60405180910390fd5b6000600160008373ffffffffffffffffffffffffffffffffffffffff1673ffffffffffffffffffffffffffffffffffffffff168152602001908152602001600020600001541461068f57600080fd5b60018060008373ffffffffffffffffffffffffffffffffffffffff1673ffffffffffffffffffffffffffffffffffffffff1681526020019081526020016000206000018190555050565b6000806000905060005b60028054905081101561075c57816002828154811061070557610704610a73565b5b9060005260206000209060020201600101541115610749576002818154811061073157610730610a73565b5b90600052602060002090600202016001015491508092505b808061075490610cfd565b9150506106e3565b505090565b60016020528060005260406000206000915090508060000154908060010160009054906101000a900460ff16908060010160019054906101000a900473ffffffffffffffffffffffffffffffffffffffff16908060020154905084565b600060026107ca6106d9565b815481106107db576107da610a73565b5b906000526020600020906002020160000154905090565b600080fd5b6000819050919050565b61080a816107f7565b811461081557600080fd5b50565b60008135905061082781610801565b92915050565b600060208284031215610843576108426107f2565b5b600061085184828501610818565b91505092915050565b6000819050919050565b61086d8161085a565b82525050565b61087c816107f7565b82525050565b60006040820190506108976000830185610864565b6108a46020830184610873565b9392505050565b600073ffffffffffffffffffffffffffffffffffffffff82169050919050565b60006108d6826108ab565b9050919050565b6108e6816108cb565b82525050565b600060208201905061090160008301846108dd565b92915050565b610910816108cb565b811461091b57600080fd5b50565b60008135905061092d81610907565b92915050565b600060208284031215610949576109486107f2565b5b60006109578482850161091e565b91505092915050565b60006020820190506109756000830184610873565b92915050565b60008115159050919050565b6109908161097b565b82525050565b60006080820190506109ab6000830187610873565b6109b86020830186610987565b6109c560408301856108dd565b6109d26060830184610873565b95945050505050565b60006020820190506109f06000830184610864565b92915050565b600082825260208201905092915050565b7f416c726561647920766f7465642e000000000000000000000000000000000000600082015250565b6000610a3d600e836109f6565b9150610a4882610a07565b602082019050919050565b60006020820190508181036000830152610a6c81610a30565b9050919050565b7f4e487b7100000000000000000000000000000000000000000000000000000000600052603260045260246000fd5b7f4e487b7100000000000000000000000000000000000000000000000000000000600052601160045260246000fd5b6000610adc826107f7565b9150610ae7836107f7565b9250827fffffffffffffffffffffffffffffffffffffffffffffffffffffffffffffffff03821115610b1c57610b1b610aa2565b5b828201905092915050565b7f596f7520616c726561647920766f7465642e0000000000000000000000000000600082015250565b6000610b5d6012836109f6565b9150610b6882610b27565b602082019050919050565b60006020820190508181036000830152610b8c81610b50565b9050919050565b7f466f756e64206c6f6f7020696e2064656c65676174696f6e2e00000000000000600082015250565b6000610bc96019836109f6565b9150610bd482610b93565b602082019050919050565b60006020820190508181036000830152610bf881610bbc565b9050919050565b7f4f6e6c79206368616972706572736f6e2063616e20676976652072696768742060008201527f746f20766f74652e000000000000000000000000000000000000000000000000602082015250565b6000610c5b6028836109f6565b9150610c6682610bff565b604082019050919050565b60006020820190508181036000830152610c8a81610c4e565b9050919050565b7f54686520766f74657220616c726561647920766f7465642e0000000000000000600082015250565b6000610cc76018836109f6565b9150610cd282610c91565b602082019050919050565b60006020820190508181036000830152610cf681610cba565b9050919050565b6000610d08826107f7565b91507fffffffffffffffffffffffffffffffffffffffffffffffffffffffffffffffff821415610d3b57610d3a610aa2565b5b60018201905091905056fea264697066735822122092dcfc1a9369b794f5229a851fb12b44fc29aa299d27b3586b8f81bf8c6e9e9c64736f6c634300080c0033",
  "immutableReferences": {},
  "source": "// SPDX-License-Identifier: GPL-3.0\r\npragma solidity >=0.7.0 <0.9.0;\r\n\r\n/// @title \r\ncontract Ballot {\r\n    // \r\n    struct Voter {\r\n        uint256 weight; //\r\n        bool voted; //\r\n        address delegate; //\r\n        uint256 vote; //\r\n    }\r\n    // \r\n    struct Proposal {\r\n        bytes32 name; //32\r\n        uint256 voteCount; //\r\n    }\r\n    address public chairperson; //\r\n\r\n    //'Voter';\r\n    mapping(address => Voter) public voters;\r\n\r\n    //'Proposal' ;\r\n    Proposal[] public proposals;\r\n\r\n    // storagememory\r\n    // 'ProposalNames'\r\n    constructor(bytes32[] memory proposalsNames) {\r\n        //msg.sender;\r\n        // msg.sendermsg.sender\r\n        chairperson = msg.sender;\r\n        voters[chairperson].weight = 1;\r\n        // \r\n        //  Proposal \r\n        for (uint256 i = 0; i < proposalsNames.length; i++) {\r\n            proposals.push(Proposal({name: proposalsNames[i], voteCount: 0}));\r\n        }\r\n    }\r\n\r\n    // 'Voter'\r\n    // 'chairperson'\r\n    function giveRightToVote(address voter) public {\r\n        // 'require''false'\r\n        // \r\n        // EVMgas\r\n        // require\r\n        // require\r\n        require(\r\n            msg.sender == chairperson,\r\n            \"Only chairperson can give right to vote.\"\r\n        );\r\n        require(!voters[voter].voted, \"The voter already voted.\");\r\n        require(voters[voter].weight == 0);\r\n        voters[voter].weight = 1;\r\n    }\r\n\r\n    // 'to',\r\n    function delegate(address to) public {\r\n        Voter storage sender = voters[msg.sender];\r\n        require(!sender.voted, \"You already voted.\");\r\n        require(\r\n            to != msg.sender,\r\n            // \r\n            \"Found loop in delegation.\"\r\n        );\r\n\r\n        sender.voted = true; //\r\n        sender.delegate = to;\r\n        Voter storage delegate_ = voters[to]; //\r\n        if (delegate_.voted) {\r\n            // \r\n            proposals[delegate_.vote].voteCount += sender.weight;\r\n        } else {\r\n            // \r\n            delegate_.weight += sender.weight;\r\n        }\r\n    }\r\n\r\n    // 'proposals[proposal].name'\r\n    // \r\n    function vote(uint256 proposal) public {\r\n        Voter storage sender = voters[msg.sender];\r\n        require(!sender.voted, \"Already voted.\");\r\n        sender.voted = true;\r\n        sender.vote = proposal; //proposal\r\n        // proposal;\r\n        proposals[proposal].voteCount += sender.weight;\r\n    }\r\n\r\n    // \r\n    function weinningProposal() public view returns (uint256 winningProposal_) {\r\n        uint256 winningVoteCount = 0;\r\n        for (uint256 p = 0; p < proposals.length; p++) {\r\n            if (proposals[p].voteCount > winningVoteCount) {\r\n                winningVoteCount = proposals[p].voteCount;\r\n                winningProposal_ = p;\r\n            }\r\n        }\r\n    }\r\n\r\n    // \r\n    function winnerName() public view returns (bytes32 winnerName_) {\r\n        winnerName_ = proposals[weinningProposal()].name;\r\n    }\r\n}\r\n",
  "sourcePath": "D:\\a'\\\\\\project\\TradingSystemBasedOnBlockchain\\smart_contract\\contracts\\3_Ballot.sol",
  "compiler": {
    "name": "solc",
    "version": "0.8.12+commit.f00d7308.Emscripten.clang"
  },
  "schemaVersion": "3.4.6",
  "updatedAt": "2022-04-16T12:54:49.872Z",
  "networkType": "ethereum",
  "devdoc": {
    "kind": "dev",
    "methods": {},
    "title": "",
    "version": 1
  },
  "userdoc": {
    "kind": "user",
    "methods": {},
    "version": 1
  }
}