{
  "contractName": "ERC20",
  "abi": [
    {
      "inputs": [],
      "stateMutability": "nonpayable",
      "type": "constructor"
    },
    {
      "anonymous": false,
      "inputs": [
        {
          "indexed": true,
          "internalType": "address",
          "name": "owner",
          "type": "address"
        },
        {
          "indexed": true,
          "internalType": "address",
          "name": "spender",
          "type": "address"
        },
        {
          "indexed": false,
          "internalType": "uint256",
          "name": "value",
          "type": "uint256"
        }
      ],
      "name": "Approval",
      "type": "event"
    },
    {
      "anonymous": false,
      "inputs": [
        {
          "indexed": true,
          "internalType": "address",
          "name": "from",
          "type": "address"
        },
        {
          "indexed": true,
          "internalType": "address",
          "name": "to",
          "type": "address"
        },
        {
          "indexed": false,
          "internalType": "uint256",
          "name": "value",
          "type": "uint256"
        }
      ],
      "name": "Transfer",
      "type": "event"
    },
    {
      "inputs": [],
      "name": "name",
      "outputs": [
        {
          "internalType": "string",
          "name": "",
          "type": "string"
        }
      ],
      "stateMutability": "view",
      "type": "function"
    },
    {
      "inputs": [],
      "name": "symbol",
      "outputs": [
        {
          "internalType": "string",
          "name": "",
          "type": "string"
        }
      ],
      "stateMutability": "view",
      "type": "function"
    },
    {
      "inputs": [],
      "name": "decimals",
      "outputs": [
        {
          "internalType": "uint8",
          "name": "",
          "type": "uint8"
        }
      ],
      "stateMutability": "view",
      "type": "function"
    },
    {
      "inputs": [
        {
          "internalType": "uint256",
          "name": "value",
          "type": "uint256"
        }
      ],
      "name": "createIVIL",
      "outputs": [
        {
          "internalType": "bool",
          "name": "",
          "type": "bool"
        }
      ],
      "stateMutability": "nonpayable",
      "type": "function"
    },
    {
      "inputs": [
        {
          "internalType": "uint256",
          "name": "value",
          "type": "uint256"
        }
      ],
      "name": "destoryIVIL",
      "outputs": [
        {
          "internalType": "bool",
          "name": "",
          "type": "bool"
        }
      ],
      "stateMutability": "nonpayable",
      "type": "function"
    },
    {
      "inputs": [],
      "name": "totalSupply",
      "outputs": [
        {
          "internalType": "uint256",
          "name": "",
          "type": "uint256"
        }
      ],
      "stateMutability": "view",
      "type": "function"
    },
    {
      "inputs": [
        {
          "internalType": "address",
          "name": "owner",
          "type": "address"
        }
      ],
      "name": "balanceOf",
      "outputs": [
        {
          "internalType": "uint256",
          "name": "",
          "type": "uint256"
        }
      ],
      "stateMutability": "view",
      "type": "function"
    },
    {
      "inputs": [
        {
          "internalType": "address",
          "name": "owner",
          "type": "address"
        },
        {
          "internalType": "address",
          "name": "spender",
          "type": "address"
        }
      ],
      "name": "allowance",
      "outputs": [
        {
          "internalType": "uint256",
          "name": "",
          "type": "uint256"
        }
      ],
      "stateMutability": "view",
      "type": "function"
    },
    {
      "inputs": [
        {
          "internalType": "address",
          "name": "to",
          "type": "address"
        },
        {
          "internalType": "uint256",
          "name": "value",
          "type": "uint256"
        }
      ],
      "name": "transfer",
      "outputs": [
        {
          "internalType": "bool",
          "name": "",
          "type": "bool"
        }
      ],
      "stateMutability": "nonpayable",
      "type": "function"
    },
    {
      "inputs": [
        {
          "internalType": "address",
          "name": "spender",
          "type": "address"
        },
        {
          "internalType": "uint256",
          "name": "value",
          "type": "uint256"
        }
      ],
      "name": "approve",
      "outputs": [
        {
          "internalType": "bool",
          "name": "",
          "type": "bool"
        }
      ],
      "stateMutability": "nonpayable",
      "type": "function"
    },
    {
      "inputs": [
        {
          "internalType": "address",
          "name": "from",
          "type": "address"
        },
        {
          "internalType": "address",
          "name": "to",
          "type": "address"
        },
        {
          "internalType": "uint256",
          "name": "value",
          "type": "uint256"
        }
      ],
      "name": "transferFrom",
      "outputs": [
        {
          "internalType": "bool",
          "name": "",
          "type": "bool"
        }
      ],
      "stateMutability": "nonpayable",
      "type": "function"
    },
    {
      "inputs": [
        {
          "internalType": "address",
          "name": "spender",
          "type": "address"
        },
        {
          "internalType": "uint256",
          "name": "addedValue",
          "type": "uint256"
        }
      ],
      "name": "increaseAllowance",
      "outputs": [
        {
          "internalType": "bool",
          "name": "",
          "type": "bool"
        }
      ],
      "stateMutability": "nonpayable",
      "type": "function"
    },
    {
      "inputs": [
        {
          "internalType": "address",
          "name": "spender",
          "type": "address"
        },
        {
          "internalType": "uint256",
          "name": "subtractedValue",
          "type": "uint256"
        }
      ],
      "name": "decreaseAllowance",
      "outputs": [
        {
          "internalType": "bool",
          "name": "",
          "type": "bool"
        }
      ],
      "stateMutability": "nonpayable",
      "type": "function"
    }
  ],
  "bytecode": "0x60806040526040518060400160405280600a81526020017f6976696c2e776f726c64000000000000000000000000000000000000000000008152506000908051906020019062000051929190620001e2565b506040518060400160405280600481526020017f4956494c00000000000000000000000000000000000000000000000000000000815250600190805190602001906200009f929190620001e2565b506009600260006101000a81548160ff021916908360ff1602179055506301406f40600355348015620000d157600080fd5b5033600660006101000a81548173ffffffffffffffffffffffffffffffffffffffff021916908373ffffffffffffffffffffffffffffffffffffffff1602179055506200016e600354600460003373ffffffffffffffffffffffffffffffffffffffff1673ffffffffffffffffffffffffffffffffffffffff16815260200190815260200160002054620001b760201b620013991790919060201c565b600460003373ffffffffffffffffffffffffffffffffffffffff1673ffffffffffffffffffffffffffffffffffffffff168152602001908152602001600020819055506200038d565b6000808284620001c89190620002cb565b905083811015620001d857600080fd5b8091505092915050565b828054620001f09062000357565b90600052602060002090601f01602090048101928262000214576000855562000260565b82601f106200022f57805160ff191683800117855562000260565b8280016001018555821562000260579182015b828111156200025f57825182559160200191906001019062000242565b5b5090506200026f919062000273565b5090565b5b808211156200028e57600081600090555060010162000274565b5090565b6000819050919050565b7f4e487b7100000000000000000000000000000000000000000000000000000000600052601160045260246000fd5b6000620002d88262000292565b9150620002e58362000292565b9250827fffffffffffffffffffffffffffffffffffffffffffffffffffffffffffffffff038211156200031d576200031c6200029c565b5b828201905092915050565b7f4e487b7100000000000000000000000000000000000000000000000000000000600052602260045260246000fd5b600060028204905060018216806200037057607f821691505b6020821081141562000387576200038662000328565b5b50919050565b611996806200039d6000396000f3fe608060405234801561001057600080fd5b50600436106100cf5760003560e01c8063395093511161008c57806395d89b411161006657806395d89b411461024e578063a457c2d71461026c578063a9059cbb1461029c578063dd62ed3e146102cc576100cf565b806339509351146101be57806370a08231146101ee5780639293848c1461021e576100cf565b806306fdde03146100d4578063095ea7b3146100f25780630bb5a4e01461012257806318160ddd1461015257806323b872dd14610170578063313ce567146101a0575b600080fd5b6100dc6102fc565b6040516100e99190611483565b60405180910390f35b61010c6004803603810190610107919061153e565b61038e565b6040516101199190611599565b60405180910390f35b61013c600480360381019061013791906115b4565b6104b9565b6040516101499190611599565b60405180910390f35b61015a610686565b60405161016791906115f0565b60405180910390f35b61018a6004803603810190610185919061160b565b610690565b6040516101979190611599565b60405180910390f35b6101a8610a4a565b6040516101b5919061167a565b60405180910390f35b6101d860048036038101906101d3919061153e565b610a61565b6040516101e59190611599565b60405180910390f35b61020860048036038101906102039190611695565b610c96565b60405161021591906115f0565b60405180910390f35b610238600480360381019061023391906115b4565b610cdf565b6040516102459190611599565b60405180910390f35b610256610e2a565b6040516102639190611483565b60405180910390f35b6102866004803603810190610281919061153e565b610ebc565b6040516102939190611599565b60405180910390f35b6102b660048036038101906102b1919061153e565b6110f1565b6040516102c39190611599565b60405180910390f35b6102e660048036038101906102e191906116c2565b611312565b6040516102f391906115f0565b60405180910390f35b60606000805461030b90611731565b80601f016020809104026020016040519081016040528092919081815260200182805461033790611731565b80156103845780601f1061035957610100808354040283529160200191610384565b820191906000526020600020905b81548152906001019060200180831161036757829003601f168201915b5050505050905090565b60008073ffffffffffffffffffffffffffffffffffffffff168373ffffffffffffffffffffffffffffffffffffffff1614156103c957600080fd5b81600560003373ffffffffffffffffffffffffffffffffffffffff1673ffffffffffffffffffffffffffffffffffffffff16815260200190815260200160002060008573ffffffffffffffffffffffffffffffffffffffff1673ffffffffffffffffffffffffffffffffffffffff168152602001908152602001600020819055508273ffffffffffffffffffffffffffffffffffffffff163373ffffffffffffffffffffffffffffffffffffffff167f8c5be1e5ebec7d5bd14f71427d1e84f3dd0314c0f7b2291e5b200ac8c7c3b925846040516104a791906115f0565b60405180910390a36001905092915050565b6000600660009054906101000a900473ffffffffffffffffffffffffffffffffffffffff1673ffffffffffffffffffffffffffffffffffffffff163373ffffffffffffffffffffffffffffffffffffffff161461054b576040517f08c379a0000000000000000000000000000000000000000000000000000000008152600401610542906117af565b60405180910390fd5b81600460003373ffffffffffffffffffffffffffffffffffffffff1673ffffffffffffffffffffffffffffffffffffffff1681526020019081526020016000205410156105cd576040517f08c379a00000000000000000000000000000000000000000000000000000000081526004016105c49061181b565b60405180910390fd5b61061f82600460003373ffffffffffffffffffffffffffffffffffffffff1673ffffffffffffffffffffffffffffffffffffffff168152602001908152602001600020546113c190919063ffffffff16565b600460003373ffffffffffffffffffffffffffffffffffffffff1673ffffffffffffffffffffffffffffffffffffffff16815260200190815260200160002081905550610677826003546113c190919063ffffffff16565b60038190555060019050919050565b6000600354905090565b6000600460008573ffffffffffffffffffffffffffffffffffffffff1673ffffffffffffffffffffffffffffffffffffffff168152602001908152602001600020548211156106de57600080fd5b600560008573ffffffffffffffffffffffffffffffffffffffff1673ffffffffffffffffffffffffffffffffffffffff16815260200190815260200160002060003373ffffffffffffffffffffffffffffffffffffffff1673ffffffffffffffffffffffffffffffffffffffff1681526020019081526020016000205482111561076757600080fd5b600073ffffffffffffffffffffffffffffffffffffffff168373ffffffffffffffffffffffffffffffffffffffff1614156107a157600080fd5b6107f382600460008773ffffffffffffffffffffffffffffffffffffffff1673ffffffffffffffffffffffffffffffffffffffff168152602001908152602001600020546113c190919063ffffffff16565b600460008673ffffffffffffffffffffffffffffffffffffffff1673ffffffffffffffffffffffffffffffffffffffff1681526020019081526020016000208190555061088882600460008673ffffffffffffffffffffffffffffffffffffffff1673ffffffffffffffffffffffffffffffffffffffff1681526020019081526020016000205461139990919063ffffffff16565b600460008573ffffffffffffffffffffffffffffffffffffffff1673ffffffffffffffffffffffffffffffffffffffff1681526020019081526020016000208190555061095a82600560008773ffffffffffffffffffffffffffffffffffffffff1673ffffffffffffffffffffffffffffffffffffffff16815260200190815260200160002060003373ffffffffffffffffffffffffffffffffffffffff1673ffffffffffffffffffffffffffffffffffffffff168152602001908152602001600020546113c190919063ffffffff16565b600560008673ffffffffffffffffffffffffffffffffffffffff1673ffffffffffffffffffffffffffffffffffffffff16815260200190815260200160002060003373ffffffffffffffffffffffffffffffffffffffff1673ffffffffffffffffffffffffffffffffffffffff168152602001908152602001600020819055508273ffffffffffffffffffffffffffffffffffffffff168473ffffffffffffffffffffffffffffffffffffffff167fddf252ad1be2c89b69c2b068fc378daa952ba7f163c4a11628f55a4df523b3ef84604051610a3791906115f0565b60405180910390a3600190509392505050565b6000600260009054906101000a900460ff16905090565b60008073ffffffffffffffffffffffffffffffffffffffff168373ffffffffffffffffffffffffffffffffffffffff161415610a9c57600080fd5b610b2b82600560003373ffffffffffffffffffffffffffffffffffffffff1673ffffffffffffffffffffffffffffffffffffffff16815260200190815260200160002060008673ffffffffffffffffffffffffffffffffffffffff1673ffffffffffffffffffffffffffffffffffffffff1681526020019081526020016000205461139990919063ffffffff16565b600560003373ffffffffffffffffffffffffffffffffffffffff1673ffffffffffffffffffffffffffffffffffffffff16815260200190815260200160002060008573ffffffffffffffffffffffffffffffffffffffff1673ffffffffffffffffffffffffffffffffffffffff168152602001908152602001600020819055508273ffffffffffffffffffffffffffffffffffffffff163373ffffffffffffffffffffffffffffffffffffffff167f8c5be1e5ebec7d5bd14f71427d1e84f3dd0314c0f7b2291e5b200ac8c7c3b925600560003373ffffffffffffffffffffffffffffffffffffffff1673ffffffffffffffffffffffffffffffffffffffff16815260200190815260200160002060008773ffffffffffffffffffffffffffffffffffffffff1673ffffffffffffffffffffffffffffffffffffffff16815260200190815260200160002054604051610c8491906115f0565b60405180910390a36001905092915050565b6000600460008373ffffffffffffffffffffffffffffffffffffffff1673ffffffffffffffffffffffffffffffffffffffff168152602001908152602001600020549050919050565b6000600660009054906101000a900473ffffffffffffffffffffffffffffffffffffffff1673ffffffffffffffffffffffffffffffffffffffff163373ffffffffffffffffffffffffffffffffffffffff1614610d71576040517f08c379a0000000000000000000000000000000000000000000000000000000008152600401610d6890611887565b60405180910390fd5b610dc382600460003373ffffffffffffffffffffffffffffffffffffffff1673ffffffffffffffffffffffffffffffffffffffff1681526020019081526020016000205461139990919063ffffffff16565b600460003373ffffffffffffffffffffffffffffffffffffffff1673ffffffffffffffffffffffffffffffffffffffff16815260200190815260200160002081905550610e1b8260035461139990919063ffffffff16565b60038190555060019050919050565b606060018054610e3990611731565b80601f0160208091040260200160405190810160405280929190818152602001828054610e6590611731565b8015610eb25780601f10610e8757610100808354040283529160200191610eb2565b820191906000526020600020905b815481529060010190602001808311610e9557829003601f168201915b5050505050905090565b60008073ffffffffffffffffffffffffffffffffffffffff168373ffffffffffffffffffffffffffffffffffffffff161415610ef757600080fd5b610f8682600560003373ffffffffffffffffffffffffffffffffffffffff1673ffffffffffffffffffffffffffffffffffffffff16815260200190815260200160002060008673ffffffffffffffffffffffffffffffffffffffff1673ffffffffffffffffffffffffffffffffffffffff168152602001908152602001600020546113c190919063ffffffff16565b600560003373ffffffffffffffffffffffffffffffffffffffff1673ffffffffffffffffffffffffffffffffffffffff16815260200190815260200160002060008573ffffffffffffffffffffffffffffffffffffffff1673ffffffffffffffffffffffffffffffffffffffff168152602001908152602001600020819055508273ffffffffffffffffffffffffffffffffffffffff163373ffffffffffffffffffffffffffffffffffffffff167f8c5be1e5ebec7d5bd14f71427d1e84f3dd0314c0f7b2291e5b200ac8c7c3b925600560003373ffffffffffffffffffffffffffffffffffffffff1673ffffffffffffffffffffffffffffffffffffffff16815260200190815260200160002060008773ffffffffffffffffffffffffffffffffffffffff1673ffffffffffffffffffffffffffffffffffffffff168152602001908152602001600020546040516110df91906115f0565b60405180910390a36001905092915050565b6000600460003373ffffffffffffffffffffffffffffffffffffffff1673ffffffffffffffffffffffffffffffffffffffff1681526020019081526020016000205482111561113f57600080fd5b600073ffffffffffffffffffffffffffffffffffffffff168373ffffffffffffffffffffffffffffffffffffffff16141561117957600080fd5b6111cb82600460003373ffffffffffffffffffffffffffffffffffffffff1673ffffffffffffffffffffffffffffffffffffffff168152602001908152602001600020546113c190919063ffffffff16565b600460003373ffffffffffffffffffffffffffffffffffffffff1673ffffffffffffffffffffffffffffffffffffffff1681526020019081526020016000208190555061126082600460008673ffffffffffffffffffffffffffffffffffffffff1673ffffffffffffffffffffffffffffffffffffffff1681526020019081526020016000205461139990919063ffffffff16565b600460008573ffffffffffffffffffffffffffffffffffffffff1673ffffffffffffffffffffffffffffffffffffffff168152602001908152602001600020819055508273ffffffffffffffffffffffffffffffffffffffff163373ffffffffffffffffffffffffffffffffffffffff167fddf252ad1be2c89b69c2b068fc378daa952ba7f163c4a11628f55a4df523b3ef8460405161130091906115f0565b60405180910390a36001905092915050565b6000600560008473ffffffffffffffffffffffffffffffffffffffff1673ffffffffffffffffffffffffffffffffffffffff16815260200190815260200160002060008373ffffffffffffffffffffffffffffffffffffffff1673ffffffffffffffffffffffffffffffffffffffff16815260200190815260200160002054905092915050565b60008082846113a891906118d6565b9050838110156113b757600080fd5b8091505092915050565b6000828211156113d057600080fd5b600082846113de919061192c565b90508091505092915050565b600081519050919050565b600082825260208201905092915050565b60005b83811015611424578082015181840152602081019050611409565b83811115611433576000848401525b50505050565b6000601f19601f8301169050919050565b6000611455826113ea565b61145f81856113f5565b935061146f818560208601611406565b61147881611439565b840191505092915050565b6000602082019050818103600083015261149d818461144a565b905092915050565b600080fd5b600073ffffffffffffffffffffffffffffffffffffffff82169050919050565b60006114d5826114aa565b9050919050565b6114e5816114ca565b81146114f057600080fd5b50565b600081359050611502816114dc565b92915050565b6000819050919050565b61151b81611508565b811461152657600080fd5b50565b60008135905061153881611512565b92915050565b60008060408385031215611555576115546114a5565b5b6000611563858286016114f3565b925050602061157485828601611529565b9150509250929050565b60008115159050919050565b6115938161157e565b82525050565b60006020820190506115ae600083018461158a565b92915050565b6000602082840312156115ca576115c96114a5565b5b60006115d884828501611529565b91505092915050565b6115ea81611508565b82525050565b600060208201905061160560008301846115e1565b92915050565b600080600060608486031215611624576116236114a5565b5b6000611632868287016114f3565b9350506020611643868287016114f3565b925050604061165486828701611529565b9150509250925092565b600060ff82169050919050565b6116748161165e565b82525050565b600060208201905061168f600083018461166b565b92915050565b6000602082840312156116ab576116aa6114a5565b5b60006116b9848285016114f3565b91505092915050565b600080604083850312156116d9576116d86114a5565b5b60006116e7858286016114f3565b92505060206116f8858286016114f3565b9150509250929050565b7f4e487b7100000000000000000000000000000000000000000000000000000000600052602260045260246000fd5b6000600282049050600182168061174957607f821691505b6020821081141561175d5761175c611702565b5b50919050565b7f4f6e6c792074686520726f6f742063616e20646573746f727920746f6b656e21600082015250565b60006117996020836113f5565b91506117a482611763565b602082019050919050565b600060208201905081810360008301526117c88161178c565b9050919050565b7f496e73756666696369656e742062616c616e6365202100000000000000000000600082015250565b60006118056016836113f5565b9150611810826117cf565b602082019050919050565b60006020820190508181036000830152611834816117f8565b9050919050565b7f4f6e6c792074686520726f6f742063616e2063726561746520746f6b656e2100600082015250565b6000611871601f836113f5565b915061187c8261183b565b602082019050919050565b600060208201905081810360008301526118a081611864565b9050919050565b7f4e487b7100000000000000000000000000000000000000000000000000000000600052601160045260246000fd5b60006118e182611508565b91506118ec83611508565b9250827fffffffffffffffffffffffffffffffffffffffffffffffffffffffffffffffff03821115611921576119206118a7565b5b828201905092915050565b600061193782611508565b915061194283611508565b925082821015611955576119546118a7565b5b82820390509291505056fea26469706673582212209cac25fcf072c8c12ee2c331e61b8ae0bd5b06bd4f46022d97ecffe7f43204eb64736f6c634300080c0033",
  "immutableReferences": {},
  "source": "// SPDX-License-Identifier: GPL-3.0\r\n\r\npragma solidity >=0.4.24;\r\n\r\n/**\r\n * @title \r\n * @dev \r\n */\r\nlibrary SafeMath {\r\n    /**\r\n     * @dev \r\n     */\r\n    function mul(uint256 a, uint256 b) internal pure returns (uint256) {\r\n        if (a == 0) {\r\n            return 0;\r\n        }\r\n\r\n        uint256 c = a * b;\r\n        require(c / a == b);\r\n\r\n        return c;\r\n    }\r\n\r\n    /**\r\n     * @dev \r\n     */\r\n    function div(uint256 a, uint256 b) internal pure returns (uint256) {\r\n        require(b > 0);\r\n        uint256 c = a / b;\r\n\r\n        return c;\r\n    }\r\n\r\n    /**\r\n     * @dev \r\n     */\r\n    function sub(uint256 a, uint256 b) internal pure returns (uint256) {\r\n        require(b <= a);\r\n        uint256 c = a - b;\r\n\r\n        return c;\r\n    }\r\n\r\n    /**\r\n     * @dev \r\n     */\r\n    function add(uint256 a, uint256 b) internal pure returns (uint256) {\r\n        uint256 c = a + b;\r\n        require(c >= a);\r\n\r\n        return c;\r\n    }\r\n\r\n    /**\r\n     * @dev \r\n     */\r\n    function mod(uint256 a, uint256 b) internal pure returns (uint256) {\r\n        require(b != 0);\r\n        return a % b;\r\n    }\r\n}\r\n\r\n/**\r\n *@dev ,\r\n */\r\nlibrary StringUtils {\r\n    function CompareInternal(string memory a, string memory b)\r\n        internal\r\n        pure\r\n        returns (bool)\r\n    {\r\n        if (bytes(a).length != bytes(b).length) {\r\n            return false;\r\n        }\r\n        for (uint256 i = 0; i < bytes(a).length; i++) {\r\n            if (bytes(a)[i] != bytes(b)[i]) {\r\n                return false;\r\n            }\r\n        }\r\n        return true;\r\n    }\r\n}\r\n\r\n//========================================================================================\r\n\r\n/**\r\n * @title ERC20 interface\r\n */\r\ninterface IERC20 {\r\n    // methods\r\n    function totalSupply() external view returns (uint256);\r\n\r\n    function balanceOf(address who) external view returns (uint256);\r\n\r\n    function allowance(address owner, address spender)\r\n        external\r\n        view\r\n        returns (uint256);\r\n\r\n    function transfer(address to, uint256 value) external returns (bool);\r\n\r\n    function approve(address spender, uint256 value) external returns (bool);\r\n\r\n    function transferFrom(\r\n        address from,\r\n        address to,\r\n        uint256 value\r\n    ) external returns (bool);\r\n\r\n    // event\r\n    event Transfer(address indexed from, address indexed to, uint256 value);\r\n\r\n    event Approval(\r\n        address indexed owner,\r\n        address indexed spender,\r\n        uint256 value\r\n    );\r\n}\r\n\r\n//=======================================================================================\r\n/**\r\n * @title ERC20\r\n *\r\n */\r\ncontract ERC20 is IERC20 {\r\n    using SafeMath for uint256;\r\n\r\n    string private _name = \"ivil.world\"; //\r\n    string private _symbol = \"IVIL\"; //\r\n    uint8 private _decimals = 9; //\r\n    uint256 private _totalSupply = 21000000; //\r\n\r\n    mapping(address => uint256) private _balances;\r\n\r\n    mapping(address => mapping(address => uint256)) private _allowed;\r\n\r\n    address private root; //\r\n\r\n    constructor() {\r\n        root = msg.sender;\r\n        _balances[msg.sender] = _balances[msg.sender].add(_totalSupply);\r\n    }\r\n\r\n    function name() public view returns (string memory) {\r\n        return _name;\r\n    }\r\n\r\n    function symbol() public view returns (string memory) {\r\n        return _symbol;\r\n    }\r\n\r\n    function decimals() public view returns (uint8) {\r\n        return _decimals;\r\n    }\r\n\r\n    // \r\n    function createIVIL(uint256 value) public returns (bool) {\r\n        require(msg.sender == root, \"Only the root can create token!\");\r\n        _balances[msg.sender] = _balances[msg.sender].add(value);\r\n        _totalSupply = _totalSupply.add(value);\r\n        return true;\r\n    }\r\n\r\n    // \r\n    function destoryIVIL(uint256 value) public returns (bool) {\r\n        require(msg.sender == root, \"Only the root can destory token!\");\r\n        require(_balances[msg.sender] >= value, \"Insufficient balance !\");\r\n        _balances[msg.sender] = _balances[msg.sender].sub(value);\r\n        _totalSupply = _totalSupply.sub(value);\r\n        return true;\r\n    }\r\n\r\n    function totalSupply() public view returns (uint256) {\r\n        return _totalSupply;\r\n    }\r\n\r\n    function balanceOf(address owner) public view returns (uint256) {\r\n        return _balances[owner];\r\n    }\r\n\r\n    function allowance(address owner, address spender)\r\n        public\r\n        view\r\n        returns (uint256)\r\n    {\r\n        return _allowed[owner][spender];\r\n    }\r\n\r\n    function transfer(address to, uint256 value) public returns (bool) {\r\n        require(value <= _balances[msg.sender]);\r\n        require(to != address(0));\r\n\r\n        _balances[msg.sender] = _balances[msg.sender].sub(value);\r\n        _balances[to] = _balances[to].add(value);\r\n        emit Transfer(msg.sender, to, value);\r\n        return true;\r\n    }\r\n\r\n    function approve(address spender, uint256 value) public returns (bool) {\r\n        require(spender != address(0));\r\n\r\n        _allowed[msg.sender][spender] = value;\r\n        emit Approval(msg.sender, spender, value);\r\n        return true;\r\n    }\r\n\r\n    function transferFrom(\r\n        address from,\r\n        address to,\r\n        uint256 value\r\n    ) public returns (bool) {\r\n        require(value <= _balances[from]);\r\n        require(value <= _allowed[from][msg.sender]);\r\n        require(to != address(0));\r\n\r\n        _balances[from] = _balances[from].sub(value);\r\n        _balances[to] = _balances[to].add(value);\r\n        _allowed[from][msg.sender] = _allowed[from][msg.sender].sub(value);\r\n        emit Transfer(from, to, value);\r\n        return true;\r\n    }\r\n\r\n    function increaseAllowance(address spender, uint256 addedValue)\r\n        public\r\n        returns (bool)\r\n    {\r\n        require(spender != address(0));\r\n\r\n        _allowed[msg.sender][spender] = (\r\n            _allowed[msg.sender][spender].add(addedValue)\r\n        );\r\n        emit Approval(msg.sender, spender, _allowed[msg.sender][spender]);\r\n        return true;\r\n    }\r\n\r\n    function decreaseAllowance(address spender, uint256 subtractedValue)\r\n        public\r\n        returns (bool)\r\n    {\r\n        require(spender != address(0));\r\n\r\n        _allowed[msg.sender][spender] = (\r\n            _allowed[msg.sender][spender].sub(subtractedValue)\r\n        );\r\n        emit Approval(msg.sender, spender, _allowed[msg.sender][spender]);\r\n        return true;\r\n    }\r\n\r\n    function _mint(address account, uint256 amount) internal {\r\n        require(account != address(0));\r\n        _totalSupply = _totalSupply.add(amount);\r\n        _balances[account] = _balances[account].add(amount);\r\n        emit Transfer(address(0), account, amount);\r\n    }\r\n\r\n    function _burn(address account, uint256 amount) internal {\r\n        require(account != address(0));\r\n        require(amount <= _balances[account]);\r\n\r\n        _totalSupply = _totalSupply.sub(amount);\r\n        _balances[account] = _balances[account].sub(amount);\r\n        emit Transfer(account, address(0), amount);\r\n    }\r\n\r\n    function _burnFrom(address account, uint256 amount) internal {\r\n        require(amount <= _allowed[account][msg.sender]);\r\n\r\n        _allowed[account][msg.sender] = _allowed[account][msg.sender].sub(\r\n            amount\r\n        );\r\n        _burn(account, amount);\r\n    }\r\n}\r\n\r\n//===================================================================================\r\n\r\ncontract IvilWorld is ERC20 {\r\n    using SafeMath for uint256;\r\n    using StringUtils for string;\r\n\r\n    struct Token {\r\n        string name; //\r\n        string symbol; //\r\n        uint8 decimals; //20.01\r\n        uint256 totalSupply; //\r\n    }\r\n\r\n    address private ice; //\r\n    address private root; //\r\n\r\n    mapping(address => mapping(string => uint256)) private balance; //\r\n\r\n    Token[] private tokens;\r\n    /*\r\n     *constant , , , , constant(: block.number , now , msg.sender  )\r\n     *constant  strings  .\r\n     */\r\n    Token private godToken = Token(\"ivil.world\", \"IVIL\", 9, 21000000); // token,\r\n\r\n    constructor() {\r\n        root = msg.sender;\r\n        tokens.push(godToken);\r\n        balance[msg.sender][godToken.symbol] = balance[msg.sender][\r\n            godToken.symbol\r\n        ].add(godToken.totalSupply);\r\n    }\r\n\r\n    // \r\n    function createToken(\r\n        string memory name,\r\n        string memory symbol,\r\n        uint8 decimals,\r\n        uint256 total\r\n    ) public returns (Token[] memory) {\r\n        require(msg.sender == root, \"Only root can create the token !\");\r\n        bool status = false;\r\n        for (uint256 i = 0; i < tokens.length; i++) {\r\n            if (\r\n                tokens[i].name.CompareInternal(name) ||\r\n                tokens[i].symbol.CompareInternal(symbol)\r\n            ) {\r\n                require(\r\n                    status,\r\n                    \"failed to create token ! The name or symbol has already existed !\"\r\n                );\r\n                return tokens;\r\n            }\r\n        }\r\n        Token memory token = Token(name, symbol, decimals, total);\r\n        tokens.push(token);\r\n        balance[msg.sender][token.symbol] = balance[msg.sender][token.symbol]\r\n            .add(token.totalSupply);\r\n        return tokens;\r\n    }\r\n\r\n    // \r\n    function destoryToken(string memory symbol)\r\n        public\r\n        returns (Token[] memory)\r\n    {\r\n        require(msg.sender == root, \"Only root can create the token !\");\r\n        require(\r\n            !symbol.CompareInternal(\"IVIL\"),\r\n            \"The IVIL is can't be destoryed !\"\r\n        );\r\n        bool status = false;\r\n        for (uint256 i = 0; i < tokens.length; i++) {\r\n            if (tokens[i].symbol.CompareInternal(symbol)) {\r\n                delete tokens[i];\r\n                while (i + 1 < tokens.length) {\r\n                    tokens[i] = tokens[i + 1];\r\n                    i++;\r\n                }\r\n                Token[] memory temp;\r\n                temp = tokens;\r\n                delete tokens;\r\n                for (uint256 k = 0; k < temp.length - 1; k++) {\r\n                    tokens.push(temp[k]);\r\n                }\r\n                return tokens;\r\n            }\r\n        }\r\n        require(status, \"failed to delete !\");\r\n        return tokens;\r\n    }\r\n\r\n    // token\r\n    function increaseToken(string memory symbol, uint256 value) public {\r\n        require(msg.sender == root, \"Only root can add the token !\");\r\n        (uint256 index, bool isExisted) = getLocationBySymbol(symbol);\r\n        require(isExisted, \"The token is not existed !\");\r\n        tokens[index].totalSupply = tokens[index].totalSupply.add(value);\r\n        balance[msg.sender][symbol] = balance[msg.sender][symbol].add(value);\r\n    }\r\n\r\n    // token\r\n    function decreaseToken(string memory symbol, uint256 value) public {\r\n        require(msg.sender == root, \"Only root can add the token !\");\r\n        (uint256 index, bool isExisted) = getLocationBySymbol(symbol);\r\n        require(isExisted, \"The token is not existed !\");\r\n        require(balance[msg.sender][symbol] >= value, \"Insufficient balance !\");\r\n        tokens[index].totalSupply = tokens[index].totalSupply.sub(value);\r\n        balance[msg.sender][symbol] = balance[msg.sender][symbol].sub(value);\r\n    }\r\n\r\n    // token\r\n    function getLocationBySymbol(string memory symbol)\r\n        internal\r\n        view\r\n        returns (uint256, bool)\r\n    {\r\n        for (uint256 i = 0; i < tokens.length; i++) {\r\n            if (tokens[i].symbol.CompareInternal(symbol)) {\r\n                return (i, true);\r\n            }\r\n        }\r\n        require(false, \"The specified token was not found !\");\r\n        return (0, false);\r\n    }\r\n\r\n    // token\r\n    function getTokenInfo(string memory symbol)\r\n        public\r\n        view\r\n        returns (Token memory)\r\n    {\r\n        (uint256 index, bool isExisted) = getLocationBySymbol(symbol);\r\n        require(isExisted, \" The token is not existed ! \");\r\n        return tokens[index];\r\n    }\r\n\r\n    // \r\n    function getAllTokensInfo() public view returns (Token[] memory) {\r\n        return tokens;\r\n    }\r\n\r\n    // \r\n    function getTokenBalance(string memory symbol)\r\n        public\r\n        view\r\n        returns (uint256)\r\n    {\r\n        (, bool isExisted) = getLocationBySymbol(symbol);\r\n        require(isExisted, \" The token is not existed ! \");\r\n        return balance[msg.sender][symbol];\r\n    }\r\n\r\n    // token\r\n    function getSpecificTokenBalance(string memory symbol, address who)\r\n        internal\r\n        view\r\n        returns (uint256)\r\n    {\r\n        (, bool isExisted) = getLocationBySymbol(symbol);\r\n        require(isExisted, \" The token is not existed ! \");\r\n        return balance[who][symbol];\r\n    }\r\n\r\n    // \r\n    function transferToken(\r\n        string memory symbol,\r\n        address to,\r\n        uint256 value\r\n    ) public returns (bool) {\r\n        (, bool isExisted) = getLocationBySymbol(symbol);\r\n        require(isExisted, \"The token is not existed\");\r\n        require(value <= getTokenBalance(symbol), \"The token is not enough !\");\r\n        require(to != address(0));\r\n        balance[msg.sender][symbol] = balance[msg.sender][symbol].sub(value);\r\n        balance[to][symbol] = balance[to][symbol].add(value);\r\n        emit Transfer(msg.sender, to, value);\r\n        return true;\r\n    }\r\n\r\n    // token\r\n    function freezeToken(string memory symbol, uint256 value)\r\n        internal\r\n        returns (bool)\r\n    {\r\n        (, bool isExisted) = getLocationBySymbol(symbol);\r\n        require(isExisted, \"The token is not existed\");\r\n        require(value <= getTokenBalance(symbol), \"The token is not enough !\");\r\n        balance[msg.sender][symbol] = balance[msg.sender][symbol].sub(value);\r\n        balance[ice][symbol] = balance[ice][symbol].add(value);\r\n        emit Transfer(msg.sender, ice, value);\r\n        return true;\r\n    }\r\n\r\n    // token\r\n    function unfreezeToken(string memory symbol, uint256 value)\r\n        internal\r\n        returns (bool)\r\n    {\r\n        (, bool isExisted) = getLocationBySymbol(symbol);\r\n        require(isExisted, \"The token is not existed\");\r\n        balance[ice][symbol] = balance[ice][symbol].sub(value);\r\n        balance[msg.sender][symbol] = balance[msg.sender][symbol].add(value);\r\n        emit Transfer(ice, msg.sender, value);\r\n        return true;\r\n    }\r\n}\r\n\r\n// ===========================================================================\r\n\r\ncontract TradingSystem is IvilWorld {\r\n    using SafeMath for uint256;\r\n    using StringUtils for string;\r\n\r\n    struct Transaction {\r\n        address sender; //\r\n        string symbol; //\r\n        uint256 value; //\r\n        uint256 price; //\r\n        bool status; //\r\n        uint256 index; //\r\n    }\r\n\r\n    mapping(uint256 => Transaction) private tradingPool; //\r\n    Transaction[] private transactions; //\r\n    uint256 private counter;\r\n\r\n    address private root; //\r\n\r\n    constructor() {\r\n        root = msg.sender;\r\n    }\r\n\r\n    // \r\n    function depthOfPool() public view returns (uint256) {\r\n        return counter;\r\n    }\r\n\r\n    // \r\n    function transactionsOfPool() public returns (Transaction[] memory) {\r\n        delete transactions; //\r\n        for (uint256 i; i <= counter; i++) {\r\n            if (tradingPool[i].status == false) {\r\n                transactions.push(tradingPool[i]);\r\n            }\r\n        }\r\n        return transactions;\r\n    }\r\n\r\n    // \r\n    function sell(\r\n        string memory symbol,\r\n        uint256 value,\r\n        uint256 price\r\n    ) public {\r\n        (, bool isExisted) = getLocationBySymbol(symbol);\r\n        require(isExisted, \"The token is not existed !\");\r\n        uint256 temp = getTokenBalance(symbol);\r\n        require(value <= temp, \"The token is not enough !\");\r\n        Transaction memory deal = Transaction(\r\n            msg.sender,\r\n            symbol,\r\n            value,\r\n            price,\r\n            false,\r\n            counter\r\n        );\r\n        tradingPool[counter] = deal;\r\n        freezeToken(symbol, value);\r\n    }\r\n\r\n    // \r\n    function cancelSell(uint256 index) public {\r\n        require(index <= counter, \"The transaction is not existed !\");\r\n        require(\r\n            !tradingPool[index].status,\r\n            \"The transaction has already been completed !\"\r\n        );\r\n        require(msg.sender == tradingPool[index].sender);\r\n        unfreezeToken(tradingPool[index].symbol, tradingPool[index].value);\r\n        tradingPool[index].status = true;\r\n    }\r\n\r\n    // \r\n    function buy(uint256 index) public {\r\n        require(index <= counter, \"The transaction is not existed !\");\r\n        require(\r\n            !tradingPool[index].status,\r\n            \"The transaction has already been completed !\"\r\n        );\r\n        transfer(tradingPool[index].sender, tradingPool[index].price);\r\n        unfreezeToken(tradingPool[index].symbol, tradingPool[index].value);\r\n        tradingPool[index].status = true;\r\n    }\r\n}\r\n",
  "sourcePath": "E:\\Project\\Blockchain\\TradingSystemBasedOnBlockchain\\smart_contract\\contracts\\TradingSystem.sol",
  "compiler": {
    "name": "solc",
    "version": "0.8.12+commit.f00d7308.Emscripten.clang"
  },
  "schemaVersion": "3.4.7",
  "updatedAt": "2022-04-30T12:40:24.825Z",
  "devdoc": {
    "kind": "dev",
    "methods": {},
    "title": "ERC20",
    "version": 1
  },
  "userdoc": {
    "kind": "user",
    "methods": {},
    "version": 1
  }
}