{
  "contractName": "IvilWorld",
  "abi": [
    {
      "inputs": [],
      "stateMutability": "nonpayable",
      "type": "constructor"
    },
    {
      "anonymous": false,
      "inputs": [
        {
          "indexed": true,
          "internalType": "address",
          "name": "owner",
          "type": "address"
        },
        {
          "indexed": true,
          "internalType": "address",
          "name": "spender",
          "type": "address"
        },
        {
          "indexed": false,
          "internalType": "uint256",
          "name": "value",
          "type": "uint256"
        }
      ],
      "name": "Approval",
      "type": "event"
    },
    {
      "anonymous": false,
      "inputs": [
        {
          "indexed": true,
          "internalType": "address",
          "name": "from",
          "type": "address"
        },
        {
          "indexed": true,
          "internalType": "address",
          "name": "to",
          "type": "address"
        },
        {
          "indexed": false,
          "internalType": "uint256",
          "name": "value",
          "type": "uint256"
        }
      ],
      "name": "Transfer",
      "type": "event"
    },
    {
      "inputs": [
        {
          "internalType": "address",
          "name": "owner",
          "type": "address"
        },
        {
          "internalType": "address",
          "name": "spender",
          "type": "address"
        }
      ],
      "name": "allowance",
      "outputs": [
        {
          "internalType": "uint256",
          "name": "",
          "type": "uint256"
        }
      ],
      "stateMutability": "view",
      "type": "function"
    },
    {
      "inputs": [
        {
          "internalType": "address",
          "name": "spender",
          "type": "address"
        },
        {
          "internalType": "uint256",
          "name": "value",
          "type": "uint256"
        }
      ],
      "name": "approve",
      "outputs": [
        {
          "internalType": "bool",
          "name": "",
          "type": "bool"
        }
      ],
      "stateMutability": "nonpayable",
      "type": "function"
    },
    {
      "inputs": [
        {
          "internalType": "address",
          "name": "owner",
          "type": "address"
        }
      ],
      "name": "balanceOf",
      "outputs": [
        {
          "internalType": "uint256",
          "name": "",
          "type": "uint256"
        }
      ],
      "stateMutability": "view",
      "type": "function"
    },
    {
      "inputs": [
        {
          "internalType": "uint256",
          "name": "value",
          "type": "uint256"
        }
      ],
      "name": "createIVIL",
      "outputs": [
        {
          "internalType": "bool",
          "name": "",
          "type": "bool"
        }
      ],
      "stateMutability": "nonpayable",
      "type": "function"
    },
    {
      "inputs": [],
      "name": "decimals",
      "outputs": [
        {
          "internalType": "uint8",
          "name": "",
          "type": "uint8"
        }
      ],
      "stateMutability": "view",
      "type": "function"
    },
    {
      "inputs": [
        {
          "internalType": "uint256",
          "name": "value",
          "type": "uint256"
        }
      ],
      "name": "destoryIVIL",
      "outputs": [
        {
          "internalType": "bool",
          "name": "",
          "type": "bool"
        }
      ],
      "stateMutability": "nonpayable",
      "type": "function"
    },
    {
      "inputs": [],
      "name": "name",
      "outputs": [
        {
          "internalType": "string",
          "name": "",
          "type": "string"
        }
      ],
      "stateMutability": "view",
      "type": "function"
    },
    {
      "inputs": [],
      "name": "symbol",
      "outputs": [
        {
          "internalType": "string",
          "name": "",
          "type": "string"
        }
      ],
      "stateMutability": "view",
      "type": "function"
    },
    {
      "inputs": [],
      "name": "totalSupply",
      "outputs": [
        {
          "internalType": "uint256",
          "name": "",
          "type": "uint256"
        }
      ],
      "stateMutability": "view",
      "type": "function"
    },
    {
      "inputs": [
        {
          "internalType": "address",
          "name": "to",
          "type": "address"
        },
        {
          "internalType": "uint256",
          "name": "value",
          "type": "uint256"
        }
      ],
      "name": "transfer",
      "outputs": [
        {
          "internalType": "bool",
          "name": "",
          "type": "bool"
        }
      ],
      "stateMutability": "nonpayable",
      "type": "function"
    },
    {
      "inputs": [
        {
          "internalType": "address",
          "name": "from",
          "type": "address"
        },
        {
          "internalType": "address",
          "name": "to",
          "type": "address"
        },
        {
          "internalType": "uint256",
          "name": "value",
          "type": "uint256"
        }
      ],
      "name": "transferFrom",
      "outputs": [
        {
          "internalType": "bool",
          "name": "",
          "type": "bool"
        }
      ],
      "stateMutability": "nonpayable",
      "type": "function"
    },
    {
      "inputs": [
        {
          "internalType": "string",
          "name": "name",
          "type": "string"
        },
        {
          "internalType": "string",
          "name": "symbol",
          "type": "string"
        },
        {
          "internalType": "uint8",
          "name": "decimals",
          "type": "uint8"
        },
        {
          "internalType": "uint256",
          "name": "total",
          "type": "uint256"
        }
      ],
      "name": "createToken",
      "outputs": [
        {
          "components": [
            {
              "internalType": "string",
              "name": "name",
              "type": "string"
            },
            {
              "internalType": "string",
              "name": "symbol",
              "type": "string"
            },
            {
              "internalType": "uint8",
              "name": "decimals",
              "type": "uint8"
            },
            {
              "internalType": "uint256",
              "name": "totalSupply",
              "type": "uint256"
            }
          ],
          "internalType": "struct IvilWorld.Token[]",
          "name": "",
          "type": "tuple[]"
        }
      ],
      "stateMutability": "nonpayable",
      "type": "function"
    },
    {
      "inputs": [
        {
          "internalType": "string",
          "name": "symbol",
          "type": "string"
        }
      ],
      "name": "destoryToken",
      "outputs": [
        {
          "components": [
            {
              "internalType": "string",
              "name": "name",
              "type": "string"
            },
            {
              "internalType": "string",
              "name": "symbol",
              "type": "string"
            },
            {
              "internalType": "uint8",
              "name": "decimals",
              "type": "uint8"
            },
            {
              "internalType": "uint256",
              "name": "totalSupply",
              "type": "uint256"
            }
          ],
          "internalType": "struct IvilWorld.Token[]",
          "name": "",
          "type": "tuple[]"
        }
      ],
      "stateMutability": "nonpayable",
      "type": "function"
    },
    {
      "inputs": [
        {
          "internalType": "string",
          "name": "symbol",
          "type": "string"
        },
        {
          "internalType": "uint256",
          "name": "value",
          "type": "uint256"
        }
      ],
      "name": "increaseToken",
      "outputs": [],
      "stateMutability": "nonpayable",
      "type": "function"
    },
    {
      "inputs": [
        {
          "internalType": "string",
          "name": "symbol",
          "type": "string"
        },
        {
          "internalType": "uint256",
          "name": "value",
          "type": "uint256"
        }
      ],
      "name": "decreaseToken",
      "outputs": [],
      "stateMutability": "nonpayable",
      "type": "function"
    },
    {
      "inputs": [],
      "name": "getAllTokensInfo",
      "outputs": [
        {
          "components": [
            {
              "internalType": "string",
              "name": "name",
              "type": "string"
            },
            {
              "internalType": "string",
              "name": "symbol",
              "type": "string"
            },
            {
              "internalType": "uint8",
              "name": "decimals",
              "type": "uint8"
            },
            {
              "internalType": "uint256",
              "name": "totalSupply",
              "type": "uint256"
            }
          ],
          "internalType": "struct IvilWorld.Token[]",
          "name": "",
          "type": "tuple[]"
        }
      ],
      "stateMutability": "view",
      "type": "function"
    },
    {
      "inputs": [
        {
          "internalType": "string",
          "name": "symbol",
          "type": "string"
        },
        {
          "internalType": "address",
          "name": "who",
          "type": "address"
        }
      ],
      "name": "getTokenBalance",
      "outputs": [
        {
          "internalType": "uint256",
          "name": "",
          "type": "uint256"
        }
      ],
      "stateMutability": "view",
      "type": "function"
    },
    {
      "inputs": [
        {
          "internalType": "string",
          "name": "symbol",
          "type": "string"
        },
        {
          "internalType": "address",
          "name": "to",
          "type": "address"
        },
        {
          "internalType": "uint256",
          "name": "value",
          "type": "uint256"
        }
      ],
      "name": "transferToken",
      "outputs": [
        {
          "internalType": "bool",
          "name": "",
          "type": "bool"
        }
      ],
      "stateMutability": "nonpayable",
      "type": "function"
    }
  ],
  "bytecode": "0x60806040526040518060400160405280600a81526020017f6976696c2e776f726c64000000000000000000000000000000000000000000008152506000908051906020019062000051929190620004b7565b506040518060400160405280600481526020017f4956494c00000000000000000000000000000000000000000000000000000000815250600190805190602001906200009f929190620004b7565b506000600260006101000a81548160ff021916908360ff1602179055506301406f4060035560405180608001604052806040518060400160405280600a81526020017f6976696c2e776f726c640000000000000000000000000000000000000000000081525081526020016040518060400160405280600481526020017f4956494c000000000000000000000000000000000000000000000000000000008152508152602001600960ff1681526020016301406f40815250600b600082015181600001908051906020019062000177929190620004b7565b50602082015181600101908051906020019062000196929190620004b7565b5060408201518160020160006101000a81548160ff021916908360ff160217905550606082015181600301555050348015620001d157600080fd5b5033600660006101000a81548173ffffffffffffffffffffffffffffffffffffffff021916908373ffffffffffffffffffffffffffffffffffffffff1602179055506200026e600354600460003373ffffffffffffffffffffffffffffffffffffffff1673ffffffffffffffffffffffffffffffffffffffff168152602001908152602001600020546200048c60201b62002a1b1790919060201c565b600460003373ffffffffffffffffffffffffffffffffffffffff1673ffffffffffffffffffffffffffffffffffffffff1681526020019081526020016000208190555033600860006101000a81548173ffffffffffffffffffffffffffffffffffffffff021916908373ffffffffffffffffffffffffffffffffffffffff160217905550600a600b9080600181540180825580915050600190039060005260206000209060040201600090919091909150600082018160000190805462000335906200062e565b6200034292919062000548565b50600182018160010190805462000359906200062e565b6200036692919062000548565b506002820160009054906101000a900460ff168160020160006101000a81548160ff021916908360ff16021790555060038201548160030155505062000421600b60030154600960003373ffffffffffffffffffffffffffffffffffffffff1673ffffffffffffffffffffffffffffffffffffffff168152602001908152602001600020600b600101604051620003fe91906200070f565b9081526020016040518091039020546200048c60201b62002a1b1790919060201c565b600960003373ffffffffffffffffffffffffffffffffffffffff1673ffffffffffffffffffffffffffffffffffffffff168152602001908152602001600020600b6001016040516200047491906200070f565b908152602001604051809103902081905550620007be565b60008082846200049d919062000761565b905083811015620004ad57600080fd5b8091505092915050565b828054620004c5906200062e565b90600052602060002090601f016020900481019282620004e9576000855562000535565b82601f106200050457805160ff191683800117855562000535565b8280016001018555821562000535579182015b828111156200053457825182559160200191906001019062000517565b5b509050620005449190620005e0565b5090565b82805462000556906200062e565b90600052602060002090601f0160209004810192826200057a5760008555620005cd565b82601f106200058d5780548555620005cd565b82800160010185558215620005cd57600052602060002091601f016020900482015b82811115620005cc578254825591600101919060010190620005af565b5b509050620005dc9190620005e0565b5090565b5b80821115620005fb576000816000905550600101620005e1565b5090565b7f4e487b7100000000000000000000000000000000000000000000000000000000600052602260045260246000fd5b600060028204905060018216806200064757607f821691505b602082108114156200065e576200065d620005ff565b5b50919050565b600081905092915050565b60008190508160005260206000209050919050565b6000815462000693816200062e565b6200069f818662000664565b94506001821660008114620006bd5760018114620006cf5762000706565b60ff1983168652818601935062000706565b620006da856200066f565b60005b83811015620006fe57815481890152600182019150602081019050620006dd565b838801955050505b50505092915050565b60006200071d828462000684565b915081905092915050565b6000819050919050565b7f4e487b7100000000000000000000000000000000000000000000000000000000600052601160045260246000fd5b60006200076e8262000728565b91506200077b8362000728565b9250827fffffffffffffffffffffffffffffffffffffffffffffffffffffffffffffffff03821115620007b357620007b262000732565b5b828201905092915050565b613d5480620007ce6000396000f3fe608060405234801561001057600080fd5b50600436106101165760003560e01c80639293848c116100a2578063bc43c02011610071578063bc43c02014610331578063c5d5901614610361578063c8f956a61461037d578063dd62ed3e14610399578063ee91035e146103c957610116565b80639293848c1461029557806395d89b41146102c55780639a24a25b146102e3578063a9059cbb1461030157610116565b8063210f5dda116100e9578063210f5dda146101b757806323b872dd146101e7578063313ce567146102175780633cdb97621461023557806370a082311461026557610116565b806306fdde031461011b578063095ea7b3146101395780630bb5a4e01461016957806318160ddd14610199575b600080fd5b6101236103f9565b6040516101309190612f01565b60405180910390f35b610153600480360381019061014e9190612fcb565b61048b565b6040516101609190613026565b60405180910390f35b610183600480360381019061017e9190613041565b6105b6565b6040516101909190613026565b60405180910390f35b6101a1610783565b6040516101ae919061307d565b60405180910390f35b6101d160048036038101906101cc9190613206565b61078d565b6040516101de9190613439565b60405180910390f35b61020160048036038101906101fc919061345b565b610f00565b60405161020e9190613026565b60405180910390f35b61021f6112ba565b60405161022c91906134bd565b60405180910390f35b61024f600480360381019061024a91906134d8565b6112d1565b60405161025c919061307d565b60405180910390f35b61027f600480360381019061027a9190613534565b611342565b60405161028c919061307d565b60405180910390f35b6102af60048036038101906102aa9190613041565b61138b565b6040516102bc9190613026565b60405180910390f35b6102cd6114d6565b6040516102da9190612f01565b60405180910390f35b6102eb611568565b6040516102f89190613439565b60405180910390f35b61031b60048036038101906103169190612fcb565b611712565b6040516103289190613026565b60405180910390f35b61034b60048036038101906103469190613561565b611933565b6040516103589190613439565b60405180910390f35b61037b600480360381019061037691906135aa565b6122b7565b005b610397600480360381019061039291906135aa565b612488565b005b6103b360048036038101906103ae9190613606565b6126f7565b6040516103c0919061307d565b60405180910390f35b6103e360048036038101906103de9190613646565b61277e565b6040516103f09190613026565b60405180910390f35b606060008054610408906136e4565b80601f0160208091040260200160405190810160405280929190818152602001828054610434906136e4565b80156104815780601f1061045657610100808354040283529160200191610481565b820191906000526020600020905b81548152906001019060200180831161046457829003601f168201915b5050505050905090565b60008073ffffffffffffffffffffffffffffffffffffffff168373ffffffffffffffffffffffffffffffffffffffff1614156104c657600080fd5b81600560003373ffffffffffffffffffffffffffffffffffffffff1673ffffffffffffffffffffffffffffffffffffffff16815260200190815260200160002060008573ffffffffffffffffffffffffffffffffffffffff1673ffffffffffffffffffffffffffffffffffffffff168152602001908152602001600020819055508273ffffffffffffffffffffffffffffffffffffffff163373ffffffffffffffffffffffffffffffffffffffff167f8c5be1e5ebec7d5bd14f71427d1e84f3dd0314c0f7b2291e5b200ac8c7c3b925846040516105a4919061307d565b60405180910390a36001905092915050565b6000600660009054906101000a900473ffffffffffffffffffffffffffffffffffffffff1673ffffffffffffffffffffffffffffffffffffffff163373ffffffffffffffffffffffffffffffffffffffff1614610648576040517f08c379a000000000000000000000000000000000000000000000000000000000815260040161063f90613762565b60405180910390fd5b81600460003373ffffffffffffffffffffffffffffffffffffffff1673ffffffffffffffffffffffffffffffffffffffff1681526020019081526020016000205410156106ca576040517f08c379a00000000000000000000000000000000000000000000000000000000081526004016106c1906137ce565b60405180910390fd5b61071c82600460003373ffffffffffffffffffffffffffffffffffffffff1673ffffffffffffffffffffffffffffffffffffffff16815260200190815260200160002054612a4390919063ffffffff16565b600460003373ffffffffffffffffffffffffffffffffffffffff1673ffffffffffffffffffffffffffffffffffffffff1681526020019081526020016000208190555061077482600354612a4390919063ffffffff16565b60038190555060019050919050565b6000600354905090565b6060600860009054906101000a900473ffffffffffffffffffffffffffffffffffffffff1673ffffffffffffffffffffffffffffffffffffffff163373ffffffffffffffffffffffffffffffffffffffff161461081f576040517f08c379a00000000000000000000000000000000000000000000000000000000081526004016108169061383a565b60405180910390fd5b6000805b600a80549050811015610bbb576108f087600a83815481106108485761084761385a565b5b90600052602060002090600402016000018054610864906136e4565b80601f0160208091040260200160405190810160405280929190818152602001828054610890906136e4565b80156108dd5780601f106108b2576101008083540402835291602001916108dd565b820191906000526020600020905b8154815290600101906020018083116108c057829003601f168201915b5050505050612a6c90919063ffffffff16565b806109b757506109b686600a838154811061090e5761090d61385a565b5b9060005260206000209060040201600101805461092a906136e4565b80601f0160208091040260200160405190810160405280929190818152602001828054610956906136e4565b80156109a35780601f10610978576101008083540402835291602001916109a3565b820191906000526020600020905b81548152906001019060200180831161098657829003601f168201915b5050505050612a6c90919063ffffffff16565b5b15610ba857816109fc576040517f08c379a00000000000000000000000000000000000000000000000000000000081526004016109f390613921565b60405180910390fd5b600a805480602002602001604051908101604052809291908181526020016000905b82821015610b9b5783829060005260206000209060040201604051806080016040529081600082018054610a51906136e4565b80601f0160208091040260200160405190810160405280929190818152602001828054610a7d906136e4565b8015610aca5780601f10610a9f57610100808354040283529160200191610aca565b820191906000526020600020905b815481529060010190602001808311610aad57829003601f168201915b50505050508152602001600182018054610ae3906136e4565b80601f0160208091040260200160405190810160405280929190818152602001828054610b0f906136e4565b8015610b5c5780601f10610b3157610100808354040283529160200191610b5c565b820191906000526020600020905b815481529060010190602001808311610b3f57829003601f168201915b505050505081526020016002820160009054906101000a900460ff1660ff1660ff16815260200160038201548152505081526020019060010190610a1e565b5050505092505050610ef8565b8080610bb390613970565b915050610823565b50600060405180608001604052808881526020018781526020018660ff168152602001858152509050600a8190806001815401808255809150506001900390600052602060002090600402016000909190919091506000820151816000019080519060200190610c2c929190612c81565b506020820151816001019080519060200190610c49929190612c81565b5060408201518160020160006101000a81548160ff021916908360ff160217905550606082015181600301555050610ced8160600151600960003373ffffffffffffffffffffffffffffffffffffffff1673ffffffffffffffffffffffffffffffffffffffff1681526020019081526020016000208360200151604051610cd091906139f5565b908152602001604051809103902054612a1b90919063ffffffff16565b600960003373ffffffffffffffffffffffffffffffffffffffff1673ffffffffffffffffffffffffffffffffffffffff1681526020019081526020016000208260200151604051610d3e91906139f5565b908152602001604051809103902081905550600a805480602002602001604051908101604052809291908181526020016000905b82821015610eef5783829060005260206000209060040201604051806080016040529081600082018054610da5906136e4565b80601f0160208091040260200160405190810160405280929190818152602001828054610dd1906136e4565b8015610e1e5780601f10610df357610100808354040283529160200191610e1e565b820191906000526020600020905b815481529060010190602001808311610e0157829003601f168201915b50505050508152602001600182018054610e37906136e4565b80601f0160208091040260200160405190810160405280929190818152602001828054610e63906136e4565b8015610eb05780601f10610e8557610100808354040283529160200191610eb0565b820191906000526020600020905b815481529060010190602001808311610e9357829003601f168201915b505050505081526020016002820160009054906101000a900460ff1660ff1660ff16815260200160038201548152505081526020019060010190610d72565b50505050925050505b949350505050565b6000600460008573ffffffffffffffffffffffffffffffffffffffff1673ffffffffffffffffffffffffffffffffffffffff16815260200190815260200160002054821115610f4e57600080fd5b600560008573ffffffffffffffffffffffffffffffffffffffff1673ffffffffffffffffffffffffffffffffffffffff16815260200190815260200160002060003373ffffffffffffffffffffffffffffffffffffffff1673ffffffffffffffffffffffffffffffffffffffff16815260200190815260200160002054821115610fd757600080fd5b600073ffffffffffffffffffffffffffffffffffffffff168373ffffffffffffffffffffffffffffffffffffffff16141561101157600080fd5b61106382600460008773ffffffffffffffffffffffffffffffffffffffff1673ffffffffffffffffffffffffffffffffffffffff16815260200190815260200160002054612a4390919063ffffffff16565b600460008673ffffffffffffffffffffffffffffffffffffffff1673ffffffffffffffffffffffffffffffffffffffff168152602001908152602001600020819055506110f882600460008673ffffffffffffffffffffffffffffffffffffffff1673ffffffffffffffffffffffffffffffffffffffff16815260200190815260200160002054612a1b90919063ffffffff16565b600460008573ffffffffffffffffffffffffffffffffffffffff1673ffffffffffffffffffffffffffffffffffffffff168152602001908152602001600020819055506111ca82600560008773ffffffffffffffffffffffffffffffffffffffff1673ffffffffffffffffffffffffffffffffffffffff16815260200190815260200160002060003373ffffffffffffffffffffffffffffffffffffffff1673ffffffffffffffffffffffffffffffffffffffff16815260200190815260200160002054612a4390919063ffffffff16565b600560008673ffffffffffffffffffffffffffffffffffffffff1673ffffffffffffffffffffffffffffffffffffffff16815260200190815260200160002060003373ffffffffffffffffffffffffffffffffffffffff1673ffffffffffffffffffffffffffffffffffffffff168152602001908152602001600020819055508273ffffffffffffffffffffffffffffffffffffffff168473ffffffffffffffffffffffffffffffffffffffff167fddf252ad1be2c89b69c2b068fc378daa952ba7f163c4a11628f55a4df523b3ef846040516112a7919061307d565b60405180910390a3600190509392505050565b6000600260009054906101000a900460ff16905090565b60006112dc83612b3a565b5050600960008373ffffffffffffffffffffffffffffffffffffffff1673ffffffffffffffffffffffffffffffffffffffff1681526020019081526020016000208360405161132b91906139f5565b908152602001604051809103902054905092915050565b6000600460008373ffffffffffffffffffffffffffffffffffffffff1673ffffffffffffffffffffffffffffffffffffffff168152602001908152602001600020549050919050565b6000600660009054906101000a900473ffffffffffffffffffffffffffffffffffffffff1673ffffffffffffffffffffffffffffffffffffffff163373ffffffffffffffffffffffffffffffffffffffff161461141d576040517f08c379a000000000000000000000000000000000000000000000000000000000815260040161141490613a58565b60405180910390fd5b61146f82600460003373ffffffffffffffffffffffffffffffffffffffff1673ffffffffffffffffffffffffffffffffffffffff16815260200190815260200160002054612a1b90919063ffffffff16565b600460003373ffffffffffffffffffffffffffffffffffffffff1673ffffffffffffffffffffffffffffffffffffffff168152602001908152602001600020819055506114c782600354612a1b90919063ffffffff16565b60038190555060019050919050565b6060600180546114e5906136e4565b80601f0160208091040260200160405190810160405280929190818152602001828054611511906136e4565b801561155e5780601f106115335761010080835404028352916020019161155e565b820191906000526020600020905b81548152906001019060200180831161154157829003601f168201915b5050505050905090565b6060600a805480602002602001604051908101604052809291908181526020016000905b8282101561170957838290600052602060002090600402016040518060800160405290816000820180546115bf906136e4565b80601f01602080910402602001604051908101604052809291908181526020018280546115eb906136e4565b80156116385780601f1061160d57610100808354040283529160200191611638565b820191906000526020600020905b81548152906001019060200180831161161b57829003601f168201915b50505050508152602001600182018054611651906136e4565b80601f016020809104026020016040519081016040528092919081815260200182805461167d906136e4565b80156116ca5780601f1061169f576101008083540402835291602001916116ca565b820191906000526020600020905b8154815290600101906020018083116116ad57829003601f168201915b505050505081526020016002820160009054906101000a900460ff1660ff1660ff1681526020016003820154815250508152602001906001019061158c565b50505050905090565b6000600460003373ffffffffffffffffffffffffffffffffffffffff1673ffffffffffffffffffffffffffffffffffffffff1681526020019081526020016000205482111561176057600080fd5b600073ffffffffffffffffffffffffffffffffffffffff168373ffffffffffffffffffffffffffffffffffffffff16141561179a57600080fd5b6117ec82600460003373ffffffffffffffffffffffffffffffffffffffff1673ffffffffffffffffffffffffffffffffffffffff16815260200190815260200160002054612a4390919063ffffffff16565b600460003373ffffffffffffffffffffffffffffffffffffffff1673ffffffffffffffffffffffffffffffffffffffff1681526020019081526020016000208190555061188182600460008673ffffffffffffffffffffffffffffffffffffffff1673ffffffffffffffffffffffffffffffffffffffff16815260200190815260200160002054612a1b90919063ffffffff16565b600460008573ffffffffffffffffffffffffffffffffffffffff1673ffffffffffffffffffffffffffffffffffffffff168152602001908152602001600020819055508273ffffffffffffffffffffffffffffffffffffffff163373ffffffffffffffffffffffffffffffffffffffff167fddf252ad1be2c89b69c2b068fc378daa952ba7f163c4a11628f55a4df523b3ef84604051611921919061307d565b60405180910390a36001905092915050565b6060600860009054906101000a900473ffffffffffffffffffffffffffffffffffffffff1673ffffffffffffffffffffffffffffffffffffffff163373ffffffffffffffffffffffffffffffffffffffff16146119c5576040517f08c379a00000000000000000000000000000000000000000000000000000000081526004016119bc9061383a565b60405180910390fd5b611a0d6040518060400160405280600481526020017f4956494c0000000000000000000000000000000000000000000000000000000081525083612a6c90919063ffffffff16565b15611a4d576040517f08c379a0000000000000000000000000000000000000000000000000000000008152600401611a4490613ac4565b60405180910390fd5b6000805b600a805490508110156120ca57611b1e84600a8381548110611a7657611a7561385a565b5b90600052602060002090600402016001018054611a92906136e4565b80601f0160208091040260200160405190810160405280929190818152602001828054611abe906136e4565b8015611b0b5780601f10611ae057610100808354040283529160200191611b0b565b820191906000526020600020905b815481529060010190602001808311611aee57829003601f168201915b5050505050612a6c90919063ffffffff16565b156120b757600a8181548110611b3757611b3661385a565b5b906000526020600020906004020160008082016000611b569190612d07565b600182016000611b669190612d07565b6002820160006101000a81549060ff0219169055600382016000905550505b600a80549050600182611b989190613ae4565b1015611c7c57600a600182611bad9190613ae4565b81548110611bbe57611bbd61385a565b5b9060005260206000209060040201600a8281548110611be057611bdf61385a565b5b90600052602060002090600402016000820181600001908054611c02906136e4565b611c0d929190612d47565b506001820181600101908054611c22906136e4565b611c2d929190612d47565b506002820160009054906101000a900460ff168160020160006101000a81548160ff021916908360ff160217905550600382015481600301559050508080611c7490613970565b915050611b85565b6060600a805480602002602001604051908101604052809291908181526020016000905b82821015611e1d5783829060005260206000209060040201604051806080016040529081600082018054611cd3906136e4565b80601f0160208091040260200160405190810160405280929190818152602001828054611cff906136e4565b8015611d4c5780601f10611d2157610100808354040283529160200191611d4c565b820191906000526020600020905b815481529060010190602001808311611d2f57829003601f168201915b50505050508152602001600182018054611d65906136e4565b80601f0160208091040260200160405190810160405280929190818152602001828054611d91906136e4565b8015611dde5780601f10611db357610100808354040283529160200191611dde565b820191906000526020600020905b815481529060010190602001808311611dc157829003601f168201915b505050505081526020016002820160009054906101000a900460ff1660ff1660ff16815260200160038201548152505081526020019060010190611ca0565b505050509050600a6000611e319190612dd4565b60005b60018251611e429190613b3a565b811015611f0957600a828281518110611e5e57611e5d61385a565b5b602002602001015190806001815401808255809150506001900390600052602060002090600402016000909190919091506000820151816000019080519060200190611eab929190612c81565b506020820151816001019080519060200190611ec8929190612c81565b5060408201518160020160006101000a81548160ff021916908360ff1602179055506060820151816003015550508080611f0190613970565b915050611e34565b50600a805480602002602001604051908101604052809291908181526020016000905b828210156120a95783829060005260206000209060040201604051806080016040529081600082018054611f5f906136e4565b80601f0160208091040260200160405190810160405280929190818152602001828054611f8b906136e4565b8015611fd85780601f10611fad57610100808354040283529160200191611fd8565b820191906000526020600020905b815481529060010190602001808311611fbb57829003601f168201915b50505050508152602001600182018054611ff1906136e4565b80601f016020809104026020016040519081016040528092919081815260200182805461201d906136e4565b801561206a5780601f1061203f5761010080835404028352916020019161206a565b820191906000526020600020905b81548152906001019060200180831161204d57829003601f168201915b505050505081526020016002820160009054906101000a900460ff1660ff1660ff16815260200160038201548152505081526020019060010190611f2c565b5050505093505050506122b2565b80806120c290613970565b915050611a51565b508061210b576040517f08c379a000000000000000000000000000000000000000000000000000000000815260040161210290613bba565b60405180910390fd5b600a805480602002602001604051908101604052809291908181526020016000905b828210156122aa5783829060005260206000209060040201604051806080016040529081600082018054612160906136e4565b80601f016020809104026020016040519081016040528092919081815260200182805461218c906136e4565b80156121d95780601f106121ae576101008083540402835291602001916121d9565b820191906000526020600020905b8154815290600101906020018083116121bc57829003601f168201915b505050505081526020016001820180546121f2906136e4565b80601f016020809104026020016040519081016040528092919081815260200182805461221e906136e4565b801561226b5780601f106122405761010080835404028352916020019161226b565b820191906000526020600020905b81548152906001019060200180831161224e57829003601f168201915b505050505081526020016002820160009054906101000a900460ff1660ff1660ff1681526020016003820154815250508152602001906001019061212d565b505050509150505b919050565b600860009054906101000a900473ffffffffffffffffffffffffffffffffffffffff1673ffffffffffffffffffffffffffffffffffffffff163373ffffffffffffffffffffffffffffffffffffffff1614612347576040517f08c379a000000000000000000000000000000000000000000000000000000000815260040161233e90613c26565b60405180910390fd5b600061235283612b3a565b50905061238d82600a838154811061236d5761236c61385a565b5b906000526020600020906004020160030154612a1b90919063ffffffff16565b600a82815481106123a1576123a061385a565b5b90600052602060002090600402016003018190555061242482600960003373ffffffffffffffffffffffffffffffffffffffff1673ffffffffffffffffffffffffffffffffffffffff1681526020019081526020016000208560405161240791906139f5565b908152602001604051809103902054612a1b90919063ffffffff16565b600960003373ffffffffffffffffffffffffffffffffffffffff1673ffffffffffffffffffffffffffffffffffffffff1681526020019081526020016000208460405161247191906139f5565b908152602001604051809103902081905550505050565b600860009054906101000a900473ffffffffffffffffffffffffffffffffffffffff1673ffffffffffffffffffffffffffffffffffffffff163373ffffffffffffffffffffffffffffffffffffffff1614612518576040517f08c379a000000000000000000000000000000000000000000000000000000000815260040161250f90613c26565b60405180910390fd5b600061252383612b3a565b50905081600960003373ffffffffffffffffffffffffffffffffffffffff1673ffffffffffffffffffffffffffffffffffffffff1681526020019081526020016000208460405161257491906139f5565b90815260200160405180910390205410156125c4576040517f08c379a00000000000000000000000000000000000000000000000000000000081526004016125bb906137ce565b60405180910390fd5b6125fc82600a83815481106125dc576125db61385a565b5b906000526020600020906004020160030154612a4390919063ffffffff16565b600a82815481106126105761260f61385a565b5b90600052602060002090600402016003018190555061269382600960003373ffffffffffffffffffffffffffffffffffffffff1673ffffffffffffffffffffffffffffffffffffffff1681526020019081526020016000208560405161267691906139f5565b908152602001604051809103902054612a4390919063ffffffff16565b600960003373ffffffffffffffffffffffffffffffffffffffff1673ffffffffffffffffffffffffffffffffffffffff168152602001908152602001600020846040516126e091906139f5565b908152602001604051809103902081905550505050565b6000600560008473ffffffffffffffffffffffffffffffffffffffff1673ffffffffffffffffffffffffffffffffffffffff16815260200190815260200160002060008373ffffffffffffffffffffffffffffffffffffffff1673ffffffffffffffffffffffffffffffffffffffff16815260200190815260200160002054905092915050565b600061278984612b3a565b505061279584336112d1565b8211156127d7576040517f08c379a00000000000000000000000000000000000000000000000000000000081526004016127ce90613c92565b60405180910390fd5b600073ffffffffffffffffffffffffffffffffffffffff168373ffffffffffffffffffffffffffffffffffffffff16141561281157600080fd5b61287f82600960003373ffffffffffffffffffffffffffffffffffffffff1673ffffffffffffffffffffffffffffffffffffffff1681526020019081526020016000208660405161286291906139f5565b908152602001604051809103902054612a4390919063ffffffff16565b600960003373ffffffffffffffffffffffffffffffffffffffff1673ffffffffffffffffffffffffffffffffffffffff168152602001908152602001600020856040516128cc91906139f5565b90815260200160405180910390208190555061294c82600960008673ffffffffffffffffffffffffffffffffffffffff1673ffffffffffffffffffffffffffffffffffffffff1681526020019081526020016000208660405161292f91906139f5565b908152602001604051809103902054612a1b90919063ffffffff16565b600960008573ffffffffffffffffffffffffffffffffffffffff1673ffffffffffffffffffffffffffffffffffffffff1681526020019081526020016000208560405161299991906139f5565b9081526020016040518091039020819055508273ffffffffffffffffffffffffffffffffffffffff163373ffffffffffffffffffffffffffffffffffffffff167fddf252ad1be2c89b69c2b068fc378daa952ba7f163c4a11628f55a4df523b3ef84604051612a08919061307d565b60405180910390a3600190509392505050565b6000808284612a2a9190613ae4565b905083811015612a3957600080fd5b8091505092915050565b600082821115612a5257600080fd5b60008284612a609190613b3a565b90508091505092915050565b60008151835114612a805760009050612b34565b60005b8351811015612b2e57828181518110612a9f57612a9e61385a565b5b602001015160f81c60f81b7effffffffffffffffffffffffffffffffffffffffffffffffffffffffffffff1916848281518110612adf57612ade61385a565b5b602001015160f81c60f81b7effffffffffffffffffffffffffffffffffffffffffffffffffffffffffffff191614612b1b576000915050612b34565b8080612b2690613970565b915050612a83565b50600190505b92915050565b60008060005b600a80549050811015612c3257612c0d84600a8381548110612b6557612b6461385a565b5b90600052602060002090600402016001018054612b81906136e4565b80601f0160208091040260200160405190810160405280929190818152602001828054612bad906136e4565b8015612bfa5780601f10612bcf57610100808354040283529160200191612bfa565b820191906000526020600020905b815481529060010190602001808311612bdd57829003601f168201915b5050505050612a6c90919063ffffffff16565b15612c1f578060019250925050612c7c565b8080612c2a90613970565b915050612b40565b506000612c74576040517f08c379a0000000000000000000000000000000000000000000000000000000008152600401612c6b90613cfe565b60405180910390fd5b600080915091505b915091565b828054612c8d906136e4565b90600052602060002090601f016020900481019282612caf5760008555612cf6565b82601f10612cc857805160ff1916838001178555612cf6565b82800160010185558215612cf6579182015b82811115612cf5578251825591602001919060010190612cda565b5b509050612d039190612df8565b5090565b508054612d13906136e4565b6000825580601f10612d255750612d44565b601f016020900490600052602060002090810190612d439190612df8565b5b50565b828054612d53906136e4565b90600052602060002090601f016020900481019282612d755760008555612dc3565b82601f10612d865780548555612dc3565b82800160010185558215612dc357600052602060002091601f016020900482015b82811115612dc2578254825591600101919060010190612da7565b5b509050612dd09190612df8565b5090565b5080546000825560040290600052602060002090810190612df59190612e15565b50565b5b80821115612e11576000816000905550600101612df9565b5090565b5b80821115612e645760008082016000612e2f9190612d07565b600182016000612e3f9190612d07565b6002820160006101000a81549060ff0219169055600382016000905550600401612e16565b5090565b600081519050919050565b600082825260208201905092915050565b60005b83811015612ea2578082015181840152602081019050612e87565b83811115612eb1576000848401525b50505050565b6000601f19601f8301169050919050565b6000612ed382612e68565b612edd8185612e73565b9350612eed818560208601612e84565b612ef681612eb7565b840191505092915050565b60006020820190508181036000830152612f1b8184612ec8565b905092915050565b6000604051905090565b600080fd5b600080fd5b600073ffffffffffffffffffffffffffffffffffffffff82169050919050565b6000612f6282612f37565b9050919050565b612f7281612f57565b8114612f7d57600080fd5b50565b600081359050612f8f81612f69565b92915050565b6000819050919050565b612fa881612f95565b8114612fb357600080fd5b50565b600081359050612fc581612f9f565b92915050565b60008060408385031215612fe257612fe1612f2d565b5b6000612ff085828601612f80565b925050602061300185828601612fb6565b9150509250929050565b60008115159050919050565b6130208161300b565b82525050565b600060208201905061303b6000830184613017565b92915050565b60006020828403121561305757613056612f2d565b5b600061306584828501612fb6565b91505092915050565b61307781612f95565b82525050565b6000602082019050613092600083018461306e565b92915050565b600080fd5b600080fd5b7f4e487b7100000000000000000000000000000000000000000000000000000000600052604160045260246000fd5b6130da82612eb7565b810181811067ffffffffffffffff821117156130f9576130f86130a2565b5b80604052505050565b600061310c612f23565b905061311882826130d1565b919050565b600067ffffffffffffffff821115613138576131376130a2565b5b61314182612eb7565b9050602081019050919050565b82818337600083830152505050565b600061317061316b8461311d565b613102565b90508281526020810184848401111561318c5761318b61309d565b5b61319784828561314e565b509392505050565b600082601f8301126131b4576131b3613098565b5b81356131c484826020860161315d565b91505092915050565b600060ff82169050919050565b6131e3816131cd565b81146131ee57600080fd5b50565b600081359050613200816131da565b92915050565b600080600080608085870312156132205761321f612f2d565b5b600085013567ffffffffffffffff81111561323e5761323d612f32565b5b61324a8782880161319f565b945050602085013567ffffffffffffffff81111561326b5761326a612f32565b5b6132778782880161319f565b9350506040613288878288016131f1565b925050606061329987828801612fb6565b91505092959194509250565b600081519050919050565b600082825260208201905092915050565b6000819050602082019050919050565b600082825260208201905092915050565b60006132ed82612e68565b6132f781856132d1565b9350613307818560208601612e84565b61331081612eb7565b840191505092915050565b613324816131cd565b82525050565b61333381612f95565b82525050565b6000608083016000830151848203600086015261335682826132e2565b9150506020830151848203602086015261337082826132e2565b9150506040830151613385604086018261331b565b506060830151613398606086018261332a565b508091505092915050565b60006133af8383613339565b905092915050565b6000602082019050919050565b60006133cf826132a5565b6133d981856132b0565b9350836020820285016133eb856132c1565b8060005b85811015613427578484038952815161340885826133a3565b9450613413836133b7565b925060208a019950506001810190506133ef565b50829750879550505050505092915050565b6000602082019050818103600083015261345381846133c4565b905092915050565b60008060006060848603121561347457613473612f2d565b5b600061348286828701612f80565b935050602061349386828701612f80565b92505060406134a486828701612fb6565b9150509250925092565b6134b7816131cd565b82525050565b60006020820190506134d260008301846134ae565b92915050565b600080604083850312156134ef576134ee612f2d565b5b600083013567ffffffffffffffff81111561350d5761350c612f32565b5b6135198582860161319f565b925050602061352a85828601612f80565b9150509250929050565b60006020828403121561354a57613549612f2d565b5b600061355884828501612f80565b91505092915050565b60006020828403121561357757613576612f2d565b5b600082013567ffffffffffffffff81111561359557613594612f32565b5b6135a18482850161319f565b91505092915050565b600080604083850312156135c1576135c0612f2d565b5b600083013567ffffffffffffffff8111156135df576135de612f32565b5b6135eb8582860161319f565b92505060206135fc85828601612fb6565b9150509250929050565b6000806040838503121561361d5761361c612f2d565b5b600061362b85828601612f80565b925050602061363c85828601612f80565b9150509250929050565b60008060006060848603121561365f5761365e612f2d565b5b600084013567ffffffffffffffff81111561367d5761367c612f32565b5b6136898682870161319f565b935050602061369a86828701612f80565b92505060406136ab86828701612fb6565b9150509250925092565b7f4e487b7100000000000000000000000000000000000000000000000000000000600052602260045260246000fd5b600060028204905060018216806136fc57607f821691505b602082108114156137105761370f6136b5565b5b50919050565b7f4f6e6c792074686520726f6f742063616e20646573746f727920746f6b656e21600082015250565b600061374c602083612e73565b915061375782613716565b602082019050919050565b6000602082019050818103600083015261377b8161373f565b9050919050565b7f496e73756666696369656e742062616c616e6365202100000000000000000000600082015250565b60006137b8601683612e73565b91506137c382613782565b602082019050919050565b600060208201905081810360008301526137e7816137ab565b9050919050565b7f4f6e6c7920726f6f742063616e206372656174652074686520746f6b656e2021600082015250565b6000613824602083612e73565b915061382f826137ee565b602082019050919050565b6000602082019050818103600083015261385381613817565b9050919050565b7f4e487b7100000000000000000000000000000000000000000000000000000000600052603260045260246000fd5b7f6661696c656420746f2063726561746520746f6b656e202120546865206e616d60008201527f65206f722073796d626f6c2068617320616c726561647920657869737465642060208201527f2100000000000000000000000000000000000000000000000000000000000000604082015250565b600061390b604183612e73565b915061391682613889565b606082019050919050565b6000602082019050818103600083015261393a816138fe565b9050919050565b7f4e487b7100000000000000000000000000000000000000000000000000000000600052601160045260246000fd5b600061397b82612f95565b91507fffffffffffffffffffffffffffffffffffffffffffffffffffffffffffffffff8214156139ae576139ad613941565b5b600182019050919050565b600081905092915050565b60006139cf82612e68565b6139d981856139b9565b93506139e9818560208601612e84565b80840191505092915050565b6000613a0182846139c4565b915081905092915050565b7f4f6e6c792074686520726f6f742063616e2063726561746520746f6b656e2100600082015250565b6000613a42601f83612e73565b9150613a4d82613a0c565b602082019050919050565b60006020820190508181036000830152613a7181613a35565b9050919050565b7f546865204956494c2069732063616e277420626520646573746f727965642021600082015250565b6000613aae602083612e73565b9150613ab982613a78565b602082019050919050565b60006020820190508181036000830152613add81613aa1565b9050919050565b6000613aef82612f95565b9150613afa83612f95565b9250827fffffffffffffffffffffffffffffffffffffffffffffffffffffffffffffffff03821115613b2f57613b2e613941565b5b828201905092915050565b6000613b4582612f95565b9150613b5083612f95565b925082821015613b6357613b62613941565b5b828203905092915050565b7f6661696c656420746f2064656c65746520210000000000000000000000000000600082015250565b6000613ba4601283612e73565b9150613baf82613b6e565b602082019050919050565b60006020820190508181036000830152613bd381613b97565b9050919050565b7f4f6e6c7920726f6f742063616e206164642074686520746f6b656e2021000000600082015250565b6000613c10601d83612e73565b9150613c1b82613bda565b602082019050919050565b60006020820190508181036000830152613c3f81613c03565b9050919050565b7f54686520746f6b656e206973206e6f7420656e6f756768202100000000000000600082015250565b6000613c7c601983612e73565b9150613c8782613c46565b602082019050919050565b60006020820190508181036000830152613cab81613c6f565b9050919050565b7f54686520746f6b656e20776173206e6f7420666f756e64202100000000000000600082015250565b6000613ce8601983612e73565b9150613cf382613cb2565b602082019050919050565b60006020820190508181036000830152613d1781613cdb565b905091905056fea2646970667358221220824e0bca927edd05e4b403c06036dffad95bc31129deb16184ced22a8b1aba4164736f6c634300080c0033",
  "immutableReferences": {},
  "source": "// SPDX-License-Identifier: GPL-3.0\r\n\r\npragma solidity >=0.4.24;\r\n\r\n/**\r\n * @title \r\n * @dev \r\n */\r\nlibrary SafeMath {\r\n    /**\r\n     * @dev \r\n     */\r\n    function mul(uint256 a, uint256 b) internal pure returns (uint256) {\r\n        if (a == 0) {\r\n            return 0;\r\n        }\r\n\r\n        uint256 c = a * b;\r\n        require(c / a == b);\r\n\r\n        return c;\r\n    }\r\n\r\n    /**\r\n     * @dev \r\n     */\r\n    function div(uint256 a, uint256 b) internal pure returns (uint256) {\r\n        require(b > 0);\r\n        uint256 c = a / b;\r\n\r\n        return c;\r\n    }\r\n\r\n    /**\r\n     * @dev \r\n     */\r\n    function sub(uint256 a, uint256 b) internal pure returns (uint256) {\r\n        require(b <= a);\r\n        uint256 c = a - b;\r\n\r\n        return c;\r\n    }\r\n\r\n    /**\r\n     * @dev \r\n     */\r\n    function add(uint256 a, uint256 b) internal pure returns (uint256) {\r\n        uint256 c = a + b;\r\n        require(c >= a);\r\n\r\n        return c;\r\n    }\r\n\r\n    /**\r\n     * @dev \r\n     */\r\n    function mod(uint256 a, uint256 b) internal pure returns (uint256) {\r\n        require(b != 0);\r\n        return a % b;\r\n    }\r\n}\r\n\r\n/**\r\n *@dev ,\r\n */\r\nlibrary StringUtils {\r\n    function CompareInternal(string memory a, string memory b)\r\n        internal\r\n        pure\r\n        returns (bool)\r\n    {\r\n        if (bytes(a).length != bytes(b).length) {\r\n            return false;\r\n        }\r\n        for (uint256 i = 0; i < bytes(a).length; i++) {\r\n            if (bytes(a)[i] != bytes(b)[i]) {\r\n                return false;\r\n            }\r\n        }\r\n        return true;\r\n    }\r\n}\r\n\r\n//========================================================================================\r\n\r\n/**\r\n * @title ERC20 interface\r\n */\r\ninterface IERC20 {\r\n    // methods\r\n    function totalSupply() external view returns (uint256);\r\n\r\n    function balanceOf(address who) external view returns (uint256);\r\n\r\n    function allowance(address owner, address spender)\r\n        external\r\n        view\r\n        returns (uint256);\r\n\r\n    function transfer(address to, uint256 value) external returns (bool);\r\n\r\n    function approve(address spender, uint256 value) external returns (bool);\r\n\r\n    function transferFrom(\r\n        address from,\r\n        address to,\r\n        uint256 value\r\n    ) external returns (bool);\r\n\r\n    // event\r\n    event Transfer(address indexed from, address indexed to, uint256 value);\r\n\r\n    event Approval(\r\n        address indexed owner,\r\n        address indexed spender,\r\n        uint256 value\r\n    );\r\n}\r\n\r\n//=======================================================================================\r\n/**\r\n * @title ERC20\r\n *\r\n */\r\ncontract ERC20 is IERC20 {\r\n    using SafeMath for uint256;\r\n\r\n    string private _name = \"ivil.world\"; //\r\n    string private _symbol = \"IVIL\"; //\r\n    uint8 private _decimals = 0; //\r\n    uint256 private _totalSupply = 21000000; //\r\n\r\n    mapping(address => uint256) private _balances;\r\n\r\n    mapping(address => mapping(address => uint256)) private _allowed;\r\n\r\n    address private root; //\r\n\r\n    constructor() {\r\n        root = msg.sender;\r\n        _balances[msg.sender] = _balances[msg.sender].add(_totalSupply);\r\n    }\r\n\r\n    function name() public view returns (string memory) {\r\n        return _name;\r\n    }\r\n\r\n    function symbol() public view returns (string memory) {\r\n        return _symbol;\r\n    }\r\n\r\n    function decimals() public view returns (uint8) {\r\n        return _decimals;\r\n    }\r\n\r\n    // \r\n    function createIVIL(uint256 value) public returns (bool) {\r\n        require(msg.sender == root, \"Only the root can create token!\");\r\n        _balances[msg.sender] = _balances[msg.sender].add(value);\r\n        _totalSupply = _totalSupply.add(value);\r\n        return true;\r\n    }\r\n\r\n    // \r\n    function destoryIVIL(uint256 value) public returns (bool) {\r\n        require(msg.sender == root, \"Only the root can destory token!\");\r\n        require(_balances[msg.sender] >= value, \"Insufficient balance !\");\r\n        _balances[msg.sender] = _balances[msg.sender].sub(value);\r\n        _totalSupply = _totalSupply.sub(value);\r\n        return true;\r\n    }\r\n\r\n    function totalSupply() public view returns (uint256) {\r\n        return _totalSupply;\r\n    }\r\n\r\n    function balanceOf(address owner) public view returns (uint256) {\r\n        return _balances[owner];\r\n    }\r\n\r\n    function allowance(address owner, address spender)\r\n        public\r\n        view\r\n        returns (uint256)\r\n    {\r\n        return _allowed[owner][spender];\r\n    }\r\n\r\n    function transfer(address to, uint256 value) public returns (bool) {\r\n        require(value <= _balances[msg.sender]);\r\n        require(to != address(0));\r\n\r\n        _balances[msg.sender] = _balances[msg.sender].sub(value);\r\n        _balances[to] = _balances[to].add(value);\r\n        emit Transfer(msg.sender, to, value);\r\n        return true;\r\n    }\r\n\r\n    function approve(address spender, uint256 value) public returns (bool) {\r\n        require(spender != address(0));\r\n\r\n        _allowed[msg.sender][spender] = value;\r\n        emit Approval(msg.sender, spender, value);\r\n        return true;\r\n    }\r\n\r\n    function transferFrom(\r\n        address from,\r\n        address to,\r\n        uint256 value\r\n    ) public returns (bool) {\r\n        require(value <= _balances[from]);\r\n        require(value <= _allowed[from][msg.sender]);\r\n        require(to != address(0));\r\n\r\n        _balances[from] = _balances[from].sub(value);\r\n        _balances[to] = _balances[to].add(value);\r\n        _allowed[from][msg.sender] = _allowed[from][msg.sender].sub(value);\r\n        emit Transfer(from, to, value);\r\n        return true;\r\n    }\r\n}\r\n\r\n//===================================================================================\r\n\r\ncontract IvilWorld is ERC20 {\r\n    using SafeMath for uint256;\r\n    using StringUtils for string;\r\n\r\n    struct Token {\r\n        string name; //\r\n        string symbol; //\r\n        uint8 decimals; //20.01\r\n        uint256 totalSupply; //\r\n    }\r\n\r\n    address private ice; //\r\n    address private root; //\r\n\r\n    mapping(address => mapping(string => uint256)) private balance; //\r\n\r\n    Token[] private tokens;\r\n    /*\r\n     *constant , , , , constant(: block.number , now , msg.sender  )\r\n     *constant  strings  .\r\n     */\r\n    Token private godToken = Token(\"ivil.world\", \"IVIL\", 9, 21000000); // token,\r\n\r\n    constructor() {\r\n        root = msg.sender;\r\n        tokens.push(godToken);\r\n        balance[msg.sender][godToken.symbol] = balance[msg.sender][\r\n            godToken.symbol\r\n        ].add(godToken.totalSupply);\r\n    }\r\n\r\n    // \r\n    function createToken(\r\n        string memory name,\r\n        string memory symbol,\r\n        uint8 decimals,\r\n        uint256 total\r\n    ) public returns (Token[] memory) {\r\n        require(msg.sender == root, \"Only root can create the token !\");\r\n        bool status = false;\r\n        for (uint256 i = 0; i < tokens.length; i++) {\r\n            if (\r\n                tokens[i].name.CompareInternal(name) ||\r\n                tokens[i].symbol.CompareInternal(symbol)\r\n            ) {\r\n                require(\r\n                    status,\r\n                    \"failed to create token ! The name or symbol has already existed !\"\r\n                );\r\n                return tokens;\r\n            }\r\n        }\r\n        Token memory token = Token(name, symbol, decimals, total);\r\n        tokens.push(token);\r\n        balance[msg.sender][token.symbol] = balance[msg.sender][token.symbol]\r\n            .add(token.totalSupply);\r\n        return tokens;\r\n    }\r\n\r\n    // \r\n    function destoryToken(string memory symbol)\r\n        public\r\n        returns (Token[] memory)\r\n    {\r\n        require(msg.sender == root, \"Only root can create the token !\");\r\n        require(\r\n            !symbol.CompareInternal(\"IVIL\"),\r\n            \"The IVIL is can't be destoryed !\"\r\n        );\r\n        bool status = false;\r\n        for (uint256 i = 0; i < tokens.length; i++) {\r\n            if (tokens[i].symbol.CompareInternal(symbol)) {\r\n                delete tokens[i];\r\n                while (i + 1 < tokens.length) {\r\n                    tokens[i] = tokens[i + 1];\r\n                    i++;\r\n                }\r\n                Token[] memory temp;\r\n                temp = tokens;\r\n                delete tokens;\r\n                for (uint256 k = 0; k < temp.length - 1; k++) {\r\n                    tokens.push(temp[k]);\r\n                }\r\n                return tokens;\r\n            }\r\n        }\r\n        require(status, \"failed to delete !\");\r\n        return tokens;\r\n    }\r\n\r\n    // token\r\n    function increaseToken(string memory symbol, uint256 value) public {\r\n        require(msg.sender == root, \"Only root can add the token !\");\r\n        (uint256 index, ) = getLocationOfToken(symbol);\r\n        // require(isExisted, \"The token is not existed !\");\r\n        tokens[index].totalSupply = tokens[index].totalSupply.add(value);\r\n        balance[msg.sender][symbol] = balance[msg.sender][symbol].add(value);\r\n    }\r\n\r\n    // token\r\n    function decreaseToken(string memory symbol, uint256 value) public {\r\n        require(msg.sender == root, \"Only root can add the token !\");\r\n        (uint256 index, ) = getLocationOfToken(symbol);\r\n        // require(isExisted, \"The token is not existed !\");\r\n        require(balance[msg.sender][symbol] >= value, \"Insufficient balance !\");\r\n        tokens[index].totalSupply = tokens[index].totalSupply.sub(value);\r\n        balance[msg.sender][symbol] = balance[msg.sender][symbol].sub(value);\r\n    }\r\n\r\n    // token\r\n    function getLocationOfToken(string memory symbol)\r\n        internal\r\n        view\r\n        returns (uint256, bool)\r\n    {\r\n        for (uint256 i = 0; i < tokens.length; i++) {\r\n            if (tokens[i].symbol.CompareInternal(symbol)) {\r\n                return (i, true);\r\n            }\r\n        }\r\n        require(false, \"The token was not found !\");\r\n        return (0, false);\r\n    }\r\n\r\n    // \r\n    function getAllTokensInfo() public view returns (Token[] memory) {\r\n        return tokens;\r\n    }\r\n\r\n    // \r\n    function getTokenBalance(string memory symbol, address who)\r\n        public\r\n        view\r\n        returns (uint256)\r\n    {\r\n        getLocationOfToken(symbol);\r\n        return balance[who][symbol];\r\n    }\r\n\r\n\r\n    // \r\n    function transferToken(\r\n        string memory symbol,\r\n        address to,\r\n        uint256 value\r\n    ) public returns (bool) {\r\n        getLocationOfToken(symbol);\r\n        // require(isExisted, \"The token is not existed\");\r\n        require(\r\n            value <= getTokenBalance(symbol, msg.sender),\r\n            \"The token is not enough !\"\r\n        );\r\n        require(to != address(0));\r\n        balance[msg.sender][symbol] = balance[msg.sender][symbol].sub(value);\r\n        balance[to][symbol] = balance[to][symbol].add(value);\r\n        emit Transfer(msg.sender, to, value);\r\n        return true;\r\n    }\r\n\r\n    // token\r\n    function freezeToken(string memory symbol, uint256 value)\r\n        internal\r\n        returns (bool)\r\n    {\r\n        getLocationOfToken(symbol);\r\n        // require(isExisted, \"The token is not existed\");\r\n        require(\r\n            value <= getTokenBalance(symbol, msg.sender),\r\n            \"The token is not enough !\"\r\n        );\r\n        balance[msg.sender][symbol] = balance[msg.sender][symbol].sub(value);\r\n        balance[ice][symbol] = balance[ice][symbol].add(value);\r\n        emit Transfer(msg.sender, ice, value);\r\n        return true;\r\n    }\r\n\r\n    // token\r\n    function unfreezeToken(string memory symbol, uint256 value)\r\n        internal\r\n        returns (bool)\r\n    {\r\n        getLocationOfToken(symbol);\r\n        // require(isExisted, \"The token is not existed\");\r\n        balance[ice][symbol] = balance[ice][symbol].sub(value);\r\n        balance[msg.sender][symbol] = balance[msg.sender][symbol].add(value);\r\n        emit Transfer(ice, msg.sender, value);\r\n        return true;\r\n    }\r\n}\r\n\r\n// ===========================================================================\r\n\r\ncontract TradingSystem is IvilWorld {\r\n    using SafeMath for uint256;\r\n    // using StringUtils for string;\r\n\r\n    struct Transaction {\r\n        address sender; //\r\n        string symbol; //\r\n        uint256 value; //\r\n        uint256 price; //\r\n        bool status; //\r\n        uint256 index; //\r\n    }\r\n    // mapping(uint256 => Transaction) private tradingPool; //\r\n    Transaction[] private tradingPool;\r\n    // Transaction[] private transactions; //\r\n    mapping(address => Transaction[]) personalPool; //\r\n\r\n    uint256 private counter = 0;\r\n\r\n    address private root; //\r\n\r\n    constructor() {\r\n        root = msg.sender;\r\n    }\r\n\r\n    // \r\n    function depthOfPool() public view returns (uint256) {\r\n        return counter;\r\n    }\r\n\r\n    // \r\n    function transactionsOfPool() public view returns (Transaction[] memory) {\r\n        return tradingPool;\r\n    }\r\n\r\n    // \r\n    function getPersonalPool() public view returns (Transaction[] memory) {\r\n        return personalPool[msg.sender];\r\n    }\r\n\r\n    // \r\n    function getDealFromPersonalPool(uint256 index, address who)\r\n        internal\r\n        view\r\n        returns (uint256, bool)\r\n    {\r\n        for (uint256 i; i < personalPool[who].length; i++) {\r\n            if (personalPool[who][i].index == index) {\r\n                return (i, true);\r\n            }\r\n        }\r\n        require(false, \"The transaction is not existed !\");\r\n        return (0, false);\r\n    }\r\n\r\n    // \r\n    function sell(\r\n        string memory symbol,\r\n        uint256 value,\r\n        uint256 price\r\n    ) public {\r\n        getLocationOfToken(symbol);\r\n        // require(isExisted, \"The token is not existed !\");\r\n        require(\r\n            value <= getTokenBalance(symbol, msg.sender),\r\n            \"The token is not enough !\"\r\n        );\r\n        Transaction memory deal = Transaction(\r\n            msg.sender,\r\n            symbol,\r\n            value,\r\n            price,\r\n            false,\r\n            counter //0\r\n        );\r\n        tradingPool.push(deal);\r\n        personalPool[msg.sender].push(deal);\r\n        freezeToken(symbol, value);\r\n        counter++;\r\n    }\r\n\r\n    // \r\n    function cancelSell(uint256 index) public {\r\n        require(index <= counter, \"The transaction is not existed !\");\r\n        require(\r\n            tradingPool[index].status == false,\r\n            \"The transaction has already been completed !\"\r\n        );\r\n        require(msg.sender == tradingPool[index].sender);\r\n        unfreezeToken(tradingPool[index].symbol, tradingPool[index].value);\r\n        tradingPool[index].status = true;\r\n\r\n        (uint256 i, ) = getDealFromPersonalPool(index, msg.sender);\r\n        // require(isExisted, \"you does not have this transaction !\");\r\n        personalPool[msg.sender][i].status = true;\r\n    }\r\n\r\n    // \r\n    function buy(uint256 index) public {\r\n        require(\r\n            tradingPool[index].sender != msg.sender,\r\n            \"You can not buy your product !\"\r\n        );\r\n        require(index <= counter, \"The transaction is not existed !\");\r\n        require(\r\n            tradingPool[index].status == false,\r\n            \"The transaction has already been completed !\"\r\n        );\r\n        transfer(tradingPool[index].sender, tradingPool[index].price);\r\n        unfreezeToken(tradingPool[index].symbol, tradingPool[index].value);\r\n        tradingPool[index].status = true;\r\n\r\n        personalPool[msg.sender].push(tradingPool[index]);\r\n\r\n        // \r\n        (uint256 i, ) = getDealFromPersonalPool(\r\n            index,\r\n            tradingPool[index].sender\r\n        );\r\n        personalPool[tradingPool[index].sender][i].status = true;\r\n    }\r\n}\r\n",
  "sourcePath": "E:\\Project\\Blockchain\\TradingSystemBasedOnBlockchain\\smart_contract\\contracts\\TradingSystem.sol",
  "compiler": {
    "name": "solc",
    "version": "0.8.12+commit.f00d7308.Emscripten.clang"
  },
  "schemaVersion": "3.4.7",
  "updatedAt": "2022-05-03T13:34:51.593Z",
  "devdoc": {
    "kind": "dev",
    "methods": {},
    "version": 1
  },
  "userdoc": {
    "kind": "user",
    "methods": {},
    "version": 1
  }
}