{
  "contractName": "IvilWorld",
  "abi": [
    {
      "inputs": [],
      "stateMutability": "nonpayable",
      "type": "constructor"
    },
    {
      "anonymous": false,
      "inputs": [
        {
          "indexed": true,
          "internalType": "address",
          "name": "owner",
          "type": "address"
        },
        {
          "indexed": true,
          "internalType": "address",
          "name": "spender",
          "type": "address"
        },
        {
          "indexed": false,
          "internalType": "uint256",
          "name": "value",
          "type": "uint256"
        }
      ],
      "name": "Approval",
      "type": "event"
    },
    {
      "anonymous": false,
      "inputs": [
        {
          "indexed": true,
          "internalType": "address",
          "name": "from",
          "type": "address"
        },
        {
          "indexed": true,
          "internalType": "address",
          "name": "to",
          "type": "address"
        },
        {
          "indexed": false,
          "internalType": "uint256",
          "name": "value",
          "type": "uint256"
        }
      ],
      "name": "Transfer",
      "type": "event"
    },
    {
      "inputs": [
        {
          "internalType": "address",
          "name": "owner",
          "type": "address"
        },
        {
          "internalType": "address",
          "name": "spender",
          "type": "address"
        }
      ],
      "name": "allowance",
      "outputs": [
        {
          "internalType": "uint256",
          "name": "",
          "type": "uint256"
        }
      ],
      "stateMutability": "view",
      "type": "function"
    },
    {
      "inputs": [
        {
          "internalType": "address",
          "name": "spender",
          "type": "address"
        },
        {
          "internalType": "uint256",
          "name": "value",
          "type": "uint256"
        }
      ],
      "name": "approve",
      "outputs": [
        {
          "internalType": "bool",
          "name": "",
          "type": "bool"
        }
      ],
      "stateMutability": "nonpayable",
      "type": "function"
    },
    {
      "inputs": [
        {
          "internalType": "address",
          "name": "owner",
          "type": "address"
        }
      ],
      "name": "balanceOf",
      "outputs": [
        {
          "internalType": "uint256",
          "name": "",
          "type": "uint256"
        }
      ],
      "stateMutability": "view",
      "type": "function"
    },
    {
      "inputs": [
        {
          "internalType": "uint256",
          "name": "value",
          "type": "uint256"
        }
      ],
      "name": "createIVIL",
      "outputs": [
        {
          "internalType": "bool",
          "name": "",
          "type": "bool"
        }
      ],
      "stateMutability": "nonpayable",
      "type": "function"
    },
    {
      "inputs": [],
      "name": "decimals",
      "outputs": [
        {
          "internalType": "uint8",
          "name": "",
          "type": "uint8"
        }
      ],
      "stateMutability": "view",
      "type": "function"
    },
    {
      "inputs": [
        {
          "internalType": "uint256",
          "name": "value",
          "type": "uint256"
        }
      ],
      "name": "destoryIVIL",
      "outputs": [
        {
          "internalType": "bool",
          "name": "",
          "type": "bool"
        }
      ],
      "stateMutability": "nonpayable",
      "type": "function"
    },
    {
      "inputs": [],
      "name": "name",
      "outputs": [
        {
          "internalType": "string",
          "name": "",
          "type": "string"
        }
      ],
      "stateMutability": "view",
      "type": "function"
    },
    {
      "inputs": [],
      "name": "symbol",
      "outputs": [
        {
          "internalType": "string",
          "name": "",
          "type": "string"
        }
      ],
      "stateMutability": "view",
      "type": "function"
    },
    {
      "inputs": [],
      "name": "totalSupply",
      "outputs": [
        {
          "internalType": "uint256",
          "name": "",
          "type": "uint256"
        }
      ],
      "stateMutability": "view",
      "type": "function"
    },
    {
      "inputs": [
        {
          "internalType": "address",
          "name": "to",
          "type": "address"
        },
        {
          "internalType": "uint256",
          "name": "value",
          "type": "uint256"
        }
      ],
      "name": "transfer",
      "outputs": [
        {
          "internalType": "bool",
          "name": "",
          "type": "bool"
        }
      ],
      "stateMutability": "nonpayable",
      "type": "function"
    },
    {
      "inputs": [
        {
          "internalType": "address",
          "name": "from",
          "type": "address"
        },
        {
          "internalType": "address",
          "name": "to",
          "type": "address"
        },
        {
          "internalType": "uint256",
          "name": "value",
          "type": "uint256"
        }
      ],
      "name": "transferFrom",
      "outputs": [
        {
          "internalType": "bool",
          "name": "",
          "type": "bool"
        }
      ],
      "stateMutability": "nonpayable",
      "type": "function"
    },
    {
      "inputs": [
        {
          "internalType": "string",
          "name": "name",
          "type": "string"
        },
        {
          "internalType": "string",
          "name": "symbol",
          "type": "string"
        },
        {
          "internalType": "uint8",
          "name": "decimals",
          "type": "uint8"
        },
        {
          "internalType": "uint256",
          "name": "total",
          "type": "uint256"
        }
      ],
      "name": "createToken",
      "outputs": [
        {
          "components": [
            {
              "internalType": "string",
              "name": "name",
              "type": "string"
            },
            {
              "internalType": "string",
              "name": "symbol",
              "type": "string"
            },
            {
              "internalType": "uint8",
              "name": "decimals",
              "type": "uint8"
            },
            {
              "internalType": "uint256",
              "name": "totalSupply",
              "type": "uint256"
            }
          ],
          "internalType": "struct IvilWorld.Token[]",
          "name": "",
          "type": "tuple[]"
        }
      ],
      "stateMutability": "nonpayable",
      "type": "function"
    },
    {
      "inputs": [
        {
          "internalType": "string",
          "name": "symbol",
          "type": "string"
        }
      ],
      "name": "destoryToken",
      "outputs": [
        {
          "components": [
            {
              "internalType": "string",
              "name": "name",
              "type": "string"
            },
            {
              "internalType": "string",
              "name": "symbol",
              "type": "string"
            },
            {
              "internalType": "uint8",
              "name": "decimals",
              "type": "uint8"
            },
            {
              "internalType": "uint256",
              "name": "totalSupply",
              "type": "uint256"
            }
          ],
          "internalType": "struct IvilWorld.Token[]",
          "name": "",
          "type": "tuple[]"
        }
      ],
      "stateMutability": "nonpayable",
      "type": "function"
    },
    {
      "inputs": [
        {
          "internalType": "string",
          "name": "symbol",
          "type": "string"
        },
        {
          "internalType": "uint256",
          "name": "value",
          "type": "uint256"
        }
      ],
      "name": "increaseToken",
      "outputs": [],
      "stateMutability": "nonpayable",
      "type": "function"
    },
    {
      "inputs": [
        {
          "internalType": "string",
          "name": "symbol",
          "type": "string"
        },
        {
          "internalType": "uint256",
          "name": "value",
          "type": "uint256"
        }
      ],
      "name": "decreaseToken",
      "outputs": [],
      "stateMutability": "nonpayable",
      "type": "function"
    },
    {
      "inputs": [
        {
          "internalType": "string",
          "name": "symbol",
          "type": "string"
        }
      ],
      "name": "getTokenInfo",
      "outputs": [
        {
          "components": [
            {
              "internalType": "string",
              "name": "name",
              "type": "string"
            },
            {
              "internalType": "string",
              "name": "symbol",
              "type": "string"
            },
            {
              "internalType": "uint8",
              "name": "decimals",
              "type": "uint8"
            },
            {
              "internalType": "uint256",
              "name": "totalSupply",
              "type": "uint256"
            }
          ],
          "internalType": "struct IvilWorld.Token",
          "name": "",
          "type": "tuple"
        }
      ],
      "stateMutability": "view",
      "type": "function"
    },
    {
      "inputs": [],
      "name": "getAllTokensInfo",
      "outputs": [
        {
          "components": [
            {
              "internalType": "string",
              "name": "name",
              "type": "string"
            },
            {
              "internalType": "string",
              "name": "symbol",
              "type": "string"
            },
            {
              "internalType": "uint8",
              "name": "decimals",
              "type": "uint8"
            },
            {
              "internalType": "uint256",
              "name": "totalSupply",
              "type": "uint256"
            }
          ],
          "internalType": "struct IvilWorld.Token[]",
          "name": "",
          "type": "tuple[]"
        }
      ],
      "stateMutability": "view",
      "type": "function"
    },
    {
      "inputs": [
        {
          "internalType": "string",
          "name": "symbol",
          "type": "string"
        }
      ],
      "name": "getTokenBalance",
      "outputs": [
        {
          "internalType": "uint256",
          "name": "",
          "type": "uint256"
        }
      ],
      "stateMutability": "view",
      "type": "function"
    },
    {
      "inputs": [
        {
          "internalType": "string",
          "name": "symbol",
          "type": "string"
        },
        {
          "internalType": "address",
          "name": "to",
          "type": "address"
        },
        {
          "internalType": "uint256",
          "name": "value",
          "type": "uint256"
        }
      ],
      "name": "transferToken",
      "outputs": [
        {
          "internalType": "bool",
          "name": "",
          "type": "bool"
        }
      ],
      "stateMutability": "nonpayable",
      "type": "function"
    }
  ],
  "bytecode": "0x60806040526040518060400160405280600a81526020017f6976696c2e776f726c64000000000000000000000000000000000000000000008152506000908051906020019062000051929190620004b7565b506040518060400160405280600481526020017f4956494c00000000000000000000000000000000000000000000000000000000815250600190805190602001906200009f929190620004b7565b506000600260006101000a81548160ff021916908360ff1602179055506301406f4060035560405180608001604052806040518060400160405280600a81526020017f6976696c2e776f726c640000000000000000000000000000000000000000000081525081526020016040518060400160405280600481526020017f4956494c000000000000000000000000000000000000000000000000000000008152508152602001600960ff1681526020016301406f40815250600b600082015181600001908051906020019062000177929190620004b7565b50602082015181600101908051906020019062000196929190620004b7565b5060408201518160020160006101000a81548160ff021916908360ff160217905550606082015181600301555050348015620001d157600080fd5b5033600660006101000a81548173ffffffffffffffffffffffffffffffffffffffff021916908373ffffffffffffffffffffffffffffffffffffffff1602179055506200026e600354600460003373ffffffffffffffffffffffffffffffffffffffff1673ffffffffffffffffffffffffffffffffffffffff168152602001908152602001600020546200048c60201b62002d391790919060201c565b600460003373ffffffffffffffffffffffffffffffffffffffff1673ffffffffffffffffffffffffffffffffffffffff1681526020019081526020016000208190555033600860006101000a81548173ffffffffffffffffffffffffffffffffffffffff021916908373ffffffffffffffffffffffffffffffffffffffff160217905550600a600b9080600181540180825580915050600190039060005260206000209060040201600090919091909150600082018160000190805462000335906200062e565b6200034292919062000548565b50600182018160010190805462000359906200062e565b6200036692919062000548565b506002820160009054906101000a900460ff168160020160006101000a81548160ff021916908360ff16021790555060038201548160030155505062000421600b60030154600960003373ffffffffffffffffffffffffffffffffffffffff1673ffffffffffffffffffffffffffffffffffffffff168152602001908152602001600020600b600101604051620003fe91906200070f565b9081526020016040518091039020546200048c60201b62002d391790919060201c565b600960003373ffffffffffffffffffffffffffffffffffffffff1673ffffffffffffffffffffffffffffffffffffffff168152602001908152602001600020600b6001016040516200047491906200070f565b908152602001604051809103902081905550620007be565b60008082846200049d919062000761565b905083811015620004ad57600080fd5b8091505092915050565b828054620004c5906200062e565b90600052602060002090601f016020900481019282620004e9576000855562000535565b82601f106200050457805160ff191683800117855562000535565b8280016001018555821562000535579182015b828111156200053457825182559160200191906001019062000517565b5b509050620005449190620005e0565b5090565b82805462000556906200062e565b90600052602060002090601f0160209004810192826200057a5760008555620005cd565b82601f106200058d5780548555620005cd565b82800160010185558215620005cd57600052602060002091601f016020900482015b82811115620005cc578254825591600101919060010190620005af565b5b509050620005dc9190620005e0565b5090565b5b80821115620005fb576000816000905550600101620005e1565b5090565b7f4e487b7100000000000000000000000000000000000000000000000000000000600052602260045260246000fd5b600060028204905060018216806200064757607f821691505b602082108114156200065e576200065d620005ff565b5b50919050565b600081905092915050565b60008190508160005260206000209050919050565b6000815462000693816200062e565b6200069f818662000664565b94506001821660008114620006bd5760018114620006cf5762000706565b60ff1983168652818601935062000706565b620006da856200066f565b60005b83811015620006fe57815481890152600182019150602081019050620006dd565b838801955050505b50505092915050565b60006200071d828462000684565b915081905092915050565b6000819050919050565b7f4e487b7100000000000000000000000000000000000000000000000000000000600052601160045260246000fd5b60006200076e8262000728565b91506200077b8362000728565b9250827fffffffffffffffffffffffffffffffffffffffffffffffffffffffffffffffff03821115620007b357620007b262000732565b5b828201905092915050565b61423780620007ce6000396000f3fe608060405234801561001057600080fd5b50600436106101215760003560e01c80638e0ad1cc116100ad578063bc43c02011610071578063bc43c0201461036c578063c5d590161461039c578063c8f956a6146103b8578063dd62ed3e146103d4578063ee91035e1461040457610121565b80638e0ad1cc146102a05780639293848c146102d057806395d89b41146103005780639a24a25b1461031e578063a9059cbb1461033c57610121565b806318160ddd116100f457806318160ddd146101d4578063210f5dda146101f257806323b872dd14610222578063313ce5671461025257806370a082311461027057610121565b8063025abd581461012657806306fdde0314610156578063095ea7b3146101745780630bb5a4e0146101a4575b600080fd5b610140600480360381019061013b919061330b565b610434565b60405161014d919061336d565b60405180910390f35b61015e6104e7565b60405161016b9190613410565b60405180910390f35b61018e600480360381019061018991906134bc565b610579565b60405161019b9190613517565b60405180910390f35b6101be60048036038101906101b99190613532565b6106a4565b6040516101cb9190613517565b60405180910390f35b6101dc610871565b6040516101e9919061336d565b60405180910390f35b61020c60048036038101906102079190613598565b61087b565b60405161021991906137cb565b60405180910390f35b61023c600480360381019061023791906137ed565b610fee565b6040516102499190613517565b60405180910390f35b61025a6113a8565b604051610267919061384f565b60405180910390f35b61028a6004803603810190610285919061386a565b6113bf565b604051610297919061336d565b60405180910390f35b6102ba60048036038101906102b5919061330b565b611408565b6040516102c79190613901565b60405180910390f35b6102ea60048036038101906102e59190613532565b6115e1565b6040516102f79190613517565b60405180910390f35b61030861172c565b6040516103159190613410565b60405180910390f35b6103266117be565b60405161033391906137cb565b60405180910390f35b610356600480360381019061035191906134bc565b611968565b6040516103639190613517565b60405180910390f35b6103866004803603810190610381919061330b565b611b89565b60405161039391906137cb565b60405180910390f35b6103b660048036038101906103b19190613923565b61250d565b005b6103d260048036038101906103cd9190613923565b612721565b005b6103ee60048036038101906103e9919061397f565b6129d3565b6040516103fb919061336d565b60405180910390f35b61041e600480360381019061041991906139bf565b612a5a565b60405161042b9190613517565b60405180910390f35b60008061044083612d61565b91505080610483576040517f08c379a000000000000000000000000000000000000000000000000000000000815260040161047a90613a7a565b60405180910390fd5b600960003373ffffffffffffffffffffffffffffffffffffffff1673ffffffffffffffffffffffffffffffffffffffff168152602001908152602001600020836040516104d09190613ad6565b908152602001604051809103902054915050919050565b6060600080546104f690613b1c565b80601f016020809104026020016040519081016040528092919081815260200182805461052290613b1c565b801561056f5780601f106105445761010080835404028352916020019161056f565b820191906000526020600020905b81548152906001019060200180831161055257829003601f168201915b5050505050905090565b60008073ffffffffffffffffffffffffffffffffffffffff168373ffffffffffffffffffffffffffffffffffffffff1614156105b457600080fd5b81600560003373ffffffffffffffffffffffffffffffffffffffff1673ffffffffffffffffffffffffffffffffffffffff16815260200190815260200160002060008573ffffffffffffffffffffffffffffffffffffffff1673ffffffffffffffffffffffffffffffffffffffff168152602001908152602001600020819055508273ffffffffffffffffffffffffffffffffffffffff163373ffffffffffffffffffffffffffffffffffffffff167f8c5be1e5ebec7d5bd14f71427d1e84f3dd0314c0f7b2291e5b200ac8c7c3b92584604051610692919061336d565b60405180910390a36001905092915050565b6000600660009054906101000a900473ffffffffffffffffffffffffffffffffffffffff1673ffffffffffffffffffffffffffffffffffffffff163373ffffffffffffffffffffffffffffffffffffffff1614610736576040517f08c379a000000000000000000000000000000000000000000000000000000000815260040161072d90613b9a565b60405180910390fd5b81600460003373ffffffffffffffffffffffffffffffffffffffff1673ffffffffffffffffffffffffffffffffffffffff1681526020019081526020016000205410156107b8576040517f08c379a00000000000000000000000000000000000000000000000000000000081526004016107af90613c06565b60405180910390fd5b61080a82600460003373ffffffffffffffffffffffffffffffffffffffff1673ffffffffffffffffffffffffffffffffffffffff16815260200190815260200160002054612ea890919063ffffffff16565b600460003373ffffffffffffffffffffffffffffffffffffffff1673ffffffffffffffffffffffffffffffffffffffff1681526020019081526020016000208190555061086282600354612ea890919063ffffffff16565b60038190555060019050919050565b6000600354905090565b6060600860009054906101000a900473ffffffffffffffffffffffffffffffffffffffff1673ffffffffffffffffffffffffffffffffffffffff163373ffffffffffffffffffffffffffffffffffffffff161461090d576040517f08c379a000000000000000000000000000000000000000000000000000000000815260040161090490613c72565b60405180910390fd5b6000805b600a80549050811015610ca9576109de87600a838154811061093657610935613c92565b5b9060005260206000209060040201600001805461095290613b1c565b80601f016020809104026020016040519081016040528092919081815260200182805461097e90613b1c565b80156109cb5780601f106109a0576101008083540402835291602001916109cb565b820191906000526020600020905b8154815290600101906020018083116109ae57829003601f168201915b5050505050612ed190919063ffffffff16565b80610aa55750610aa486600a83815481106109fc576109fb613c92565b5b90600052602060002090600402016001018054610a1890613b1c565b80601f0160208091040260200160405190810160405280929190818152602001828054610a4490613b1c565b8015610a915780601f10610a6657610100808354040283529160200191610a91565b820191906000526020600020905b815481529060010190602001808311610a7457829003601f168201915b5050505050612ed190919063ffffffff16565b5b15610c965781610aea576040517f08c379a0000000000000000000000000000000000000000000000000000000008152600401610ae190613d59565b60405180910390fd5b600a805480602002602001604051908101604052809291908181526020016000905b82821015610c895783829060005260206000209060040201604051806080016040529081600082018054610b3f90613b1c565b80601f0160208091040260200160405190810160405280929190818152602001828054610b6b90613b1c565b8015610bb85780601f10610b8d57610100808354040283529160200191610bb8565b820191906000526020600020905b815481529060010190602001808311610b9b57829003601f168201915b50505050508152602001600182018054610bd190613b1c565b80601f0160208091040260200160405190810160405280929190818152602001828054610bfd90613b1c565b8015610c4a5780601f10610c1f57610100808354040283529160200191610c4a565b820191906000526020600020905b815481529060010190602001808311610c2d57829003601f168201915b505050505081526020016002820160009054906101000a900460ff1660ff1660ff16815260200160038201548152505081526020019060010190610b0c565b5050505092505050610fe6565b8080610ca190613da8565b915050610911565b50600060405180608001604052808881526020018781526020018660ff168152602001858152509050600a8190806001815401808255809150506001900390600052602060002090600402016000909190919091506000820151816000019080519060200190610d1a929190612f9f565b506020820151816001019080519060200190610d37929190612f9f565b5060408201518160020160006101000a81548160ff021916908360ff160217905550606082015181600301555050610ddb8160600151600960003373ffffffffffffffffffffffffffffffffffffffff1673ffffffffffffffffffffffffffffffffffffffff1681526020019081526020016000208360200151604051610dbe9190613ad6565b908152602001604051809103902054612d3990919063ffffffff16565b600960003373ffffffffffffffffffffffffffffffffffffffff1673ffffffffffffffffffffffffffffffffffffffff1681526020019081526020016000208260200151604051610e2c9190613ad6565b908152602001604051809103902081905550600a805480602002602001604051908101604052809291908181526020016000905b82821015610fdd5783829060005260206000209060040201604051806080016040529081600082018054610e9390613b1c565b80601f0160208091040260200160405190810160405280929190818152602001828054610ebf90613b1c565b8015610f0c5780601f10610ee157610100808354040283529160200191610f0c565b820191906000526020600020905b815481529060010190602001808311610eef57829003601f168201915b50505050508152602001600182018054610f2590613b1c565b80601f0160208091040260200160405190810160405280929190818152602001828054610f5190613b1c565b8015610f9e5780601f10610f7357610100808354040283529160200191610f9e565b820191906000526020600020905b815481529060010190602001808311610f8157829003601f168201915b505050505081526020016002820160009054906101000a900460ff1660ff1660ff16815260200160038201548152505081526020019060010190610e60565b50505050925050505b949350505050565b6000600460008573ffffffffffffffffffffffffffffffffffffffff1673ffffffffffffffffffffffffffffffffffffffff1681526020019081526020016000205482111561103c57600080fd5b600560008573ffffffffffffffffffffffffffffffffffffffff1673ffffffffffffffffffffffffffffffffffffffff16815260200190815260200160002060003373ffffffffffffffffffffffffffffffffffffffff1673ffffffffffffffffffffffffffffffffffffffff168152602001908152602001600020548211156110c557600080fd5b600073ffffffffffffffffffffffffffffffffffffffff168373ffffffffffffffffffffffffffffffffffffffff1614156110ff57600080fd5b61115182600460008773ffffffffffffffffffffffffffffffffffffffff1673ffffffffffffffffffffffffffffffffffffffff16815260200190815260200160002054612ea890919063ffffffff16565b600460008673ffffffffffffffffffffffffffffffffffffffff1673ffffffffffffffffffffffffffffffffffffffff168152602001908152602001600020819055506111e682600460008673ffffffffffffffffffffffffffffffffffffffff1673ffffffffffffffffffffffffffffffffffffffff16815260200190815260200160002054612d3990919063ffffffff16565b600460008573ffffffffffffffffffffffffffffffffffffffff1673ffffffffffffffffffffffffffffffffffffffff168152602001908152602001600020819055506112b882600560008773ffffffffffffffffffffffffffffffffffffffff1673ffffffffffffffffffffffffffffffffffffffff16815260200190815260200160002060003373ffffffffffffffffffffffffffffffffffffffff1673ffffffffffffffffffffffffffffffffffffffff16815260200190815260200160002054612ea890919063ffffffff16565b600560008673ffffffffffffffffffffffffffffffffffffffff1673ffffffffffffffffffffffffffffffffffffffff16815260200190815260200160002060003373ffffffffffffffffffffffffffffffffffffffff1673ffffffffffffffffffffffffffffffffffffffff168152602001908152602001600020819055508273ffffffffffffffffffffffffffffffffffffffff168473ffffffffffffffffffffffffffffffffffffffff167fddf252ad1be2c89b69c2b068fc378daa952ba7f163c4a11628f55a4df523b3ef84604051611395919061336d565b60405180910390a3600190509392505050565b6000600260009054906101000a900460ff16905090565b6000600460008373ffffffffffffffffffffffffffffffffffffffff1673ffffffffffffffffffffffffffffffffffffffff168152602001908152602001600020549050919050565b611410613025565b60008061141c84612d61565b9150915080611460576040517f08c379a000000000000000000000000000000000000000000000000000000000815260040161145790613a7a565b60405180910390fd5b600a828154811061147457611473613c92565b5b906000526020600020906004020160405180608001604052908160008201805461149d90613b1c565b80601f01602080910402602001604051908101604052809291908181526020018280546114c990613b1c565b80156115165780601f106114eb57610100808354040283529160200191611516565b820191906000526020600020905b8154815290600101906020018083116114f957829003601f168201915b5050505050815260200160018201805461152f90613b1c565b80601f016020809104026020016040519081016040528092919081815260200182805461155b90613b1c565b80156115a85780601f1061157d576101008083540402835291602001916115a8565b820191906000526020600020905b81548152906001019060200180831161158b57829003601f168201915b505050505081526020016002820160009054906101000a900460ff1660ff1660ff16815260200160038201548152505092505050919050565b6000600660009054906101000a900473ffffffffffffffffffffffffffffffffffffffff1673ffffffffffffffffffffffffffffffffffffffff163373ffffffffffffffffffffffffffffffffffffffff1614611673576040517f08c379a000000000000000000000000000000000000000000000000000000000815260040161166a90613e3d565b60405180910390fd5b6116c582600460003373ffffffffffffffffffffffffffffffffffffffff1673ffffffffffffffffffffffffffffffffffffffff16815260200190815260200160002054612d3990919063ffffffff16565b600460003373ffffffffffffffffffffffffffffffffffffffff1673ffffffffffffffffffffffffffffffffffffffff1681526020019081526020016000208190555061171d82600354612d3990919063ffffffff16565b60038190555060019050919050565b60606001805461173b90613b1c565b80601f016020809104026020016040519081016040528092919081815260200182805461176790613b1c565b80156117b45780601f10611789576101008083540402835291602001916117b4565b820191906000526020600020905b81548152906001019060200180831161179757829003601f168201915b5050505050905090565b6060600a805480602002602001604051908101604052809291908181526020016000905b8282101561195f578382906000526020600020906004020160405180608001604052908160008201805461181590613b1c565b80601f016020809104026020016040519081016040528092919081815260200182805461184190613b1c565b801561188e5780601f106118635761010080835404028352916020019161188e565b820191906000526020600020905b81548152906001019060200180831161187157829003601f168201915b505050505081526020016001820180546118a790613b1c565b80601f01602080910402602001604051908101604052809291908181526020018280546118d390613b1c565b80156119205780601f106118f557610100808354040283529160200191611920565b820191906000526020600020905b81548152906001019060200180831161190357829003601f168201915b505050505081526020016002820160009054906101000a900460ff1660ff1660ff168152602001600382015481525050815260200190600101906117e2565b50505050905090565b6000600460003373ffffffffffffffffffffffffffffffffffffffff1673ffffffffffffffffffffffffffffffffffffffff168152602001908152602001600020548211156119b657600080fd5b600073ffffffffffffffffffffffffffffffffffffffff168373ffffffffffffffffffffffffffffffffffffffff1614156119f057600080fd5b611a4282600460003373ffffffffffffffffffffffffffffffffffffffff1673ffffffffffffffffffffffffffffffffffffffff16815260200190815260200160002054612ea890919063ffffffff16565b600460003373ffffffffffffffffffffffffffffffffffffffff1673ffffffffffffffffffffffffffffffffffffffff16815260200190815260200160002081905550611ad782600460008673ffffffffffffffffffffffffffffffffffffffff1673ffffffffffffffffffffffffffffffffffffffff16815260200190815260200160002054612d3990919063ffffffff16565b600460008573ffffffffffffffffffffffffffffffffffffffff1673ffffffffffffffffffffffffffffffffffffffff168152602001908152602001600020819055508273ffffffffffffffffffffffffffffffffffffffff163373ffffffffffffffffffffffffffffffffffffffff167fddf252ad1be2c89b69c2b068fc378daa952ba7f163c4a11628f55a4df523b3ef84604051611b77919061336d565b60405180910390a36001905092915050565b6060600860009054906101000a900473ffffffffffffffffffffffffffffffffffffffff1673ffffffffffffffffffffffffffffffffffffffff163373ffffffffffffffffffffffffffffffffffffffff1614611c1b576040517f08c379a0000000000000000000000000000000000000000000000000000000008152600401611c1290613c72565b60405180910390fd5b611c636040518060400160405280600481526020017f4956494c0000000000000000000000000000000000000000000000000000000081525083612ed190919063ffffffff16565b15611ca3576040517f08c379a0000000000000000000000000000000000000000000000000000000008152600401611c9a90613ea9565b60405180910390fd5b6000805b600a8054905081101561232057611d7484600a8381548110611ccc57611ccb613c92565b5b90600052602060002090600402016001018054611ce890613b1c565b80601f0160208091040260200160405190810160405280929190818152602001828054611d1490613b1c565b8015611d615780601f10611d3657610100808354040283529160200191611d61565b820191906000526020600020905b815481529060010190602001808311611d4457829003601f168201915b5050505050612ed190919063ffffffff16565b1561230d57600a8181548110611d8d57611d8c613c92565b5b906000526020600020906004020160008082016000611dac9190613050565b600182016000611dbc9190613050565b6002820160006101000a81549060ff0219169055600382016000905550505b600a80549050600182611dee9190613ec9565b1015611ed257600a600182611e039190613ec9565b81548110611e1457611e13613c92565b5b9060005260206000209060040201600a8281548110611e3657611e35613c92565b5b90600052602060002090600402016000820181600001908054611e5890613b1c565b611e63929190613090565b506001820181600101908054611e7890613b1c565b611e83929190613090565b506002820160009054906101000a900460ff168160020160006101000a81548160ff021916908360ff160217905550600382015481600301559050508080611eca90613da8565b915050611ddb565b6060600a805480602002602001604051908101604052809291908181526020016000905b828210156120735783829060005260206000209060040201604051806080016040529081600082018054611f2990613b1c565b80601f0160208091040260200160405190810160405280929190818152602001828054611f5590613b1c565b8015611fa25780601f10611f7757610100808354040283529160200191611fa2565b820191906000526020600020905b815481529060010190602001808311611f8557829003601f168201915b50505050508152602001600182018054611fbb90613b1c565b80601f0160208091040260200160405190810160405280929190818152602001828054611fe790613b1c565b80156120345780601f1061200957610100808354040283529160200191612034565b820191906000526020600020905b81548152906001019060200180831161201757829003601f168201915b505050505081526020016002820160009054906101000a900460ff1660ff1660ff16815260200160038201548152505081526020019060010190611ef6565b505050509050600a6000612087919061311d565b60005b600182516120989190613f1f565b81101561215f57600a8282815181106120b4576120b3613c92565b5b602002602001015190806001815401808255809150506001900390600052602060002090600402016000909190919091506000820151816000019080519060200190612101929190612f9f565b50602082015181600101908051906020019061211e929190612f9f565b5060408201518160020160006101000a81548160ff021916908360ff160217905550606082015181600301555050808061215790613da8565b91505061208a565b50600a805480602002602001604051908101604052809291908181526020016000905b828210156122ff57838290600052602060002090600402016040518060800160405290816000820180546121b590613b1c565b80601f01602080910402602001604051908101604052809291908181526020018280546121e190613b1c565b801561222e5780601f106122035761010080835404028352916020019161222e565b820191906000526020600020905b81548152906001019060200180831161221157829003601f168201915b5050505050815260200160018201805461224790613b1c565b80601f016020809104026020016040519081016040528092919081815260200182805461227390613b1c565b80156122c05780601f10612295576101008083540402835291602001916122c0565b820191906000526020600020905b8154815290600101906020018083116122a357829003601f168201915b505050505081526020016002820160009054906101000a900460ff1660ff1660ff16815260200160038201548152505081526020019060010190612182565b505050509350505050612508565b808061231890613da8565b915050611ca7565b5080612361576040517f08c379a000000000000000000000000000000000000000000000000000000000815260040161235890613f9f565b60405180910390fd5b600a805480602002602001604051908101604052809291908181526020016000905b8282101561250057838290600052602060002090600402016040518060800160405290816000820180546123b690613b1c565b80601f01602080910402602001604051908101604052809291908181526020018280546123e290613b1c565b801561242f5780601f106124045761010080835404028352916020019161242f565b820191906000526020600020905b81548152906001019060200180831161241257829003601f168201915b5050505050815260200160018201805461244890613b1c565b80601f016020809104026020016040519081016040528092919081815260200182805461247490613b1c565b80156124c15780601f10612496576101008083540402835291602001916124c1565b820191906000526020600020905b8154815290600101906020018083116124a457829003601f168201915b505050505081526020016002820160009054906101000a900460ff1660ff1660ff16815260200160038201548152505081526020019060010190612383565b505050509150505b919050565b600860009054906101000a900473ffffffffffffffffffffffffffffffffffffffff1673ffffffffffffffffffffffffffffffffffffffff163373ffffffffffffffffffffffffffffffffffffffff161461259d576040517f08c379a00000000000000000000000000000000000000000000000000000000081526004016125949061400b565b60405180910390fd5b6000806125a984612d61565b91509150806125ed576040517f08c379a00000000000000000000000000000000000000000000000000000000081526004016125e490614077565b60405180910390fd5b61262583600a848154811061260557612604613c92565b5b906000526020600020906004020160030154612d3990919063ffffffff16565b600a838154811061263957612638613c92565b5b9060005260206000209060040201600301819055506126bc83600960003373ffffffffffffffffffffffffffffffffffffffff1673ffffffffffffffffffffffffffffffffffffffff1681526020019081526020016000208660405161269f9190613ad6565b908152602001604051809103902054612d3990919063ffffffff16565b600960003373ffffffffffffffffffffffffffffffffffffffff1673ffffffffffffffffffffffffffffffffffffffff168152602001908152602001600020856040516127099190613ad6565b90815260200160405180910390208190555050505050565b600860009054906101000a900473ffffffffffffffffffffffffffffffffffffffff1673ffffffffffffffffffffffffffffffffffffffff163373ffffffffffffffffffffffffffffffffffffffff16146127b1576040517f08c379a00000000000000000000000000000000000000000000000000000000081526004016127a89061400b565b60405180910390fd5b6000806127bd84612d61565b9150915080612801576040517f08c379a00000000000000000000000000000000000000000000000000000000081526004016127f890614077565b60405180910390fd5b82600960003373ffffffffffffffffffffffffffffffffffffffff1673ffffffffffffffffffffffffffffffffffffffff1681526020019081526020016000208560405161284f9190613ad6565b908152602001604051809103902054101561289f576040517f08c379a000000000000000000000000000000000000000000000000000000000815260040161289690613c06565b60405180910390fd5b6128d783600a84815481106128b7576128b6613c92565b5b906000526020600020906004020160030154612ea890919063ffffffff16565b600a83815481106128eb576128ea613c92565b5b90600052602060002090600402016003018190555061296e83600960003373ffffffffffffffffffffffffffffffffffffffff1673ffffffffffffffffffffffffffffffffffffffff168152602001908152602001600020866040516129519190613ad6565b908152602001604051809103902054612ea890919063ffffffff16565b600960003373ffffffffffffffffffffffffffffffffffffffff1673ffffffffffffffffffffffffffffffffffffffff168152602001908152602001600020856040516129bb9190613ad6565b90815260200160405180910390208190555050505050565b6000600560008473ffffffffffffffffffffffffffffffffffffffff1673ffffffffffffffffffffffffffffffffffffffff16815260200190815260200160002060008373ffffffffffffffffffffffffffffffffffffffff1673ffffffffffffffffffffffffffffffffffffffff16815260200190815260200160002054905092915050565b600080612a6685612d61565b91505080612aa9576040517f08c379a0000000000000000000000000000000000000000000000000000000008152600401612aa0906140e3565b60405180910390fd5b612ab285610434565b831115612af4576040517f08c379a0000000000000000000000000000000000000000000000000000000008152600401612aeb9061414f565b60405180910390fd5b600073ffffffffffffffffffffffffffffffffffffffff168473ffffffffffffffffffffffffffffffffffffffff161415612b2e57600080fd5b612b9c83600960003373ffffffffffffffffffffffffffffffffffffffff1673ffffffffffffffffffffffffffffffffffffffff16815260200190815260200160002087604051612b7f9190613ad6565b908152602001604051809103902054612ea890919063ffffffff16565b600960003373ffffffffffffffffffffffffffffffffffffffff1673ffffffffffffffffffffffffffffffffffffffff16815260200190815260200160002086604051612be99190613ad6565b908152602001604051809103902081905550612c6983600960008773ffffffffffffffffffffffffffffffffffffffff1673ffffffffffffffffffffffffffffffffffffffff16815260200190815260200160002087604051612c4c9190613ad6565b908152602001604051809103902054612d3990919063ffffffff16565b600960008673ffffffffffffffffffffffffffffffffffffffff1673ffffffffffffffffffffffffffffffffffffffff16815260200190815260200160002086604051612cb69190613ad6565b9081526020016040518091039020819055508373ffffffffffffffffffffffffffffffffffffffff163373ffffffffffffffffffffffffffffffffffffffff167fddf252ad1be2c89b69c2b068fc378daa952ba7f163c4a11628f55a4df523b3ef85604051612d25919061336d565b60405180910390a360019150509392505050565b6000808284612d489190613ec9565b905083811015612d5757600080fd5b8091505092915050565b60008060005b600a80549050811015612e5957612e3484600a8381548110612d8c57612d8b613c92565b5b90600052602060002090600402016001018054612da890613b1c565b80601f0160208091040260200160405190810160405280929190818152602001828054612dd490613b1c565b8015612e215780601f10612df657610100808354040283529160200191612e21565b820191906000526020600020905b815481529060010190602001808311612e0457829003601f168201915b5050505050612ed190919063ffffffff16565b15612e46578060019250925050612ea3565b8080612e5190613da8565b915050612d67565b506000612e9b576040517f08c379a0000000000000000000000000000000000000000000000000000000008152600401612e92906141e1565b60405180910390fd5b600080915091505b915091565b600082821115612eb757600080fd5b60008284612ec59190613f1f565b90508091505092915050565b60008151835114612ee55760009050612f99565b60005b8351811015612f9357828181518110612f0457612f03613c92565b5b602001015160f81c60f81b7effffffffffffffffffffffffffffffffffffffffffffffffffffffffffffff1916848281518110612f4457612f43613c92565b5b602001015160f81c60f81b7effffffffffffffffffffffffffffffffffffffffffffffffffffffffffffff191614612f80576000915050612f99565b8080612f8b90613da8565b915050612ee8565b50600190505b92915050565b828054612fab90613b1c565b90600052602060002090601f016020900481019282612fcd5760008555613014565b82601f10612fe657805160ff1916838001178555613014565b82800160010185558215613014579182015b82811115613013578251825591602001919060010190612ff8565b5b5090506130219190613141565b5090565b60405180608001604052806060815260200160608152602001600060ff168152602001600081525090565b50805461305c90613b1c565b6000825580601f1061306e575061308d565b601f01602090049060005260206000209081019061308c9190613141565b5b50565b82805461309c90613b1c565b90600052602060002090601f0160209004810192826130be576000855561310c565b82601f106130cf578054855561310c565b8280016001018555821561310c57600052602060002091601f016020900482015b8281111561310b5782548255916001019190600101906130f0565b5b5090506131199190613141565b5090565b508054600082556004029060005260206000209081019061313e919061315e565b50565b5b8082111561315a576000816000905550600101613142565b5090565b5b808211156131ad57600080820160006131789190613050565b6001820160006131889190613050565b6002820160006101000a81549060ff021916905560038201600090555060040161315f565b5090565b6000604051905090565b600080fd5b600080fd5b600080fd5b600080fd5b6000601f19601f8301169050919050565b7f4e487b7100000000000000000000000000000000000000000000000000000000600052604160045260246000fd5b613218826131cf565b810181811067ffffffffffffffff82111715613237576132366131e0565b5b80604052505050565b600061324a6131b1565b9050613256828261320f565b919050565b600067ffffffffffffffff821115613276576132756131e0565b5b61327f826131cf565b9050602081019050919050565b82818337600083830152505050565b60006132ae6132a98461325b565b613240565b9050828152602081018484840111156132ca576132c96131ca565b5b6132d584828561328c565b509392505050565b600082601f8301126132f2576132f16131c5565b5b813561330284826020860161329b565b91505092915050565b600060208284031215613321576133206131bb565b5b600082013567ffffffffffffffff81111561333f5761333e6131c0565b5b61334b848285016132dd565b91505092915050565b6000819050919050565b61336781613354565b82525050565b6000602082019050613382600083018461335e565b92915050565b600081519050919050565b600082825260208201905092915050565b60005b838110156133c25780820151818401526020810190506133a7565b838111156133d1576000848401525b50505050565b60006133e282613388565b6133ec8185613393565b93506133fc8185602086016133a4565b613405816131cf565b840191505092915050565b6000602082019050818103600083015261342a81846133d7565b905092915050565b600073ffffffffffffffffffffffffffffffffffffffff82169050919050565b600061345d82613432565b9050919050565b61346d81613452565b811461347857600080fd5b50565b60008135905061348a81613464565b92915050565b61349981613354565b81146134a457600080fd5b50565b6000813590506134b681613490565b92915050565b600080604083850312156134d3576134d26131bb565b5b60006134e18582860161347b565b92505060206134f2858286016134a7565b9150509250929050565b60008115159050919050565b613511816134fc565b82525050565b600060208201905061352c6000830184613508565b92915050565b600060208284031215613548576135476131bb565b5b6000613556848285016134a7565b91505092915050565b600060ff82169050919050565b6135758161355f565b811461358057600080fd5b50565b6000813590506135928161356c565b92915050565b600080600080608085870312156135b2576135b16131bb565b5b600085013567ffffffffffffffff8111156135d0576135cf6131c0565b5b6135dc878288016132dd565b945050602085013567ffffffffffffffff8111156135fd576135fc6131c0565b5b613609878288016132dd565b935050604061361a87828801613583565b925050606061362b878288016134a7565b91505092959194509250565b600081519050919050565b600082825260208201905092915050565b6000819050602082019050919050565b600082825260208201905092915050565b600061367f82613388565b6136898185613663565b93506136998185602086016133a4565b6136a2816131cf565b840191505092915050565b6136b68161355f565b82525050565b6136c581613354565b82525050565b600060808301600083015184820360008601526136e88282613674565b915050602083015184820360208601526137028282613674565b915050604083015161371760408601826136ad565b50606083015161372a60608601826136bc565b508091505092915050565b600061374183836136cb565b905092915050565b6000602082019050919050565b600061376182613637565b61376b8185613642565b93508360208202850161377d85613653565b8060005b858110156137b9578484038952815161379a8582613735565b94506137a583613749565b925060208a01995050600181019050613781565b50829750879550505050505092915050565b600060208201905081810360008301526137e58184613756565b905092915050565b600080600060608486031215613806576138056131bb565b5b60006138148682870161347b565b93505060206138258682870161347b565b9250506040613836868287016134a7565b9150509250925092565b6138498161355f565b82525050565b60006020820190506138646000830184613840565b92915050565b6000602082840312156138805761387f6131bb565b5b600061388e8482850161347b565b91505092915050565b600060808301600083015184820360008601526138b48282613674565b915050602083015184820360208601526138ce8282613674565b91505060408301516138e360408601826136ad565b5060608301516138f660608601826136bc565b508091505092915050565b6000602082019050818103600083015261391b8184613897565b905092915050565b6000806040838503121561393a576139396131bb565b5b600083013567ffffffffffffffff811115613958576139576131c0565b5b613964858286016132dd565b9250506020613975858286016134a7565b9150509250929050565b60008060408385031215613996576139956131bb565b5b60006139a48582860161347b565b92505060206139b58582860161347b565b9150509250929050565b6000806000606084860312156139d8576139d76131bb565b5b600084013567ffffffffffffffff8111156139f6576139f56131c0565b5b613a02868287016132dd565b9350506020613a138682870161347b565b9250506040613a24868287016134a7565b9150509250925092565b7f2054686520746f6b656e206973206e6f74206578697374656420212000000000600082015250565b6000613a64601c83613393565b9150613a6f82613a2e565b602082019050919050565b60006020820190508181036000830152613a9381613a57565b9050919050565b600081905092915050565b6000613ab082613388565b613aba8185613a9a565b9350613aca8185602086016133a4565b80840191505092915050565b6000613ae28284613aa5565b915081905092915050565b7f4e487b7100000000000000000000000000000000000000000000000000000000600052602260045260246000fd5b60006002820490506001821680613b3457607f821691505b60208210811415613b4857613b47613aed565b5b50919050565b7f4f6e6c792074686520726f6f742063616e20646573746f727920746f6b656e21600082015250565b6000613b84602083613393565b9150613b8f82613b4e565b602082019050919050565b60006020820190508181036000830152613bb381613b77565b9050919050565b7f496e73756666696369656e742062616c616e6365202100000000000000000000600082015250565b6000613bf0601683613393565b9150613bfb82613bba565b602082019050919050565b60006020820190508181036000830152613c1f81613be3565b9050919050565b7f4f6e6c7920726f6f742063616e206372656174652074686520746f6b656e2021600082015250565b6000613c5c602083613393565b9150613c6782613c26565b602082019050919050565b60006020820190508181036000830152613c8b81613c4f565b9050919050565b7f4e487b7100000000000000000000000000000000000000000000000000000000600052603260045260246000fd5b7f6661696c656420746f2063726561746520746f6b656e202120546865206e616d60008201527f65206f722073796d626f6c2068617320616c726561647920657869737465642060208201527f2100000000000000000000000000000000000000000000000000000000000000604082015250565b6000613d43604183613393565b9150613d4e82613cc1565b606082019050919050565b60006020820190508181036000830152613d7281613d36565b9050919050565b7f4e487b7100000000000000000000000000000000000000000000000000000000600052601160045260246000fd5b6000613db382613354565b91507fffffffffffffffffffffffffffffffffffffffffffffffffffffffffffffffff821415613de657613de5613d79565b5b600182019050919050565b7f4f6e6c792074686520726f6f742063616e2063726561746520746f6b656e2100600082015250565b6000613e27601f83613393565b9150613e3282613df1565b602082019050919050565b60006020820190508181036000830152613e5681613e1a565b9050919050565b7f546865204956494c2069732063616e277420626520646573746f727965642021600082015250565b6000613e93602083613393565b9150613e9e82613e5d565b602082019050919050565b60006020820190508181036000830152613ec281613e86565b9050919050565b6000613ed482613354565b9150613edf83613354565b9250827fffffffffffffffffffffffffffffffffffffffffffffffffffffffffffffffff03821115613f1457613f13613d79565b5b828201905092915050565b6000613f2a82613354565b9150613f3583613354565b925082821015613f4857613f47613d79565b5b828203905092915050565b7f6661696c656420746f2064656c65746520210000000000000000000000000000600082015250565b6000613f89601283613393565b9150613f9482613f53565b602082019050919050565b60006020820190508181036000830152613fb881613f7c565b9050919050565b7f4f6e6c7920726f6f742063616e206164642074686520746f6b656e2021000000600082015250565b6000613ff5601d83613393565b915061400082613fbf565b602082019050919050565b6000602082019050818103600083015261402481613fe8565b9050919050565b7f54686520746f6b656e206973206e6f7420657869737465642021000000000000600082015250565b6000614061601a83613393565b915061406c8261402b565b602082019050919050565b6000602082019050818103600083015261409081614054565b9050919050565b7f54686520746f6b656e206973206e6f7420657869737465640000000000000000600082015250565b60006140cd601883613393565b91506140d882614097565b602082019050919050565b600060208201905081810360008301526140fc816140c0565b9050919050565b7f54686520746f6b656e206973206e6f7420656e6f756768202100000000000000600082015250565b6000614139601983613393565b915061414482614103565b602082019050919050565b600060208201905081810360008301526141688161412c565b9050919050565b7f5468652073706563696669656420746f6b656e20776173206e6f7420666f756e60008201527f6420210000000000000000000000000000000000000000000000000000000000602082015250565b60006141cb602383613393565b91506141d68261416f565b604082019050919050565b600060208201905081810360008301526141fa816141be565b905091905056fea264697066735822122072ffcc8548c60ffe91ad7274b2bbdcd18ab0af6796786df9518f915033eb5d1464736f6c634300080c0033",
  "immutableReferences": {},
  "source": "// SPDX-License-Identifier: GPL-3.0\r\n\r\npragma solidity >=0.4.24;\r\n\r\n/**\r\n * @title \r\n * @dev \r\n */\r\nlibrary SafeMath {\r\n    /**\r\n     * @dev \r\n     */\r\n    function mul(uint256 a, uint256 b) internal pure returns (uint256) {\r\n        if (a == 0) {\r\n            return 0;\r\n        }\r\n\r\n        uint256 c = a * b;\r\n        require(c / a == b);\r\n\r\n        return c;\r\n    }\r\n\r\n    /**\r\n     * @dev \r\n     */\r\n    function div(uint256 a, uint256 b) internal pure returns (uint256) {\r\n        require(b > 0);\r\n        uint256 c = a / b;\r\n\r\n        return c;\r\n    }\r\n\r\n    /**\r\n     * @dev \r\n     */\r\n    function sub(uint256 a, uint256 b) internal pure returns (uint256) {\r\n        require(b <= a);\r\n        uint256 c = a - b;\r\n\r\n        return c;\r\n    }\r\n\r\n    /**\r\n     * @dev \r\n     */\r\n    function add(uint256 a, uint256 b) internal pure returns (uint256) {\r\n        uint256 c = a + b;\r\n        require(c >= a);\r\n\r\n        return c;\r\n    }\r\n\r\n    /**\r\n     * @dev \r\n     */\r\n    function mod(uint256 a, uint256 b) internal pure returns (uint256) {\r\n        require(b != 0);\r\n        return a % b;\r\n    }\r\n}\r\n\r\n/**\r\n *@dev ,\r\n */\r\nlibrary StringUtils {\r\n    function CompareInternal(string memory a, string memory b)\r\n        internal\r\n        pure\r\n        returns (bool)\r\n    {\r\n        if (bytes(a).length != bytes(b).length) {\r\n            return false;\r\n        }\r\n        for (uint256 i = 0; i < bytes(a).length; i++) {\r\n            if (bytes(a)[i] != bytes(b)[i]) {\r\n                return false;\r\n            }\r\n        }\r\n        return true;\r\n    }\r\n}\r\n\r\n//========================================================================================\r\n\r\n/**\r\n * @title ERC20 interface\r\n */\r\ninterface IERC20 {\r\n    // methods\r\n    function totalSupply() external view returns (uint256);\r\n\r\n    function balanceOf(address who) external view returns (uint256);\r\n\r\n    function allowance(address owner, address spender)\r\n        external\r\n        view\r\n        returns (uint256);\r\n\r\n    function transfer(address to, uint256 value) external returns (bool);\r\n\r\n    function approve(address spender, uint256 value) external returns (bool);\r\n\r\n    function transferFrom(\r\n        address from,\r\n        address to,\r\n        uint256 value\r\n    ) external returns (bool);\r\n\r\n    // event\r\n    event Transfer(address indexed from, address indexed to, uint256 value);\r\n\r\n    event Approval(\r\n        address indexed owner,\r\n        address indexed spender,\r\n        uint256 value\r\n    );\r\n}\r\n\r\n//=======================================================================================\r\n/**\r\n * @title ERC20\r\n *\r\n */\r\ncontract ERC20 is IERC20 {\r\n    using SafeMath for uint256;\r\n\r\n    string private _name = \"ivil.world\"; //\r\n    string private _symbol = \"IVIL\"; //\r\n    uint8 private _decimals = 0; //\r\n    uint256 private _totalSupply = 21000000; //\r\n\r\n    mapping(address => uint256) private _balances;\r\n\r\n    mapping(address => mapping(address => uint256)) private _allowed;\r\n\r\n    address private root; //\r\n\r\n    constructor() {\r\n        root = msg.sender;\r\n        _balances[msg.sender] = _balances[msg.sender].add(_totalSupply);\r\n    }\r\n\r\n    function name() public view returns (string memory) {\r\n        return _name;\r\n    }\r\n\r\n    function symbol() public view returns (string memory) {\r\n        return _symbol;\r\n    }\r\n\r\n    function decimals() public view returns (uint8) {\r\n        return _decimals;\r\n    }\r\n\r\n    // \r\n    function createIVIL(uint256 value) public returns (bool) {\r\n        require(msg.sender == root, \"Only the root can create token!\");\r\n        _balances[msg.sender] = _balances[msg.sender].add(value);\r\n        _totalSupply = _totalSupply.add(value);\r\n        return true;\r\n    }\r\n\r\n    // \r\n    function destoryIVIL(uint256 value) public returns (bool) {\r\n        require(msg.sender == root, \"Only the root can destory token!\");\r\n        require(_balances[msg.sender] >= value, \"Insufficient balance !\");\r\n        _balances[msg.sender] = _balances[msg.sender].sub(value);\r\n        _totalSupply = _totalSupply.sub(value);\r\n        return true;\r\n    }\r\n\r\n    function totalSupply() public view returns (uint256) {\r\n        return _totalSupply;\r\n    }\r\n\r\n    function balanceOf(address owner) public view returns (uint256) {\r\n        return _balances[owner];\r\n    }\r\n\r\n    function allowance(address owner, address spender)\r\n        public\r\n        view\r\n        returns (uint256)\r\n    {\r\n        return _allowed[owner][spender];\r\n    }\r\n\r\n    function transfer(address to, uint256 value) public returns (bool) {\r\n        require(value <= _balances[msg.sender]);\r\n        require(to != address(0));\r\n\r\n        _balances[msg.sender] = _balances[msg.sender].sub(value);\r\n        _balances[to] = _balances[to].add(value);\r\n        emit Transfer(msg.sender, to, value);\r\n        return true;\r\n    }\r\n\r\n    function approve(address spender, uint256 value) public returns (bool) {\r\n        require(spender != address(0));\r\n\r\n        _allowed[msg.sender][spender] = value;\r\n        emit Approval(msg.sender, spender, value);\r\n        return true;\r\n    }\r\n\r\n    function transferFrom(\r\n        address from,\r\n        address to,\r\n        uint256 value\r\n    ) public returns (bool) {\r\n        require(value <= _balances[from]);\r\n        require(value <= _allowed[from][msg.sender]);\r\n        require(to != address(0));\r\n\r\n        _balances[from] = _balances[from].sub(value);\r\n        _balances[to] = _balances[to].add(value);\r\n        _allowed[from][msg.sender] = _allowed[from][msg.sender].sub(value);\r\n        emit Transfer(from, to, value);\r\n        return true;\r\n    }\r\n}\r\n\r\n//===================================================================================\r\n\r\ncontract IvilWorld is ERC20 {\r\n    using SafeMath for uint256;\r\n    using StringUtils for string;\r\n\r\n    struct Token {\r\n        string name; //\r\n        string symbol; //\r\n        uint8 decimals; //20.01\r\n        uint256 totalSupply; //\r\n    }\r\n\r\n    address private ice; //\r\n    address private root; //\r\n\r\n    mapping(address => mapping(string => uint256)) private balance; //\r\n\r\n    Token[] private tokens;\r\n    /*\r\n     *constant , , , , constant(: block.number , now , msg.sender  )\r\n     *constant  strings  .\r\n     */\r\n    Token private godToken = Token(\"ivil.world\", \"IVIL\", 9, 21000000); // token,\r\n\r\n    constructor() {\r\n        root = msg.sender;\r\n        tokens.push(godToken);\r\n        balance[msg.sender][godToken.symbol] = balance[msg.sender][\r\n            godToken.symbol\r\n        ].add(godToken.totalSupply);\r\n    }\r\n\r\n    // \r\n    function createToken(\r\n        string memory name,\r\n        string memory symbol,\r\n        uint8 decimals,\r\n        uint256 total\r\n    ) public returns (Token[] memory) {\r\n        require(msg.sender == root, \"Only root can create the token !\");\r\n        bool status = false;\r\n        for (uint256 i = 0; i < tokens.length; i++) {\r\n            if (\r\n                tokens[i].name.CompareInternal(name) ||\r\n                tokens[i].symbol.CompareInternal(symbol)\r\n            ) {\r\n                require(\r\n                    status,\r\n                    \"failed to create token ! The name or symbol has already existed !\"\r\n                );\r\n                return tokens;\r\n            }\r\n        }\r\n        Token memory token = Token(name, symbol, decimals, total);\r\n        tokens.push(token);\r\n        balance[msg.sender][token.symbol] = balance[msg.sender][token.symbol]\r\n            .add(token.totalSupply);\r\n        return tokens;\r\n    }\r\n\r\n    // \r\n    function destoryToken(string memory symbol)\r\n        public\r\n        returns (Token[] memory)\r\n    {\r\n        require(msg.sender == root, \"Only root can create the token !\");\r\n        require(\r\n            !symbol.CompareInternal(\"IVIL\"),\r\n            \"The IVIL is can't be destoryed !\"\r\n        );\r\n        bool status = false;\r\n        for (uint256 i = 0; i < tokens.length; i++) {\r\n            if (tokens[i].symbol.CompareInternal(symbol)) {\r\n                delete tokens[i];\r\n                while (i + 1 < tokens.length) {\r\n                    tokens[i] = tokens[i + 1];\r\n                    i++;\r\n                }\r\n                Token[] memory temp;\r\n                temp = tokens;\r\n                delete tokens;\r\n                for (uint256 k = 0; k < temp.length - 1; k++) {\r\n                    tokens.push(temp[k]);\r\n                }\r\n                return tokens;\r\n            }\r\n        }\r\n        require(status, \"failed to delete !\");\r\n        return tokens;\r\n    }\r\n\r\n    // token\r\n    function increaseToken(string memory symbol, uint256 value) public {\r\n        require(msg.sender == root, \"Only root can add the token !\");\r\n        (uint256 index, bool isExisted) = getLocationBySymbol(symbol);\r\n        require(isExisted, \"The token is not existed !\");\r\n        tokens[index].totalSupply = tokens[index].totalSupply.add(value);\r\n        balance[msg.sender][symbol] = balance[msg.sender][symbol].add(value);\r\n    }\r\n\r\n    // token\r\n    function decreaseToken(string memory symbol, uint256 value) public {\r\n        require(msg.sender == root, \"Only root can add the token !\");\r\n        (uint256 index, bool isExisted) = getLocationBySymbol(symbol);\r\n        require(isExisted, \"The token is not existed !\");\r\n        require(balance[msg.sender][symbol] >= value, \"Insufficient balance !\");\r\n        tokens[index].totalSupply = tokens[index].totalSupply.sub(value);\r\n        balance[msg.sender][symbol] = balance[msg.sender][symbol].sub(value);\r\n    }\r\n\r\n    // token\r\n    function getLocationBySymbol(string memory symbol)\r\n        internal\r\n        view\r\n        returns (uint256, bool)\r\n    {\r\n        for (uint256 i = 0; i < tokens.length; i++) {\r\n            if (tokens[i].symbol.CompareInternal(symbol)) {\r\n                return (i, true);\r\n            }\r\n        }\r\n        require(false, \"The specified token was not found !\");\r\n        return (0, false);\r\n    }\r\n\r\n    // token\r\n    function getTokenInfo(string memory symbol)\r\n        public\r\n        view\r\n        returns (Token memory)\r\n    {\r\n        (uint256 index, bool isExisted) = getLocationBySymbol(symbol);\r\n        require(isExisted, \" The token is not existed ! \");\r\n        return tokens[index];\r\n    }\r\n\r\n    // \r\n    function getAllTokensInfo() public view returns (Token[] memory) {\r\n        return tokens;\r\n    }\r\n\r\n    // \r\n    function getTokenBalance(string memory symbol)\r\n        public\r\n        view\r\n        returns (uint256)\r\n    {\r\n        (, bool isExisted) = getLocationBySymbol(symbol);\r\n        require(isExisted, \" The token is not existed ! \");\r\n        return balance[msg.sender][symbol];\r\n    }\r\n\r\n    // token\r\n    function getSpecificTokenBalance(string memory symbol, address who)\r\n        internal\r\n        view\r\n        returns (uint256)\r\n    {\r\n        (, bool isExisted) = getLocationBySymbol(symbol);\r\n        require(isExisted, \" The token is not existed ! \");\r\n        return balance[who][symbol];\r\n    }\r\n\r\n    // \r\n    function transferToken(\r\n        string memory symbol,\r\n        address to,\r\n        uint256 value\r\n    ) public returns (bool) {\r\n        (, bool isExisted) = getLocationBySymbol(symbol);\r\n        require(isExisted, \"The token is not existed\");\r\n        require(value <= getTokenBalance(symbol), \"The token is not enough !\");\r\n        require(to != address(0));\r\n        balance[msg.sender][symbol] = balance[msg.sender][symbol].sub(value);\r\n        balance[to][symbol] = balance[to][symbol].add(value);\r\n        emit Transfer(msg.sender, to, value);\r\n        return true;\r\n    }\r\n\r\n    // token\r\n    function freezeToken(string memory symbol, uint256 value)\r\n        internal\r\n        returns (bool)\r\n    {\r\n        (, bool isExisted) = getLocationBySymbol(symbol);\r\n        require(isExisted, \"The token is not existed\");\r\n        require(value <= getTokenBalance(symbol), \"The token is not enough !\");\r\n        balance[msg.sender][symbol] = balance[msg.sender][symbol].sub(value);\r\n        balance[ice][symbol] = balance[ice][symbol].add(value);\r\n        emit Transfer(msg.sender, ice, value);\r\n        return true;\r\n    }\r\n\r\n    // token\r\n    function unfreezeToken(string memory symbol, uint256 value)\r\n        internal\r\n        returns (bool)\r\n    {\r\n        (, bool isExisted) = getLocationBySymbol(symbol);\r\n        require(isExisted, \"The token is not existed\");\r\n        balance[ice][symbol] = balance[ice][symbol].sub(value);\r\n        balance[msg.sender][symbol] = balance[msg.sender][symbol].add(value);\r\n        emit Transfer(ice, msg.sender, value);\r\n        return true;\r\n    }\r\n}\r\n\r\n// ===========================================================================\r\n\r\ncontract TradingSystem is IvilWorld {\r\n    using SafeMath for uint256;\r\n    // using StringUtils for string;\r\n\r\n    struct Transaction {\r\n        address sender; //\r\n        string symbol; //\r\n        uint256 value; //\r\n        uint256 price; //\r\n        bool status; //\r\n        uint256 index; //\r\n    }\r\n    mapping(uint256 => Transaction) private tradingPool; //\r\n    Transaction[] private transactions; //\r\n    mapping(address => Transaction[]) personalPool; //\r\n\r\n    uint256 private counter;\r\n\r\n    address private root; //\r\n\r\n    constructor() {\r\n        root = msg.sender;\r\n    }\r\n\r\n    // \r\n    function depthOfPool() public view returns (uint256) {\r\n        return counter;\r\n    }\r\n\r\n    // \r\n    function transactionsOfPool() public returns (Transaction[] memory) {\r\n        delete transactions; //\r\n        for (uint256 i; i <= counter; i++) {\r\n            if (tradingPool[i].status == false) {\r\n                transactions.push(tradingPool[i]);\r\n            }\r\n        }\r\n        return transactions;\r\n    }\r\n\r\n    // \r\n    function getPersonalPool() public view returns (Transaction[] memory) {\r\n        return personalPool[msg.sender];\r\n    }\r\n\r\n    // \r\n    function getDealFromPersonalPool(uint256 index)\r\n        internal\r\n        view\r\n        returns (uint256, bool)\r\n    {\r\n        for (uint256 i; i < personalPool[msg.sender].length; i++) {\r\n            if (personalPool[msg.sender][i].index == index) {\r\n                return (i, true);\r\n            }\r\n        }\r\n        return (0, false);\r\n    }\r\n\r\n    // \r\n    function sell(\r\n        string memory symbol,\r\n        uint256 value,\r\n        uint256 price\r\n    ) public {\r\n        (, bool isExisted) = getLocationBySymbol(symbol);\r\n        require(isExisted, \"The token is not existed !\");\r\n        uint256 temp = getTokenBalance(symbol);\r\n        require(value <= temp, \"The token is not enough !\");\r\n        Transaction memory deal = Transaction(\r\n            msg.sender,\r\n            symbol,\r\n            value,\r\n            price,\r\n            false,\r\n            counter\r\n        );\r\n        tradingPool[counter] = deal;\r\n        personalPool[msg.sender].push(deal);\r\n        freezeToken(symbol, value);\r\n    }\r\n\r\n    // \r\n    function cancelSell(uint256 index) public {\r\n        require(index <= counter, \"The transaction is not existed !\");\r\n        require(\r\n            !tradingPool[index].status,\r\n            \"The transaction has already been completed !\"\r\n        );\r\n        require(msg.sender == tradingPool[index].sender);\r\n        unfreezeToken(tradingPool[index].symbol, tradingPool[index].value);\r\n        tradingPool[index].status = true;\r\n        (uint256 i, bool isExisted) = getDealFromPersonalPool(index);\r\n        require(isExisted, \"you does not have this transaction !\");\r\n        personalPool[msg.sender][i].status = true;\r\n    }\r\n\r\n    // \r\n    function buy(uint256 index) public {\r\n        require(index <= counter, \"The transaction is not existed !\");\r\n        require(\r\n            !tradingPool[index].status,\r\n            \"The transaction has already been completed !\"\r\n        );\r\n        transfer(tradingPool[index].sender, tradingPool[index].price);\r\n        unfreezeToken(tradingPool[index].symbol, tradingPool[index].value);\r\n        tradingPool[index].status = true;\r\n        personalPool[msg.sender].push(tradingPool[index]);\r\n    }\r\n}\r\n",
  "sourcePath": "E:\\Project\\Blockchain\\TradingSystemBasedOnBlockchain\\smart_contract\\contracts\\TradingSystem.sol",
  "compiler": {
    "name": "solc",
    "version": "0.8.12+commit.f00d7308.Emscripten.clang"
  },
  "schemaVersion": "3.4.7",
  "updatedAt": "2022-05-01T10:10:41.943Z",
  "devdoc": {
    "kind": "dev",
    "methods": {},
    "version": 1
  },
  "userdoc": {
    "kind": "user",
    "methods": {},
    "version": 1
  }
}