{
  "contractName": "IvilWorld",
  "abi": [
    {
      "inputs": [],
      "stateMutability": "nonpayable",
      "type": "constructor"
    },
    {
      "anonymous": false,
      "inputs": [
        {
          "indexed": true,
          "internalType": "address",
          "name": "owner",
          "type": "address"
        },
        {
          "indexed": true,
          "internalType": "address",
          "name": "spender",
          "type": "address"
        },
        {
          "indexed": false,
          "internalType": "uint256",
          "name": "value",
          "type": "uint256"
        }
      ],
      "name": "Approval",
      "type": "event"
    },
    {
      "anonymous": false,
      "inputs": [
        {
          "indexed": true,
          "internalType": "address",
          "name": "from",
          "type": "address"
        },
        {
          "indexed": true,
          "internalType": "address",
          "name": "to",
          "type": "address"
        },
        {
          "indexed": false,
          "internalType": "uint256",
          "name": "value",
          "type": "uint256"
        }
      ],
      "name": "Transfer",
      "type": "event"
    },
    {
      "inputs": [
        {
          "internalType": "address",
          "name": "owner",
          "type": "address"
        },
        {
          "internalType": "address",
          "name": "spender",
          "type": "address"
        }
      ],
      "name": "allowance",
      "outputs": [
        {
          "internalType": "uint256",
          "name": "",
          "type": "uint256"
        }
      ],
      "stateMutability": "view",
      "type": "function"
    },
    {
      "inputs": [
        {
          "internalType": "address",
          "name": "spender",
          "type": "address"
        },
        {
          "internalType": "uint256",
          "name": "value",
          "type": "uint256"
        }
      ],
      "name": "approve",
      "outputs": [
        {
          "internalType": "bool",
          "name": "",
          "type": "bool"
        }
      ],
      "stateMutability": "nonpayable",
      "type": "function"
    },
    {
      "inputs": [
        {
          "internalType": "address",
          "name": "owner",
          "type": "address"
        }
      ],
      "name": "balanceOf",
      "outputs": [
        {
          "internalType": "uint256",
          "name": "",
          "type": "uint256"
        }
      ],
      "stateMutability": "view",
      "type": "function"
    },
    {
      "inputs": [
        {
          "internalType": "uint256",
          "name": "value",
          "type": "uint256"
        }
      ],
      "name": "createIVIL",
      "outputs": [
        {
          "internalType": "bool",
          "name": "",
          "type": "bool"
        }
      ],
      "stateMutability": "nonpayable",
      "type": "function"
    },
    {
      "inputs": [],
      "name": "decimals",
      "outputs": [
        {
          "internalType": "uint8",
          "name": "",
          "type": "uint8"
        }
      ],
      "stateMutability": "view",
      "type": "function"
    },
    {
      "inputs": [
        {
          "internalType": "address",
          "name": "spender",
          "type": "address"
        },
        {
          "internalType": "uint256",
          "name": "subtractedValue",
          "type": "uint256"
        }
      ],
      "name": "decreaseAllowance",
      "outputs": [
        {
          "internalType": "bool",
          "name": "",
          "type": "bool"
        }
      ],
      "stateMutability": "nonpayable",
      "type": "function"
    },
    {
      "inputs": [
        {
          "internalType": "uint256",
          "name": "value",
          "type": "uint256"
        }
      ],
      "name": "destoryIVIL",
      "outputs": [
        {
          "internalType": "bool",
          "name": "",
          "type": "bool"
        }
      ],
      "stateMutability": "nonpayable",
      "type": "function"
    },
    {
      "inputs": [
        {
          "internalType": "address",
          "name": "spender",
          "type": "address"
        },
        {
          "internalType": "uint256",
          "name": "addedValue",
          "type": "uint256"
        }
      ],
      "name": "increaseAllowance",
      "outputs": [
        {
          "internalType": "bool",
          "name": "",
          "type": "bool"
        }
      ],
      "stateMutability": "nonpayable",
      "type": "function"
    },
    {
      "inputs": [],
      "name": "name",
      "outputs": [
        {
          "internalType": "string",
          "name": "",
          "type": "string"
        }
      ],
      "stateMutability": "view",
      "type": "function"
    },
    {
      "inputs": [],
      "name": "symbol",
      "outputs": [
        {
          "internalType": "string",
          "name": "",
          "type": "string"
        }
      ],
      "stateMutability": "view",
      "type": "function"
    },
    {
      "inputs": [],
      "name": "totalSupply",
      "outputs": [
        {
          "internalType": "uint256",
          "name": "",
          "type": "uint256"
        }
      ],
      "stateMutability": "view",
      "type": "function"
    },
    {
      "inputs": [
        {
          "internalType": "address",
          "name": "to",
          "type": "address"
        },
        {
          "internalType": "uint256",
          "name": "value",
          "type": "uint256"
        }
      ],
      "name": "transfer",
      "outputs": [
        {
          "internalType": "bool",
          "name": "",
          "type": "bool"
        }
      ],
      "stateMutability": "nonpayable",
      "type": "function"
    },
    {
      "inputs": [
        {
          "internalType": "address",
          "name": "from",
          "type": "address"
        },
        {
          "internalType": "address",
          "name": "to",
          "type": "address"
        },
        {
          "internalType": "uint256",
          "name": "value",
          "type": "uint256"
        }
      ],
      "name": "transferFrom",
      "outputs": [
        {
          "internalType": "bool",
          "name": "",
          "type": "bool"
        }
      ],
      "stateMutability": "nonpayable",
      "type": "function"
    },
    {
      "inputs": [
        {
          "internalType": "string",
          "name": "name",
          "type": "string"
        },
        {
          "internalType": "string",
          "name": "symbol",
          "type": "string"
        },
        {
          "internalType": "uint8",
          "name": "decimals",
          "type": "uint8"
        },
        {
          "internalType": "uint256",
          "name": "total",
          "type": "uint256"
        }
      ],
      "name": "createToken",
      "outputs": [
        {
          "components": [
            {
              "internalType": "string",
              "name": "name",
              "type": "string"
            },
            {
              "internalType": "string",
              "name": "symbol",
              "type": "string"
            },
            {
              "internalType": "uint8",
              "name": "decimals",
              "type": "uint8"
            },
            {
              "internalType": "uint256",
              "name": "totalSupply",
              "type": "uint256"
            }
          ],
          "internalType": "struct IvilWorld.Token[]",
          "name": "",
          "type": "tuple[]"
        }
      ],
      "stateMutability": "nonpayable",
      "type": "function"
    },
    {
      "inputs": [
        {
          "internalType": "string",
          "name": "symbol",
          "type": "string"
        }
      ],
      "name": "destoryToken",
      "outputs": [
        {
          "components": [
            {
              "internalType": "string",
              "name": "name",
              "type": "string"
            },
            {
              "internalType": "string",
              "name": "symbol",
              "type": "string"
            },
            {
              "internalType": "uint8",
              "name": "decimals",
              "type": "uint8"
            },
            {
              "internalType": "uint256",
              "name": "totalSupply",
              "type": "uint256"
            }
          ],
          "internalType": "struct IvilWorld.Token[]",
          "name": "",
          "type": "tuple[]"
        }
      ],
      "stateMutability": "nonpayable",
      "type": "function"
    },
    {
      "inputs": [
        {
          "internalType": "string",
          "name": "symbol",
          "type": "string"
        },
        {
          "internalType": "uint256",
          "name": "value",
          "type": "uint256"
        }
      ],
      "name": "increaseToken",
      "outputs": [],
      "stateMutability": "nonpayable",
      "type": "function"
    },
    {
      "inputs": [
        {
          "internalType": "string",
          "name": "symbol",
          "type": "string"
        },
        {
          "internalType": "uint256",
          "name": "value",
          "type": "uint256"
        }
      ],
      "name": "decreaseToken",
      "outputs": [],
      "stateMutability": "nonpayable",
      "type": "function"
    },
    {
      "inputs": [
        {
          "internalType": "string",
          "name": "symbol",
          "type": "string"
        }
      ],
      "name": "getTokenInfo",
      "outputs": [
        {
          "components": [
            {
              "internalType": "string",
              "name": "name",
              "type": "string"
            },
            {
              "internalType": "string",
              "name": "symbol",
              "type": "string"
            },
            {
              "internalType": "uint8",
              "name": "decimals",
              "type": "uint8"
            },
            {
              "internalType": "uint256",
              "name": "totalSupply",
              "type": "uint256"
            }
          ],
          "internalType": "struct IvilWorld.Token",
          "name": "",
          "type": "tuple"
        }
      ],
      "stateMutability": "view",
      "type": "function"
    },
    {
      "inputs": [],
      "name": "getAllTokensInfo",
      "outputs": [
        {
          "components": [
            {
              "internalType": "string",
              "name": "name",
              "type": "string"
            },
            {
              "internalType": "string",
              "name": "symbol",
              "type": "string"
            },
            {
              "internalType": "uint8",
              "name": "decimals",
              "type": "uint8"
            },
            {
              "internalType": "uint256",
              "name": "totalSupply",
              "type": "uint256"
            }
          ],
          "internalType": "struct IvilWorld.Token[]",
          "name": "",
          "type": "tuple[]"
        }
      ],
      "stateMutability": "view",
      "type": "function"
    },
    {
      "inputs": [
        {
          "internalType": "string",
          "name": "symbol",
          "type": "string"
        }
      ],
      "name": "getTokenBalance",
      "outputs": [
        {
          "internalType": "uint256",
          "name": "",
          "type": "uint256"
        }
      ],
      "stateMutability": "view",
      "type": "function"
    },
    {
      "inputs": [
        {
          "internalType": "string",
          "name": "symbol",
          "type": "string"
        },
        {
          "internalType": "address",
          "name": "to",
          "type": "address"
        },
        {
          "internalType": "uint256",
          "name": "value",
          "type": "uint256"
        }
      ],
      "name": "transferToken",
      "outputs": [
        {
          "internalType": "bool",
          "name": "",
          "type": "bool"
        }
      ],
      "stateMutability": "nonpayable",
      "type": "function"
    }
  ],
  "bytecode": "0x60806040526040518060400160405280600a81526020017f6976696c2e776f726c64000000000000000000000000000000000000000000008152506000908051906020019062000051929190620004b7565b506040518060400160405280600481526020017f4956494c00000000000000000000000000000000000000000000000000000000815250600190805190602001906200009f929190620004b7565b506009600260006101000a81548160ff021916908360ff1602179055506301406f4060035560405180608001604052806040518060400160405280600a81526020017f6976696c2e776f726c640000000000000000000000000000000000000000000081525081526020016040518060400160405280600481526020017f4956494c000000000000000000000000000000000000000000000000000000008152508152602001600960ff1681526020016301406f40815250600b600082015181600001908051906020019062000177929190620004b7565b50602082015181600101908051906020019062000196929190620004b7565b5060408201518160020160006101000a81548160ff021916908360ff160217905550606082015181600301555050348015620001d157600080fd5b5033600660006101000a81548173ffffffffffffffffffffffffffffffffffffffff021916908373ffffffffffffffffffffffffffffffffffffffff1602179055506200026e600354600460003373ffffffffffffffffffffffffffffffffffffffff1673ffffffffffffffffffffffffffffffffffffffff168152602001908152602001600020546200048c60201b620032191790919060201c565b600460003373ffffffffffffffffffffffffffffffffffffffff1673ffffffffffffffffffffffffffffffffffffffff1681526020019081526020016000208190555033600860006101000a81548173ffffffffffffffffffffffffffffffffffffffff021916908373ffffffffffffffffffffffffffffffffffffffff160217905550600a600b9080600181540180825580915050600190039060005260206000209060040201600090919091909150600082018160000190805462000335906200062e565b6200034292919062000548565b50600182018160010190805462000359906200062e565b6200036692919062000548565b506002820160009054906101000a900460ff168160020160006101000a81548160ff021916908360ff16021790555060038201548160030155505062000421600b60030154600960003373ffffffffffffffffffffffffffffffffffffffff1673ffffffffffffffffffffffffffffffffffffffff168152602001908152602001600020600b600101604051620003fe91906200070f565b9081526020016040518091039020546200048c60201b620032191790919060201c565b600960003373ffffffffffffffffffffffffffffffffffffffff1673ffffffffffffffffffffffffffffffffffffffff168152602001908152602001600020600b6001016040516200047491906200070f565b908152602001604051809103902081905550620007be565b60008082846200049d919062000761565b905083811015620004ad57600080fd5b8091505092915050565b828054620004c5906200062e565b90600052602060002090601f016020900481019282620004e9576000855562000535565b82601f106200050457805160ff191683800117855562000535565b8280016001018555821562000535579182015b828111156200053457825182559160200191906001019062000517565b5b509050620005449190620005e0565b5090565b82805462000556906200062e565b90600052602060002090601f0160209004810192826200057a5760008555620005cd565b82601f106200058d5780548555620005cd565b82800160010185558215620005cd57600052602060002091601f016020900482015b82811115620005cc578254825591600101919060010190620005af565b5b509050620005dc9190620005e0565b5090565b5b80821115620005fb576000816000905550600101620005e1565b5090565b7f4e487b7100000000000000000000000000000000000000000000000000000000600052602260045260246000fd5b600060028204905060018216806200064757607f821691505b602082108114156200065e576200065d620005ff565b5b50919050565b600081905092915050565b60008190508160005260206000209050919050565b6000815462000693816200062e565b6200069f818662000664565b94506001821660008114620006bd5760018114620006cf5762000706565b60ff1983168652818601935062000706565b620006da856200066f565b60005b83811015620006fe57815481890152600182019150602081019050620006dd565b838801955050505b50505092915050565b60006200071d828462000684565b915081905092915050565b6000819050919050565b7f4e487b7100000000000000000000000000000000000000000000000000000000600052601160045260246000fd5b60006200076e8262000728565b91506200077b8362000728565b9250827fffffffffffffffffffffffffffffffffffffffffffffffffffffffffffffffff03821115620007b357620007b262000732565b5b828201905092915050565b61471780620007ce6000396000f3fe608060405234801561001057600080fd5b50600436106101375760003560e01c80638e0ad1cc116100b8578063a9059cbb1161007c578063a9059cbb146103b2578063bc43c020146103e2578063c5d5901614610412578063c8f956a61461042e578063dd62ed3e1461044a578063ee91035e1461047a57610137565b80638e0ad1cc146102e65780639293848c1461031657806395d89b41146103465780639a24a25b14610364578063a457c2d71461038257610137565b8063210f5dda116100ff578063210f5dda1461020857806323b872dd14610238578063313ce56714610268578063395093511461028657806370a08231146102b657610137565b8063025abd581461013c57806306fdde031461016c578063095ea7b31461018a5780630bb5a4e0146101ba57806318160ddd146101ea575b600080fd5b610156600480360381019061015191906137eb565b6104aa565b604051610163919061384d565b60405180910390f35b61017461055d565b60405161018191906138f0565b60405180910390f35b6101a4600480360381019061019f919061399c565b6105ef565b6040516101b191906139f7565b60405180910390f35b6101d460048036038101906101cf9190613a12565b61071a565b6040516101e191906139f7565b60405180910390f35b6101f26108e7565b6040516101ff919061384d565b60405180910390f35b610222600480360381019061021d9190613a78565b6108f1565b60405161022f9190613cab565b60405180910390f35b610252600480360381019061024d9190613ccd565b611064565b60405161025f91906139f7565b60405180910390f35b61027061141e565b60405161027d9190613d2f565b60405180910390f35b6102a0600480360381019061029b919061399c565b611435565b6040516102ad91906139f7565b60405180910390f35b6102d060048036038101906102cb9190613d4a565b61166a565b6040516102dd919061384d565b60405180910390f35b61030060048036038101906102fb91906137eb565b6116b3565b60405161030d9190613de1565b60405180910390f35b610330600480360381019061032b9190613a12565b61188c565b60405161033d91906139f7565b60405180910390f35b61034e6119d7565b60405161035b91906138f0565b60405180910390f35b61036c611a69565b6040516103799190613cab565b60405180910390f35b61039c6004803603810190610397919061399c565b611c13565b6040516103a991906139f7565b60405180910390f35b6103cc60048036038101906103c7919061399c565b611e48565b6040516103d991906139f7565b60405180910390f35b6103fc60048036038101906103f791906137eb565b612069565b6040516104099190613cab565b60405180910390f35b61042c60048036038101906104279190613e03565b6129ed565b005b61044860048036038101906104439190613e03565b612c01565b005b610464600480360381019061045f9190613e5f565b612eb3565b604051610471919061384d565b60405180910390f35b610494600480360381019061048f9190613e9f565b612f3a565b6040516104a191906139f7565b60405180910390f35b6000806104b683613241565b915050806104f9576040517f08c379a00000000000000000000000000000000000000000000000000000000081526004016104f090613f5a565b60405180910390fd5b600960003373ffffffffffffffffffffffffffffffffffffffff1673ffffffffffffffffffffffffffffffffffffffff168152602001908152602001600020836040516105469190613fb6565b908152602001604051809103902054915050919050565b60606000805461056c90613ffc565b80601f016020809104026020016040519081016040528092919081815260200182805461059890613ffc565b80156105e55780601f106105ba576101008083540402835291602001916105e5565b820191906000526020600020905b8154815290600101906020018083116105c857829003601f168201915b5050505050905090565b60008073ffffffffffffffffffffffffffffffffffffffff168373ffffffffffffffffffffffffffffffffffffffff16141561062a57600080fd5b81600560003373ffffffffffffffffffffffffffffffffffffffff1673ffffffffffffffffffffffffffffffffffffffff16815260200190815260200160002060008573ffffffffffffffffffffffffffffffffffffffff1673ffffffffffffffffffffffffffffffffffffffff168152602001908152602001600020819055508273ffffffffffffffffffffffffffffffffffffffff163373ffffffffffffffffffffffffffffffffffffffff167f8c5be1e5ebec7d5bd14f71427d1e84f3dd0314c0f7b2291e5b200ac8c7c3b92584604051610708919061384d565b60405180910390a36001905092915050565b6000600660009054906101000a900473ffffffffffffffffffffffffffffffffffffffff1673ffffffffffffffffffffffffffffffffffffffff163373ffffffffffffffffffffffffffffffffffffffff16146107ac576040517f08c379a00000000000000000000000000000000000000000000000000000000081526004016107a39061407a565b60405180910390fd5b81600460003373ffffffffffffffffffffffffffffffffffffffff1673ffffffffffffffffffffffffffffffffffffffff16815260200190815260200160002054101561082e576040517f08c379a0000000000000000000000000000000000000000000000000000000008152600401610825906140e6565b60405180910390fd5b61088082600460003373ffffffffffffffffffffffffffffffffffffffff1673ffffffffffffffffffffffffffffffffffffffff1681526020019081526020016000205461338890919063ffffffff16565b600460003373ffffffffffffffffffffffffffffffffffffffff1673ffffffffffffffffffffffffffffffffffffffff168152602001908152602001600020819055506108d88260035461338890919063ffffffff16565b60038190555060019050919050565b6000600354905090565b6060600860009054906101000a900473ffffffffffffffffffffffffffffffffffffffff1673ffffffffffffffffffffffffffffffffffffffff163373ffffffffffffffffffffffffffffffffffffffff1614610983576040517f08c379a000000000000000000000000000000000000000000000000000000000815260040161097a90614152565b60405180910390fd5b6000805b600a80549050811015610d1f57610a5487600a83815481106109ac576109ab614172565b5b906000526020600020906004020160000180546109c890613ffc565b80601f01602080910402602001604051908101604052809291908181526020018280546109f490613ffc565b8015610a415780601f10610a1657610100808354040283529160200191610a41565b820191906000526020600020905b815481529060010190602001808311610a2457829003601f168201915b50505050506133b190919063ffffffff16565b80610b1b5750610b1a86600a8381548110610a7257610a71614172565b5b90600052602060002090600402016001018054610a8e90613ffc565b80601f0160208091040260200160405190810160405280929190818152602001828054610aba90613ffc565b8015610b075780601f10610adc57610100808354040283529160200191610b07565b820191906000526020600020905b815481529060010190602001808311610aea57829003601f168201915b50505050506133b190919063ffffffff16565b5b15610d0c5781610b60576040517f08c379a0000000000000000000000000000000000000000000000000000000008152600401610b5790614239565b60405180910390fd5b600a805480602002602001604051908101604052809291908181526020016000905b82821015610cff5783829060005260206000209060040201604051806080016040529081600082018054610bb590613ffc565b80601f0160208091040260200160405190810160405280929190818152602001828054610be190613ffc565b8015610c2e5780601f10610c0357610100808354040283529160200191610c2e565b820191906000526020600020905b815481529060010190602001808311610c1157829003601f168201915b50505050508152602001600182018054610c4790613ffc565b80601f0160208091040260200160405190810160405280929190818152602001828054610c7390613ffc565b8015610cc05780601f10610c9557610100808354040283529160200191610cc0565b820191906000526020600020905b815481529060010190602001808311610ca357829003601f168201915b505050505081526020016002820160009054906101000a900460ff1660ff1660ff16815260200160038201548152505081526020019060010190610b82565b505050509250505061105c565b8080610d1790614288565b915050610987565b50600060405180608001604052808881526020018781526020018660ff168152602001858152509050600a8190806001815401808255809150506001900390600052602060002090600402016000909190919091506000820151816000019080519060200190610d9092919061347f565b506020820151816001019080519060200190610dad92919061347f565b5060408201518160020160006101000a81548160ff021916908360ff160217905550606082015181600301555050610e518160600151600960003373ffffffffffffffffffffffffffffffffffffffff1673ffffffffffffffffffffffffffffffffffffffff1681526020019081526020016000208360200151604051610e349190613fb6565b90815260200160405180910390205461321990919063ffffffff16565b600960003373ffffffffffffffffffffffffffffffffffffffff1673ffffffffffffffffffffffffffffffffffffffff1681526020019081526020016000208260200151604051610ea29190613fb6565b908152602001604051809103902081905550600a805480602002602001604051908101604052809291908181526020016000905b828210156110535783829060005260206000209060040201604051806080016040529081600082018054610f0990613ffc565b80601f0160208091040260200160405190810160405280929190818152602001828054610f3590613ffc565b8015610f825780601f10610f5757610100808354040283529160200191610f82565b820191906000526020600020905b815481529060010190602001808311610f6557829003601f168201915b50505050508152602001600182018054610f9b90613ffc565b80601f0160208091040260200160405190810160405280929190818152602001828054610fc790613ffc565b80156110145780601f10610fe957610100808354040283529160200191611014565b820191906000526020600020905b815481529060010190602001808311610ff757829003601f168201915b505050505081526020016002820160009054906101000a900460ff1660ff1660ff16815260200160038201548152505081526020019060010190610ed6565b50505050925050505b949350505050565b6000600460008573ffffffffffffffffffffffffffffffffffffffff1673ffffffffffffffffffffffffffffffffffffffff168152602001908152602001600020548211156110b257600080fd5b600560008573ffffffffffffffffffffffffffffffffffffffff1673ffffffffffffffffffffffffffffffffffffffff16815260200190815260200160002060003373ffffffffffffffffffffffffffffffffffffffff1673ffffffffffffffffffffffffffffffffffffffff1681526020019081526020016000205482111561113b57600080fd5b600073ffffffffffffffffffffffffffffffffffffffff168373ffffffffffffffffffffffffffffffffffffffff16141561117557600080fd5b6111c782600460008773ffffffffffffffffffffffffffffffffffffffff1673ffffffffffffffffffffffffffffffffffffffff1681526020019081526020016000205461338890919063ffffffff16565b600460008673ffffffffffffffffffffffffffffffffffffffff1673ffffffffffffffffffffffffffffffffffffffff1681526020019081526020016000208190555061125c82600460008673ffffffffffffffffffffffffffffffffffffffff1673ffffffffffffffffffffffffffffffffffffffff1681526020019081526020016000205461321990919063ffffffff16565b600460008573ffffffffffffffffffffffffffffffffffffffff1673ffffffffffffffffffffffffffffffffffffffff1681526020019081526020016000208190555061132e82600560008773ffffffffffffffffffffffffffffffffffffffff1673ffffffffffffffffffffffffffffffffffffffff16815260200190815260200160002060003373ffffffffffffffffffffffffffffffffffffffff1673ffffffffffffffffffffffffffffffffffffffff1681526020019081526020016000205461338890919063ffffffff16565b600560008673ffffffffffffffffffffffffffffffffffffffff1673ffffffffffffffffffffffffffffffffffffffff16815260200190815260200160002060003373ffffffffffffffffffffffffffffffffffffffff1673ffffffffffffffffffffffffffffffffffffffff168152602001908152602001600020819055508273ffffffffffffffffffffffffffffffffffffffff168473ffffffffffffffffffffffffffffffffffffffff167fddf252ad1be2c89b69c2b068fc378daa952ba7f163c4a11628f55a4df523b3ef8460405161140b919061384d565b60405180910390a3600190509392505050565b6000600260009054906101000a900460ff16905090565b60008073ffffffffffffffffffffffffffffffffffffffff168373ffffffffffffffffffffffffffffffffffffffff16141561147057600080fd5b6114ff82600560003373ffffffffffffffffffffffffffffffffffffffff1673ffffffffffffffffffffffffffffffffffffffff16815260200190815260200160002060008673ffffffffffffffffffffffffffffffffffffffff1673ffffffffffffffffffffffffffffffffffffffff1681526020019081526020016000205461321990919063ffffffff16565b600560003373ffffffffffffffffffffffffffffffffffffffff1673ffffffffffffffffffffffffffffffffffffffff16815260200190815260200160002060008573ffffffffffffffffffffffffffffffffffffffff1673ffffffffffffffffffffffffffffffffffffffff168152602001908152602001600020819055508273ffffffffffffffffffffffffffffffffffffffff163373ffffffffffffffffffffffffffffffffffffffff167f8c5be1e5ebec7d5bd14f71427d1e84f3dd0314c0f7b2291e5b200ac8c7c3b925600560003373ffffffffffffffffffffffffffffffffffffffff1673ffffffffffffffffffffffffffffffffffffffff16815260200190815260200160002060008773ffffffffffffffffffffffffffffffffffffffff1673ffffffffffffffffffffffffffffffffffffffff16815260200190815260200160002054604051611658919061384d565b60405180910390a36001905092915050565b6000600460008373ffffffffffffffffffffffffffffffffffffffff1673ffffffffffffffffffffffffffffffffffffffff168152602001908152602001600020549050919050565b6116bb613505565b6000806116c784613241565b915091508061170b576040517f08c379a000000000000000000000000000000000000000000000000000000000815260040161170290613f5a565b60405180910390fd5b600a828154811061171f5761171e614172565b5b906000526020600020906004020160405180608001604052908160008201805461174890613ffc565b80601f016020809104026020016040519081016040528092919081815260200182805461177490613ffc565b80156117c15780601f10611796576101008083540402835291602001916117c1565b820191906000526020600020905b8154815290600101906020018083116117a457829003601f168201915b505050505081526020016001820180546117da90613ffc565b80601f016020809104026020016040519081016040528092919081815260200182805461180690613ffc565b80156118535780601f1061182857610100808354040283529160200191611853565b820191906000526020600020905b81548152906001019060200180831161183657829003601f168201915b505050505081526020016002820160009054906101000a900460ff1660ff1660ff16815260200160038201548152505092505050919050565b6000600660009054906101000a900473ffffffffffffffffffffffffffffffffffffffff1673ffffffffffffffffffffffffffffffffffffffff163373ffffffffffffffffffffffffffffffffffffffff161461191e576040517f08c379a00000000000000000000000000000000000000000000000000000000081526004016119159061431d565b60405180910390fd5b61197082600460003373ffffffffffffffffffffffffffffffffffffffff1673ffffffffffffffffffffffffffffffffffffffff1681526020019081526020016000205461321990919063ffffffff16565b600460003373ffffffffffffffffffffffffffffffffffffffff1673ffffffffffffffffffffffffffffffffffffffff168152602001908152602001600020819055506119c88260035461321990919063ffffffff16565b60038190555060019050919050565b6060600180546119e690613ffc565b80601f0160208091040260200160405190810160405280929190818152602001828054611a1290613ffc565b8015611a5f5780601f10611a3457610100808354040283529160200191611a5f565b820191906000526020600020905b815481529060010190602001808311611a4257829003601f168201915b5050505050905090565b6060600a805480602002602001604051908101604052809291908181526020016000905b82821015611c0a5783829060005260206000209060040201604051806080016040529081600082018054611ac090613ffc565b80601f0160208091040260200160405190810160405280929190818152602001828054611aec90613ffc565b8015611b395780601f10611b0e57610100808354040283529160200191611b39565b820191906000526020600020905b815481529060010190602001808311611b1c57829003601f168201915b50505050508152602001600182018054611b5290613ffc565b80601f0160208091040260200160405190810160405280929190818152602001828054611b7e90613ffc565b8015611bcb5780601f10611ba057610100808354040283529160200191611bcb565b820191906000526020600020905b815481529060010190602001808311611bae57829003601f168201915b505050505081526020016002820160009054906101000a900460ff1660ff1660ff16815260200160038201548152505081526020019060010190611a8d565b50505050905090565b60008073ffffffffffffffffffffffffffffffffffffffff168373ffffffffffffffffffffffffffffffffffffffff161415611c4e57600080fd5b611cdd82600560003373ffffffffffffffffffffffffffffffffffffffff1673ffffffffffffffffffffffffffffffffffffffff16815260200190815260200160002060008673ffffffffffffffffffffffffffffffffffffffff1673ffffffffffffffffffffffffffffffffffffffff1681526020019081526020016000205461338890919063ffffffff16565b600560003373ffffffffffffffffffffffffffffffffffffffff1673ffffffffffffffffffffffffffffffffffffffff16815260200190815260200160002060008573ffffffffffffffffffffffffffffffffffffffff1673ffffffffffffffffffffffffffffffffffffffff168152602001908152602001600020819055508273ffffffffffffffffffffffffffffffffffffffff163373ffffffffffffffffffffffffffffffffffffffff167f8c5be1e5ebec7d5bd14f71427d1e84f3dd0314c0f7b2291e5b200ac8c7c3b925600560003373ffffffffffffffffffffffffffffffffffffffff1673ffffffffffffffffffffffffffffffffffffffff16815260200190815260200160002060008773ffffffffffffffffffffffffffffffffffffffff1673ffffffffffffffffffffffffffffffffffffffff16815260200190815260200160002054604051611e36919061384d565b60405180910390a36001905092915050565b6000600460003373ffffffffffffffffffffffffffffffffffffffff1673ffffffffffffffffffffffffffffffffffffffff16815260200190815260200160002054821115611e9657600080fd5b600073ffffffffffffffffffffffffffffffffffffffff168373ffffffffffffffffffffffffffffffffffffffff161415611ed057600080fd5b611f2282600460003373ffffffffffffffffffffffffffffffffffffffff1673ffffffffffffffffffffffffffffffffffffffff1681526020019081526020016000205461338890919063ffffffff16565b600460003373ffffffffffffffffffffffffffffffffffffffff1673ffffffffffffffffffffffffffffffffffffffff16815260200190815260200160002081905550611fb782600460008673ffffffffffffffffffffffffffffffffffffffff1673ffffffffffffffffffffffffffffffffffffffff1681526020019081526020016000205461321990919063ffffffff16565b600460008573ffffffffffffffffffffffffffffffffffffffff1673ffffffffffffffffffffffffffffffffffffffff168152602001908152602001600020819055508273ffffffffffffffffffffffffffffffffffffffff163373ffffffffffffffffffffffffffffffffffffffff167fddf252ad1be2c89b69c2b068fc378daa952ba7f163c4a11628f55a4df523b3ef84604051612057919061384d565b60405180910390a36001905092915050565b6060600860009054906101000a900473ffffffffffffffffffffffffffffffffffffffff1673ffffffffffffffffffffffffffffffffffffffff163373ffffffffffffffffffffffffffffffffffffffff16146120fb576040517f08c379a00000000000000000000000000000000000000000000000000000000081526004016120f290614152565b60405180910390fd5b6121436040518060400160405280600481526020017f4956494c00000000000000000000000000000000000000000000000000000000815250836133b190919063ffffffff16565b15612183576040517f08c379a000000000000000000000000000000000000000000000000000000000815260040161217a90614389565b60405180910390fd5b6000805b600a805490508110156128005761225484600a83815481106121ac576121ab614172565b5b906000526020600020906004020160010180546121c890613ffc565b80601f01602080910402602001604051908101604052809291908181526020018280546121f490613ffc565b80156122415780601f1061221657610100808354040283529160200191612241565b820191906000526020600020905b81548152906001019060200180831161222457829003601f168201915b50505050506133b190919063ffffffff16565b156127ed57600a818154811061226d5761226c614172565b5b90600052602060002090600402016000808201600061228c9190613530565b60018201600061229c9190613530565b6002820160006101000a81549060ff0219169055600382016000905550505b600a805490506001826122ce91906143a9565b10156123b257600a6001826122e391906143a9565b815481106122f4576122f3614172565b5b9060005260206000209060040201600a828154811061231657612315614172565b5b9060005260206000209060040201600082018160000190805461233890613ffc565b612343929190613570565b50600182018160010190805461235890613ffc565b612363929190613570565b506002820160009054906101000a900460ff168160020160006101000a81548160ff021916908360ff1602179055506003820154816003015590505080806123aa90614288565b9150506122bb565b6060600a805480602002602001604051908101604052809291908181526020016000905b82821015612553578382906000526020600020906004020160405180608001604052908160008201805461240990613ffc565b80601f016020809104026020016040519081016040528092919081815260200182805461243590613ffc565b80156124825780601f1061245757610100808354040283529160200191612482565b820191906000526020600020905b81548152906001019060200180831161246557829003601f168201915b5050505050815260200160018201805461249b90613ffc565b80601f01602080910402602001604051908101604052809291908181526020018280546124c790613ffc565b80156125145780601f106124e957610100808354040283529160200191612514565b820191906000526020600020905b8154815290600101906020018083116124f757829003601f168201915b505050505081526020016002820160009054906101000a900460ff1660ff1660ff168152602001600382015481525050815260200190600101906123d6565b505050509050600a600061256791906135fd565b60005b6001825161257891906143ff565b81101561263f57600a82828151811061259457612593614172565b5b6020026020010151908060018154018082558091505060019003906000526020600020906004020160009091909190915060008201518160000190805190602001906125e192919061347f565b5060208201518160010190805190602001906125fe92919061347f565b5060408201518160020160006101000a81548160ff021916908360ff160217905550606082015181600301555050808061263790614288565b91505061256a565b50600a805480602002602001604051908101604052809291908181526020016000905b828210156127df578382906000526020600020906004020160405180608001604052908160008201805461269590613ffc565b80601f01602080910402602001604051908101604052809291908181526020018280546126c190613ffc565b801561270e5780601f106126e35761010080835404028352916020019161270e565b820191906000526020600020905b8154815290600101906020018083116126f157829003601f168201915b5050505050815260200160018201805461272790613ffc565b80601f016020809104026020016040519081016040528092919081815260200182805461275390613ffc565b80156127a05780601f10612775576101008083540402835291602001916127a0565b820191906000526020600020905b81548152906001019060200180831161278357829003601f168201915b505050505081526020016002820160009054906101000a900460ff1660ff1660ff16815260200160038201548152505081526020019060010190612662565b5050505093505050506129e8565b80806127f890614288565b915050612187565b5080612841576040517f08c379a00000000000000000000000000000000000000000000000000000000081526004016128389061447f565b60405180910390fd5b600a805480602002602001604051908101604052809291908181526020016000905b828210156129e0578382906000526020600020906004020160405180608001604052908160008201805461289690613ffc565b80601f01602080910402602001604051908101604052809291908181526020018280546128c290613ffc565b801561290f5780601f106128e45761010080835404028352916020019161290f565b820191906000526020600020905b8154815290600101906020018083116128f257829003601f168201915b5050505050815260200160018201805461292890613ffc565b80601f016020809104026020016040519081016040528092919081815260200182805461295490613ffc565b80156129a15780601f10612976576101008083540402835291602001916129a1565b820191906000526020600020905b81548152906001019060200180831161298457829003601f168201915b505050505081526020016002820160009054906101000a900460ff1660ff1660ff16815260200160038201548152505081526020019060010190612863565b505050509150505b919050565b600860009054906101000a900473ffffffffffffffffffffffffffffffffffffffff1673ffffffffffffffffffffffffffffffffffffffff163373ffffffffffffffffffffffffffffffffffffffff1614612a7d576040517f08c379a0000000000000000000000000000000000000000000000000000000008152600401612a74906144eb565b60405180910390fd5b600080612a8984613241565b9150915080612acd576040517f08c379a0000000000000000000000000000000000000000000000000000000008152600401612ac490614557565b60405180910390fd5b612b0583600a8481548110612ae557612ae4614172565b5b90600052602060002090600402016003015461321990919063ffffffff16565b600a8381548110612b1957612b18614172565b5b906000526020600020906004020160030181905550612b9c83600960003373ffffffffffffffffffffffffffffffffffffffff1673ffffffffffffffffffffffffffffffffffffffff16815260200190815260200160002086604051612b7f9190613fb6565b90815260200160405180910390205461321990919063ffffffff16565b600960003373ffffffffffffffffffffffffffffffffffffffff1673ffffffffffffffffffffffffffffffffffffffff16815260200190815260200160002085604051612be99190613fb6565b90815260200160405180910390208190555050505050565b600860009054906101000a900473ffffffffffffffffffffffffffffffffffffffff1673ffffffffffffffffffffffffffffffffffffffff163373ffffffffffffffffffffffffffffffffffffffff1614612c91576040517f08c379a0000000000000000000000000000000000000000000000000000000008152600401612c88906144eb565b60405180910390fd5b600080612c9d84613241565b9150915080612ce1576040517f08c379a0000000000000000000000000000000000000000000000000000000008152600401612cd890614557565b60405180910390fd5b82600960003373ffffffffffffffffffffffffffffffffffffffff1673ffffffffffffffffffffffffffffffffffffffff16815260200190815260200160002085604051612d2f9190613fb6565b9081526020016040518091039020541015612d7f576040517f08c379a0000000000000000000000000000000000000000000000000000000008152600401612d76906140e6565b60405180910390fd5b612db783600a8481548110612d9757612d96614172565b5b90600052602060002090600402016003015461338890919063ffffffff16565b600a8381548110612dcb57612dca614172565b5b906000526020600020906004020160030181905550612e4e83600960003373ffffffffffffffffffffffffffffffffffffffff1673ffffffffffffffffffffffffffffffffffffffff16815260200190815260200160002086604051612e319190613fb6565b90815260200160405180910390205461338890919063ffffffff16565b600960003373ffffffffffffffffffffffffffffffffffffffff1673ffffffffffffffffffffffffffffffffffffffff16815260200190815260200160002085604051612e9b9190613fb6565b90815260200160405180910390208190555050505050565b6000600560008473ffffffffffffffffffffffffffffffffffffffff1673ffffffffffffffffffffffffffffffffffffffff16815260200190815260200160002060008373ffffffffffffffffffffffffffffffffffffffff1673ffffffffffffffffffffffffffffffffffffffff16815260200190815260200160002054905092915050565b600080612f4685613241565b91505080612f89576040517f08c379a0000000000000000000000000000000000000000000000000000000008152600401612f80906145c3565b60405180910390fd5b612f92856104aa565b831115612fd4576040517f08c379a0000000000000000000000000000000000000000000000000000000008152600401612fcb9061462f565b60405180910390fd5b600073ffffffffffffffffffffffffffffffffffffffff168473ffffffffffffffffffffffffffffffffffffffff16141561300e57600080fd5b61307c83600960003373ffffffffffffffffffffffffffffffffffffffff1673ffffffffffffffffffffffffffffffffffffffff1681526020019081526020016000208760405161305f9190613fb6565b90815260200160405180910390205461338890919063ffffffff16565b600960003373ffffffffffffffffffffffffffffffffffffffff1673ffffffffffffffffffffffffffffffffffffffff168152602001908152602001600020866040516130c99190613fb6565b90815260200160405180910390208190555061314983600960008773ffffffffffffffffffffffffffffffffffffffff1673ffffffffffffffffffffffffffffffffffffffff1681526020019081526020016000208760405161312c9190613fb6565b90815260200160405180910390205461321990919063ffffffff16565b600960008673ffffffffffffffffffffffffffffffffffffffff1673ffffffffffffffffffffffffffffffffffffffff168152602001908152602001600020866040516131969190613fb6565b9081526020016040518091039020819055508373ffffffffffffffffffffffffffffffffffffffff163373ffffffffffffffffffffffffffffffffffffffff167fddf252ad1be2c89b69c2b068fc378daa952ba7f163c4a11628f55a4df523b3ef85604051613205919061384d565b60405180910390a360019150509392505050565b600080828461322891906143a9565b90508381101561323757600080fd5b8091505092915050565b60008060005b600a805490508110156133395761331484600a838154811061326c5761326b614172565b5b9060005260206000209060040201600101805461328890613ffc565b80601f01602080910402602001604051908101604052809291908181526020018280546132b490613ffc565b80156133015780601f106132d657610100808354040283529160200191613301565b820191906000526020600020905b8154815290600101906020018083116132e457829003601f168201915b50505050506133b190919063ffffffff16565b15613326578060019250925050613383565b808061333190614288565b915050613247565b50600061337b576040517f08c379a0000000000000000000000000000000000000000000000000000000008152600401613372906146c1565b60405180910390fd5b600080915091505b915091565b60008282111561339757600080fd5b600082846133a591906143ff565b90508091505092915050565b600081518351146133c55760009050613479565b60005b8351811015613473578281815181106133e4576133e3614172565b5b602001015160f81c60f81b7effffffffffffffffffffffffffffffffffffffffffffffffffffffffffffff191684828151811061342457613423614172565b5b602001015160f81c60f81b7effffffffffffffffffffffffffffffffffffffffffffffffffffffffffffff191614613460576000915050613479565b808061346b90614288565b9150506133c8565b50600190505b92915050565b82805461348b90613ffc565b90600052602060002090601f0160209004810192826134ad57600085556134f4565b82601f106134c657805160ff19168380011785556134f4565b828001600101855582156134f4579182015b828111156134f35782518255916020019190600101906134d8565b5b5090506135019190613621565b5090565b60405180608001604052806060815260200160608152602001600060ff168152602001600081525090565b50805461353c90613ffc565b6000825580601f1061354e575061356d565b601f01602090049060005260206000209081019061356c9190613621565b5b50565b82805461357c90613ffc565b90600052602060002090601f01602090048101928261359e57600085556135ec565b82601f106135af57805485556135ec565b828001600101855582156135ec57600052602060002091601f016020900482015b828111156135eb5782548255916001019190600101906135d0565b5b5090506135f99190613621565b5090565b508054600082556004029060005260206000209081019061361e919061363e565b50565b5b8082111561363a576000816000905550600101613622565b5090565b5b8082111561368d57600080820160006136589190613530565b6001820160006136689190613530565b6002820160006101000a81549060ff021916905560038201600090555060040161363f565b5090565b6000604051905090565b600080fd5b600080fd5b600080fd5b600080fd5b6000601f19601f8301169050919050565b7f4e487b7100000000000000000000000000000000000000000000000000000000600052604160045260246000fd5b6136f8826136af565b810181811067ffffffffffffffff82111715613717576137166136c0565b5b80604052505050565b600061372a613691565b905061373682826136ef565b919050565b600067ffffffffffffffff821115613756576137556136c0565b5b61375f826136af565b9050602081019050919050565b82818337600083830152505050565b600061378e6137898461373b565b613720565b9050828152602081018484840111156137aa576137a96136aa565b5b6137b584828561376c565b509392505050565b600082601f8301126137d2576137d16136a5565b5b81356137e284826020860161377b565b91505092915050565b6000602082840312156138015761380061369b565b5b600082013567ffffffffffffffff81111561381f5761381e6136a0565b5b61382b848285016137bd565b91505092915050565b6000819050919050565b61384781613834565b82525050565b6000602082019050613862600083018461383e565b92915050565b600081519050919050565b600082825260208201905092915050565b60005b838110156138a2578082015181840152602081019050613887565b838111156138b1576000848401525b50505050565b60006138c282613868565b6138cc8185613873565b93506138dc818560208601613884565b6138e5816136af565b840191505092915050565b6000602082019050818103600083015261390a81846138b7565b905092915050565b600073ffffffffffffffffffffffffffffffffffffffff82169050919050565b600061393d82613912565b9050919050565b61394d81613932565b811461395857600080fd5b50565b60008135905061396a81613944565b92915050565b61397981613834565b811461398457600080fd5b50565b60008135905061399681613970565b92915050565b600080604083850312156139b3576139b261369b565b5b60006139c18582860161395b565b92505060206139d285828601613987565b9150509250929050565b60008115159050919050565b6139f1816139dc565b82525050565b6000602082019050613a0c60008301846139e8565b92915050565b600060208284031215613a2857613a2761369b565b5b6000613a3684828501613987565b91505092915050565b600060ff82169050919050565b613a5581613a3f565b8114613a6057600080fd5b50565b600081359050613a7281613a4c565b92915050565b60008060008060808587031215613a9257613a9161369b565b5b600085013567ffffffffffffffff811115613ab057613aaf6136a0565b5b613abc878288016137bd565b945050602085013567ffffffffffffffff811115613add57613adc6136a0565b5b613ae9878288016137bd565b9350506040613afa87828801613a63565b9250506060613b0b87828801613987565b91505092959194509250565b600081519050919050565b600082825260208201905092915050565b6000819050602082019050919050565b600082825260208201905092915050565b6000613b5f82613868565b613b698185613b43565b9350613b79818560208601613884565b613b82816136af565b840191505092915050565b613b9681613a3f565b82525050565b613ba581613834565b82525050565b60006080830160008301518482036000860152613bc88282613b54565b91505060208301518482036020860152613be28282613b54565b9150506040830151613bf76040860182613b8d565b506060830151613c0a6060860182613b9c565b508091505092915050565b6000613c218383613bab565b905092915050565b6000602082019050919050565b6000613c4182613b17565b613c4b8185613b22565b935083602082028501613c5d85613b33565b8060005b85811015613c995784840389528151613c7a8582613c15565b9450613c8583613c29565b925060208a01995050600181019050613c61565b50829750879550505050505092915050565b60006020820190508181036000830152613cc58184613c36565b905092915050565b600080600060608486031215613ce657613ce561369b565b5b6000613cf48682870161395b565b9350506020613d058682870161395b565b9250506040613d1686828701613987565b9150509250925092565b613d2981613a3f565b82525050565b6000602082019050613d446000830184613d20565b92915050565b600060208284031215613d6057613d5f61369b565b5b6000613d6e8482850161395b565b91505092915050565b60006080830160008301518482036000860152613d948282613b54565b91505060208301518482036020860152613dae8282613b54565b9150506040830151613dc36040860182613b8d565b506060830151613dd66060860182613b9c565b508091505092915050565b60006020820190508181036000830152613dfb8184613d77565b905092915050565b60008060408385031215613e1a57613e1961369b565b5b600083013567ffffffffffffffff811115613e3857613e376136a0565b5b613e44858286016137bd565b9250506020613e5585828601613987565b9150509250929050565b60008060408385031215613e7657613e7561369b565b5b6000613e848582860161395b565b9250506020613e958582860161395b565b9150509250929050565b600080600060608486031215613eb857613eb761369b565b5b600084013567ffffffffffffffff811115613ed657613ed56136a0565b5b613ee2868287016137bd565b9350506020613ef38682870161395b565b9250506040613f0486828701613987565b9150509250925092565b7f2054686520746f6b656e206973206e6f74206578697374656420212000000000600082015250565b6000613f44601c83613873565b9150613f4f82613f0e565b602082019050919050565b60006020820190508181036000830152613f7381613f37565b9050919050565b600081905092915050565b6000613f9082613868565b613f9a8185613f7a565b9350613faa818560208601613884565b80840191505092915050565b6000613fc28284613f85565b915081905092915050565b7f4e487b7100000000000000000000000000000000000000000000000000000000600052602260045260246000fd5b6000600282049050600182168061401457607f821691505b6020821081141561402857614027613fcd565b5b50919050565b7f4f6e6c792074686520726f6f742063616e20646573746f727920746f6b656e21600082015250565b6000614064602083613873565b915061406f8261402e565b602082019050919050565b6000602082019050818103600083015261409381614057565b9050919050565b7f496e73756666696369656e742062616c616e6365202100000000000000000000600082015250565b60006140d0601683613873565b91506140db8261409a565b602082019050919050565b600060208201905081810360008301526140ff816140c3565b9050919050565b7f4f6e6c7920726f6f742063616e206372656174652074686520746f6b656e2021600082015250565b600061413c602083613873565b915061414782614106565b602082019050919050565b6000602082019050818103600083015261416b8161412f565b9050919050565b7f4e487b7100000000000000000000000000000000000000000000000000000000600052603260045260246000fd5b7f6661696c656420746f2063726561746520746f6b656e202120546865206e616d60008201527f65206f722073796d626f6c2068617320616c726561647920657869737465642060208201527f2100000000000000000000000000000000000000000000000000000000000000604082015250565b6000614223604183613873565b915061422e826141a1565b606082019050919050565b6000602082019050818103600083015261425281614216565b9050919050565b7f4e487b7100000000000000000000000000000000000000000000000000000000600052601160045260246000fd5b600061429382613834565b91507fffffffffffffffffffffffffffffffffffffffffffffffffffffffffffffffff8214156142c6576142c5614259565b5b600182019050919050565b7f4f6e6c792074686520726f6f742063616e2063726561746520746f6b656e2100600082015250565b6000614307601f83613873565b9150614312826142d1565b602082019050919050565b60006020820190508181036000830152614336816142fa565b9050919050565b7f546865204956494c2069732063616e277420626520646573746f727965642021600082015250565b6000614373602083613873565b915061437e8261433d565b602082019050919050565b600060208201905081810360008301526143a281614366565b9050919050565b60006143b482613834565b91506143bf83613834565b9250827fffffffffffffffffffffffffffffffffffffffffffffffffffffffffffffffff038211156143f4576143f3614259565b5b828201905092915050565b600061440a82613834565b915061441583613834565b92508282101561442857614427614259565b5b828203905092915050565b7f6661696c656420746f2064656c65746520210000000000000000000000000000600082015250565b6000614469601283613873565b915061447482614433565b602082019050919050565b600060208201905081810360008301526144988161445c565b9050919050565b7f4f6e6c7920726f6f742063616e206164642074686520746f6b656e2021000000600082015250565b60006144d5601d83613873565b91506144e08261449f565b602082019050919050565b60006020820190508181036000830152614504816144c8565b9050919050565b7f54686520746f6b656e206973206e6f7420657869737465642021000000000000600082015250565b6000614541601a83613873565b915061454c8261450b565b602082019050919050565b6000602082019050818103600083015261457081614534565b9050919050565b7f54686520746f6b656e206973206e6f7420657869737465640000000000000000600082015250565b60006145ad601883613873565b91506145b882614577565b602082019050919050565b600060208201905081810360008301526145dc816145a0565b9050919050565b7f54686520746f6b656e206973206e6f7420656e6f756768202100000000000000600082015250565b6000614619601983613873565b9150614624826145e3565b602082019050919050565b600060208201905081810360008301526146488161460c565b9050919050565b7f5468652073706563696669656420746f6b656e20776173206e6f7420666f756e60008201527f6420210000000000000000000000000000000000000000000000000000000000602082015250565b60006146ab602383613873565b91506146b68261464f565b604082019050919050565b600060208201905081810360008301526146da8161469e565b905091905056fea264697066735822122034b7722f31f56cbfb1ab148e8579cfdb621e5d3428ae7f6c2ee44b2394f2f58b64736f6c634300080c0033",
  "immutableReferences": {},
  "source": "// SPDX-License-Identifier: GPL-3.0\r\n\r\npragma solidity >=0.4.24;\r\n\r\n/**\r\n * @title \r\n * @dev \r\n */\r\nlibrary SafeMath {\r\n    /**\r\n     * @dev \r\n     */\r\n    function mul(uint256 a, uint256 b) internal pure returns (uint256) {\r\n        if (a == 0) {\r\n            return 0;\r\n        }\r\n\r\n        uint256 c = a * b;\r\n        require(c / a == b);\r\n\r\n        return c;\r\n    }\r\n\r\n    /**\r\n     * @dev \r\n     */\r\n    function div(uint256 a, uint256 b) internal pure returns (uint256) {\r\n        require(b > 0);\r\n        uint256 c = a / b;\r\n\r\n        return c;\r\n    }\r\n\r\n    /**\r\n     * @dev \r\n     */\r\n    function sub(uint256 a, uint256 b) internal pure returns (uint256) {\r\n        require(b <= a);\r\n        uint256 c = a - b;\r\n\r\n        return c;\r\n    }\r\n\r\n    /**\r\n     * @dev \r\n     */\r\n    function add(uint256 a, uint256 b) internal pure returns (uint256) {\r\n        uint256 c = a + b;\r\n        require(c >= a);\r\n\r\n        return c;\r\n    }\r\n\r\n    /**\r\n     * @dev \r\n     */\r\n    function mod(uint256 a, uint256 b) internal pure returns (uint256) {\r\n        require(b != 0);\r\n        return a % b;\r\n    }\r\n}\r\n\r\n/**\r\n *@dev ,\r\n */\r\nlibrary StringUtils {\r\n    function CompareInternal(string memory a, string memory b)\r\n        internal\r\n        pure\r\n        returns (bool)\r\n    {\r\n        if (bytes(a).length != bytes(b).length) {\r\n            return false;\r\n        }\r\n        for (uint256 i = 0; i < bytes(a).length; i++) {\r\n            if (bytes(a)[i] != bytes(b)[i]) {\r\n                return false;\r\n            }\r\n        }\r\n        return true;\r\n    }\r\n}\r\n\r\n//========================================================================================\r\n\r\n/**\r\n * @title ERC20 interface\r\n */\r\ninterface IERC20 {\r\n    // methods\r\n    function totalSupply() external view returns (uint256);\r\n\r\n    function balanceOf(address who) external view returns (uint256);\r\n\r\n    function allowance(address owner, address spender)\r\n        external\r\n        view\r\n        returns (uint256);\r\n\r\n    function transfer(address to, uint256 value) external returns (bool);\r\n\r\n    function approve(address spender, uint256 value) external returns (bool);\r\n\r\n    function transferFrom(\r\n        address from,\r\n        address to,\r\n        uint256 value\r\n    ) external returns (bool);\r\n\r\n    // event\r\n    event Transfer(address indexed from, address indexed to, uint256 value);\r\n\r\n    event Approval(\r\n        address indexed owner,\r\n        address indexed spender,\r\n        uint256 value\r\n    );\r\n}\r\n\r\n//=======================================================================================\r\n/**\r\n * @title ERC20\r\n *\r\n */\r\ncontract ERC20 is IERC20 {\r\n    using SafeMath for uint256;\r\n\r\n    string private _name = \"ivil.world\"; //\r\n    string private _symbol = \"IVIL\"; //\r\n    uint8 private _decimals = 9; //\r\n    uint256 private _totalSupply = 21000000; //\r\n\r\n    mapping(address => uint256) private _balances;\r\n\r\n    mapping(address => mapping(address => uint256)) private _allowed;\r\n\r\n    address private root; //\r\n\r\n    constructor() {\r\n        root = msg.sender;\r\n        _balances[msg.sender] = _balances[msg.sender].add(_totalSupply);\r\n    }\r\n\r\n    function name() public view returns (string memory) {\r\n        return _name;\r\n    }\r\n\r\n    function symbol() public view returns (string memory) {\r\n        return _symbol;\r\n    }\r\n\r\n    function decimals() public view returns (uint8) {\r\n        return _decimals;\r\n    }\r\n\r\n    // \r\n    function createIVIL(uint256 value) public returns (bool) {\r\n        require(msg.sender == root, \"Only the root can create token!\");\r\n        _balances[msg.sender] = _balances[msg.sender].add(value);\r\n        _totalSupply = _totalSupply.add(value);\r\n        return true;\r\n    }\r\n\r\n    // \r\n    function destoryIVIL(uint256 value) public returns (bool) {\r\n        require(msg.sender == root, \"Only the root can destory token!\");\r\n        require(_balances[msg.sender] >= value, \"Insufficient balance !\");\r\n        _balances[msg.sender] = _balances[msg.sender].sub(value);\r\n        _totalSupply = _totalSupply.sub(value);\r\n        return true;\r\n    }\r\n\r\n    function totalSupply() public view returns (uint256) {\r\n        return _totalSupply;\r\n    }\r\n\r\n    function balanceOf(address owner) public view returns (uint256) {\r\n        return _balances[owner];\r\n    }\r\n\r\n    function allowance(address owner, address spender)\r\n        public\r\n        view\r\n        returns (uint256)\r\n    {\r\n        return _allowed[owner][spender];\r\n    }\r\n\r\n    function transfer(address to, uint256 value) public returns (bool) {\r\n        require(value <= _balances[msg.sender]);\r\n        require(to != address(0));\r\n\r\n        _balances[msg.sender] = _balances[msg.sender].sub(value);\r\n        _balances[to] = _balances[to].add(value);\r\n        emit Transfer(msg.sender, to, value);\r\n        return true;\r\n    }\r\n\r\n    function approve(address spender, uint256 value) public returns (bool) {\r\n        require(spender != address(0));\r\n\r\n        _allowed[msg.sender][spender] = value;\r\n        emit Approval(msg.sender, spender, value);\r\n        return true;\r\n    }\r\n\r\n    function transferFrom(\r\n        address from,\r\n        address to,\r\n        uint256 value\r\n    ) public returns (bool) {\r\n        require(value <= _balances[from]);\r\n        require(value <= _allowed[from][msg.sender]);\r\n        require(to != address(0));\r\n\r\n        _balances[from] = _balances[from].sub(value);\r\n        _balances[to] = _balances[to].add(value);\r\n        _allowed[from][msg.sender] = _allowed[from][msg.sender].sub(value);\r\n        emit Transfer(from, to, value);\r\n        return true;\r\n    }\r\n\r\n    function increaseAllowance(address spender, uint256 addedValue)\r\n        public\r\n        returns (bool)\r\n    {\r\n        require(spender != address(0));\r\n\r\n        _allowed[msg.sender][spender] = (\r\n            _allowed[msg.sender][spender].add(addedValue)\r\n        );\r\n        emit Approval(msg.sender, spender, _allowed[msg.sender][spender]);\r\n        return true;\r\n    }\r\n\r\n    function decreaseAllowance(address spender, uint256 subtractedValue)\r\n        public\r\n        returns (bool)\r\n    {\r\n        require(spender != address(0));\r\n\r\n        _allowed[msg.sender][spender] = (\r\n            _allowed[msg.sender][spender].sub(subtractedValue)\r\n        );\r\n        emit Approval(msg.sender, spender, _allowed[msg.sender][spender]);\r\n        return true;\r\n    }\r\n\r\n    function _mint(address account, uint256 amount) internal {\r\n        require(account != address(0));\r\n        _totalSupply = _totalSupply.add(amount);\r\n        _balances[account] = _balances[account].add(amount);\r\n        emit Transfer(address(0), account, amount);\r\n    }\r\n\r\n    function _burn(address account, uint256 amount) internal {\r\n        require(account != address(0));\r\n        require(amount <= _balances[account]);\r\n\r\n        _totalSupply = _totalSupply.sub(amount);\r\n        _balances[account] = _balances[account].sub(amount);\r\n        emit Transfer(account, address(0), amount);\r\n    }\r\n\r\n    function _burnFrom(address account, uint256 amount) internal {\r\n        require(amount <= _allowed[account][msg.sender]);\r\n\r\n        _allowed[account][msg.sender] = _allowed[account][msg.sender].sub(\r\n            amount\r\n        );\r\n        _burn(account, amount);\r\n    }\r\n}\r\n\r\n//===================================================================================\r\n\r\ncontract IvilWorld is ERC20 {\r\n    using SafeMath for uint256;\r\n    using StringUtils for string;\r\n\r\n    struct Token {\r\n        string name; //\r\n        string symbol; //\r\n        uint8 decimals; //20.01\r\n        uint256 totalSupply; //\r\n    }\r\n\r\n    address private ice; //\r\n    address private root; //\r\n\r\n    mapping(address => mapping(string => uint256)) private balance; //\r\n\r\n    Token[] private tokens;\r\n    /*\r\n     *constant , , , , constant(: block.number , now , msg.sender  )\r\n     *constant  strings  .\r\n     */\r\n    Token private godToken = Token(\"ivil.world\", \"IVIL\", 9, 21000000); // token,\r\n\r\n    constructor() {\r\n        root = msg.sender;\r\n        tokens.push(godToken);\r\n        balance[msg.sender][godToken.symbol] = balance[msg.sender][\r\n            godToken.symbol\r\n        ].add(godToken.totalSupply);\r\n    }\r\n\r\n    // \r\n    function createToken(\r\n        string memory name,\r\n        string memory symbol,\r\n        uint8 decimals,\r\n        uint256 total\r\n    ) public returns (Token[] memory) {\r\n        require(msg.sender == root, \"Only root can create the token !\");\r\n        bool status = false;\r\n        for (uint256 i = 0; i < tokens.length; i++) {\r\n            if (\r\n                tokens[i].name.CompareInternal(name) ||\r\n                tokens[i].symbol.CompareInternal(symbol)\r\n            ) {\r\n                require(\r\n                    status,\r\n                    \"failed to create token ! The name or symbol has already existed !\"\r\n                );\r\n                return tokens;\r\n            }\r\n        }\r\n        Token memory token = Token(name, symbol, decimals, total);\r\n        tokens.push(token);\r\n        balance[msg.sender][token.symbol] = balance[msg.sender][token.symbol]\r\n            .add(token.totalSupply);\r\n        return tokens;\r\n    }\r\n\r\n    // \r\n    function destoryToken(string memory symbol)\r\n        public\r\n        returns (Token[] memory)\r\n    {\r\n        require(msg.sender == root, \"Only root can create the token !\");\r\n        require(\r\n            !symbol.CompareInternal(\"IVIL\"),\r\n            \"The IVIL is can't be destoryed !\"\r\n        );\r\n        bool status = false;\r\n        for (uint256 i = 0; i < tokens.length; i++) {\r\n            if (tokens[i].symbol.CompareInternal(symbol)) {\r\n                delete tokens[i];\r\n                while (i + 1 < tokens.length) {\r\n                    tokens[i] = tokens[i + 1];\r\n                    i++;\r\n                }\r\n                Token[] memory temp;\r\n                temp = tokens;\r\n                delete tokens;\r\n                for (uint256 k = 0; k < temp.length - 1; k++) {\r\n                    tokens.push(temp[k]);\r\n                }\r\n                return tokens;\r\n            }\r\n        }\r\n        require(status, \"failed to delete !\");\r\n        return tokens;\r\n    }\r\n\r\n    // token\r\n    function increaseToken(string memory symbol, uint256 value) public {\r\n        require(msg.sender == root, \"Only root can add the token !\");\r\n        (uint256 index, bool isExisted) = getLocationBySymbol(symbol);\r\n        require(isExisted, \"The token is not existed !\");\r\n        tokens[index].totalSupply = tokens[index].totalSupply.add(value);\r\n        balance[msg.sender][symbol] = balance[msg.sender][symbol].add(value);\r\n    }\r\n\r\n    // token\r\n    function decreaseToken(string memory symbol, uint256 value) public {\r\n        require(msg.sender == root, \"Only root can add the token !\");\r\n        (uint256 index, bool isExisted) = getLocationBySymbol(symbol);\r\n        require(isExisted, \"The token is not existed !\");\r\n        require(balance[msg.sender][symbol] >= value, \"Insufficient balance !\");\r\n        tokens[index].totalSupply = tokens[index].totalSupply.sub(value);\r\n        balance[msg.sender][symbol] = balance[msg.sender][symbol].sub(value);\r\n    }\r\n\r\n    // token\r\n    function getLocationBySymbol(string memory symbol)\r\n        internal\r\n        view\r\n        returns (uint256, bool)\r\n    {\r\n        for (uint256 i = 0; i < tokens.length; i++) {\r\n            if (tokens[i].symbol.CompareInternal(symbol)) {\r\n                return (i, true);\r\n            }\r\n        }\r\n        require(false, \"The specified token was not found !\");\r\n        return (0, false);\r\n    }\r\n\r\n    // token\r\n    function getTokenInfo(string memory symbol)\r\n        public\r\n        view\r\n        returns (Token memory)\r\n    {\r\n        (uint256 index, bool isExisted) = getLocationBySymbol(symbol);\r\n        require(isExisted, \" The token is not existed ! \");\r\n        return tokens[index];\r\n    }\r\n\r\n    // \r\n    function getAllTokensInfo() public view returns (Token[] memory) {\r\n        return tokens;\r\n    }\r\n\r\n    // \r\n    function getTokenBalance(string memory symbol)\r\n        public\r\n        view\r\n        returns (uint256)\r\n    {\r\n        (, bool isExisted) = getLocationBySymbol(symbol);\r\n        require(isExisted, \" The token is not existed ! \");\r\n        return balance[msg.sender][symbol];\r\n    }\r\n\r\n    // token\r\n    function getSpecificTokenBalance(string memory symbol, address who)\r\n        internal\r\n        view\r\n        returns (uint256)\r\n    {\r\n        (, bool isExisted) = getLocationBySymbol(symbol);\r\n        require(isExisted, \" The token is not existed ! \");\r\n        return balance[who][symbol];\r\n    }\r\n\r\n    // \r\n    function transferToken(\r\n        string memory symbol,\r\n        address to,\r\n        uint256 value\r\n    ) public returns (bool) {\r\n        (, bool isExisted) = getLocationBySymbol(symbol);\r\n        require(isExisted, \"The token is not existed\");\r\n        require(value <= getTokenBalance(symbol), \"The token is not enough !\");\r\n        require(to != address(0));\r\n        balance[msg.sender][symbol] = balance[msg.sender][symbol].sub(value);\r\n        balance[to][symbol] = balance[to][symbol].add(value);\r\n        emit Transfer(msg.sender, to, value);\r\n        return true;\r\n    }\r\n\r\n    // token\r\n    function freezeToken(string memory symbol, uint256 value)\r\n        internal\r\n        returns (bool)\r\n    {\r\n        (, bool isExisted) = getLocationBySymbol(symbol);\r\n        require(isExisted, \"The token is not existed\");\r\n        require(value <= getTokenBalance(symbol), \"The token is not enough !\");\r\n        balance[msg.sender][symbol] = balance[msg.sender][symbol].sub(value);\r\n        balance[ice][symbol] = balance[ice][symbol].add(value);\r\n        emit Transfer(msg.sender, ice, value);\r\n        return true;\r\n    }\r\n\r\n    // token\r\n    function unfreezeToken(string memory symbol, uint256 value)\r\n        internal\r\n        returns (bool)\r\n    {\r\n        (, bool isExisted) = getLocationBySymbol(symbol);\r\n        require(isExisted, \"The token is not existed\");\r\n        balance[ice][symbol] = balance[ice][symbol].sub(value);\r\n        balance[msg.sender][symbol] = balance[msg.sender][symbol].add(value);\r\n        emit Transfer(ice, msg.sender, value);\r\n        return true;\r\n    }\r\n}\r\n\r\n// ===========================================================================\r\n\r\ncontract TradingSystem is IvilWorld {\r\n    using SafeMath for uint256;\r\n    using StringUtils for string;\r\n\r\n    struct Transaction {\r\n        address sender; //\r\n        string symbol; //\r\n        uint256 value; //\r\n        uint256 price; //\r\n        bool status; //\r\n        uint256 index; //\r\n    }\r\n\r\n    mapping(uint256 => Transaction) private tradingPool; //\r\n    Transaction[] private transactions; //\r\n    uint256 private counter;\r\n\r\n    address private root; //\r\n\r\n    constructor() {\r\n        root = msg.sender;\r\n    }\r\n\r\n    // \r\n    function depthOfPool() public view returns (uint256) {\r\n        return counter;\r\n    }\r\n\r\n    // \r\n    function transactionsOfPool() public returns (Transaction[] memory) {\r\n        delete transactions; //\r\n        for (uint256 i; i <= counter; i++) {\r\n            if (tradingPool[i].status == false) {\r\n                transactions.push(tradingPool[i]);\r\n            }\r\n        }\r\n        return transactions;\r\n    }\r\n\r\n    // \r\n    function sell(\r\n        string memory symbol,\r\n        uint256 value,\r\n        uint256 price\r\n    ) public {\r\n        (, bool isExisted) = getLocationBySymbol(symbol);\r\n        require(isExisted, \"The token is not existed !\");\r\n        uint256 temp = getTokenBalance(symbol);\r\n        require(value <= temp, \"The token is not enough !\");\r\n        Transaction memory deal = Transaction(\r\n            msg.sender,\r\n            symbol,\r\n            value,\r\n            price,\r\n            false,\r\n            counter\r\n        );\r\n        tradingPool[counter] = deal;\r\n        freezeToken(symbol, value);\r\n    }\r\n\r\n    // \r\n    function cancelSell(uint256 index) public {\r\n        require(index <= counter, \"The transaction is not existed !\");\r\n        require(\r\n            !tradingPool[index].status,\r\n            \"The transaction has already been completed !\"\r\n        );\r\n        require(msg.sender == tradingPool[index].sender);\r\n        unfreezeToken(tradingPool[index].symbol, tradingPool[index].value);\r\n        tradingPool[index].status = true;\r\n    }\r\n\r\n    // \r\n    function buy(uint256 index) public {\r\n        require(index <= counter, \"The transaction is not existed !\");\r\n        require(\r\n            !tradingPool[index].status,\r\n            \"The transaction has already been completed !\"\r\n        );\r\n        transfer(tradingPool[index].sender, tradingPool[index].price);\r\n        unfreezeToken(tradingPool[index].symbol, tradingPool[index].value);\r\n        tradingPool[index].status = true;\r\n    }\r\n}\r\n",
  "sourcePath": "E:\\Project\\Blockchain\\TradingSystemBasedOnBlockchain\\smart_contract\\contracts\\TradingSystem.sol",
  "compiler": {
    "name": "solc",
    "version": "0.8.12+commit.f00d7308.Emscripten.clang"
  },
  "schemaVersion": "3.4.7",
  "updatedAt": "2022-04-30T12:40:24.874Z",
  "devdoc": {
    "kind": "dev",
    "methods": {},
    "version": 1
  },
  "userdoc": {
    "kind": "user",
    "methods": {},
    "version": 1
  }
}