{
  "contractName": "Market",
  "abi": [
    {
      "inputs": [
        {
          "internalType": "address",
          "name": "",
          "type": "address"
        }
      ],
      "name": "tokens",
      "outputs": [
        {
          "internalType": "string",
          "name": "name",
          "type": "string"
        },
        {
          "internalType": "uint256",
          "name": "count",
          "type": "uint256"
        }
      ],
      "stateMutability": "view",
      "type": "function"
    },
    {
      "inputs": [
        {
          "components": [
            {
              "internalType": "string",
              "name": "name",
              "type": "string"
            },
            {
              "internalType": "uint256",
              "name": "price",
              "type": "uint256"
            },
            {
              "internalType": "uint256",
              "name": "count",
              "type": "uint256"
            },
            {
              "internalType": "string",
              "name": "description",
              "type": "string"
            }
          ],
          "internalType": "struct Market.Product",
          "name": "product",
          "type": "tuple"
        }
      ],
      "name": "onShelf",
      "outputs": [],
      "stateMutability": "nonpayable",
      "type": "function"
    },
    {
      "inputs": [],
      "name": "getProductList",
      "outputs": [
        {
          "components": [
            {
              "internalType": "string",
              "name": "name",
              "type": "string"
            },
            {
              "internalType": "uint256",
              "name": "price",
              "type": "uint256"
            },
            {
              "internalType": "uint256",
              "name": "count",
              "type": "uint256"
            },
            {
              "internalType": "string",
              "name": "description",
              "type": "string"
            }
          ],
          "internalType": "struct Market.Product[]",
          "name": "",
          "type": "tuple[]"
        }
      ],
      "stateMutability": "view",
      "type": "function"
    },
    {
      "inputs": [
        {
          "internalType": "uint256",
          "name": "id",
          "type": "uint256"
        }
      ],
      "name": "offShelf",
      "outputs": [
        {
          "components": [
            {
              "internalType": "string",
              "name": "name",
              "type": "string"
            },
            {
              "internalType": "uint256",
              "name": "price",
              "type": "uint256"
            },
            {
              "internalType": "uint256",
              "name": "count",
              "type": "uint256"
            },
            {
              "internalType": "string",
              "name": "description",
              "type": "string"
            }
          ],
          "internalType": "struct Market.Product[]",
          "name": "",
          "type": "tuple[]"
        }
      ],
      "stateMutability": "nonpayable",
      "type": "function"
    }
  ],
  "bytecode": "0x608060405234801561001057600080fd5b50610cfe806100206000396000f3fe608060405234801561001057600080fd5b506004361061004c5760003560e01c806306d40d301461005157806334d2c0ad14610081578063a3485b231461009f578063e4860339146100bb575b600080fd5b61006b600480360381019061006691906106c9565b6100ec565b60405161007891906108ca565b60405180910390f35b6100896102da565b60405161009691906108ca565b60405180910390f35b6100b960048036038101906100b49190610adb565b610471565b005b6100d560048036038101906100d09190610b82565b6104f0565b6040516100e3929190610c08565b60405180910390f35b60606001828154811061010257610101610c38565b5b906000526020600020906004020160008082016000610121919061059c565b60018201600090556002820160009055600382016000610141919061059c565b50506001805480602002602001604051908101604052809291908181526020016000905b828210156102cf578382906000526020600020906004020160405180608001604052908160008201805461019890610c96565b80601f01602080910402602001604051908101604052809291908181526020018280546101c490610c96565b80156102115780601f106101e657610100808354040283529160200191610211565b820191906000526020600020905b8154815290600101906020018083116101f457829003601f168201915b50505050508152602001600182015481526020016002820154815260200160038201805461023e90610c96565b80601f016020809104026020016040519081016040528092919081815260200182805461026a90610c96565b80156102b75780601f1061028c576101008083540402835291602001916102b7565b820191906000526020600020905b81548152906001019060200180831161029a57829003601f168201915b50505050508152505081526020019060010190610165565b505050509050919050565b60606001805480602002602001604051908101604052809291908181526020016000905b82821015610468578382906000526020600020906004020160405180608001604052908160008201805461033190610c96565b80601f016020809104026020016040519081016040528092919081815260200182805461035d90610c96565b80156103aa5780601f1061037f576101008083540402835291602001916103aa565b820191906000526020600020905b81548152906001019060200180831161038d57829003601f168201915b5050505050815260200160018201548152602001600282015481526020016003820180546103d790610c96565b80601f016020809104026020016040519081016040528092919081815260200182805461040390610c96565b80156104505780601f1061042557610100808354040283529160200191610450565b820191906000526020600020905b81548152906001019060200180831161043357829003601f168201915b505050505081525050815260200190600101906102fe565b50505050905090565b600181908060018154018082558091505060019003906000526020600020906004020160009091909190915060008201518160000190805190602001906104b99291906105dc565b50602082015181600101556040820151816002015560608201518160030190805190602001906104ea9291906105dc565b50505050565b600060205280600052604060002060009150905080600001805461051390610c96565b80601f016020809104026020016040519081016040528092919081815260200182805461053f90610c96565b801561058c5780601f106105615761010080835404028352916020019161058c565b820191906000526020600020905b81548152906001019060200180831161056f57829003601f168201915b5050505050908060010154905082565b5080546105a890610c96565b6000825580601f106105ba57506105d9565b601f0160209004906000526020600020908101906105d89190610662565b5b50565b8280546105e890610c96565b90600052602060002090601f01602090048101928261060a5760008555610651565b82601f1061062357805160ff1916838001178555610651565b82800160010185558215610651579182015b82811115610650578251825591602001919060010190610635565b5b50905061065e9190610662565b5090565b5b8082111561067b576000816000905550600101610663565b5090565b6000604051905090565b600080fd5b600080fd5b6000819050919050565b6106a681610693565b81146106b157600080fd5b50565b6000813590506106c38161069d565b92915050565b6000602082840312156106df576106de610689565b5b60006106ed848285016106b4565b91505092915050565b600081519050919050565b600082825260208201905092915050565b6000819050602082019050919050565b600081519050919050565b600082825260208201905092915050565b60005b8381101561075c578082015181840152602081019050610741565b8381111561076b576000848401525b50505050565b6000601f19601f8301169050919050565b600061078d82610722565b610797818561072d565b93506107a781856020860161073e565b6107b081610771565b840191505092915050565b6107c481610693565b82525050565b600060808301600083015184820360008601526107e78282610782565b91505060208301516107fc60208601826107bb565b50604083015161080f60408601826107bb565b50606083015184820360608601526108278282610782565b9150508091505092915050565b600061084083836107ca565b905092915050565b6000602082019050919050565b6000610860826106f6565b61086a8185610701565b93508360208202850161087c85610712565b8060005b858110156108b857848403895281516108998582610834565b94506108a483610848565b925060208a01995050600181019050610880565b50829750879550505050505092915050565b600060208201905081810360008301526108e48184610855565b905092915050565b600080fd5b7f4e487b7100000000000000000000000000000000000000000000000000000000600052604160045260246000fd5b61092982610771565b810181811067ffffffffffffffff82111715610948576109476108f1565b5b80604052505050565b600061095b61067f565b90506109678282610920565b919050565b600080fd5b600080fd5b600080fd5b600067ffffffffffffffff821115610996576109956108f1565b5b61099f82610771565b9050602081019050919050565b82818337600083830152505050565b60006109ce6109c98461097b565b610951565b9050828152602081018484840111156109ea576109e9610976565b5b6109f58482856109ac565b509392505050565b600082601f830112610a1257610a11610971565b5b8135610a228482602086016109bb565b91505092915050565b600060808284031215610a4157610a406108ec565b5b610a4b6080610951565b9050600082013567ffffffffffffffff811115610a6b57610a6a61096c565b5b610a77848285016109fd565b6000830152506020610a8b848285016106b4565b6020830152506040610a9f848285016106b4565b604083015250606082013567ffffffffffffffff811115610ac357610ac261096c565b5b610acf848285016109fd565b60608301525092915050565b600060208284031215610af157610af0610689565b5b600082013567ffffffffffffffff811115610b0f57610b0e61068e565b5b610b1b84828501610a2b565b91505092915050565b600073ffffffffffffffffffffffffffffffffffffffff82169050919050565b6000610b4f82610b24565b9050919050565b610b5f81610b44565b8114610b6a57600080fd5b50565b600081359050610b7c81610b56565b92915050565b600060208284031215610b9857610b97610689565b5b6000610ba684828501610b6d565b91505092915050565b600082825260208201905092915050565b6000610bcb82610722565b610bd58185610baf565b9350610be581856020860161073e565b610bee81610771565b840191505092915050565b610c0281610693565b82525050565b60006040820190508181036000830152610c228185610bc0565b9050610c316020830184610bf9565b9392505050565b7f4e487b7100000000000000000000000000000000000000000000000000000000600052603260045260246000fd5b7f4e487b7100000000000000000000000000000000000000000000000000000000600052602260045260246000fd5b60006002820490506001821680610cae57607f821691505b60208210811415610cc257610cc1610c67565b5b5091905056fea26469706673582212206feafb4f5bcc0cc94cec7b981f9b3ac3ede8856b22b3d99871f52f322565a61b64736f6c634300080c0033",
  "immutableReferences": {},
  "source": "// SPDX-License-Identifier: GPL-3.0\r\n\r\npragma solidity >=0.7.0 <0.9.0;\r\n\r\ncontract Market {\r\n    // token\r\n    struct Token {\r\n        string name;\r\n        uint256 count;\r\n    }\r\n    // token\r\n    mapping(address => Token) public tokens;\r\n    \r\n    struct Product {\r\n        string name;\r\n        uint256 price;\r\n        uint256 count;\r\n        string description;\r\n        // string seller;\r\n    }\r\n    // \r\n    Product[] productList;\r\n\r\n    // \r\n    function onShelf(Product memory product) public {\r\n        productList.push(product);\r\n    }\r\n\r\n    // \r\n    function getProductList() public view returns (Product[] memory) {\r\n        return productList;\r\n    }\r\n\r\n    // \r\n    function offShelf(uint256 id) public returns (Product[] memory) {\r\n        delete productList[id];\r\n        return productList;\r\n    }\r\n}\r\n",
  "sourcePath": "E:\\Project\\Blockchain\\TradingSystemBasedOnBlockchain\\smart_contract\\contracts\\4_Market.sol",
  "compiler": {
    "name": "solc",
    "version": "0.8.12+commit.f00d7308.Emscripten.clang"
  },
  "schemaVersion": "3.4.7",
  "updatedAt": "2022-04-29T06:01:32.964Z",
  "networkType": "ethereum",
  "devdoc": {
    "kind": "dev",
    "methods": {},
    "version": 1
  },
  "userdoc": {
    "kind": "user",
    "methods": {},
    "version": 1
  }
}