{
  "contractName": "Market",
  "abi": [
    {
      "inputs": [
        {
          "components": [
            {
              "internalType": "string",
              "name": "name",
              "type": "string"
            },
            {
              "internalType": "uint256",
              "name": "price",
              "type": "uint256"
            },
            {
              "internalType": "uint256",
              "name": "count",
              "type": "uint256"
            },
            {
              "internalType": "string",
              "name": "description",
              "type": "string"
            }
          ],
          "internalType": "struct Market.Product",
          "name": "product",
          "type": "tuple"
        }
      ],
      "name": "onShelf",
      "outputs": [],
      "stateMutability": "nonpayable",
      "type": "function"
    },
    {
      "inputs": [],
      "name": "getProductList",
      "outputs": [
        {
          "components": [
            {
              "internalType": "string",
              "name": "name",
              "type": "string"
            },
            {
              "internalType": "uint256",
              "name": "price",
              "type": "uint256"
            },
            {
              "internalType": "uint256",
              "name": "count",
              "type": "uint256"
            },
            {
              "internalType": "string",
              "name": "description",
              "type": "string"
            }
          ],
          "internalType": "struct Market.Product[]",
          "name": "",
          "type": "tuple[]"
        }
      ],
      "stateMutability": "view",
      "type": "function",
      "constant": true
    },
    {
      "inputs": [
        {
          "internalType": "uint256",
          "name": "id",
          "type": "uint256"
        }
      ],
      "name": "offShelf",
      "outputs": [
        {
          "components": [
            {
              "internalType": "string",
              "name": "name",
              "type": "string"
            },
            {
              "internalType": "uint256",
              "name": "price",
              "type": "uint256"
            },
            {
              "internalType": "uint256",
              "name": "count",
              "type": "uint256"
            },
            {
              "internalType": "string",
              "name": "description",
              "type": "string"
            }
          ],
          "internalType": "struct Market.Product[]",
          "name": "",
          "type": "tuple[]"
        }
      ],
      "stateMutability": "nonpayable",
      "type": "function"
    }
  ],
  "bytecode": "0x608060405234801561001057600080fd5b50610b02806100206000396000f3fe608060405234801561001057600080fd5b50600436106100415760003560e01c806306d40d301461004657806334d2c0ad14610076578063a3485b2314610094575b600080fd5b610060600480360381019061005b91906105e1565b6100b0565b60405161006d91906107e2565b60405180910390f35b61007e61029e565b60405161008b91906107e2565b60405180910390f35b6100ae60048036038101906100a991906109f3565b610435565b005b6060600082815481106100c6576100c5610a3c565b5b9060005260206000209060040201600080820160006100e591906104b4565b6001820160009055600282016000905560038201600061010591906104b4565b50506000805480602002602001604051908101604052809291908181526020016000905b82821015610293578382906000526020600020906004020160405180608001604052908160008201805461015c90610a9a565b80601f016020809104026020016040519081016040528092919081815260200182805461018890610a9a565b80156101d55780601f106101aa576101008083540402835291602001916101d5565b820191906000526020600020905b8154815290600101906020018083116101b857829003601f168201915b50505050508152602001600182015481526020016002820154815260200160038201805461020290610a9a565b80601f016020809104026020016040519081016040528092919081815260200182805461022e90610a9a565b801561027b5780601f106102505761010080835404028352916020019161027b565b820191906000526020600020905b81548152906001019060200180831161025e57829003601f168201915b50505050508152505081526020019060010190610129565b505050509050919050565b60606000805480602002602001604051908101604052809291908181526020016000905b8282101561042c57838290600052602060002090600402016040518060800160405290816000820180546102f590610a9a565b80601f016020809104026020016040519081016040528092919081815260200182805461032190610a9a565b801561036e5780601f106103435761010080835404028352916020019161036e565b820191906000526020600020905b81548152906001019060200180831161035157829003601f168201915b50505050508152602001600182015481526020016002820154815260200160038201805461039b90610a9a565b80601f01602080910402602001604051908101604052809291908181526020018280546103c790610a9a565b80156104145780601f106103e957610100808354040283529160200191610414565b820191906000526020600020905b8154815290600101906020018083116103f757829003601f168201915b505050505081525050815260200190600101906102c2565b50505050905090565b6000819080600181540180825580915050600190039060005260206000209060040201600090919091909150600082015181600001908051906020019061047d9291906104f4565b50602082015181600101556040820151816002015560608201518160030190805190602001906104ae9291906104f4565b50505050565b5080546104c090610a9a565b6000825580601f106104d257506104f1565b601f0160209004906000526020600020908101906104f0919061057a565b5b50565b82805461050090610a9a565b90600052602060002090601f0160209004810192826105225760008555610569565b82601f1061053b57805160ff1916838001178555610569565b82800160010185558215610569579182015b8281111561056857825182559160200191906001019061054d565b5b509050610576919061057a565b5090565b5b8082111561059357600081600090555060010161057b565b5090565b6000604051905090565b600080fd5b600080fd5b6000819050919050565b6105be816105ab565b81146105c957600080fd5b50565b6000813590506105db816105b5565b92915050565b6000602082840312156105f7576105f66105a1565b5b6000610605848285016105cc565b91505092915050565b600081519050919050565b600082825260208201905092915050565b6000819050602082019050919050565b600081519050919050565b600082825260208201905092915050565b60005b83811015610674578082015181840152602081019050610659565b83811115610683576000848401525b50505050565b6000601f19601f8301169050919050565b60006106a58261063a565b6106af8185610645565b93506106bf818560208601610656565b6106c881610689565b840191505092915050565b6106dc816105ab565b82525050565b600060808301600083015184820360008601526106ff828261069a565b915050602083015161071460208601826106d3565b50604083015161072760408601826106d3565b506060830151848203606086015261073f828261069a565b9150508091505092915050565b600061075883836106e2565b905092915050565b6000602082019050919050565b60006107788261060e565b6107828185610619565b9350836020820285016107948561062a565b8060005b858110156107d057848403895281516107b1858261074c565b94506107bc83610760565b925060208a01995050600181019050610798565b50829750879550505050505092915050565b600060208201905081810360008301526107fc818461076d565b905092915050565b600080fd5b7f4e487b7100000000000000000000000000000000000000000000000000000000600052604160045260246000fd5b61084182610689565b810181811067ffffffffffffffff821117156108605761085f610809565b5b80604052505050565b6000610873610597565b905061087f8282610838565b919050565b600080fd5b600080fd5b600080fd5b600067ffffffffffffffff8211156108ae576108ad610809565b5b6108b782610689565b9050602081019050919050565b82818337600083830152505050565b60006108e66108e184610893565b610869565b9050828152602081018484840111156109025761090161088e565b5b61090d8482856108c4565b509392505050565b600082601f83011261092a57610929610889565b5b813561093a8482602086016108d3565b91505092915050565b60006080828403121561095957610958610804565b5b6109636080610869565b9050600082013567ffffffffffffffff81111561098357610982610884565b5b61098f84828501610915565b60008301525060206109a3848285016105cc565b60208301525060406109b7848285016105cc565b604083015250606082013567ffffffffffffffff8111156109db576109da610884565b5b6109e784828501610915565b60608301525092915050565b600060208284031215610a0957610a086105a1565b5b600082013567ffffffffffffffff811115610a2757610a266105a6565b5b610a3384828501610943565b91505092915050565b7f4e487b7100000000000000000000000000000000000000000000000000000000600052603260045260246000fd5b7f4e487b7100000000000000000000000000000000000000000000000000000000600052602260045260246000fd5b60006002820490506001821680610ab257607f821691505b60208210811415610ac657610ac5610a6b565b5b5091905056fea26469706673582212200168379fc8fe5d000fc3835d07863c83820b178c804fbbcf97cbb4c08bcbf6dc64736f6c634300080c0033",
  "immutableReferences": {},
  "source": "// SPDX-License-Identifier: GPL-3.0\r\n\r\npragma solidity >=0.7.0 <0.9.0;\r\n\r\ncontract Market {\r\n    struct Product {\r\n        string name;\r\n        uint256 price;\r\n        uint256 count;\r\n        string description;\r\n        // uint Id;    //ID\r\n    }\r\n    // \r\n    Product[] productList;\r\n\r\n    // \r\n    function onShelf(Product memory product) public {\r\n        productList.push(product);\r\n    }\r\n\r\n    // \r\n    function getProductList() public view returns (Product[] memory) {\r\n        return productList;\r\n    }\r\n\r\n    // \r\n    function offShelf(uint id) public returns (Product[] memory){\r\n        delete productList[id];\r\n        return productList;\r\n    }\r\n}   \r\n",
  "sourcePath": "E:\\Project\\Blockchain\\TradingSystemBasedOnBlockchain\\smart_contract\\contracts\\4_Market.sol",
  "compiler": {
    "name": "solc",
    "version": "0.8.12+commit.f00d7308.Emscripten.clang"
  },
  "schemaVersion": "3.4.7",
  "updatedAt": "2022-04-28T07:38:45.340Z",
  "networkType": "ethereum",
  "devdoc": {
    "kind": "dev",
    "methods": {},
    "version": 1
  },
  "userdoc": {
    "kind": "user",
    "methods": {},
    "version": 1
  }
}