{
  "contractName": "TradingSystem",
  "abi": [
    {
      "inputs": [],
      "stateMutability": "nonpayable",
      "type": "constructor"
    },
    {
      "anonymous": false,
      "inputs": [
        {
          "indexed": true,
          "internalType": "address",
          "name": "owner",
          "type": "address"
        },
        {
          "indexed": true,
          "internalType": "address",
          "name": "spender",
          "type": "address"
        },
        {
          "indexed": false,
          "internalType": "uint256",
          "name": "value",
          "type": "uint256"
        }
      ],
      "name": "Approval",
      "type": "event"
    },
    {
      "anonymous": false,
      "inputs": [
        {
          "indexed": true,
          "internalType": "address",
          "name": "from",
          "type": "address"
        },
        {
          "indexed": true,
          "internalType": "address",
          "name": "to",
          "type": "address"
        },
        {
          "indexed": false,
          "internalType": "uint256",
          "name": "value",
          "type": "uint256"
        }
      ],
      "name": "Transfer",
      "type": "event"
    },
    {
      "inputs": [
        {
          "internalType": "address",
          "name": "owner",
          "type": "address"
        },
        {
          "internalType": "address",
          "name": "spender",
          "type": "address"
        }
      ],
      "name": "allowance",
      "outputs": [
        {
          "internalType": "uint256",
          "name": "",
          "type": "uint256"
        }
      ],
      "stateMutability": "view",
      "type": "function",
      "constant": true
    },
    {
      "inputs": [
        {
          "internalType": "address",
          "name": "spender",
          "type": "address"
        },
        {
          "internalType": "uint256",
          "name": "value",
          "type": "uint256"
        }
      ],
      "name": "approve",
      "outputs": [
        {
          "internalType": "bool",
          "name": "",
          "type": "bool"
        }
      ],
      "stateMutability": "nonpayable",
      "type": "function"
    },
    {
      "inputs": [
        {
          "internalType": "address",
          "name": "owner",
          "type": "address"
        }
      ],
      "name": "balanceOf",
      "outputs": [
        {
          "internalType": "uint256",
          "name": "",
          "type": "uint256"
        }
      ],
      "stateMutability": "view",
      "type": "function",
      "constant": true
    },
    {
      "inputs": [
        {
          "internalType": "uint256",
          "name": "value",
          "type": "uint256"
        }
      ],
      "name": "createIVIL",
      "outputs": [
        {
          "internalType": "bool",
          "name": "",
          "type": "bool"
        }
      ],
      "stateMutability": "nonpayable",
      "type": "function"
    },
    {
      "inputs": [
        {
          "internalType": "string",
          "name": "name",
          "type": "string"
        },
        {
          "internalType": "string",
          "name": "symbol",
          "type": "string"
        },
        {
          "internalType": "uint8",
          "name": "decimals",
          "type": "uint8"
        },
        {
          "internalType": "uint256",
          "name": "total",
          "type": "uint256"
        }
      ],
      "name": "createToken",
      "outputs": [
        {
          "components": [
            {
              "internalType": "string",
              "name": "name",
              "type": "string"
            },
            {
              "internalType": "string",
              "name": "symbol",
              "type": "string"
            },
            {
              "internalType": "uint8",
              "name": "decimals",
              "type": "uint8"
            },
            {
              "internalType": "uint256",
              "name": "totalSupply",
              "type": "uint256"
            }
          ],
          "internalType": "struct IvilWorld.Token[]",
          "name": "",
          "type": "tuple[]"
        }
      ],
      "stateMutability": "nonpayable",
      "type": "function"
    },
    {
      "inputs": [],
      "name": "decimals",
      "outputs": [
        {
          "internalType": "uint8",
          "name": "",
          "type": "uint8"
        }
      ],
      "stateMutability": "view",
      "type": "function",
      "constant": true
    },
    {
      "inputs": [
        {
          "internalType": "address",
          "name": "spender",
          "type": "address"
        },
        {
          "internalType": "uint256",
          "name": "subtractedValue",
          "type": "uint256"
        }
      ],
      "name": "decreaseAllowance",
      "outputs": [
        {
          "internalType": "bool",
          "name": "",
          "type": "bool"
        }
      ],
      "stateMutability": "nonpayable",
      "type": "function"
    },
    {
      "inputs": [
        {
          "internalType": "string",
          "name": "symbol",
          "type": "string"
        },
        {
          "internalType": "uint256",
          "name": "value",
          "type": "uint256"
        }
      ],
      "name": "decreaseToken",
      "outputs": [],
      "stateMutability": "nonpayable",
      "type": "function"
    },
    {
      "inputs": [
        {
          "internalType": "uint256",
          "name": "value",
          "type": "uint256"
        }
      ],
      "name": "destoryIVIL",
      "outputs": [
        {
          "internalType": "bool",
          "name": "",
          "type": "bool"
        }
      ],
      "stateMutability": "nonpayable",
      "type": "function"
    },
    {
      "inputs": [
        {
          "internalType": "string",
          "name": "symbol",
          "type": "string"
        }
      ],
      "name": "destoryToken",
      "outputs": [
        {
          "components": [
            {
              "internalType": "string",
              "name": "name",
              "type": "string"
            },
            {
              "internalType": "string",
              "name": "symbol",
              "type": "string"
            },
            {
              "internalType": "uint8",
              "name": "decimals",
              "type": "uint8"
            },
            {
              "internalType": "uint256",
              "name": "totalSupply",
              "type": "uint256"
            }
          ],
          "internalType": "struct IvilWorld.Token[]",
          "name": "",
          "type": "tuple[]"
        }
      ],
      "stateMutability": "nonpayable",
      "type": "function"
    },
    {
      "inputs": [],
      "name": "getAllTokensInfo",
      "outputs": [
        {
          "components": [
            {
              "internalType": "string",
              "name": "name",
              "type": "string"
            },
            {
              "internalType": "string",
              "name": "symbol",
              "type": "string"
            },
            {
              "internalType": "uint8",
              "name": "decimals",
              "type": "uint8"
            },
            {
              "internalType": "uint256",
              "name": "totalSupply",
              "type": "uint256"
            }
          ],
          "internalType": "struct IvilWorld.Token[]",
          "name": "",
          "type": "tuple[]"
        }
      ],
      "stateMutability": "view",
      "type": "function",
      "constant": true
    },
    {
      "inputs": [
        {
          "internalType": "string",
          "name": "symbol",
          "type": "string"
        }
      ],
      "name": "getTokenBalance",
      "outputs": [
        {
          "internalType": "uint256",
          "name": "",
          "type": "uint256"
        }
      ],
      "stateMutability": "view",
      "type": "function",
      "constant": true
    },
    {
      "inputs": [
        {
          "internalType": "string",
          "name": "symbol",
          "type": "string"
        }
      ],
      "name": "getTokenInfo",
      "outputs": [
        {
          "components": [
            {
              "internalType": "string",
              "name": "name",
              "type": "string"
            },
            {
              "internalType": "string",
              "name": "symbol",
              "type": "string"
            },
            {
              "internalType": "uint8",
              "name": "decimals",
              "type": "uint8"
            },
            {
              "internalType": "uint256",
              "name": "totalSupply",
              "type": "uint256"
            }
          ],
          "internalType": "struct IvilWorld.Token",
          "name": "",
          "type": "tuple"
        }
      ],
      "stateMutability": "view",
      "type": "function",
      "constant": true
    },
    {
      "inputs": [
        {
          "internalType": "address",
          "name": "spender",
          "type": "address"
        },
        {
          "internalType": "uint256",
          "name": "addedValue",
          "type": "uint256"
        }
      ],
      "name": "increaseAllowance",
      "outputs": [
        {
          "internalType": "bool",
          "name": "",
          "type": "bool"
        }
      ],
      "stateMutability": "nonpayable",
      "type": "function"
    },
    {
      "inputs": [
        {
          "internalType": "string",
          "name": "symbol",
          "type": "string"
        },
        {
          "internalType": "uint256",
          "name": "value",
          "type": "uint256"
        }
      ],
      "name": "increaseToken",
      "outputs": [],
      "stateMutability": "nonpayable",
      "type": "function"
    },
    {
      "inputs": [],
      "name": "name",
      "outputs": [
        {
          "internalType": "string",
          "name": "",
          "type": "string"
        }
      ],
      "stateMutability": "view",
      "type": "function",
      "constant": true
    },
    {
      "inputs": [],
      "name": "symbol",
      "outputs": [
        {
          "internalType": "string",
          "name": "",
          "type": "string"
        }
      ],
      "stateMutability": "view",
      "type": "function",
      "constant": true
    },
    {
      "inputs": [],
      "name": "totalSupply",
      "outputs": [
        {
          "internalType": "uint256",
          "name": "",
          "type": "uint256"
        }
      ],
      "stateMutability": "view",
      "type": "function",
      "constant": true
    },
    {
      "inputs": [
        {
          "internalType": "address",
          "name": "to",
          "type": "address"
        },
        {
          "internalType": "uint256",
          "name": "value",
          "type": "uint256"
        }
      ],
      "name": "transfer",
      "outputs": [
        {
          "internalType": "bool",
          "name": "",
          "type": "bool"
        }
      ],
      "stateMutability": "nonpayable",
      "type": "function"
    },
    {
      "inputs": [
        {
          "internalType": "address",
          "name": "from",
          "type": "address"
        },
        {
          "internalType": "address",
          "name": "to",
          "type": "address"
        },
        {
          "internalType": "uint256",
          "name": "value",
          "type": "uint256"
        }
      ],
      "name": "transferFrom",
      "outputs": [
        {
          "internalType": "bool",
          "name": "",
          "type": "bool"
        }
      ],
      "stateMutability": "nonpayable",
      "type": "function"
    },
    {
      "inputs": [
        {
          "internalType": "string",
          "name": "symbol",
          "type": "string"
        },
        {
          "internalType": "address",
          "name": "to",
          "type": "address"
        },
        {
          "internalType": "uint256",
          "name": "value",
          "type": "uint256"
        }
      ],
      "name": "transferToken",
      "outputs": [
        {
          "internalType": "bool",
          "name": "",
          "type": "bool"
        }
      ],
      "stateMutability": "nonpayable",
      "type": "function"
    },
    {
      "inputs": [],
      "name": "depthOfPool",
      "outputs": [
        {
          "internalType": "uint256",
          "name": "",
          "type": "uint256"
        }
      ],
      "stateMutability": "view",
      "type": "function",
      "constant": true
    },
    {
      "inputs": [],
      "name": "transactionsOfPool",
      "outputs": [
        {
          "components": [
            {
              "internalType": "address",
              "name": "sender",
              "type": "address"
            },
            {
              "internalType": "string",
              "name": "symbol",
              "type": "string"
            },
            {
              "internalType": "uint256",
              "name": "value",
              "type": "uint256"
            },
            {
              "internalType": "uint256",
              "name": "price",
              "type": "uint256"
            },
            {
              "internalType": "bool",
              "name": "status",
              "type": "bool"
            },
            {
              "internalType": "uint256",
              "name": "index",
              "type": "uint256"
            }
          ],
          "internalType": "struct TradingSystem.Transaction[]",
          "name": "",
          "type": "tuple[]"
        }
      ],
      "stateMutability": "nonpayable",
      "type": "function"
    },
    {
      "inputs": [
        {
          "internalType": "string",
          "name": "symbol",
          "type": "string"
        },
        {
          "internalType": "uint256",
          "name": "value",
          "type": "uint256"
        },
        {
          "internalType": "uint256",
          "name": "price",
          "type": "uint256"
        }
      ],
      "name": "sell",
      "outputs": [],
      "stateMutability": "nonpayable",
      "type": "function"
    },
    {
      "inputs": [
        {
          "internalType": "uint256",
          "name": "index",
          "type": "uint256"
        }
      ],
      "name": "cancelSell",
      "outputs": [],
      "stateMutability": "nonpayable",
      "type": "function"
    },
    {
      "inputs": [
        {
          "internalType": "uint256",
          "name": "index",
          "type": "uint256"
        }
      ],
      "name": "buy",
      "outputs": [],
      "stateMutability": "nonpayable",
      "type": "function"
    }
  ],
  "bytecode": "0x60806040526040518060400160405280600a81526020017f6976696c2e776f726c64000000000000000000000000000000000000000000008152506000908051906020019062000051929190620004f8565b506040518060400160405280600481526020017f4956494c00000000000000000000000000000000000000000000000000000000815250600190805190602001906200009f929190620004f8565b506009600260006101000a81548160ff021916908360ff1602179055506301406f4060035560405180608001604052806040518060400160405280600a81526020017f6976696c2e776f726c640000000000000000000000000000000000000000000081525081526020016040518060400160405280600481526020017f4956494c000000000000000000000000000000000000000000000000000000008152508152602001600960ff1681526020016301406f40815250600b600082015181600001908051906020019062000177929190620004f8565b50602082015181600101908051906020019062000196929190620004f8565b5060408201518160020160006101000a81548160ff021916908360ff160217905550606082015181600301555050348015620001d157600080fd5b5033600660006101000a81548173ffffffffffffffffffffffffffffffffffffffff021916908373ffffffffffffffffffffffffffffffffffffffff1602179055506200026e600354600460003373ffffffffffffffffffffffffffffffffffffffff1673ffffffffffffffffffffffffffffffffffffffff16815260200190815260200160002054620004cd60201b62003bac1790919060201c565b600460003373ffffffffffffffffffffffffffffffffffffffff1673ffffffffffffffffffffffffffffffffffffffff1681526020019081526020016000208190555033600860006101000a81548173ffffffffffffffffffffffffffffffffffffffff021916908373ffffffffffffffffffffffffffffffffffffffff160217905550600a600b9080600181540180825580915050600190039060005260206000209060040201600090919091909150600082018160000190805462000335906200066f565b6200034292919062000589565b50600182018160010190805462000359906200066f565b6200036692919062000589565b506002820160009054906101000a900460ff168160020160006101000a81548160ff021916908360ff16021790555060038201548160030155505062000421600b60030154600960003373ffffffffffffffffffffffffffffffffffffffff1673ffffffffffffffffffffffffffffffffffffffff168152602001908152602001600020600b600101604051620003fe919062000750565b908152602001604051809103902054620004cd60201b62003bac1790919060201c565b600960003373ffffffffffffffffffffffffffffffffffffffff1673ffffffffffffffffffffffffffffffffffffffff168152602001908152602001600020600b60010160405162000474919062000750565b90815260200160405180910390208190555033601260006101000a81548173ffffffffffffffffffffffffffffffffffffffff021916908373ffffffffffffffffffffffffffffffffffffffff160217905550620007ff565b6000808284620004de9190620007a2565b905083811015620004ee57600080fd5b8091505092915050565b82805462000506906200066f565b90600052602060002090601f0160209004810192826200052a576000855562000576565b82601f106200054557805160ff191683800117855562000576565b8280016001018555821562000576579182015b828111156200057557825182559160200191906001019062000558565b5b50905062000585919062000621565b5090565b82805462000597906200066f565b90600052602060002090601f016020900481019282620005bb57600085556200060e565b82601f10620005ce57805485556200060e565b828001600101855582156200060e57600052602060002091601f016020900482015b828111156200060d578254825591600101919060010190620005f0565b5b5090506200061d919062000621565b5090565b5b808211156200063c57600081600090555060010162000622565b5090565b7f4e487b7100000000000000000000000000000000000000000000000000000000600052602260045260246000fd5b600060028204905060018216806200068857607f821691505b602082108114156200069f576200069e62000640565b5b50919050565b600081905092915050565b60008190508160005260206000209050919050565b60008154620006d4816200066f565b620006e08186620006a5565b94506001821660008114620006fe5760018114620007105762000747565b60ff1983168652818601935062000747565b6200071b85620006b0565b60005b838110156200073f578154818901526001820191506020810190506200071e565b838801955050505b50505092915050565b60006200075e8284620006c5565b915081905092915050565b6000819050919050565b7f4e487b7100000000000000000000000000000000000000000000000000000000600052601160045260246000fd5b6000620007af8262000769565b9150620007bc8362000769565b9250827fffffffffffffffffffffffffffffffffffffffffffffffffffffffffffffffff03821115620007f457620007f362000773565b5b828201905092915050565b615a09806200080f6000396000f3fe608060405234801561001057600080fd5b506004361061018e5760003560e01c80638e0ad1cc116100de578063bc43c02011610097578063d6ea49d711610071578063d6ea49d7146104f7578063d96a094a14610515578063dd62ed3e14610531578063ee91035e146105615761018e565b8063bc43c0201461048f578063c5d59016146104bf578063c8f956a6146104db5761018e565b80638e0ad1cc146103935780639293848c146103c357806395d89b41146103f35780639a24a25b14610411578063a457c2d71461042f578063a9059cbb1461045f5761018e565b806318160ddd1161014b578063313ce56711610125578063313ce567146102f7578063395093511461031557806356673fdd1461034557806370a08231146103635761018e565b806318160ddd14610279578063210f5dda1461029757806323b872dd146102c75761018e565b8063025abd581461019357806304804ee8146101c357806306fdde03146101df57806307c9cd45146101fd578063095ea7b3146102195780630bb5a4e014610249575b600080fd5b6101ad60048036038101906101a891906147e5565b610591565b6040516101ba9190614847565b60405180910390f35b6101dd60048036038101906101d8919061488e565b610644565b005b6101e76107fc565b6040516101f49190614985565b60405180910390f35b610217600480360381019061021291906149a7565b61088e565b005b610233600480360381019061022e9190614a32565b610a96565b6040516102409190614a8d565b60405180910390f35b610263600480360381019061025e91906149a7565b610bc1565b6040516102709190614a8d565b60405180910390f35b610281610d8e565b60405161028e9190614847565b60405180910390f35b6102b160048036038101906102ac9190614ae1565b610d98565b6040516102be9190614d14565b60405180910390f35b6102e160048036038101906102dc9190614d36565b61150b565b6040516102ee9190614a8d565b60405180910390f35b6102ff6118c5565b60405161030c9190614d98565b60405180910390f35b61032f600480360381019061032a9190614a32565b6118dc565b60405161033c9190614a8d565b60405180910390f35b61034d611b11565b60405161035a9190614f1c565b60405180910390f35b61037d60048036038101906103789190614f3e565b611e02565b60405161038a9190614847565b60405180910390f35b6103ad60048036038101906103a891906147e5565b611e4b565b6040516103ba9190614fd5565b60405180910390f35b6103dd60048036038101906103d891906149a7565b612024565b6040516103ea9190614a8d565b60405180910390f35b6103fb61216f565b6040516104089190614985565b60405180910390f35b610419612201565b6040516104269190614d14565b60405180910390f35b61044960048036038101906104449190614a32565b6123ab565b6040516104569190614a8d565b60405180910390f35b61047960048036038101906104749190614a32565b6125e0565b6040516104869190614a8d565b60405180910390f35b6104a960048036038101906104a491906147e5565b612801565b6040516104b69190614d14565b60405180910390f35b6104d960048036038101906104d49190614ff7565b613185565b005b6104f560048036038101906104f09190614ff7565b613399565b005b6104ff61364b565b60405161050c9190614847565b60405180910390f35b61052f600480360381019061052a91906149a7565b613655565b005b61054b60048036038101906105469190615053565b613846565b6040516105589190614847565b60405180910390f35b61057b60048036038101906105769190615093565b6138cd565b6040516105889190614a8d565b60405180910390f35b60008061059d83613bd4565b915050806105e0576040517f08c379a00000000000000000000000000000000000000000000000000000000081526004016105d79061514e565b60405180910390fd5b600960003373ffffffffffffffffffffffffffffffffffffffff1673ffffffffffffffffffffffffffffffffffffffff1681526020019081526020016000208360405161062d91906151aa565b908152602001604051809103902054915050919050565b600061064f84613bd4565b91505080610692576040517f08c379a00000000000000000000000000000000000000000000000000000000081526004016106899061520d565b60405180910390fd5b600061069d85610591565b9050808411156106e2576040517f08c379a00000000000000000000000000000000000000000000000000000000081526004016106d990615279565b60405180910390fd5b60006040518060c001604052803373ffffffffffffffffffffffffffffffffffffffff168152602001878152602001868152602001858152602001600015158152602001601154815250905080600f6000601154815260200190815260200160002060008201518160000160006101000a81548173ffffffffffffffffffffffffffffffffffffffff021916908373ffffffffffffffffffffffffffffffffffffffff16021790555060208201518160010190805190602001906107a79291906143db565b50604082015181600201556060820151816003015560808201518160040160006101000a81548160ff02191690831515021790555060a082015181600501559050506107f38686613d1b565b50505050505050565b60606000805461080b906152c8565b80601f0160208091040260200160405190810160405280929190818152602001828054610837906152c8565b80156108845780601f1061085957610100808354040283529160200191610884565b820191906000526020600020905b81548152906001019060200180831161086757829003601f168201915b5050505050905090565b6011548111156108d3576040517f08c379a00000000000000000000000000000000000000000000000000000000081526004016108ca90615346565b60405180910390fd5b600f600082815260200190815260200160002060040160009054906101000a900460ff1615610937576040517f08c379a000000000000000000000000000000000000000000000000000000000815260040161092e906153d8565b60405180910390fd5b600f600082815260200190815260200160002060000160009054906101000a900473ffffffffffffffffffffffffffffffffffffffff1673ffffffffffffffffffffffffffffffffffffffff163373ffffffffffffffffffffffffffffffffffffffff16146109a557600080fd5b610a63600f600083815260200190815260200160002060010180546109c9906152c8565b80601f01602080910402602001604051908101604052809291908181526020018280546109f5906152c8565b8015610a425780601f10610a1757610100808354040283529160200191610a42565b820191906000526020600020905b815481529060010190602001808311610a2557829003601f168201915b5050505050600f600084815260200190815260200160002060020154614025565b506001600f600083815260200190815260200160002060040160006101000a81548160ff02191690831515021790555050565b60008073ffffffffffffffffffffffffffffffffffffffff168373ffffffffffffffffffffffffffffffffffffffff161415610ad157600080fd5b81600560003373ffffffffffffffffffffffffffffffffffffffff1673ffffffffffffffffffffffffffffffffffffffff16815260200190815260200160002060008573ffffffffffffffffffffffffffffffffffffffff1673ffffffffffffffffffffffffffffffffffffffff168152602001908152602001600020819055508273ffffffffffffffffffffffffffffffffffffffff163373ffffffffffffffffffffffffffffffffffffffff167f8c5be1e5ebec7d5bd14f71427d1e84f3dd0314c0f7b2291e5b200ac8c7c3b92584604051610baf9190614847565b60405180910390a36001905092915050565b6000600660009054906101000a900473ffffffffffffffffffffffffffffffffffffffff1673ffffffffffffffffffffffffffffffffffffffff163373ffffffffffffffffffffffffffffffffffffffff1614610c53576040517f08c379a0000000000000000000000000000000000000000000000000000000008152600401610c4a90615444565b60405180910390fd5b81600460003373ffffffffffffffffffffffffffffffffffffffff1673ffffffffffffffffffffffffffffffffffffffff168152602001908152602001600020541015610cd5576040517f08c379a0000000000000000000000000000000000000000000000000000000008152600401610ccc906154b0565b60405180910390fd5b610d2782600460003373ffffffffffffffffffffffffffffffffffffffff1673ffffffffffffffffffffffffffffffffffffffff168152602001908152602001600020546142e490919063ffffffff16565b600460003373ffffffffffffffffffffffffffffffffffffffff1673ffffffffffffffffffffffffffffffffffffffff16815260200190815260200160002081905550610d7f826003546142e490919063ffffffff16565b60038190555060019050919050565b6000600354905090565b6060600860009054906101000a900473ffffffffffffffffffffffffffffffffffffffff1673ffffffffffffffffffffffffffffffffffffffff163373ffffffffffffffffffffffffffffffffffffffff1614610e2a576040517f08c379a0000000000000000000000000000000000000000000000000000000008152600401610e219061551c565b60405180910390fd5b6000805b600a805490508110156111c657610efb87600a8381548110610e5357610e5261553c565b5b90600052602060002090600402016000018054610e6f906152c8565b80601f0160208091040260200160405190810160405280929190818152602001828054610e9b906152c8565b8015610ee85780601f10610ebd57610100808354040283529160200191610ee8565b820191906000526020600020905b815481529060010190602001808311610ecb57829003601f168201915b505050505061430d90919063ffffffff16565b80610fc25750610fc186600a8381548110610f1957610f1861553c565b5b90600052602060002090600402016001018054610f35906152c8565b80601f0160208091040260200160405190810160405280929190818152602001828054610f61906152c8565b8015610fae5780601f10610f8357610100808354040283529160200191610fae565b820191906000526020600020905b815481529060010190602001808311610f9157829003601f168201915b505050505061430d90919063ffffffff16565b5b156111b35781611007576040517f08c379a0000000000000000000000000000000000000000000000000000000008152600401610ffe90615603565b60405180910390fd5b600a805480602002602001604051908101604052809291908181526020016000905b828210156111a6578382906000526020600020906004020160405180608001604052908160008201805461105c906152c8565b80601f0160208091040260200160405190810160405280929190818152602001828054611088906152c8565b80156110d55780601f106110aa576101008083540402835291602001916110d5565b820191906000526020600020905b8154815290600101906020018083116110b857829003601f168201915b505050505081526020016001820180546110ee906152c8565b80601f016020809104026020016040519081016040528092919081815260200182805461111a906152c8565b80156111675780601f1061113c57610100808354040283529160200191611167565b820191906000526020600020905b81548152906001019060200180831161114a57829003601f168201915b505050505081526020016002820160009054906101000a900460ff1660ff1660ff16815260200160038201548152505081526020019060010190611029565b5050505092505050611503565b80806111be90615652565b915050610e2e565b50600060405180608001604052808881526020018781526020018660ff168152602001858152509050600a81908060018154018082558091505060019003906000526020600020906004020160009091909190915060008201518160000190805190602001906112379291906143db565b5060208201518160010190805190602001906112549291906143db565b5060408201518160020160006101000a81548160ff021916908360ff1602179055506060820151816003015550506112f88160600151600960003373ffffffffffffffffffffffffffffffffffffffff1673ffffffffffffffffffffffffffffffffffffffff16815260200190815260200160002083602001516040516112db91906151aa565b908152602001604051809103902054613bac90919063ffffffff16565b600960003373ffffffffffffffffffffffffffffffffffffffff1673ffffffffffffffffffffffffffffffffffffffff168152602001908152602001600020826020015160405161134991906151aa565b908152602001604051809103902081905550600a805480602002602001604051908101604052809291908181526020016000905b828210156114fa57838290600052602060002090600402016040518060800160405290816000820180546113b0906152c8565b80601f01602080910402602001604051908101604052809291908181526020018280546113dc906152c8565b80156114295780601f106113fe57610100808354040283529160200191611429565b820191906000526020600020905b81548152906001019060200180831161140c57829003601f168201915b50505050508152602001600182018054611442906152c8565b80601f016020809104026020016040519081016040528092919081815260200182805461146e906152c8565b80156114bb5780601f10611490576101008083540402835291602001916114bb565b820191906000526020600020905b81548152906001019060200180831161149e57829003601f168201915b505050505081526020016002820160009054906101000a900460ff1660ff1660ff1681526020016003820154815250508152602001906001019061137d565b50505050925050505b949350505050565b6000600460008573ffffffffffffffffffffffffffffffffffffffff1673ffffffffffffffffffffffffffffffffffffffff1681526020019081526020016000205482111561155957600080fd5b600560008573ffffffffffffffffffffffffffffffffffffffff1673ffffffffffffffffffffffffffffffffffffffff16815260200190815260200160002060003373ffffffffffffffffffffffffffffffffffffffff1673ffffffffffffffffffffffffffffffffffffffff168152602001908152602001600020548211156115e257600080fd5b600073ffffffffffffffffffffffffffffffffffffffff168373ffffffffffffffffffffffffffffffffffffffff16141561161c57600080fd5b61166e82600460008773ffffffffffffffffffffffffffffffffffffffff1673ffffffffffffffffffffffffffffffffffffffff168152602001908152602001600020546142e490919063ffffffff16565b600460008673ffffffffffffffffffffffffffffffffffffffff1673ffffffffffffffffffffffffffffffffffffffff1681526020019081526020016000208190555061170382600460008673ffffffffffffffffffffffffffffffffffffffff1673ffffffffffffffffffffffffffffffffffffffff16815260200190815260200160002054613bac90919063ffffffff16565b600460008573ffffffffffffffffffffffffffffffffffffffff1673ffffffffffffffffffffffffffffffffffffffff168152602001908152602001600020819055506117d582600560008773ffffffffffffffffffffffffffffffffffffffff1673ffffffffffffffffffffffffffffffffffffffff16815260200190815260200160002060003373ffffffffffffffffffffffffffffffffffffffff1673ffffffffffffffffffffffffffffffffffffffff168152602001908152602001600020546142e490919063ffffffff16565b600560008673ffffffffffffffffffffffffffffffffffffffff1673ffffffffffffffffffffffffffffffffffffffff16815260200190815260200160002060003373ffffffffffffffffffffffffffffffffffffffff1673ffffffffffffffffffffffffffffffffffffffff168152602001908152602001600020819055508273ffffffffffffffffffffffffffffffffffffffff168473ffffffffffffffffffffffffffffffffffffffff167fddf252ad1be2c89b69c2b068fc378daa952ba7f163c4a11628f55a4df523b3ef846040516118b29190614847565b60405180910390a3600190509392505050565b6000600260009054906101000a900460ff16905090565b60008073ffffffffffffffffffffffffffffffffffffffff168373ffffffffffffffffffffffffffffffffffffffff16141561191757600080fd5b6119a682600560003373ffffffffffffffffffffffffffffffffffffffff1673ffffffffffffffffffffffffffffffffffffffff16815260200190815260200160002060008673ffffffffffffffffffffffffffffffffffffffff1673ffffffffffffffffffffffffffffffffffffffff16815260200190815260200160002054613bac90919063ffffffff16565b600560003373ffffffffffffffffffffffffffffffffffffffff1673ffffffffffffffffffffffffffffffffffffffff16815260200190815260200160002060008573ffffffffffffffffffffffffffffffffffffffff1673ffffffffffffffffffffffffffffffffffffffff168152602001908152602001600020819055508273ffffffffffffffffffffffffffffffffffffffff163373ffffffffffffffffffffffffffffffffffffffff167f8c5be1e5ebec7d5bd14f71427d1e84f3dd0314c0f7b2291e5b200ac8c7c3b925600560003373ffffffffffffffffffffffffffffffffffffffff1673ffffffffffffffffffffffffffffffffffffffff16815260200190815260200160002060008773ffffffffffffffffffffffffffffffffffffffff1673ffffffffffffffffffffffffffffffffffffffff16815260200190815260200160002054604051611aff9190614847565b60405180910390a36001905092915050565b606060106000611b219190614461565b60005b6011548111611c835760001515600f600083815260200190815260200160002060040160009054906101000a900460ff1615151415611c70576010600f600083815260200190815260200160002090806001815401808255809150506001900390600052602060002090600602016000909190919091506000820160009054906101000a900473ffffffffffffffffffffffffffffffffffffffff168160000160006101000a81548173ffffffffffffffffffffffffffffffffffffffff021916908373ffffffffffffffffffffffffffffffffffffffff1602179055506001820181600101908054611c16906152c8565b611c21929190614485565b5060028201548160020155600382015481600301556004820160009054906101000a900460ff168160040160006101000a81548160ff0219169083151502179055506005820154816005015550505b8080611c7b90615652565b915050611b24565b506010805480602002602001604051908101604052809291908181526020016000905b82821015611df957838290600052602060002090600602016040518060c00160405290816000820160009054906101000a900473ffffffffffffffffffffffffffffffffffffffff1673ffffffffffffffffffffffffffffffffffffffff1673ffffffffffffffffffffffffffffffffffffffff168152602001600182018054611d2f906152c8565b80601f0160208091040260200160405190810160405280929190818152602001828054611d5b906152c8565b8015611da85780601f10611d7d57610100808354040283529160200191611da8565b820191906000526020600020905b815481529060010190602001808311611d8b57829003601f168201915b5050505050815260200160028201548152602001600382015481526020016004820160009054906101000a900460ff1615151515815260200160058201548152505081526020019060010190611ca6565b50505050905090565b6000600460008373ffffffffffffffffffffffffffffffffffffffff1673ffffffffffffffffffffffffffffffffffffffff168152602001908152602001600020549050919050565b611e53614512565b600080611e5f84613bd4565b9150915080611ea3576040517f08c379a0000000000000000000000000000000000000000000000000000000008152600401611e9a9061514e565b60405180910390fd5b600a8281548110611eb757611eb661553c565b5b9060005260206000209060040201604051806080016040529081600082018054611ee0906152c8565b80601f0160208091040260200160405190810160405280929190818152602001828054611f0c906152c8565b8015611f595780601f10611f2e57610100808354040283529160200191611f59565b820191906000526020600020905b815481529060010190602001808311611f3c57829003601f168201915b50505050508152602001600182018054611f72906152c8565b80601f0160208091040260200160405190810160405280929190818152602001828054611f9e906152c8565b8015611feb5780601f10611fc057610100808354040283529160200191611feb565b820191906000526020600020905b815481529060010190602001808311611fce57829003601f168201915b505050505081526020016002820160009054906101000a900460ff1660ff1660ff16815260200160038201548152505092505050919050565b6000600660009054906101000a900473ffffffffffffffffffffffffffffffffffffffff1673ffffffffffffffffffffffffffffffffffffffff163373ffffffffffffffffffffffffffffffffffffffff16146120b6576040517f08c379a00000000000000000000000000000000000000000000000000000000081526004016120ad906156e7565b60405180910390fd5b61210882600460003373ffffffffffffffffffffffffffffffffffffffff1673ffffffffffffffffffffffffffffffffffffffff16815260200190815260200160002054613bac90919063ffffffff16565b600460003373ffffffffffffffffffffffffffffffffffffffff1673ffffffffffffffffffffffffffffffffffffffff1681526020019081526020016000208190555061216082600354613bac90919063ffffffff16565b60038190555060019050919050565b60606001805461217e906152c8565b80601f01602080910402602001604051908101604052809291908181526020018280546121aa906152c8565b80156121f75780601f106121cc576101008083540402835291602001916121f7565b820191906000526020600020905b8154815290600101906020018083116121da57829003601f168201915b5050505050905090565b6060600a805480602002602001604051908101604052809291908181526020016000905b828210156123a25783829060005260206000209060040201604051806080016040529081600082018054612258906152c8565b80601f0160208091040260200160405190810160405280929190818152602001828054612284906152c8565b80156122d15780601f106122a6576101008083540402835291602001916122d1565b820191906000526020600020905b8154815290600101906020018083116122b457829003601f168201915b505050505081526020016001820180546122ea906152c8565b80601f0160208091040260200160405190810160405280929190818152602001828054612316906152c8565b80156123635780601f1061233857610100808354040283529160200191612363565b820191906000526020600020905b81548152906001019060200180831161234657829003601f168201915b505050505081526020016002820160009054906101000a900460ff1660ff1660ff16815260200160038201548152505081526020019060010190612225565b50505050905090565b60008073ffffffffffffffffffffffffffffffffffffffff168373ffffffffffffffffffffffffffffffffffffffff1614156123e657600080fd5b61247582600560003373ffffffffffffffffffffffffffffffffffffffff1673ffffffffffffffffffffffffffffffffffffffff16815260200190815260200160002060008673ffffffffffffffffffffffffffffffffffffffff1673ffffffffffffffffffffffffffffffffffffffff168152602001908152602001600020546142e490919063ffffffff16565b600560003373ffffffffffffffffffffffffffffffffffffffff1673ffffffffffffffffffffffffffffffffffffffff16815260200190815260200160002060008573ffffffffffffffffffffffffffffffffffffffff1673ffffffffffffffffffffffffffffffffffffffff168152602001908152602001600020819055508273ffffffffffffffffffffffffffffffffffffffff163373ffffffffffffffffffffffffffffffffffffffff167f8c5be1e5ebec7d5bd14f71427d1e84f3dd0314c0f7b2291e5b200ac8c7c3b925600560003373ffffffffffffffffffffffffffffffffffffffff1673ffffffffffffffffffffffffffffffffffffffff16815260200190815260200160002060008773ffffffffffffffffffffffffffffffffffffffff1673ffffffffffffffffffffffffffffffffffffffff168152602001908152602001600020546040516125ce9190614847565b60405180910390a36001905092915050565b6000600460003373ffffffffffffffffffffffffffffffffffffffff1673ffffffffffffffffffffffffffffffffffffffff1681526020019081526020016000205482111561262e57600080fd5b600073ffffffffffffffffffffffffffffffffffffffff168373ffffffffffffffffffffffffffffffffffffffff16141561266857600080fd5b6126ba82600460003373ffffffffffffffffffffffffffffffffffffffff1673ffffffffffffffffffffffffffffffffffffffff168152602001908152602001600020546142e490919063ffffffff16565b600460003373ffffffffffffffffffffffffffffffffffffffff1673ffffffffffffffffffffffffffffffffffffffff1681526020019081526020016000208190555061274f82600460008673ffffffffffffffffffffffffffffffffffffffff1673ffffffffffffffffffffffffffffffffffffffff16815260200190815260200160002054613bac90919063ffffffff16565b600460008573ffffffffffffffffffffffffffffffffffffffff1673ffffffffffffffffffffffffffffffffffffffff168152602001908152602001600020819055508273ffffffffffffffffffffffffffffffffffffffff163373ffffffffffffffffffffffffffffffffffffffff167fddf252ad1be2c89b69c2b068fc378daa952ba7f163c4a11628f55a4df523b3ef846040516127ef9190614847565b60405180910390a36001905092915050565b6060600860009054906101000a900473ffffffffffffffffffffffffffffffffffffffff1673ffffffffffffffffffffffffffffffffffffffff163373ffffffffffffffffffffffffffffffffffffffff1614612893576040517f08c379a000000000000000000000000000000000000000000000000000000000815260040161288a9061551c565b60405180910390fd5b6128db6040518060400160405280600481526020017f4956494c000000000000000000000000000000000000000000000000000000008152508361430d90919063ffffffff16565b1561291b576040517f08c379a000000000000000000000000000000000000000000000000000000000815260040161291290615753565b60405180910390fd5b6000805b600a80549050811015612f98576129ec84600a83815481106129445761294361553c565b5b90600052602060002090600402016001018054612960906152c8565b80601f016020809104026020016040519081016040528092919081815260200182805461298c906152c8565b80156129d95780601f106129ae576101008083540402835291602001916129d9565b820191906000526020600020905b8154815290600101906020018083116129bc57829003601f168201915b505050505061430d90919063ffffffff16565b15612f8557600a8181548110612a0557612a0461553c565b5b906000526020600020906004020160008082016000612a24919061453d565b600182016000612a34919061453d565b6002820160006101000a81549060ff0219169055600382016000905550505b600a80549050600182612a669190615773565b1015612b4a57600a600182612a7b9190615773565b81548110612a8c57612a8b61553c565b5b9060005260206000209060040201600a8281548110612aae57612aad61553c565b5b90600052602060002090600402016000820181600001908054612ad0906152c8565b612adb929190614485565b506001820181600101908054612af0906152c8565b612afb929190614485565b506002820160009054906101000a900460ff168160020160006101000a81548160ff021916908360ff160217905550600382015481600301559050508080612b4290615652565b915050612a53565b6060600a805480602002602001604051908101604052809291908181526020016000905b82821015612ceb5783829060005260206000209060040201604051806080016040529081600082018054612ba1906152c8565b80601f0160208091040260200160405190810160405280929190818152602001828054612bcd906152c8565b8015612c1a5780601f10612bef57610100808354040283529160200191612c1a565b820191906000526020600020905b815481529060010190602001808311612bfd57829003601f168201915b50505050508152602001600182018054612c33906152c8565b80601f0160208091040260200160405190810160405280929190818152602001828054612c5f906152c8565b8015612cac5780601f10612c8157610100808354040283529160200191612cac565b820191906000526020600020905b815481529060010190602001808311612c8f57829003601f168201915b505050505081526020016002820160009054906101000a900460ff1660ff1660ff16815260200160038201548152505081526020019060010190612b6e565b505050509050600a6000612cff919061457d565b60005b60018251612d1091906157c9565b811015612dd757600a828281518110612d2c57612d2b61553c565b5b602002602001015190806001815401808255809150506001900390600052602060002090600402016000909190919091506000820151816000019080519060200190612d799291906143db565b506020820151816001019080519060200190612d969291906143db565b5060408201518160020160006101000a81548160ff021916908360ff1602179055506060820151816003015550508080612dcf90615652565b915050612d02565b50600a805480602002602001604051908101604052809291908181526020016000905b82821015612f775783829060005260206000209060040201604051806080016040529081600082018054612e2d906152c8565b80601f0160208091040260200160405190810160405280929190818152602001828054612e59906152c8565b8015612ea65780601f10612e7b57610100808354040283529160200191612ea6565b820191906000526020600020905b815481529060010190602001808311612e8957829003601f168201915b50505050508152602001600182018054612ebf906152c8565b80601f0160208091040260200160405190810160405280929190818152602001828054612eeb906152c8565b8015612f385780601f10612f0d57610100808354040283529160200191612f38565b820191906000526020600020905b815481529060010190602001808311612f1b57829003601f168201915b505050505081526020016002820160009054906101000a900460ff1660ff1660ff16815260200160038201548152505081526020019060010190612dfa565b505050509350505050613180565b8080612f9090615652565b91505061291f565b5080612fd9576040517f08c379a0000000000000000000000000000000000000000000000000000000008152600401612fd090615849565b60405180910390fd5b600a805480602002602001604051908101604052809291908181526020016000905b82821015613178578382906000526020600020906004020160405180608001604052908160008201805461302e906152c8565b80601f016020809104026020016040519081016040528092919081815260200182805461305a906152c8565b80156130a75780601f1061307c576101008083540402835291602001916130a7565b820191906000526020600020905b81548152906001019060200180831161308a57829003601f168201915b505050505081526020016001820180546130c0906152c8565b80601f01602080910402602001604051908101604052809291908181526020018280546130ec906152c8565b80156131395780601f1061310e57610100808354040283529160200191613139565b820191906000526020600020905b81548152906001019060200180831161311c57829003601f168201915b505050505081526020016002820160009054906101000a900460ff1660ff1660ff16815260200160038201548152505081526020019060010190612ffb565b505050509150505b919050565b600860009054906101000a900473ffffffffffffffffffffffffffffffffffffffff1673ffffffffffffffffffffffffffffffffffffffff163373ffffffffffffffffffffffffffffffffffffffff1614613215576040517f08c379a000000000000000000000000000000000000000000000000000000000815260040161320c906158b5565b60405180910390fd5b60008061322184613bd4565b9150915080613265576040517f08c379a000000000000000000000000000000000000000000000000000000000815260040161325c9061520d565b60405180910390fd5b61329d83600a848154811061327d5761327c61553c565b5b906000526020600020906004020160030154613bac90919063ffffffff16565b600a83815481106132b1576132b061553c565b5b90600052602060002090600402016003018190555061333483600960003373ffffffffffffffffffffffffffffffffffffffff1673ffffffffffffffffffffffffffffffffffffffff1681526020019081526020016000208660405161331791906151aa565b908152602001604051809103902054613bac90919063ffffffff16565b600960003373ffffffffffffffffffffffffffffffffffffffff1673ffffffffffffffffffffffffffffffffffffffff1681526020019081526020016000208560405161338191906151aa565b90815260200160405180910390208190555050505050565b600860009054906101000a900473ffffffffffffffffffffffffffffffffffffffff1673ffffffffffffffffffffffffffffffffffffffff163373ffffffffffffffffffffffffffffffffffffffff1614613429576040517f08c379a0000000000000000000000000000000000000000000000000000000008152600401613420906158b5565b60405180910390fd5b60008061343584613bd4565b9150915080613479576040517f08c379a00000000000000000000000000000000000000000000000000000000081526004016134709061520d565b60405180910390fd5b82600960003373ffffffffffffffffffffffffffffffffffffffff1673ffffffffffffffffffffffffffffffffffffffff168152602001908152602001600020856040516134c791906151aa565b9081526020016040518091039020541015613517576040517f08c379a000000000000000000000000000000000000000000000000000000000815260040161350e906154b0565b60405180910390fd5b61354f83600a848154811061352f5761352e61553c565b5b9060005260206000209060040201600301546142e490919063ffffffff16565b600a83815481106135635761356261553c565b5b9060005260206000209060040201600301819055506135e683600960003373ffffffffffffffffffffffffffffffffffffffff1673ffffffffffffffffffffffffffffffffffffffff168152602001908152602001600020866040516135c991906151aa565b9081526020016040518091039020546142e490919063ffffffff16565b600960003373ffffffffffffffffffffffffffffffffffffffff1673ffffffffffffffffffffffffffffffffffffffff1681526020019081526020016000208560405161363391906151aa565b90815260200160405180910390208190555050505050565b6000601154905090565b60115481111561369a576040517f08c379a000000000000000000000000000000000000000000000000000000000815260040161369190615346565b60405180910390fd5b600f600082815260200190815260200160002060040160009054906101000a900460ff16156136fe576040517f08c379a00000000000000000000000000000000000000000000000000000000081526004016136f5906153d8565b60405180910390fd5b613754600f600083815260200190815260200160002060000160009054906101000a900473ffffffffffffffffffffffffffffffffffffffff16600f6000848152602001908152602001600020600301546125e0565b50613813600f60008381526020019081526020016000206001018054613779906152c8565b80601f01602080910402602001604051908101604052809291908181526020018280546137a5906152c8565b80156137f25780601f106137c7576101008083540402835291602001916137f2565b820191906000526020600020905b8154815290600101906020018083116137d557829003601f168201915b5050505050600f600084815260200190815260200160002060020154614025565b506001600f600083815260200190815260200160002060040160006101000a81548160ff02191690831515021790555050565b6000600560008473ffffffffffffffffffffffffffffffffffffffff1673ffffffffffffffffffffffffffffffffffffffff16815260200190815260200160002060008373ffffffffffffffffffffffffffffffffffffffff1673ffffffffffffffffffffffffffffffffffffffff16815260200190815260200160002054905092915050565b6000806138d985613bd4565b9150508061391c576040517f08c379a000000000000000000000000000000000000000000000000000000000815260040161391390615921565b60405180910390fd5b61392585610591565b831115613967576040517f08c379a000000000000000000000000000000000000000000000000000000000815260040161395e90615279565b60405180910390fd5b600073ffffffffffffffffffffffffffffffffffffffff168473ffffffffffffffffffffffffffffffffffffffff1614156139a157600080fd5b613a0f83600960003373ffffffffffffffffffffffffffffffffffffffff1673ffffffffffffffffffffffffffffffffffffffff168152602001908152602001600020876040516139f291906151aa565b9081526020016040518091039020546142e490919063ffffffff16565b600960003373ffffffffffffffffffffffffffffffffffffffff1673ffffffffffffffffffffffffffffffffffffffff16815260200190815260200160002086604051613a5c91906151aa565b908152602001604051809103902081905550613adc83600960008773ffffffffffffffffffffffffffffffffffffffff1673ffffffffffffffffffffffffffffffffffffffff16815260200190815260200160002087604051613abf91906151aa565b908152602001604051809103902054613bac90919063ffffffff16565b600960008673ffffffffffffffffffffffffffffffffffffffff1673ffffffffffffffffffffffffffffffffffffffff16815260200190815260200160002086604051613b2991906151aa565b9081526020016040518091039020819055508373ffffffffffffffffffffffffffffffffffffffff163373ffffffffffffffffffffffffffffffffffffffff167fddf252ad1be2c89b69c2b068fc378daa952ba7f163c4a11628f55a4df523b3ef85604051613b989190614847565b60405180910390a360019150509392505050565b6000808284613bbb9190615773565b905083811015613bca57600080fd5b8091505092915050565b60008060005b600a80549050811015613ccc57613ca784600a8381548110613bff57613bfe61553c565b5b90600052602060002090600402016001018054613c1b906152c8565b80601f0160208091040260200160405190810160405280929190818152602001828054613c47906152c8565b8015613c945780601f10613c6957610100808354040283529160200191613c94565b820191906000526020600020905b815481529060010190602001808311613c7757829003601f168201915b505050505061430d90919063ffffffff16565b15613cb9578060019250925050613d16565b8080613cc490615652565b915050613bda565b506000613d0e576040517f08c379a0000000000000000000000000000000000000000000000000000000008152600401613d05906159b3565b60405180910390fd5b600080915091505b915091565b600080613d2784613bd4565b91505080613d6a576040517f08c379a0000000000000000000000000000000000000000000000000000000008152600401613d6190615921565b60405180910390fd5b613d7384610591565b831115613db5576040517f08c379a0000000000000000000000000000000000000000000000000000000008152600401613dac90615279565b60405180910390fd5b613e2383600960003373ffffffffffffffffffffffffffffffffffffffff1673ffffffffffffffffffffffffffffffffffffffff16815260200190815260200160002086604051613e0691906151aa565b9081526020016040518091039020546142e490919063ffffffff16565b600960003373ffffffffffffffffffffffffffffffffffffffff1673ffffffffffffffffffffffffffffffffffffffff16815260200190815260200160002085604051613e7091906151aa565b908152602001604051809103902081905550613f128360096000600760009054906101000a900473ffffffffffffffffffffffffffffffffffffffff1673ffffffffffffffffffffffffffffffffffffffff1673ffffffffffffffffffffffffffffffffffffffff16815260200190815260200160002086604051613ef591906151aa565b908152602001604051809103902054613bac90919063ffffffff16565b60096000600760009054906101000a900473ffffffffffffffffffffffffffffffffffffffff1673ffffffffffffffffffffffffffffffffffffffff1673ffffffffffffffffffffffffffffffffffffffff16815260200190815260200160002085604051613f8191906151aa565b908152602001604051809103902081905550600760009054906101000a900473ffffffffffffffffffffffffffffffffffffffff1673ffffffffffffffffffffffffffffffffffffffff163373ffffffffffffffffffffffffffffffffffffffff167fddf252ad1be2c89b69c2b068fc378daa952ba7f163c4a11628f55a4df523b3ef856040516140129190614847565b60405180910390a3600191505092915050565b60008061403184613bd4565b91505080614074576040517f08c379a000000000000000000000000000000000000000000000000000000000815260040161406b90615921565b60405180910390fd5b6141048360096000600760009054906101000a900473ffffffffffffffffffffffffffffffffffffffff1673ffffffffffffffffffffffffffffffffffffffff1673ffffffffffffffffffffffffffffffffffffffff168152602001908152602001600020866040516140e791906151aa565b9081526020016040518091039020546142e490919063ffffffff16565b60096000600760009054906101000a900473ffffffffffffffffffffffffffffffffffffffff1673ffffffffffffffffffffffffffffffffffffffff1673ffffffffffffffffffffffffffffffffffffffff1681526020019081526020016000208560405161417391906151aa565b9081526020016040518091039020819055506141f383600960003373ffffffffffffffffffffffffffffffffffffffff1673ffffffffffffffffffffffffffffffffffffffff168152602001908152602001600020866040516141d691906151aa565b908152602001604051809103902054613bac90919063ffffffff16565b600960003373ffffffffffffffffffffffffffffffffffffffff1673ffffffffffffffffffffffffffffffffffffffff1681526020019081526020016000208560405161424091906151aa565b9081526020016040518091039020819055503373ffffffffffffffffffffffffffffffffffffffff16600760009054906101000a900473ffffffffffffffffffffffffffffffffffffffff1673ffffffffffffffffffffffffffffffffffffffff167fddf252ad1be2c89b69c2b068fc378daa952ba7f163c4a11628f55a4df523b3ef856040516142d19190614847565b60405180910390a3600191505092915050565b6000828211156142f357600080fd5b6000828461430191906157c9565b90508091505092915050565b6000815183511461432157600090506143d5565b60005b83518110156143cf578281815181106143405761433f61553c565b5b602001015160f81c60f81b7effffffffffffffffffffffffffffffffffffffffffffffffffffffffffffff19168482815181106143805761437f61553c565b5b602001015160f81c60f81b7effffffffffffffffffffffffffffffffffffffffffffffffffffffffffffff1916146143bc5760009150506143d5565b80806143c790615652565b915050614324565b50600190505b92915050565b8280546143e7906152c8565b90600052602060002090601f0160209004810192826144095760008555614450565b82601f1061442257805160ff1916838001178555614450565b82800160010185558215614450579182015b8281111561444f578251825591602001919060010190614434565b5b50905061445d91906145a1565b5090565b508054600082556006029060005260206000209081019061448291906145be565b50565b828054614491906152c8565b90600052602060002090601f0160209004810192826144b35760008555614501565b82601f106144c45780548555614501565b8280016001018555821561450157600052602060002091601f016020900482015b828111156145005782548255916001019190600101906144e5565b5b50905061450e91906145a1565b5090565b60405180608001604052806060815260200160608152602001600060ff168152602001600081525090565b508054614549906152c8565b6000825580601f1061455b575061457a565b601f01602090049060005260206000209081019061457991906145a1565b5b50565b508054600082556004029060005260206000209081019061459e9190614638565b50565b5b808211156145ba5760008160009055506001016145a2565b5090565b5b8082111561463457600080820160006101000a81549073ffffffffffffffffffffffffffffffffffffffff02191690556001820160006145ff919061453d565b600282016000905560038201600090556004820160006101000a81549060ff02191690556005820160009055506006016145bf565b5090565b5b808211156146875760008082016000614652919061453d565b600182016000614662919061453d565b6002820160006101000a81549060ff0219169055600382016000905550600401614639565b5090565b6000604051905090565b600080fd5b600080fd5b600080fd5b600080fd5b6000601f19601f8301169050919050565b7f4e487b7100000000000000000000000000000000000000000000000000000000600052604160045260246000fd5b6146f2826146a9565b810181811067ffffffffffffffff82111715614711576147106146ba565b5b80604052505050565b600061472461468b565b905061473082826146e9565b919050565b600067ffffffffffffffff8211156147505761474f6146ba565b5b614759826146a9565b9050602081019050919050565b82818337600083830152505050565b600061478861478384614735565b61471a565b9050828152602081018484840111156147a4576147a36146a4565b5b6147af848285614766565b509392505050565b600082601f8301126147cc576147cb61469f565b5b81356147dc848260208601614775565b91505092915050565b6000602082840312156147fb576147fa614695565b5b600082013567ffffffffffffffff8111156148195761481861469a565b5b614825848285016147b7565b91505092915050565b6000819050919050565b6148418161482e565b82525050565b600060208201905061485c6000830184614838565b92915050565b61486b8161482e565b811461487657600080fd5b50565b60008135905061488881614862565b92915050565b6000806000606084860312156148a7576148a6614695565b5b600084013567ffffffffffffffff8111156148c5576148c461469a565b5b6148d1868287016147b7565b93505060206148e286828701614879565b92505060406148f386828701614879565b9150509250925092565b600081519050919050565b600082825260208201905092915050565b60005b8381101561493757808201518184015260208101905061491c565b83811115614946576000848401525b50505050565b6000614957826148fd565b6149618185614908565b9350614971818560208601614919565b61497a816146a9565b840191505092915050565b6000602082019050818103600083015261499f818461494c565b905092915050565b6000602082840312156149bd576149bc614695565b5b60006149cb84828501614879565b91505092915050565b600073ffffffffffffffffffffffffffffffffffffffff82169050919050565b60006149ff826149d4565b9050919050565b614a0f816149f4565b8114614a1a57600080fd5b50565b600081359050614a2c81614a06565b92915050565b60008060408385031215614a4957614a48614695565b5b6000614a5785828601614a1d565b9250506020614a6885828601614879565b9150509250929050565b60008115159050919050565b614a8781614a72565b82525050565b6000602082019050614aa26000830184614a7e565b92915050565b600060ff82169050919050565b614abe81614aa8565b8114614ac957600080fd5b50565b600081359050614adb81614ab5565b92915050565b60008060008060808587031215614afb57614afa614695565b5b600085013567ffffffffffffffff811115614b1957614b1861469a565b5b614b25878288016147b7565b945050602085013567ffffffffffffffff811115614b4657614b4561469a565b5b614b52878288016147b7565b9350506040614b6387828801614acc565b9250506060614b7487828801614879565b91505092959194509250565b600081519050919050565b600082825260208201905092915050565b6000819050602082019050919050565b600082825260208201905092915050565b6000614bc8826148fd565b614bd28185614bac565b9350614be2818560208601614919565b614beb816146a9565b840191505092915050565b614bff81614aa8565b82525050565b614c0e8161482e565b82525050565b60006080830160008301518482036000860152614c318282614bbd565b91505060208301518482036020860152614c4b8282614bbd565b9150506040830151614c606040860182614bf6565b506060830151614c736060860182614c05565b508091505092915050565b6000614c8a8383614c14565b905092915050565b6000602082019050919050565b6000614caa82614b80565b614cb48185614b8b565b935083602082028501614cc685614b9c565b8060005b85811015614d025784840389528151614ce38582614c7e565b9450614cee83614c92565b925060208a01995050600181019050614cca565b50829750879550505050505092915050565b60006020820190508181036000830152614d2e8184614c9f565b905092915050565b600080600060608486031215614d4f57614d4e614695565b5b6000614d5d86828701614a1d565b9350506020614d6e86828701614a1d565b9250506040614d7f86828701614879565b9150509250925092565b614d9281614aa8565b82525050565b6000602082019050614dad6000830184614d89565b92915050565b600081519050919050565b600082825260208201905092915050565b6000819050602082019050919050565b614de8816149f4565b82525050565b614df781614a72565b82525050565b600060c083016000830151614e156000860182614ddf565b5060208301518482036020860152614e2d8282614bbd565b9150506040830151614e426040860182614c05565b506060830151614e556060860182614c05565b506080830151614e686080860182614dee565b5060a0830151614e7b60a0860182614c05565b508091505092915050565b6000614e928383614dfd565b905092915050565b6000602082019050919050565b6000614eb282614db3565b614ebc8185614dbe565b935083602082028501614ece85614dcf565b8060005b85811015614f0a5784840389528151614eeb8582614e86565b9450614ef683614e9a565b925060208a01995050600181019050614ed2565b50829750879550505050505092915050565b60006020820190508181036000830152614f368184614ea7565b905092915050565b600060208284031215614f5457614f53614695565b5b6000614f6284828501614a1d565b91505092915050565b60006080830160008301518482036000860152614f888282614bbd565b91505060208301518482036020860152614fa28282614bbd565b9150506040830151614fb76040860182614bf6565b506060830151614fca6060860182614c05565b508091505092915050565b60006020820190508181036000830152614fef8184614f6b565b905092915050565b6000806040838503121561500e5761500d614695565b5b600083013567ffffffffffffffff81111561502c5761502b61469a565b5b615038858286016147b7565b925050602061504985828601614879565b9150509250929050565b6000806040838503121561506a57615069614695565b5b600061507885828601614a1d565b925050602061508985828601614a1d565b9150509250929050565b6000806000606084860312156150ac576150ab614695565b5b600084013567ffffffffffffffff8111156150ca576150c961469a565b5b6150d6868287016147b7565b93505060206150e786828701614a1d565b92505060406150f886828701614879565b9150509250925092565b7f2054686520746f6b656e206973206e6f74206578697374656420212000000000600082015250565b6000615138601c83614908565b915061514382615102565b602082019050919050565b600060208201905081810360008301526151678161512b565b9050919050565b600081905092915050565b6000615184826148fd565b61518e818561516e565b935061519e818560208601614919565b80840191505092915050565b60006151b68284615179565b915081905092915050565b7f54686520746f6b656e206973206e6f7420657869737465642021000000000000600082015250565b60006151f7601a83614908565b9150615202826151c1565b602082019050919050565b60006020820190508181036000830152615226816151ea565b9050919050565b7f54686520746f6b656e206973206e6f7420656e6f756768202100000000000000600082015250565b6000615263601983614908565b915061526e8261522d565b602082019050919050565b6000602082019050818103600083015261529281615256565b9050919050565b7f4e487b7100000000000000000000000000000000000000000000000000000000600052602260045260246000fd5b600060028204905060018216806152e057607f821691505b602082108114156152f4576152f3615299565b5b50919050565b7f546865207472616e73616374696f6e206973206e6f7420657869737465642021600082015250565b6000615330602083614908565b915061533b826152fa565b602082019050919050565b6000602082019050818103600083015261535f81615323565b9050919050565b7f546865207472616e73616374696f6e2068617320616c7265616479206265656e60008201527f20636f6d706c6574656420210000000000000000000000000000000000000000602082015250565b60006153c2602c83614908565b91506153cd82615366565b604082019050919050565b600060208201905081810360008301526153f1816153b5565b9050919050565b7f4f6e6c792074686520726f6f742063616e20646573746f727920746f6b656e21600082015250565b600061542e602083614908565b9150615439826153f8565b602082019050919050565b6000602082019050818103600083015261545d81615421565b9050919050565b7f496e73756666696369656e742062616c616e6365202100000000000000000000600082015250565b600061549a601683614908565b91506154a582615464565b602082019050919050565b600060208201905081810360008301526154c98161548d565b9050919050565b7f4f6e6c7920726f6f742063616e206372656174652074686520746f6b656e2021600082015250565b6000615506602083614908565b9150615511826154d0565b602082019050919050565b60006020820190508181036000830152615535816154f9565b9050919050565b7f4e487b7100000000000000000000000000000000000000000000000000000000600052603260045260246000fd5b7f6661696c656420746f2063726561746520746f6b656e202120546865206e616d60008201527f65206f722073796d626f6c2068617320616c726561647920657869737465642060208201527f2100000000000000000000000000000000000000000000000000000000000000604082015250565b60006155ed604183614908565b91506155f88261556b565b606082019050919050565b6000602082019050818103600083015261561c816155e0565b9050919050565b7f4e487b7100000000000000000000000000000000000000000000000000000000600052601160045260246000fd5b600061565d8261482e565b91507fffffffffffffffffffffffffffffffffffffffffffffffffffffffffffffffff8214156156905761568f615623565b5b600182019050919050565b7f4f6e6c792074686520726f6f742063616e2063726561746520746f6b656e2100600082015250565b60006156d1601f83614908565b91506156dc8261569b565b602082019050919050565b60006020820190508181036000830152615700816156c4565b9050919050565b7f546865204956494c2069732063616e277420626520646573746f727965642021600082015250565b600061573d602083614908565b915061574882615707565b602082019050919050565b6000602082019050818103600083015261576c81615730565b9050919050565b600061577e8261482e565b91506157898361482e565b9250827fffffffffffffffffffffffffffffffffffffffffffffffffffffffffffffffff038211156157be576157bd615623565b5b828201905092915050565b60006157d48261482e565b91506157df8361482e565b9250828210156157f2576157f1615623565b5b828203905092915050565b7f6661696c656420746f2064656c65746520210000000000000000000000000000600082015250565b6000615833601283614908565b915061583e826157fd565b602082019050919050565b6000602082019050818103600083015261586281615826565b9050919050565b7f4f6e6c7920726f6f742063616e206164642074686520746f6b656e2021000000600082015250565b600061589f601d83614908565b91506158aa82615869565b602082019050919050565b600060208201905081810360008301526158ce81615892565b9050919050565b7f54686520746f6b656e206973206e6f7420657869737465640000000000000000600082015250565b600061590b601883614908565b9150615916826158d5565b602082019050919050565b6000602082019050818103600083015261593a816158fe565b9050919050565b7f5468652073706563696669656420746f6b656e20776173206e6f7420666f756e60008201527f6420210000000000000000000000000000000000000000000000000000000000602082015250565b600061599d602383614908565b91506159a882615941565b604082019050919050565b600060208201905081810360008301526159cc81615990565b905091905056fea26469706673582212206979f0b6702d358e34935a67719ae9679f2b4dab0c3025a068c36157a57420f864736f6c634300080c0033",
  "immutableReferences": {},
  "source": "// SPDX-License-Identifier: GPL-3.0\r\n\r\npragma solidity >=0.4.24;\r\n\r\n/**\r\n * @title \r\n * @dev \r\n */\r\nlibrary SafeMath {\r\n    /**\r\n     * @dev \r\n     */\r\n    function mul(uint256 a, uint256 b) internal pure returns (uint256) {\r\n        if (a == 0) {\r\n            return 0;\r\n        }\r\n\r\n        uint256 c = a * b;\r\n        require(c / a == b);\r\n\r\n        return c;\r\n    }\r\n\r\n    /**\r\n     * @dev \r\n     */\r\n    function div(uint256 a, uint256 b) internal pure returns (uint256) {\r\n        require(b > 0);\r\n        uint256 c = a / b;\r\n\r\n        return c;\r\n    }\r\n\r\n    /**\r\n     * @dev \r\n     */\r\n    function sub(uint256 a, uint256 b) internal pure returns (uint256) {\r\n        require(b <= a);\r\n        uint256 c = a - b;\r\n\r\n        return c;\r\n    }\r\n\r\n    /**\r\n     * @dev \r\n     */\r\n    function add(uint256 a, uint256 b) internal pure returns (uint256) {\r\n        uint256 c = a + b;\r\n        require(c >= a);\r\n\r\n        return c;\r\n    }\r\n\r\n    /**\r\n     * @dev \r\n     */\r\n    function mod(uint256 a, uint256 b) internal pure returns (uint256) {\r\n        require(b != 0);\r\n        return a % b;\r\n    }\r\n}\r\n\r\n/**\r\n *@dev ,\r\n */\r\nlibrary StringUtils {\r\n    function CompareInternal(string memory a, string memory b)\r\n        internal\r\n        pure\r\n        returns (bool)\r\n    {\r\n        if (bytes(a).length != bytes(b).length) {\r\n            return false;\r\n        }\r\n        for (uint256 i = 0; i < bytes(a).length; i++) {\r\n            if (bytes(a)[i] != bytes(b)[i]) {\r\n                return false;\r\n            }\r\n        }\r\n        return true;\r\n    }\r\n}\r\n\r\n//========================================================================================\r\n\r\n/**\r\n * @title ERC20 interface\r\n */\r\ninterface IERC20 {\r\n    // methods\r\n    function totalSupply() external view returns (uint256);\r\n\r\n    function balanceOf(address who) external view returns (uint256);\r\n\r\n    function allowance(address owner, address spender)\r\n        external\r\n        view\r\n        returns (uint256);\r\n\r\n    function transfer(address to, uint256 value) external returns (bool);\r\n\r\n    function approve(address spender, uint256 value) external returns (bool);\r\n\r\n    function transferFrom(\r\n        address from,\r\n        address to,\r\n        uint256 value\r\n    ) external returns (bool);\r\n\r\n    // event\r\n    event Transfer(address indexed from, address indexed to, uint256 value);\r\n\r\n    event Approval(\r\n        address indexed owner,\r\n        address indexed spender,\r\n        uint256 value\r\n    );\r\n}\r\n\r\n//=======================================================================================\r\n/**\r\n * @title ERC20\r\n *\r\n */\r\ncontract ERC20 is IERC20 {\r\n    using SafeMath for uint256;\r\n\r\n    string private _name = \"ivil.world\"; //\r\n    string private _symbol = \"IVIL\"; //\r\n    uint8 private _decimals = 9; //\r\n    uint256 private _totalSupply = 21000000; //\r\n\r\n    mapping(address => uint256) private _balances;\r\n\r\n    mapping(address => mapping(address => uint256)) private _allowed;\r\n\r\n    address private root; //\r\n\r\n    constructor() {\r\n        root = msg.sender;\r\n        _balances[msg.sender] = _balances[msg.sender].add(_totalSupply);\r\n    }\r\n\r\n    function name() public view returns (string memory) {\r\n        return _name;\r\n    }\r\n\r\n    function symbol() public view returns (string memory) {\r\n        return _symbol;\r\n    }\r\n\r\n    function decimals() public view returns (uint8) {\r\n        return _decimals;\r\n    }\r\n\r\n    // \r\n    function createIVIL(uint256 value) public returns (bool) {\r\n        require(msg.sender == root, \"Only the root can create token!\");\r\n        _balances[msg.sender] = _balances[msg.sender].add(value);\r\n        _totalSupply = _totalSupply.add(value);\r\n        return true;\r\n    }\r\n\r\n    // \r\n    function destoryIVIL(uint256 value) public returns (bool) {\r\n        require(msg.sender == root, \"Only the root can destory token!\");\r\n        require(_balances[msg.sender] >= value, \"Insufficient balance !\");\r\n        _balances[msg.sender] = _balances[msg.sender].sub(value);\r\n        _totalSupply = _totalSupply.sub(value);\r\n        return true;\r\n    }\r\n\r\n    function totalSupply() public view returns (uint256) {\r\n        return _totalSupply;\r\n    }\r\n\r\n    function balanceOf(address owner) public view returns (uint256) {\r\n        return _balances[owner];\r\n    }\r\n\r\n    function allowance(address owner, address spender)\r\n        public\r\n        view\r\n        returns (uint256)\r\n    {\r\n        return _allowed[owner][spender];\r\n    }\r\n\r\n    function transfer(address to, uint256 value) public returns (bool) {\r\n        require(value <= _balances[msg.sender]);\r\n        require(to != address(0));\r\n\r\n        _balances[msg.sender] = _balances[msg.sender].sub(value);\r\n        _balances[to] = _balances[to].add(value);\r\n        emit Transfer(msg.sender, to, value);\r\n        return true;\r\n    }\r\n\r\n    function approve(address spender, uint256 value) public returns (bool) {\r\n        require(spender != address(0));\r\n\r\n        _allowed[msg.sender][spender] = value;\r\n        emit Approval(msg.sender, spender, value);\r\n        return true;\r\n    }\r\n\r\n    function transferFrom(\r\n        address from,\r\n        address to,\r\n        uint256 value\r\n    ) public returns (bool) {\r\n        require(value <= _balances[from]);\r\n        require(value <= _allowed[from][msg.sender]);\r\n        require(to != address(0));\r\n\r\n        _balances[from] = _balances[from].sub(value);\r\n        _balances[to] = _balances[to].add(value);\r\n        _allowed[from][msg.sender] = _allowed[from][msg.sender].sub(value);\r\n        emit Transfer(from, to, value);\r\n        return true;\r\n    }\r\n\r\n    function increaseAllowance(address spender, uint256 addedValue)\r\n        public\r\n        returns (bool)\r\n    {\r\n        require(spender != address(0));\r\n\r\n        _allowed[msg.sender][spender] = (\r\n            _allowed[msg.sender][spender].add(addedValue)\r\n        );\r\n        emit Approval(msg.sender, spender, _allowed[msg.sender][spender]);\r\n        return true;\r\n    }\r\n\r\n    function decreaseAllowance(address spender, uint256 subtractedValue)\r\n        public\r\n        returns (bool)\r\n    {\r\n        require(spender != address(0));\r\n\r\n        _allowed[msg.sender][spender] = (\r\n            _allowed[msg.sender][spender].sub(subtractedValue)\r\n        );\r\n        emit Approval(msg.sender, spender, _allowed[msg.sender][spender]);\r\n        return true;\r\n    }\r\n\r\n    function _mint(address account, uint256 amount) internal {\r\n        require(account != address(0));\r\n        _totalSupply = _totalSupply.add(amount);\r\n        _balances[account] = _balances[account].add(amount);\r\n        emit Transfer(address(0), account, amount);\r\n    }\r\n\r\n    function _burn(address account, uint256 amount) internal {\r\n        require(account != address(0));\r\n        require(amount <= _balances[account]);\r\n\r\n        _totalSupply = _totalSupply.sub(amount);\r\n        _balances[account] = _balances[account].sub(amount);\r\n        emit Transfer(account, address(0), amount);\r\n    }\r\n\r\n    function _burnFrom(address account, uint256 amount) internal {\r\n        require(amount <= _allowed[account][msg.sender]);\r\n\r\n        _allowed[account][msg.sender] = _allowed[account][msg.sender].sub(\r\n            amount\r\n        );\r\n        _burn(account, amount);\r\n    }\r\n}\r\n\r\n//===================================================================================\r\n\r\ncontract IvilWorld is ERC20 {\r\n    using SafeMath for uint256;\r\n    using StringUtils for string;\r\n\r\n    struct Token {\r\n        string name; //\r\n        string symbol; //\r\n        uint8 decimals; //20.01\r\n        uint256 totalSupply; //\r\n    }\r\n\r\n    address private ice; //\r\n    address private root; //\r\n\r\n    mapping(address => mapping(string => uint256)) private balance; //\r\n\r\n    Token[] private tokens;\r\n    /*\r\n     *constant , , , , constant(: block.number , now , msg.sender  )\r\n     *constant  strings  .\r\n     */\r\n    Token private godToken = Token(\"ivil.world\", \"IVIL\", 9, 21000000); // token,\r\n\r\n    constructor() {\r\n        root = msg.sender;\r\n        tokens.push(godToken);\r\n        balance[msg.sender][godToken.symbol] = balance[msg.sender][\r\n            godToken.symbol\r\n        ].add(godToken.totalSupply);\r\n    }\r\n\r\n    // \r\n    function createToken(\r\n        string memory name,\r\n        string memory symbol,\r\n        uint8 decimals,\r\n        uint256 total\r\n    ) public returns (Token[] memory) {\r\n        require(msg.sender == root, \"Only root can create the token !\");\r\n        bool status = false;\r\n        for (uint256 i = 0; i < tokens.length; i++) {\r\n            if (\r\n                tokens[i].name.CompareInternal(name) ||\r\n                tokens[i].symbol.CompareInternal(symbol)\r\n            ) {\r\n                require(\r\n                    status,\r\n                    \"failed to create token ! The name or symbol has already existed !\"\r\n                );\r\n                return tokens;\r\n            }\r\n        }\r\n        Token memory token = Token(name, symbol, decimals, total);\r\n        tokens.push(token);\r\n        balance[msg.sender][token.symbol] = balance[msg.sender][token.symbol]\r\n            .add(token.totalSupply);\r\n        return tokens;\r\n    }\r\n\r\n    // \r\n    function destoryToken(string memory symbol)\r\n        public\r\n        returns (Token[] memory)\r\n    {\r\n        require(msg.sender == root, \"Only root can create the token !\");\r\n        require(\r\n            !symbol.CompareInternal(\"IVIL\"),\r\n            \"The IVIL is can't be destoryed !\"\r\n        );\r\n        bool status = false;\r\n        for (uint256 i = 0; i < tokens.length; i++) {\r\n            if (tokens[i].symbol.CompareInternal(symbol)) {\r\n                delete tokens[i];\r\n                while (i + 1 < tokens.length) {\r\n                    tokens[i] = tokens[i + 1];\r\n                    i++;\r\n                }\r\n                Token[] memory temp;\r\n                temp = tokens;\r\n                delete tokens;\r\n                for (uint256 k = 0; k < temp.length - 1; k++) {\r\n                    tokens.push(temp[k]);\r\n                }\r\n                return tokens;\r\n            }\r\n        }\r\n        require(status, \"failed to delete !\");\r\n        return tokens;\r\n    }\r\n\r\n    // token\r\n    function increaseToken(string memory symbol, uint256 value) public {\r\n        require(msg.sender == root, \"Only root can add the token !\");\r\n        (uint256 index, bool isExisted) = getLocationBySymbol(symbol);\r\n        require(isExisted, \"The token is not existed !\");\r\n        tokens[index].totalSupply = tokens[index].totalSupply.add(value);\r\n        balance[msg.sender][symbol] = balance[msg.sender][symbol].add(value);\r\n    }\r\n\r\n    // token\r\n    function decreaseToken(string memory symbol, uint256 value) public {\r\n        require(msg.sender == root, \"Only root can add the token !\");\r\n        (uint256 index, bool isExisted) = getLocationBySymbol(symbol);\r\n        require(isExisted, \"The token is not existed !\");\r\n        require(balance[msg.sender][symbol] >= value, \"Insufficient balance !\");\r\n        tokens[index].totalSupply = tokens[index].totalSupply.sub(value);\r\n        balance[msg.sender][symbol] = balance[msg.sender][symbol].sub(value);\r\n    }\r\n\r\n    // token\r\n    function getLocationBySymbol(string memory symbol)\r\n        internal\r\n        view\r\n        returns (uint256, bool)\r\n    {\r\n        for (uint256 i = 0; i < tokens.length; i++) {\r\n            if (tokens[i].symbol.CompareInternal(symbol)) {\r\n                return (i, true);\r\n            }\r\n        }\r\n        require(false, \"The specified token was not found !\");\r\n        return (0, false);\r\n    }\r\n\r\n    // token\r\n    function getTokenInfo(string memory symbol)\r\n        public\r\n        view\r\n        returns (Token memory)\r\n    {\r\n        (uint256 index, bool isExisted) = getLocationBySymbol(symbol);\r\n        require(isExisted, \" The token is not existed ! \");\r\n        return tokens[index];\r\n    }\r\n\r\n    // \r\n    function getAllTokensInfo() public view returns (Token[] memory) {\r\n        return tokens;\r\n    }\r\n\r\n    // \r\n    function getTokenBalance(string memory symbol)\r\n        public\r\n        view\r\n        returns (uint256)\r\n    {\r\n        (, bool isExisted) = getLocationBySymbol(symbol);\r\n        require(isExisted, \" The token is not existed ! \");\r\n        return balance[msg.sender][symbol];\r\n    }\r\n\r\n    // token\r\n    function getSpecificTokenBalance(string memory symbol, address who)\r\n        internal\r\n        view\r\n        returns (uint256)\r\n    {\r\n        (, bool isExisted) = getLocationBySymbol(symbol);\r\n        require(isExisted, \" The token is not existed ! \");\r\n        return balance[who][symbol];\r\n    }\r\n\r\n    // \r\n    function transferToken(\r\n        string memory symbol,\r\n        address to,\r\n        uint256 value\r\n    ) public returns (bool) {\r\n        (, bool isExisted) = getLocationBySymbol(symbol);\r\n        require(isExisted, \"The token is not existed\");\r\n        require(value <= getTokenBalance(symbol), \"The token is not enough !\");\r\n        require(to != address(0));\r\n        balance[msg.sender][symbol] = balance[msg.sender][symbol].sub(value);\r\n        balance[to][symbol] = balance[to][symbol].add(value);\r\n        emit Transfer(msg.sender, to, value);\r\n        return true;\r\n    }\r\n\r\n    // token\r\n    function freezeToken(string memory symbol, uint256 value)\r\n        internal\r\n        returns (bool)\r\n    {\r\n        (, bool isExisted) = getLocationBySymbol(symbol);\r\n        require(isExisted, \"The token is not existed\");\r\n        require(value <= getTokenBalance(symbol), \"The token is not enough !\");\r\n        balance[msg.sender][symbol] = balance[msg.sender][symbol].sub(value);\r\n        balance[ice][symbol] = balance[ice][symbol].add(value);\r\n        emit Transfer(msg.sender, ice, value);\r\n        return true;\r\n    }\r\n\r\n    // token\r\n    function unfreezeToken(string memory symbol, uint256 value)\r\n        internal\r\n        returns (bool)\r\n    {\r\n        (, bool isExisted) = getLocationBySymbol(symbol);\r\n        require(isExisted, \"The token is not existed\");\r\n        balance[ice][symbol] = balance[ice][symbol].sub(value);\r\n        balance[msg.sender][symbol] = balance[msg.sender][symbol].add(value);\r\n        emit Transfer(ice, msg.sender, value);\r\n        return true;\r\n    }\r\n}\r\n\r\n// ===========================================================================\r\n\r\ncontract TradingSystem is IvilWorld {\r\n    using SafeMath for uint256;\r\n    using StringUtils for string;\r\n\r\n    struct Transaction {\r\n        address sender; //\r\n        string symbol; //\r\n        uint256 value; //\r\n        uint256 price; //\r\n        bool status; //\r\n        uint256 index; //\r\n    }\r\n\r\n    mapping(uint256 => Transaction) private tradingPool; //\r\n    Transaction[] private transactions; //\r\n    uint256 private counter;\r\n\r\n    address private root; //\r\n\r\n    constructor() {\r\n        root = msg.sender;\r\n    }\r\n\r\n    // \r\n    function depthOfPool() public view returns (uint256) {\r\n        return counter;\r\n    }\r\n\r\n    // \r\n    function transactionsOfPool() public returns (Transaction[] memory) {\r\n        delete transactions; //\r\n        for (uint256 i; i <= counter; i++) {\r\n            if (tradingPool[i].status == false) {\r\n                transactions.push(tradingPool[i]);\r\n            }\r\n        }\r\n        return transactions;\r\n    }\r\n\r\n    // \r\n    function sell(\r\n        string memory symbol,\r\n        uint256 value,\r\n        uint256 price\r\n    ) public {\r\n        (, bool isExisted) = getLocationBySymbol(symbol);\r\n        require(isExisted, \"The token is not existed !\");\r\n        uint256 temp = getTokenBalance(symbol);\r\n        require(value <= temp, \"The token is not enough !\");\r\n        Transaction memory deal = Transaction(\r\n            msg.sender,\r\n            symbol,\r\n            value,\r\n            price,\r\n            false,\r\n            counter\r\n        );\r\n        tradingPool[counter] = deal;\r\n        freezeToken(symbol, value);\r\n    }\r\n\r\n    // \r\n    function cancelSell(uint256 index) public {\r\n        require(index <= counter, \"The transaction is not existed !\");\r\n        require(\r\n            !tradingPool[index].status,\r\n            \"The transaction has already been completed !\"\r\n        );\r\n        require(msg.sender == tradingPool[index].sender);\r\n        unfreezeToken(tradingPool[index].symbol, tradingPool[index].value);\r\n        tradingPool[index].status = true;\r\n    }\r\n\r\n    // \r\n    function buy(uint256 index) public {\r\n        require(index <= counter, \"The transaction is not existed !\");\r\n        require(\r\n            !tradingPool[index].status,\r\n            \"The transaction has already been completed !\"\r\n        );\r\n        transfer(tradingPool[index].sender, tradingPool[index].price);\r\n        unfreezeToken(tradingPool[index].symbol, tradingPool[index].value);\r\n        tradingPool[index].status = true;\r\n    }\r\n}\r\n",
  "sourcePath": "E:\\Project\\Blockchain\\TradingSystemBasedOnBlockchain\\smart_contract\\contracts\\TradingSystem.sol",
  "compiler": {
    "name": "solc",
    "version": "0.8.12+commit.f00d7308.Emscripten.clang"
  },
  "schemaVersion": "3.4.7",
  "updatedAt": "2022-04-30T12:40:32.066Z",
  "networkType": "ethereum",
  "devdoc": {
    "kind": "dev",
    "methods": {},
    "version": 1
  },
  "userdoc": {
    "kind": "user",
    "methods": {},
    "version": 1
  }
}