{
  "contractName": "TradingSystem",
  "abi": [
    {
      "inputs": [],
      "stateMutability": "nonpayable",
      "type": "constructor"
    },
    {
      "anonymous": false,
      "inputs": [
        {
          "indexed": true,
          "internalType": "address",
          "name": "owner",
          "type": "address"
        },
        {
          "indexed": true,
          "internalType": "address",
          "name": "spender",
          "type": "address"
        },
        {
          "indexed": false,
          "internalType": "uint256",
          "name": "value",
          "type": "uint256"
        }
      ],
      "name": "Approval",
      "type": "event"
    },
    {
      "anonymous": false,
      "inputs": [
        {
          "indexed": true,
          "internalType": "address",
          "name": "from",
          "type": "address"
        },
        {
          "indexed": true,
          "internalType": "address",
          "name": "to",
          "type": "address"
        },
        {
          "indexed": false,
          "internalType": "uint256",
          "name": "value",
          "type": "uint256"
        }
      ],
      "name": "Transfer",
      "type": "event"
    },
    {
      "inputs": [
        {
          "internalType": "address",
          "name": "owner",
          "type": "address"
        },
        {
          "internalType": "address",
          "name": "spender",
          "type": "address"
        }
      ],
      "name": "allowance",
      "outputs": [
        {
          "internalType": "uint256",
          "name": "",
          "type": "uint256"
        }
      ],
      "stateMutability": "view",
      "type": "function",
      "constant": true
    },
    {
      "inputs": [
        {
          "internalType": "address",
          "name": "spender",
          "type": "address"
        },
        {
          "internalType": "uint256",
          "name": "value",
          "type": "uint256"
        }
      ],
      "name": "approve",
      "outputs": [
        {
          "internalType": "bool",
          "name": "",
          "type": "bool"
        }
      ],
      "stateMutability": "nonpayable",
      "type": "function"
    },
    {
      "inputs": [
        {
          "internalType": "address",
          "name": "owner",
          "type": "address"
        }
      ],
      "name": "balanceOf",
      "outputs": [
        {
          "internalType": "uint256",
          "name": "",
          "type": "uint256"
        }
      ],
      "stateMutability": "view",
      "type": "function",
      "constant": true
    },
    {
      "inputs": [
        {
          "internalType": "uint256",
          "name": "value",
          "type": "uint256"
        }
      ],
      "name": "createIVIL",
      "outputs": [
        {
          "internalType": "bool",
          "name": "",
          "type": "bool"
        }
      ],
      "stateMutability": "nonpayable",
      "type": "function"
    },
    {
      "inputs": [
        {
          "internalType": "string",
          "name": "name",
          "type": "string"
        },
        {
          "internalType": "string",
          "name": "symbol",
          "type": "string"
        },
        {
          "internalType": "uint8",
          "name": "decimals",
          "type": "uint8"
        },
        {
          "internalType": "uint256",
          "name": "total",
          "type": "uint256"
        }
      ],
      "name": "createToken",
      "outputs": [
        {
          "components": [
            {
              "internalType": "string",
              "name": "name",
              "type": "string"
            },
            {
              "internalType": "string",
              "name": "symbol",
              "type": "string"
            },
            {
              "internalType": "uint8",
              "name": "decimals",
              "type": "uint8"
            },
            {
              "internalType": "uint256",
              "name": "totalSupply",
              "type": "uint256"
            }
          ],
          "internalType": "struct IvilWorld.Token[]",
          "name": "",
          "type": "tuple[]"
        }
      ],
      "stateMutability": "nonpayable",
      "type": "function"
    },
    {
      "inputs": [],
      "name": "decimals",
      "outputs": [
        {
          "internalType": "uint8",
          "name": "",
          "type": "uint8"
        }
      ],
      "stateMutability": "view",
      "type": "function",
      "constant": true
    },
    {
      "inputs": [
        {
          "internalType": "string",
          "name": "symbol",
          "type": "string"
        },
        {
          "internalType": "uint256",
          "name": "value",
          "type": "uint256"
        }
      ],
      "name": "decreaseToken",
      "outputs": [],
      "stateMutability": "nonpayable",
      "type": "function"
    },
    {
      "inputs": [
        {
          "internalType": "uint256",
          "name": "value",
          "type": "uint256"
        }
      ],
      "name": "destoryIVIL",
      "outputs": [
        {
          "internalType": "bool",
          "name": "",
          "type": "bool"
        }
      ],
      "stateMutability": "nonpayable",
      "type": "function"
    },
    {
      "inputs": [
        {
          "internalType": "string",
          "name": "symbol",
          "type": "string"
        }
      ],
      "name": "destoryToken",
      "outputs": [
        {
          "components": [
            {
              "internalType": "string",
              "name": "name",
              "type": "string"
            },
            {
              "internalType": "string",
              "name": "symbol",
              "type": "string"
            },
            {
              "internalType": "uint8",
              "name": "decimals",
              "type": "uint8"
            },
            {
              "internalType": "uint256",
              "name": "totalSupply",
              "type": "uint256"
            }
          ],
          "internalType": "struct IvilWorld.Token[]",
          "name": "",
          "type": "tuple[]"
        }
      ],
      "stateMutability": "nonpayable",
      "type": "function"
    },
    {
      "inputs": [],
      "name": "getAllTokensInfo",
      "outputs": [
        {
          "components": [
            {
              "internalType": "string",
              "name": "name",
              "type": "string"
            },
            {
              "internalType": "string",
              "name": "symbol",
              "type": "string"
            },
            {
              "internalType": "uint8",
              "name": "decimals",
              "type": "uint8"
            },
            {
              "internalType": "uint256",
              "name": "totalSupply",
              "type": "uint256"
            }
          ],
          "internalType": "struct IvilWorld.Token[]",
          "name": "",
          "type": "tuple[]"
        }
      ],
      "stateMutability": "view",
      "type": "function",
      "constant": true
    },
    {
      "inputs": [
        {
          "internalType": "string",
          "name": "symbol",
          "type": "string"
        }
      ],
      "name": "getTokenBalance",
      "outputs": [
        {
          "internalType": "uint256",
          "name": "",
          "type": "uint256"
        }
      ],
      "stateMutability": "view",
      "type": "function",
      "constant": true
    },
    {
      "inputs": [
        {
          "internalType": "string",
          "name": "symbol",
          "type": "string"
        }
      ],
      "name": "getTokenInfo",
      "outputs": [
        {
          "components": [
            {
              "internalType": "string",
              "name": "name",
              "type": "string"
            },
            {
              "internalType": "string",
              "name": "symbol",
              "type": "string"
            },
            {
              "internalType": "uint8",
              "name": "decimals",
              "type": "uint8"
            },
            {
              "internalType": "uint256",
              "name": "totalSupply",
              "type": "uint256"
            }
          ],
          "internalType": "struct IvilWorld.Token",
          "name": "",
          "type": "tuple"
        }
      ],
      "stateMutability": "view",
      "type": "function",
      "constant": true
    },
    {
      "inputs": [
        {
          "internalType": "string",
          "name": "symbol",
          "type": "string"
        },
        {
          "internalType": "uint256",
          "name": "value",
          "type": "uint256"
        }
      ],
      "name": "increaseToken",
      "outputs": [],
      "stateMutability": "nonpayable",
      "type": "function"
    },
    {
      "inputs": [],
      "name": "name",
      "outputs": [
        {
          "internalType": "string",
          "name": "",
          "type": "string"
        }
      ],
      "stateMutability": "view",
      "type": "function",
      "constant": true
    },
    {
      "inputs": [],
      "name": "symbol",
      "outputs": [
        {
          "internalType": "string",
          "name": "",
          "type": "string"
        }
      ],
      "stateMutability": "view",
      "type": "function",
      "constant": true
    },
    {
      "inputs": [],
      "name": "totalSupply",
      "outputs": [
        {
          "internalType": "uint256",
          "name": "",
          "type": "uint256"
        }
      ],
      "stateMutability": "view",
      "type": "function",
      "constant": true
    },
    {
      "inputs": [
        {
          "internalType": "address",
          "name": "to",
          "type": "address"
        },
        {
          "internalType": "uint256",
          "name": "value",
          "type": "uint256"
        }
      ],
      "name": "transfer",
      "outputs": [
        {
          "internalType": "bool",
          "name": "",
          "type": "bool"
        }
      ],
      "stateMutability": "nonpayable",
      "type": "function"
    },
    {
      "inputs": [
        {
          "internalType": "address",
          "name": "from",
          "type": "address"
        },
        {
          "internalType": "address",
          "name": "to",
          "type": "address"
        },
        {
          "internalType": "uint256",
          "name": "value",
          "type": "uint256"
        }
      ],
      "name": "transferFrom",
      "outputs": [
        {
          "internalType": "bool",
          "name": "",
          "type": "bool"
        }
      ],
      "stateMutability": "nonpayable",
      "type": "function"
    },
    {
      "inputs": [
        {
          "internalType": "string",
          "name": "symbol",
          "type": "string"
        },
        {
          "internalType": "address",
          "name": "to",
          "type": "address"
        },
        {
          "internalType": "uint256",
          "name": "value",
          "type": "uint256"
        }
      ],
      "name": "transferToken",
      "outputs": [
        {
          "internalType": "bool",
          "name": "",
          "type": "bool"
        }
      ],
      "stateMutability": "nonpayable",
      "type": "function"
    },
    {
      "inputs": [],
      "name": "depthOfPool",
      "outputs": [
        {
          "internalType": "uint256",
          "name": "",
          "type": "uint256"
        }
      ],
      "stateMutability": "view",
      "type": "function",
      "constant": true
    },
    {
      "inputs": [],
      "name": "transactionsOfPool",
      "outputs": [
        {
          "components": [
            {
              "internalType": "address",
              "name": "sender",
              "type": "address"
            },
            {
              "internalType": "string",
              "name": "symbol",
              "type": "string"
            },
            {
              "internalType": "uint256",
              "name": "value",
              "type": "uint256"
            },
            {
              "internalType": "uint256",
              "name": "price",
              "type": "uint256"
            },
            {
              "internalType": "bool",
              "name": "status",
              "type": "bool"
            },
            {
              "internalType": "uint256",
              "name": "index",
              "type": "uint256"
            }
          ],
          "internalType": "struct TradingSystem.Transaction[]",
          "name": "",
          "type": "tuple[]"
        }
      ],
      "stateMutability": "nonpayable",
      "type": "function"
    },
    {
      "inputs": [],
      "name": "getPersonalPool",
      "outputs": [
        {
          "components": [
            {
              "internalType": "address",
              "name": "sender",
              "type": "address"
            },
            {
              "internalType": "string",
              "name": "symbol",
              "type": "string"
            },
            {
              "internalType": "uint256",
              "name": "value",
              "type": "uint256"
            },
            {
              "internalType": "uint256",
              "name": "price",
              "type": "uint256"
            },
            {
              "internalType": "bool",
              "name": "status",
              "type": "bool"
            },
            {
              "internalType": "uint256",
              "name": "index",
              "type": "uint256"
            }
          ],
          "internalType": "struct TradingSystem.Transaction[]",
          "name": "",
          "type": "tuple[]"
        }
      ],
      "stateMutability": "view",
      "type": "function",
      "constant": true
    },
    {
      "inputs": [
        {
          "internalType": "string",
          "name": "symbol",
          "type": "string"
        },
        {
          "internalType": "uint256",
          "name": "value",
          "type": "uint256"
        },
        {
          "internalType": "uint256",
          "name": "price",
          "type": "uint256"
        }
      ],
      "name": "sell",
      "outputs": [],
      "stateMutability": "nonpayable",
      "type": "function"
    },
    {
      "inputs": [
        {
          "internalType": "uint256",
          "name": "index",
          "type": "uint256"
        }
      ],
      "name": "cancelSell",
      "outputs": [],
      "stateMutability": "nonpayable",
      "type": "function"
    },
    {
      "inputs": [
        {
          "internalType": "uint256",
          "name": "index",
          "type": "uint256"
        }
      ],
      "name": "buy",
      "outputs": [],
      "stateMutability": "nonpayable",
      "type": "function"
    }
  ],
  "bytecode": "0x60806040526040518060400160405280600a81526020017f6976696c2e776f726c64000000000000000000000000000000000000000000008152506000908051906020019062000051929190620004f8565b506040518060400160405280600481526020017f4956494c00000000000000000000000000000000000000000000000000000000815250600190805190602001906200009f929190620004f8565b506000600260006101000a81548160ff021916908360ff1602179055506301406f4060035560405180608001604052806040518060400160405280600a81526020017f6976696c2e776f726c640000000000000000000000000000000000000000000081525081526020016040518060400160405280600481526020017f4956494c000000000000000000000000000000000000000000000000000000008152508152602001600960ff1681526020016301406f40815250600b600082015181600001908051906020019062000177929190620004f8565b50602082015181600101908051906020019062000196929190620004f8565b5060408201518160020160006101000a81548160ff021916908360ff160217905550606082015181600301555050348015620001d157600080fd5b5033600660006101000a81548173ffffffffffffffffffffffffffffffffffffffff021916908373ffffffffffffffffffffffffffffffffffffffff1602179055506200026e600354600460003373ffffffffffffffffffffffffffffffffffffffff1673ffffffffffffffffffffffffffffffffffffffff16815260200190815260200160002054620004cd60201b62003bcb1790919060201c565b600460003373ffffffffffffffffffffffffffffffffffffffff1673ffffffffffffffffffffffffffffffffffffffff1681526020019081526020016000208190555033600860006101000a81548173ffffffffffffffffffffffffffffffffffffffff021916908373ffffffffffffffffffffffffffffffffffffffff160217905550600a600b9080600181540180825580915050600190039060005260206000209060040201600090919091909150600082018160000190805462000335906200066f565b6200034292919062000589565b50600182018160010190805462000359906200066f565b6200036692919062000589565b506002820160009054906101000a900460ff168160020160006101000a81548160ff021916908360ff16021790555060038201548160030155505062000421600b60030154600960003373ffffffffffffffffffffffffffffffffffffffff1673ffffffffffffffffffffffffffffffffffffffff168152602001908152602001600020600b600101604051620003fe919062000750565b908152602001604051809103902054620004cd60201b62003bcb1790919060201c565b600960003373ffffffffffffffffffffffffffffffffffffffff1673ffffffffffffffffffffffffffffffffffffffff168152602001908152602001600020600b60010160405162000474919062000750565b90815260200160405180910390208190555033601360006101000a81548173ffffffffffffffffffffffffffffffffffffffff021916908373ffffffffffffffffffffffffffffffffffffffff160217905550620007ff565b6000808284620004de9190620007a2565b905083811015620004ee57600080fd5b8091505092915050565b82805462000506906200066f565b90600052602060002090601f0160209004810192826200052a576000855562000576565b82601f106200054557805160ff191683800117855562000576565b8280016001018555821562000576579182015b828111156200057557825182559160200191906001019062000558565b5b50905062000585919062000621565b5090565b82805462000597906200066f565b90600052602060002090601f016020900481019282620005bb57600085556200060e565b82601f10620005ce57805485556200060e565b828001600101855582156200060e57600052602060002091601f016020900482015b828111156200060d578254825591600101919060010190620005f0565b5b5090506200061d919062000621565b5090565b5b808211156200063c57600081600090555060010162000622565b5090565b7f4e487b7100000000000000000000000000000000000000000000000000000000600052602260045260246000fd5b600060028204905060018216806200068857607f821691505b602082108114156200069f576200069e62000640565b5b50919050565b600081905092915050565b60008190508160005260206000209050919050565b60008154620006d4816200066f565b620006e08186620006a5565b94506001821660008114620006fe5760018114620007105762000747565b60ff1983168652818601935062000747565b6200071b85620006b0565b60005b838110156200073f578154818901526001820191506020810190506200071e565b838801955050505b50505092915050565b60006200075e8284620006c5565b915081905092915050565b6000819050919050565b7f4e487b7100000000000000000000000000000000000000000000000000000000600052601160045260246000fd5b6000620007af8262000769565b9150620007bc8362000769565b9250827fffffffffffffffffffffffffffffffffffffffffffffffffffffffffffffffff03821115620007f457620007f362000773565b5b828201905092915050565b615ba2806200080f6000396000f3fe608060405234801561001057600080fd5b50600436106101735760003560e01c806370a08231116100de578063bc43c02011610097578063d6ea49d711610071578063d6ea49d71461049a578063d96a094a146104b8578063dd62ed3e146104d4578063ee91035e1461050457610173565b8063bc43c02014610432578063c5d5901614610462578063c8f956a61461047e57610173565b806370a08231146103365780638e0ad1cc146103665780639293848c1461039657806395d89b41146103c65780639a24a25b146103e4578063a9059cbb1461040257610173565b806318160ddd1161013057806318160ddd1461025e578063210f5dda1461027c57806323b872dd146102ac578063313ce567146102dc57806341f0bd67146102fa57806356673fdd1461031857610173565b8063025abd581461017857806304804ee8146101a857806306fdde03146101c457806307c9cd45146101e2578063095ea7b3146101fe5780630bb5a4e01461022e575b600080fd5b610192600480360381019061018d91906148ec565b610534565b60405161019f919061494e565b60405180910390f35b6101c260048036038101906101bd9190614995565b6105e7565b005b6101cc6108ac565b6040516101d99190614a8c565b60405180910390f35b6101fc60048036038101906101f79190614aae565b61093e565b005b61021860048036038101906102139190614b39565b610c13565b6040516102259190614b94565b60405180910390f35b61024860048036038101906102439190614aae565b610d3e565b6040516102559190614b94565b60405180910390f35b610266610f0b565b604051610273919061494e565b60405180910390f35b61029660048036038101906102919190614be8565b610f15565b6040516102a39190614e1b565b60405180910390f35b6102c660048036038101906102c19190614e3d565b611688565b6040516102d39190614b94565b60405180910390f35b6102e4611a42565b6040516102f19190614e9f565b60405180910390f35b610302611a59565b60405161030f9190615023565b60405180910390f35b610320611c16565b60405161032d9190615023565b60405180910390f35b610350600480360381019061034b9190615045565b611f07565b60405161035d919061494e565b60405180910390f35b610380600480360381019061037b91906148ec565b611f50565b60405161038d91906150dc565b60405180910390f35b6103b060048036038101906103ab9190614aae565b612129565b6040516103bd9190614b94565b60405180910390f35b6103ce612274565b6040516103db9190614a8c565b60405180910390f35b6103ec612306565b6040516103f99190614e1b565b60405180910390f35b61041c60048036038101906104179190614b39565b6124b0565b6040516104299190614b94565b60405180910390f35b61044c600480360381019061044791906148ec565b6126d1565b6040516104599190614e1b565b60405180910390f35b61047c600480360381019061047791906150fe565b613055565b005b610498600480360381019061049391906150fe565b613269565b005b6104a261351b565b6040516104af919061494e565b60405180910390f35b6104d260048036038101906104cd9190614aae565b613525565b005b6104ee60048036038101906104e9919061515a565b613865565b6040516104fb919061494e565b60405180910390f35b61051e6004803603810190610519919061519a565b6138ec565b60405161052b9190614b94565b60405180910390f35b60008061054083613bf3565b91505080610583576040517f08c379a000000000000000000000000000000000000000000000000000000000815260040161057a90615255565b60405180910390fd5b600960003373ffffffffffffffffffffffffffffffffffffffff1673ffffffffffffffffffffffffffffffffffffffff168152602001908152602001600020836040516105d091906152b1565b908152602001604051809103902054915050919050565b60006105f284613bf3565b91505080610635576040517f08c379a000000000000000000000000000000000000000000000000000000000815260040161062c90615314565b60405180910390fd5b600061064085610534565b905080841115610685576040517f08c379a000000000000000000000000000000000000000000000000000000000815260040161067c90615380565b60405180910390fd5b60006040518060c001604052803373ffffffffffffffffffffffffffffffffffffffff168152602001878152602001868152602001858152602001600015158152602001601254815250905080600f6000601254815260200190815260200160002060008201518160000160006101000a81548173ffffffffffffffffffffffffffffffffffffffff021916908373ffffffffffffffffffffffffffffffffffffffff160217905550602082015181600101908051906020019061074a9291906144e2565b50604082015181600201556060820151816003015560808201518160040160006101000a81548160ff02191690831515021790555060a08201518160050155905050601160003373ffffffffffffffffffffffffffffffffffffffff1673ffffffffffffffffffffffffffffffffffffffff16815260200190815260200160002081908060018154018082558091505060019003906000526020600020906006020160009091909190915060008201518160000160006101000a81548173ffffffffffffffffffffffffffffffffffffffff021916908373ffffffffffffffffffffffffffffffffffffffff16021790555060208201518160010190805190602001906108589291906144e2565b50604082015181600201556060820151816003015560808201518160040160006101000a81548160ff02191690831515021790555060a0820151816005015550506108a38686613d3a565b50505050505050565b6060600080546108bb906153cf565b80601f01602080910402602001604051908101604052809291908181526020018280546108e7906153cf565b80156109345780601f1061090957610100808354040283529160200191610934565b820191906000526020600020905b81548152906001019060200180831161091757829003601f168201915b5050505050905090565b601254811115610983576040517f08c379a000000000000000000000000000000000000000000000000000000000815260040161097a9061544d565b60405180910390fd5b600f600082815260200190815260200160002060040160009054906101000a900460ff16156109e7576040517f08c379a00000000000000000000000000000000000000000000000000000000081526004016109de906154df565b60405180910390fd5b600f600082815260200190815260200160002060000160009054906101000a900473ffffffffffffffffffffffffffffffffffffffff1673ffffffffffffffffffffffffffffffffffffffff163373ffffffffffffffffffffffffffffffffffffffff1614610a5557600080fd5b610b13600f60008381526020019081526020016000206001018054610a79906153cf565b80601f0160208091040260200160405190810160405280929190818152602001828054610aa5906153cf565b8015610af25780601f10610ac757610100808354040283529160200191610af2565b820191906000526020600020905b815481529060010190602001808311610ad557829003601f168201915b5050505050600f600084815260200190815260200160002060020154614044565b506001600f600083815260200190815260200160002060040160006101000a81548160ff021916908315150217905550600080610b4f83614303565b9150915080610b93576040517f08c379a0000000000000000000000000000000000000000000000000000000008152600401610b8a90615571565b60405180910390fd5b6001601160003373ffffffffffffffffffffffffffffffffffffffff1673ffffffffffffffffffffffffffffffffffffffff1681526020019081526020016000208381548110610be657610be5615591565b5b906000526020600020906006020160040160006101000a81548160ff021916908315150217905550505050565b60008073ffffffffffffffffffffffffffffffffffffffff168373ffffffffffffffffffffffffffffffffffffffff161415610c4e57600080fd5b81600560003373ffffffffffffffffffffffffffffffffffffffff1673ffffffffffffffffffffffffffffffffffffffff16815260200190815260200160002060008573ffffffffffffffffffffffffffffffffffffffff1673ffffffffffffffffffffffffffffffffffffffff168152602001908152602001600020819055508273ffffffffffffffffffffffffffffffffffffffff163373ffffffffffffffffffffffffffffffffffffffff167f8c5be1e5ebec7d5bd14f71427d1e84f3dd0314c0f7b2291e5b200ac8c7c3b92584604051610d2c919061494e565b60405180910390a36001905092915050565b6000600660009054906101000a900473ffffffffffffffffffffffffffffffffffffffff1673ffffffffffffffffffffffffffffffffffffffff163373ffffffffffffffffffffffffffffffffffffffff1614610dd0576040517f08c379a0000000000000000000000000000000000000000000000000000000008152600401610dc79061560c565b60405180910390fd5b81600460003373ffffffffffffffffffffffffffffffffffffffff1673ffffffffffffffffffffffffffffffffffffffff168152602001908152602001600020541015610e52576040517f08c379a0000000000000000000000000000000000000000000000000000000008152600401610e4990615678565b60405180910390fd5b610ea482600460003373ffffffffffffffffffffffffffffffffffffffff1673ffffffffffffffffffffffffffffffffffffffff168152602001908152602001600020546143eb90919063ffffffff16565b600460003373ffffffffffffffffffffffffffffffffffffffff1673ffffffffffffffffffffffffffffffffffffffff16815260200190815260200160002081905550610efc826003546143eb90919063ffffffff16565b60038190555060019050919050565b6000600354905090565b6060600860009054906101000a900473ffffffffffffffffffffffffffffffffffffffff1673ffffffffffffffffffffffffffffffffffffffff163373ffffffffffffffffffffffffffffffffffffffff1614610fa7576040517f08c379a0000000000000000000000000000000000000000000000000000000008152600401610f9e906156e4565b60405180910390fd5b6000805b600a805490508110156113435761107887600a8381548110610fd057610fcf615591565b5b90600052602060002090600402016000018054610fec906153cf565b80601f0160208091040260200160405190810160405280929190818152602001828054611018906153cf565b80156110655780601f1061103a57610100808354040283529160200191611065565b820191906000526020600020905b81548152906001019060200180831161104857829003601f168201915b505050505061441490919063ffffffff16565b8061113f575061113e86600a838154811061109657611095615591565b5b906000526020600020906004020160010180546110b2906153cf565b80601f01602080910402602001604051908101604052809291908181526020018280546110de906153cf565b801561112b5780601f106111005761010080835404028352916020019161112b565b820191906000526020600020905b81548152906001019060200180831161110e57829003601f168201915b505050505061441490919063ffffffff16565b5b156113305781611184576040517f08c379a000000000000000000000000000000000000000000000000000000000815260040161117b9061579c565b60405180910390fd5b600a805480602002602001604051908101604052809291908181526020016000905b8282101561132357838290600052602060002090600402016040518060800160405290816000820180546111d9906153cf565b80601f0160208091040260200160405190810160405280929190818152602001828054611205906153cf565b80156112525780601f1061122757610100808354040283529160200191611252565b820191906000526020600020905b81548152906001019060200180831161123557829003601f168201915b5050505050815260200160018201805461126b906153cf565b80601f0160208091040260200160405190810160405280929190818152602001828054611297906153cf565b80156112e45780601f106112b9576101008083540402835291602001916112e4565b820191906000526020600020905b8154815290600101906020018083116112c757829003601f168201915b505050505081526020016002820160009054906101000a900460ff1660ff1660ff168152602001600382015481525050815260200190600101906111a6565b5050505092505050611680565b808061133b906157eb565b915050610fab565b50600060405180608001604052808881526020018781526020018660ff168152602001858152509050600a81908060018154018082558091505060019003906000526020600020906004020160009091909190915060008201518160000190805190602001906113b49291906144e2565b5060208201518160010190805190602001906113d19291906144e2565b5060408201518160020160006101000a81548160ff021916908360ff1602179055506060820151816003015550506114758160600151600960003373ffffffffffffffffffffffffffffffffffffffff1673ffffffffffffffffffffffffffffffffffffffff168152602001908152602001600020836020015160405161145891906152b1565b908152602001604051809103902054613bcb90919063ffffffff16565b600960003373ffffffffffffffffffffffffffffffffffffffff1673ffffffffffffffffffffffffffffffffffffffff16815260200190815260200160002082602001516040516114c691906152b1565b908152602001604051809103902081905550600a805480602002602001604051908101604052809291908181526020016000905b82821015611677578382906000526020600020906004020160405180608001604052908160008201805461152d906153cf565b80601f0160208091040260200160405190810160405280929190818152602001828054611559906153cf565b80156115a65780601f1061157b576101008083540402835291602001916115a6565b820191906000526020600020905b81548152906001019060200180831161158957829003601f168201915b505050505081526020016001820180546115bf906153cf565b80601f01602080910402602001604051908101604052809291908181526020018280546115eb906153cf565b80156116385780601f1061160d57610100808354040283529160200191611638565b820191906000526020600020905b81548152906001019060200180831161161b57829003601f168201915b505050505081526020016002820160009054906101000a900460ff1660ff1660ff168152602001600382015481525050815260200190600101906114fa565b50505050925050505b949350505050565b6000600460008573ffffffffffffffffffffffffffffffffffffffff1673ffffffffffffffffffffffffffffffffffffffff168152602001908152602001600020548211156116d657600080fd5b600560008573ffffffffffffffffffffffffffffffffffffffff1673ffffffffffffffffffffffffffffffffffffffff16815260200190815260200160002060003373ffffffffffffffffffffffffffffffffffffffff1673ffffffffffffffffffffffffffffffffffffffff1681526020019081526020016000205482111561175f57600080fd5b600073ffffffffffffffffffffffffffffffffffffffff168373ffffffffffffffffffffffffffffffffffffffff16141561179957600080fd5b6117eb82600460008773ffffffffffffffffffffffffffffffffffffffff1673ffffffffffffffffffffffffffffffffffffffff168152602001908152602001600020546143eb90919063ffffffff16565b600460008673ffffffffffffffffffffffffffffffffffffffff1673ffffffffffffffffffffffffffffffffffffffff1681526020019081526020016000208190555061188082600460008673ffffffffffffffffffffffffffffffffffffffff1673ffffffffffffffffffffffffffffffffffffffff16815260200190815260200160002054613bcb90919063ffffffff16565b600460008573ffffffffffffffffffffffffffffffffffffffff1673ffffffffffffffffffffffffffffffffffffffff1681526020019081526020016000208190555061195282600560008773ffffffffffffffffffffffffffffffffffffffff1673ffffffffffffffffffffffffffffffffffffffff16815260200190815260200160002060003373ffffffffffffffffffffffffffffffffffffffff1673ffffffffffffffffffffffffffffffffffffffff168152602001908152602001600020546143eb90919063ffffffff16565b600560008673ffffffffffffffffffffffffffffffffffffffff1673ffffffffffffffffffffffffffffffffffffffff16815260200190815260200160002060003373ffffffffffffffffffffffffffffffffffffffff1673ffffffffffffffffffffffffffffffffffffffff168152602001908152602001600020819055508273ffffffffffffffffffffffffffffffffffffffff168473ffffffffffffffffffffffffffffffffffffffff167fddf252ad1be2c89b69c2b068fc378daa952ba7f163c4a11628f55a4df523b3ef84604051611a2f919061494e565b60405180910390a3600190509392505050565b6000600260009054906101000a900460ff16905090565b6060601160003373ffffffffffffffffffffffffffffffffffffffff1673ffffffffffffffffffffffffffffffffffffffff168152602001908152602001600020805480602002602001604051908101604052809291908181526020016000905b82821015611c0d57838290600052602060002090600602016040518060c00160405290816000820160009054906101000a900473ffffffffffffffffffffffffffffffffffffffff1673ffffffffffffffffffffffffffffffffffffffff1673ffffffffffffffffffffffffffffffffffffffff168152602001600182018054611b43906153cf565b80601f0160208091040260200160405190810160405280929190818152602001828054611b6f906153cf565b8015611bbc5780601f10611b9157610100808354040283529160200191611bbc565b820191906000526020600020905b815481529060010190602001808311611b9f57829003601f168201915b5050505050815260200160028201548152602001600382015481526020016004820160009054906101000a900460ff1615151515815260200160058201548152505081526020019060010190611aba565b50505050905090565b606060106000611c269190614568565b60005b6012548111611d885760001515600f600083815260200190815260200160002060040160009054906101000a900460ff1615151415611d75576010600f600083815260200190815260200160002090806001815401808255809150506001900390600052602060002090600602016000909190919091506000820160009054906101000a900473ffffffffffffffffffffffffffffffffffffffff168160000160006101000a81548173ffffffffffffffffffffffffffffffffffffffff021916908373ffffffffffffffffffffffffffffffffffffffff1602179055506001820181600101908054611d1b906153cf565b611d2692919061458c565b5060028201548160020155600382015481600301556004820160009054906101000a900460ff168160040160006101000a81548160ff0219169083151502179055506005820154816005015550505b8080611d80906157eb565b915050611c29565b506010805480602002602001604051908101604052809291908181526020016000905b82821015611efe57838290600052602060002090600602016040518060c00160405290816000820160009054906101000a900473ffffffffffffffffffffffffffffffffffffffff1673ffffffffffffffffffffffffffffffffffffffff1673ffffffffffffffffffffffffffffffffffffffff168152602001600182018054611e34906153cf565b80601f0160208091040260200160405190810160405280929190818152602001828054611e60906153cf565b8015611ead5780601f10611e8257610100808354040283529160200191611ead565b820191906000526020600020905b815481529060010190602001808311611e9057829003601f168201915b5050505050815260200160028201548152602001600382015481526020016004820160009054906101000a900460ff1615151515815260200160058201548152505081526020019060010190611dab565b50505050905090565b6000600460008373ffffffffffffffffffffffffffffffffffffffff1673ffffffffffffffffffffffffffffffffffffffff168152602001908152602001600020549050919050565b611f58614619565b600080611f6484613bf3565b9150915080611fa8576040517f08c379a0000000000000000000000000000000000000000000000000000000008152600401611f9f90615255565b60405180910390fd5b600a8281548110611fbc57611fbb615591565b5b9060005260206000209060040201604051806080016040529081600082018054611fe5906153cf565b80601f0160208091040260200160405190810160405280929190818152602001828054612011906153cf565b801561205e5780601f106120335761010080835404028352916020019161205e565b820191906000526020600020905b81548152906001019060200180831161204157829003601f168201915b50505050508152602001600182018054612077906153cf565b80601f01602080910402602001604051908101604052809291908181526020018280546120a3906153cf565b80156120f05780601f106120c5576101008083540402835291602001916120f0565b820191906000526020600020905b8154815290600101906020018083116120d357829003601f168201915b505050505081526020016002820160009054906101000a900460ff1660ff1660ff16815260200160038201548152505092505050919050565b6000600660009054906101000a900473ffffffffffffffffffffffffffffffffffffffff1673ffffffffffffffffffffffffffffffffffffffff163373ffffffffffffffffffffffffffffffffffffffff16146121bb576040517f08c379a00000000000000000000000000000000000000000000000000000000081526004016121b290615880565b60405180910390fd5b61220d82600460003373ffffffffffffffffffffffffffffffffffffffff1673ffffffffffffffffffffffffffffffffffffffff16815260200190815260200160002054613bcb90919063ffffffff16565b600460003373ffffffffffffffffffffffffffffffffffffffff1673ffffffffffffffffffffffffffffffffffffffff1681526020019081526020016000208190555061226582600354613bcb90919063ffffffff16565b60038190555060019050919050565b606060018054612283906153cf565b80601f01602080910402602001604051908101604052809291908181526020018280546122af906153cf565b80156122fc5780601f106122d1576101008083540402835291602001916122fc565b820191906000526020600020905b8154815290600101906020018083116122df57829003601f168201915b5050505050905090565b6060600a805480602002602001604051908101604052809291908181526020016000905b828210156124a7578382906000526020600020906004020160405180608001604052908160008201805461235d906153cf565b80601f0160208091040260200160405190810160405280929190818152602001828054612389906153cf565b80156123d65780601f106123ab576101008083540402835291602001916123d6565b820191906000526020600020905b8154815290600101906020018083116123b957829003601f168201915b505050505081526020016001820180546123ef906153cf565b80601f016020809104026020016040519081016040528092919081815260200182805461241b906153cf565b80156124685780601f1061243d57610100808354040283529160200191612468565b820191906000526020600020905b81548152906001019060200180831161244b57829003601f168201915b505050505081526020016002820160009054906101000a900460ff1660ff1660ff1681526020016003820154815250508152602001906001019061232a565b50505050905090565b6000600460003373ffffffffffffffffffffffffffffffffffffffff1673ffffffffffffffffffffffffffffffffffffffff168152602001908152602001600020548211156124fe57600080fd5b600073ffffffffffffffffffffffffffffffffffffffff168373ffffffffffffffffffffffffffffffffffffffff16141561253857600080fd5b61258a82600460003373ffffffffffffffffffffffffffffffffffffffff1673ffffffffffffffffffffffffffffffffffffffff168152602001908152602001600020546143eb90919063ffffffff16565b600460003373ffffffffffffffffffffffffffffffffffffffff1673ffffffffffffffffffffffffffffffffffffffff1681526020019081526020016000208190555061261f82600460008673ffffffffffffffffffffffffffffffffffffffff1673ffffffffffffffffffffffffffffffffffffffff16815260200190815260200160002054613bcb90919063ffffffff16565b600460008573ffffffffffffffffffffffffffffffffffffffff1673ffffffffffffffffffffffffffffffffffffffff168152602001908152602001600020819055508273ffffffffffffffffffffffffffffffffffffffff163373ffffffffffffffffffffffffffffffffffffffff167fddf252ad1be2c89b69c2b068fc378daa952ba7f163c4a11628f55a4df523b3ef846040516126bf919061494e565b60405180910390a36001905092915050565b6060600860009054906101000a900473ffffffffffffffffffffffffffffffffffffffff1673ffffffffffffffffffffffffffffffffffffffff163373ffffffffffffffffffffffffffffffffffffffff1614612763576040517f08c379a000000000000000000000000000000000000000000000000000000000815260040161275a906156e4565b60405180910390fd5b6127ab6040518060400160405280600481526020017f4956494c000000000000000000000000000000000000000000000000000000008152508361441490919063ffffffff16565b156127eb576040517f08c379a00000000000000000000000000000000000000000000000000000000081526004016127e2906158ec565b60405180910390fd5b6000805b600a80549050811015612e68576128bc84600a838154811061281457612813615591565b5b90600052602060002090600402016001018054612830906153cf565b80601f016020809104026020016040519081016040528092919081815260200182805461285c906153cf565b80156128a95780601f1061287e576101008083540402835291602001916128a9565b820191906000526020600020905b81548152906001019060200180831161288c57829003601f168201915b505050505061441490919063ffffffff16565b15612e5557600a81815481106128d5576128d4615591565b5b9060005260206000209060040201600080820160006128f49190614644565b6001820160006129049190614644565b6002820160006101000a81549060ff0219169055600382016000905550505b600a80549050600182612936919061590c565b1015612a1a57600a60018261294b919061590c565b8154811061295c5761295b615591565b5b9060005260206000209060040201600a828154811061297e5761297d615591565b5b906000526020600020906004020160008201816000019080546129a0906153cf565b6129ab92919061458c565b5060018201816001019080546129c0906153cf565b6129cb92919061458c565b506002820160009054906101000a900460ff168160020160006101000a81548160ff021916908360ff160217905550600382015481600301559050508080612a12906157eb565b915050612923565b6060600a805480602002602001604051908101604052809291908181526020016000905b82821015612bbb5783829060005260206000209060040201604051806080016040529081600082018054612a71906153cf565b80601f0160208091040260200160405190810160405280929190818152602001828054612a9d906153cf565b8015612aea5780601f10612abf57610100808354040283529160200191612aea565b820191906000526020600020905b815481529060010190602001808311612acd57829003601f168201915b50505050508152602001600182018054612b03906153cf565b80601f0160208091040260200160405190810160405280929190818152602001828054612b2f906153cf565b8015612b7c5780601f10612b5157610100808354040283529160200191612b7c565b820191906000526020600020905b815481529060010190602001808311612b5f57829003601f168201915b505050505081526020016002820160009054906101000a900460ff1660ff1660ff16815260200160038201548152505081526020019060010190612a3e565b505050509050600a6000612bcf9190614684565b60005b60018251612be09190615962565b811015612ca757600a828281518110612bfc57612bfb615591565b5b602002602001015190806001815401808255809150506001900390600052602060002090600402016000909190919091506000820151816000019080519060200190612c499291906144e2565b506020820151816001019080519060200190612c669291906144e2565b5060408201518160020160006101000a81548160ff021916908360ff1602179055506060820151816003015550508080612c9f906157eb565b915050612bd2565b50600a805480602002602001604051908101604052809291908181526020016000905b82821015612e475783829060005260206000209060040201604051806080016040529081600082018054612cfd906153cf565b80601f0160208091040260200160405190810160405280929190818152602001828054612d29906153cf565b8015612d765780601f10612d4b57610100808354040283529160200191612d76565b820191906000526020600020905b815481529060010190602001808311612d5957829003601f168201915b50505050508152602001600182018054612d8f906153cf565b80601f0160208091040260200160405190810160405280929190818152602001828054612dbb906153cf565b8015612e085780601f10612ddd57610100808354040283529160200191612e08565b820191906000526020600020905b815481529060010190602001808311612deb57829003601f168201915b505050505081526020016002820160009054906101000a900460ff1660ff1660ff16815260200160038201548152505081526020019060010190612cca565b505050509350505050613050565b8080612e60906157eb565b9150506127ef565b5080612ea9576040517f08c379a0000000000000000000000000000000000000000000000000000000008152600401612ea0906159e2565b60405180910390fd5b600a805480602002602001604051908101604052809291908181526020016000905b828210156130485783829060005260206000209060040201604051806080016040529081600082018054612efe906153cf565b80601f0160208091040260200160405190810160405280929190818152602001828054612f2a906153cf565b8015612f775780601f10612f4c57610100808354040283529160200191612f77565b820191906000526020600020905b815481529060010190602001808311612f5a57829003601f168201915b50505050508152602001600182018054612f90906153cf565b80601f0160208091040260200160405190810160405280929190818152602001828054612fbc906153cf565b80156130095780601f10612fde57610100808354040283529160200191613009565b820191906000526020600020905b815481529060010190602001808311612fec57829003601f168201915b505050505081526020016002820160009054906101000a900460ff1660ff1660ff16815260200160038201548152505081526020019060010190612ecb565b505050509150505b919050565b600860009054906101000a900473ffffffffffffffffffffffffffffffffffffffff1673ffffffffffffffffffffffffffffffffffffffff163373ffffffffffffffffffffffffffffffffffffffff16146130e5576040517f08c379a00000000000000000000000000000000000000000000000000000000081526004016130dc90615a4e565b60405180910390fd5b6000806130f184613bf3565b9150915080613135576040517f08c379a000000000000000000000000000000000000000000000000000000000815260040161312c90615314565b60405180910390fd5b61316d83600a848154811061314d5761314c615591565b5b906000526020600020906004020160030154613bcb90919063ffffffff16565b600a838154811061318157613180615591565b5b90600052602060002090600402016003018190555061320483600960003373ffffffffffffffffffffffffffffffffffffffff1673ffffffffffffffffffffffffffffffffffffffff168152602001908152602001600020866040516131e791906152b1565b908152602001604051809103902054613bcb90919063ffffffff16565b600960003373ffffffffffffffffffffffffffffffffffffffff1673ffffffffffffffffffffffffffffffffffffffff1681526020019081526020016000208560405161325191906152b1565b90815260200160405180910390208190555050505050565b600860009054906101000a900473ffffffffffffffffffffffffffffffffffffffff1673ffffffffffffffffffffffffffffffffffffffff163373ffffffffffffffffffffffffffffffffffffffff16146132f9576040517f08c379a00000000000000000000000000000000000000000000000000000000081526004016132f090615a4e565b60405180910390fd5b60008061330584613bf3565b9150915080613349576040517f08c379a000000000000000000000000000000000000000000000000000000000815260040161334090615314565b60405180910390fd5b82600960003373ffffffffffffffffffffffffffffffffffffffff1673ffffffffffffffffffffffffffffffffffffffff1681526020019081526020016000208560405161339791906152b1565b90815260200160405180910390205410156133e7576040517f08c379a00000000000000000000000000000000000000000000000000000000081526004016133de90615678565b60405180910390fd5b61341f83600a84815481106133ff576133fe615591565b5b9060005260206000209060040201600301546143eb90919063ffffffff16565b600a838154811061343357613432615591565b5b9060005260206000209060040201600301819055506134b683600960003373ffffffffffffffffffffffffffffffffffffffff1673ffffffffffffffffffffffffffffffffffffffff1681526020019081526020016000208660405161349991906152b1565b9081526020016040518091039020546143eb90919063ffffffff16565b600960003373ffffffffffffffffffffffffffffffffffffffff1673ffffffffffffffffffffffffffffffffffffffff1681526020019081526020016000208560405161350391906152b1565b90815260200160405180910390208190555050505050565b6000601254905090565b60125481111561356a576040517f08c379a00000000000000000000000000000000000000000000000000000000081526004016135619061544d565b60405180910390fd5b600f600082815260200190815260200160002060040160009054906101000a900460ff16156135ce576040517f08c379a00000000000000000000000000000000000000000000000000000000081526004016135c5906154df565b60405180910390fd5b613624600f600083815260200190815260200160002060000160009054906101000a900473ffffffffffffffffffffffffffffffffffffffff16600f6000848152602001908152602001600020600301546124b0565b506136e3600f60008381526020019081526020016000206001018054613649906153cf565b80601f0160208091040260200160405190810160405280929190818152602001828054613675906153cf565b80156136c25780601f10613697576101008083540402835291602001916136c2565b820191906000526020600020905b8154815290600101906020018083116136a557829003601f168201915b5050505050600f600084815260200190815260200160002060020154614044565b506001600f600083815260200190815260200160002060040160006101000a81548160ff021916908315150217905550601160003373ffffffffffffffffffffffffffffffffffffffff1673ffffffffffffffffffffffffffffffffffffffff168152602001908152602001600020600f600083815260200190815260200160002090806001815401808255809150506001900390600052602060002090600602016000909190919091506000820160009054906101000a900473ffffffffffffffffffffffffffffffffffffffff168160000160006101000a81548173ffffffffffffffffffffffffffffffffffffffff021916908373ffffffffffffffffffffffffffffffffffffffff1602179055506001820181600101908054613809906153cf565b61381492919061458c565b5060028201548160020155600382015481600301556004820160009054906101000a900460ff168160040160006101000a81548160ff02191690831515021790555060058201548160050155505050565b6000600560008473ffffffffffffffffffffffffffffffffffffffff1673ffffffffffffffffffffffffffffffffffffffff16815260200190815260200160002060008373ffffffffffffffffffffffffffffffffffffffff1673ffffffffffffffffffffffffffffffffffffffff16815260200190815260200160002054905092915050565b6000806138f885613bf3565b9150508061393b576040517f08c379a000000000000000000000000000000000000000000000000000000000815260040161393290615aba565b60405180910390fd5b61394485610534565b831115613986576040517f08c379a000000000000000000000000000000000000000000000000000000000815260040161397d90615380565b60405180910390fd5b600073ffffffffffffffffffffffffffffffffffffffff168473ffffffffffffffffffffffffffffffffffffffff1614156139c057600080fd5b613a2e83600960003373ffffffffffffffffffffffffffffffffffffffff1673ffffffffffffffffffffffffffffffffffffffff16815260200190815260200160002087604051613a1191906152b1565b9081526020016040518091039020546143eb90919063ffffffff16565b600960003373ffffffffffffffffffffffffffffffffffffffff1673ffffffffffffffffffffffffffffffffffffffff16815260200190815260200160002086604051613a7b91906152b1565b908152602001604051809103902081905550613afb83600960008773ffffffffffffffffffffffffffffffffffffffff1673ffffffffffffffffffffffffffffffffffffffff16815260200190815260200160002087604051613ade91906152b1565b908152602001604051809103902054613bcb90919063ffffffff16565b600960008673ffffffffffffffffffffffffffffffffffffffff1673ffffffffffffffffffffffffffffffffffffffff16815260200190815260200160002086604051613b4891906152b1565b9081526020016040518091039020819055508373ffffffffffffffffffffffffffffffffffffffff163373ffffffffffffffffffffffffffffffffffffffff167fddf252ad1be2c89b69c2b068fc378daa952ba7f163c4a11628f55a4df523b3ef85604051613bb7919061494e565b60405180910390a360019150509392505050565b6000808284613bda919061590c565b905083811015613be957600080fd5b8091505092915050565b60008060005b600a80549050811015613ceb57613cc684600a8381548110613c1e57613c1d615591565b5b90600052602060002090600402016001018054613c3a906153cf565b80601f0160208091040260200160405190810160405280929190818152602001828054613c66906153cf565b8015613cb35780601f10613c8857610100808354040283529160200191613cb3565b820191906000526020600020905b815481529060010190602001808311613c9657829003601f168201915b505050505061441490919063ffffffff16565b15613cd8578060019250925050613d35565b8080613ce3906157eb565b915050613bf9565b506000613d2d576040517f08c379a0000000000000000000000000000000000000000000000000000000008152600401613d2490615b4c565b60405180910390fd5b600080915091505b915091565b600080613d4684613bf3565b91505080613d89576040517f08c379a0000000000000000000000000000000000000000000000000000000008152600401613d8090615aba565b60405180910390fd5b613d9284610534565b831115613dd4576040517f08c379a0000000000000000000000000000000000000000000000000000000008152600401613dcb90615380565b60405180910390fd5b613e4283600960003373ffffffffffffffffffffffffffffffffffffffff1673ffffffffffffffffffffffffffffffffffffffff16815260200190815260200160002086604051613e2591906152b1565b9081526020016040518091039020546143eb90919063ffffffff16565b600960003373ffffffffffffffffffffffffffffffffffffffff1673ffffffffffffffffffffffffffffffffffffffff16815260200190815260200160002085604051613e8f91906152b1565b908152602001604051809103902081905550613f318360096000600760009054906101000a900473ffffffffffffffffffffffffffffffffffffffff1673ffffffffffffffffffffffffffffffffffffffff1673ffffffffffffffffffffffffffffffffffffffff16815260200190815260200160002086604051613f1491906152b1565b908152602001604051809103902054613bcb90919063ffffffff16565b60096000600760009054906101000a900473ffffffffffffffffffffffffffffffffffffffff1673ffffffffffffffffffffffffffffffffffffffff1673ffffffffffffffffffffffffffffffffffffffff16815260200190815260200160002085604051613fa091906152b1565b908152602001604051809103902081905550600760009054906101000a900473ffffffffffffffffffffffffffffffffffffffff1673ffffffffffffffffffffffffffffffffffffffff163373ffffffffffffffffffffffffffffffffffffffff167fddf252ad1be2c89b69c2b068fc378daa952ba7f163c4a11628f55a4df523b3ef85604051614031919061494e565b60405180910390a3600191505092915050565b60008061405084613bf3565b91505080614093576040517f08c379a000000000000000000000000000000000000000000000000000000000815260040161408a90615aba565b60405180910390fd5b6141238360096000600760009054906101000a900473ffffffffffffffffffffffffffffffffffffffff1673ffffffffffffffffffffffffffffffffffffffff1673ffffffffffffffffffffffffffffffffffffffff1681526020019081526020016000208660405161410691906152b1565b9081526020016040518091039020546143eb90919063ffffffff16565b60096000600760009054906101000a900473ffffffffffffffffffffffffffffffffffffffff1673ffffffffffffffffffffffffffffffffffffffff1673ffffffffffffffffffffffffffffffffffffffff1681526020019081526020016000208560405161419291906152b1565b90815260200160405180910390208190555061421283600960003373ffffffffffffffffffffffffffffffffffffffff1673ffffffffffffffffffffffffffffffffffffffff168152602001908152602001600020866040516141f591906152b1565b908152602001604051809103902054613bcb90919063ffffffff16565b600960003373ffffffffffffffffffffffffffffffffffffffff1673ffffffffffffffffffffffffffffffffffffffff1681526020019081526020016000208560405161425f91906152b1565b9081526020016040518091039020819055503373ffffffffffffffffffffffffffffffffffffffff16600760009054906101000a900473ffffffffffffffffffffffffffffffffffffffff1673ffffffffffffffffffffffffffffffffffffffff167fddf252ad1be2c89b69c2b068fc378daa952ba7f163c4a11628f55a4df523b3ef856040516142f0919061494e565b60405180910390a3600191505092915050565b60008060005b601160003373ffffffffffffffffffffffffffffffffffffffff1673ffffffffffffffffffffffffffffffffffffffff168152602001908152602001600020805490508110156143dd5783601160003373ffffffffffffffffffffffffffffffffffffffff1673ffffffffffffffffffffffffffffffffffffffff16815260200190815260200160002082815481106143a5576143a4615591565b5b90600052602060002090600602016005015414156143ca5780600192509250506143e6565b80806143d5906157eb565b915050614309565b50600080915091505b915091565b6000828211156143fa57600080fd5b600082846144089190615962565b90508091505092915050565b6000815183511461442857600090506144dc565b60005b83518110156144d65782818151811061444757614446615591565b5b602001015160f81c60f81b7effffffffffffffffffffffffffffffffffffffffffffffffffffffffffffff191684828151811061448757614486615591565b5b602001015160f81c60f81b7effffffffffffffffffffffffffffffffffffffffffffffffffffffffffffff1916146144c35760009150506144dc565b80806144ce906157eb565b91505061442b565b50600190505b92915050565b8280546144ee906153cf565b90600052602060002090601f0160209004810192826145105760008555614557565b82601f1061452957805160ff1916838001178555614557565b82800160010185558215614557579182015b8281111561455657825182559160200191906001019061453b565b5b50905061456491906146a8565b5090565b508054600082556006029060005260206000209081019061458991906146c5565b50565b828054614598906153cf565b90600052602060002090601f0160209004810192826145ba5760008555614608565b82601f106145cb5780548555614608565b8280016001018555821561460857600052602060002091601f016020900482015b828111156146075782548255916001019190600101906145ec565b5b50905061461591906146a8565b5090565b60405180608001604052806060815260200160608152602001600060ff168152602001600081525090565b508054614650906153cf565b6000825580601f106146625750614681565b601f01602090049060005260206000209081019061468091906146a8565b5b50565b50805460008255600402906000526020600020908101906146a5919061473f565b50565b5b808211156146c15760008160009055506001016146a9565b5090565b5b8082111561473b57600080820160006101000a81549073ffffffffffffffffffffffffffffffffffffffff02191690556001820160006147069190614644565b600282016000905560038201600090556004820160006101000a81549060ff02191690556005820160009055506006016146c6565b5090565b5b8082111561478e57600080820160006147599190614644565b6001820160006147699190614644565b6002820160006101000a81549060ff0219169055600382016000905550600401614740565b5090565b6000604051905090565b600080fd5b600080fd5b600080fd5b600080fd5b6000601f19601f8301169050919050565b7f4e487b7100000000000000000000000000000000000000000000000000000000600052604160045260246000fd5b6147f9826147b0565b810181811067ffffffffffffffff82111715614818576148176147c1565b5b80604052505050565b600061482b614792565b905061483782826147f0565b919050565b600067ffffffffffffffff821115614857576148566147c1565b5b614860826147b0565b9050602081019050919050565b82818337600083830152505050565b600061488f61488a8461483c565b614821565b9050828152602081018484840111156148ab576148aa6147ab565b5b6148b684828561486d565b509392505050565b600082601f8301126148d3576148d26147a6565b5b81356148e384826020860161487c565b91505092915050565b6000602082840312156149025761490161479c565b5b600082013567ffffffffffffffff8111156149205761491f6147a1565b5b61492c848285016148be565b91505092915050565b6000819050919050565b61494881614935565b82525050565b6000602082019050614963600083018461493f565b92915050565b61497281614935565b811461497d57600080fd5b50565b60008135905061498f81614969565b92915050565b6000806000606084860312156149ae576149ad61479c565b5b600084013567ffffffffffffffff8111156149cc576149cb6147a1565b5b6149d8868287016148be565b93505060206149e986828701614980565b92505060406149fa86828701614980565b9150509250925092565b600081519050919050565b600082825260208201905092915050565b60005b83811015614a3e578082015181840152602081019050614a23565b83811115614a4d576000848401525b50505050565b6000614a5e82614a04565b614a688185614a0f565b9350614a78818560208601614a20565b614a81816147b0565b840191505092915050565b60006020820190508181036000830152614aa68184614a53565b905092915050565b600060208284031215614ac457614ac361479c565b5b6000614ad284828501614980565b91505092915050565b600073ffffffffffffffffffffffffffffffffffffffff82169050919050565b6000614b0682614adb565b9050919050565b614b1681614afb565b8114614b2157600080fd5b50565b600081359050614b3381614b0d565b92915050565b60008060408385031215614b5057614b4f61479c565b5b6000614b5e85828601614b24565b9250506020614b6f85828601614980565b9150509250929050565b60008115159050919050565b614b8e81614b79565b82525050565b6000602082019050614ba96000830184614b85565b92915050565b600060ff82169050919050565b614bc581614baf565b8114614bd057600080fd5b50565b600081359050614be281614bbc565b92915050565b60008060008060808587031215614c0257614c0161479c565b5b600085013567ffffffffffffffff811115614c2057614c1f6147a1565b5b614c2c878288016148be565b945050602085013567ffffffffffffffff811115614c4d57614c4c6147a1565b5b614c59878288016148be565b9350506040614c6a87828801614bd3565b9250506060614c7b87828801614980565b91505092959194509250565b600081519050919050565b600082825260208201905092915050565b6000819050602082019050919050565b600082825260208201905092915050565b6000614ccf82614a04565b614cd98185614cb3565b9350614ce9818560208601614a20565b614cf2816147b0565b840191505092915050565b614d0681614baf565b82525050565b614d1581614935565b82525050565b60006080830160008301518482036000860152614d388282614cc4565b91505060208301518482036020860152614d528282614cc4565b9150506040830151614d676040860182614cfd565b506060830151614d7a6060860182614d0c565b508091505092915050565b6000614d918383614d1b565b905092915050565b6000602082019050919050565b6000614db182614c87565b614dbb8185614c92565b935083602082028501614dcd85614ca3565b8060005b85811015614e095784840389528151614dea8582614d85565b9450614df583614d99565b925060208a01995050600181019050614dd1565b50829750879550505050505092915050565b60006020820190508181036000830152614e358184614da6565b905092915050565b600080600060608486031215614e5657614e5561479c565b5b6000614e6486828701614b24565b9350506020614e7586828701614b24565b9250506040614e8686828701614980565b9150509250925092565b614e9981614baf565b82525050565b6000602082019050614eb46000830184614e90565b92915050565b600081519050919050565b600082825260208201905092915050565b6000819050602082019050919050565b614eef81614afb565b82525050565b614efe81614b79565b82525050565b600060c083016000830151614f1c6000860182614ee6565b5060208301518482036020860152614f348282614cc4565b9150506040830151614f496040860182614d0c565b506060830151614f5c6060860182614d0c565b506080830151614f6f6080860182614ef5565b5060a0830151614f8260a0860182614d0c565b508091505092915050565b6000614f998383614f04565b905092915050565b6000602082019050919050565b6000614fb982614eba565b614fc38185614ec5565b935083602082028501614fd585614ed6565b8060005b858110156150115784840389528151614ff28582614f8d565b9450614ffd83614fa1565b925060208a01995050600181019050614fd9565b50829750879550505050505092915050565b6000602082019050818103600083015261503d8184614fae565b905092915050565b60006020828403121561505b5761505a61479c565b5b600061506984828501614b24565b91505092915050565b6000608083016000830151848203600086015261508f8282614cc4565b915050602083015184820360208601526150a98282614cc4565b91505060408301516150be6040860182614cfd565b5060608301516150d16060860182614d0c565b508091505092915050565b600060208201905081810360008301526150f68184615072565b905092915050565b600080604083850312156151155761511461479c565b5b600083013567ffffffffffffffff811115615133576151326147a1565b5b61513f858286016148be565b925050602061515085828601614980565b9150509250929050565b600080604083850312156151715761517061479c565b5b600061517f85828601614b24565b925050602061519085828601614b24565b9150509250929050565b6000806000606084860312156151b3576151b261479c565b5b600084013567ffffffffffffffff8111156151d1576151d06147a1565b5b6151dd868287016148be565b93505060206151ee86828701614b24565b92505060406151ff86828701614980565b9150509250925092565b7f2054686520746f6b656e206973206e6f74206578697374656420212000000000600082015250565b600061523f601c83614a0f565b915061524a82615209565b602082019050919050565b6000602082019050818103600083015261526e81615232565b9050919050565b600081905092915050565b600061528b82614a04565b6152958185615275565b93506152a5818560208601614a20565b80840191505092915050565b60006152bd8284615280565b915081905092915050565b7f54686520746f6b656e206973206e6f7420657869737465642021000000000000600082015250565b60006152fe601a83614a0f565b9150615309826152c8565b602082019050919050565b6000602082019050818103600083015261532d816152f1565b9050919050565b7f54686520746f6b656e206973206e6f7420656e6f756768202100000000000000600082015250565b600061536a601983614a0f565b915061537582615334565b602082019050919050565b600060208201905081810360008301526153998161535d565b9050919050565b7f4e487b7100000000000000000000000000000000000000000000000000000000600052602260045260246000fd5b600060028204905060018216806153e757607f821691505b602082108114156153fb576153fa6153a0565b5b50919050565b7f546865207472616e73616374696f6e206973206e6f7420657869737465642021600082015250565b6000615437602083614a0f565b915061544282615401565b602082019050919050565b600060208201905081810360008301526154668161542a565b9050919050565b7f546865207472616e73616374696f6e2068617320616c7265616479206265656e60008201527f20636f6d706c6574656420210000000000000000000000000000000000000000602082015250565b60006154c9602c83614a0f565b91506154d48261546d565b604082019050919050565b600060208201905081810360008301526154f8816154bc565b9050919050565b7f796f7520646f6573206e6f7420686176652074686973207472616e736163746960008201527f6f6e202100000000000000000000000000000000000000000000000000000000602082015250565b600061555b602483614a0f565b9150615566826154ff565b604082019050919050565b6000602082019050818103600083015261558a8161554e565b9050919050565b7f4e487b7100000000000000000000000000000000000000000000000000000000600052603260045260246000fd5b7f4f6e6c792074686520726f6f742063616e20646573746f727920746f6b656e21600082015250565b60006155f6602083614a0f565b9150615601826155c0565b602082019050919050565b60006020820190508181036000830152615625816155e9565b9050919050565b7f496e73756666696369656e742062616c616e6365202100000000000000000000600082015250565b6000615662601683614a0f565b915061566d8261562c565b602082019050919050565b6000602082019050818103600083015261569181615655565b9050919050565b7f4f6e6c7920726f6f742063616e206372656174652074686520746f6b656e2021600082015250565b60006156ce602083614a0f565b91506156d982615698565b602082019050919050565b600060208201905081810360008301526156fd816156c1565b9050919050565b7f6661696c656420746f2063726561746520746f6b656e202120546865206e616d60008201527f65206f722073796d626f6c2068617320616c726561647920657869737465642060208201527f2100000000000000000000000000000000000000000000000000000000000000604082015250565b6000615786604183614a0f565b915061579182615704565b606082019050919050565b600060208201905081810360008301526157b581615779565b9050919050565b7f4e487b7100000000000000000000000000000000000000000000000000000000600052601160045260246000fd5b60006157f682614935565b91507fffffffffffffffffffffffffffffffffffffffffffffffffffffffffffffffff821415615829576158286157bc565b5b600182019050919050565b7f4f6e6c792074686520726f6f742063616e2063726561746520746f6b656e2100600082015250565b600061586a601f83614a0f565b915061587582615834565b602082019050919050565b600060208201905081810360008301526158998161585d565b9050919050565b7f546865204956494c2069732063616e277420626520646573746f727965642021600082015250565b60006158d6602083614a0f565b91506158e1826158a0565b602082019050919050565b60006020820190508181036000830152615905816158c9565b9050919050565b600061591782614935565b915061592283614935565b9250827fffffffffffffffffffffffffffffffffffffffffffffffffffffffffffffffff03821115615957576159566157bc565b5b828201905092915050565b600061596d82614935565b915061597883614935565b92508282101561598b5761598a6157bc565b5b828203905092915050565b7f6661696c656420746f2064656c65746520210000000000000000000000000000600082015250565b60006159cc601283614a0f565b91506159d782615996565b602082019050919050565b600060208201905081810360008301526159fb816159bf565b9050919050565b7f4f6e6c7920726f6f742063616e206164642074686520746f6b656e2021000000600082015250565b6000615a38601d83614a0f565b9150615a4382615a02565b602082019050919050565b60006020820190508181036000830152615a6781615a2b565b9050919050565b7f54686520746f6b656e206973206e6f7420657869737465640000000000000000600082015250565b6000615aa4601883614a0f565b9150615aaf82615a6e565b602082019050919050565b60006020820190508181036000830152615ad381615a97565b9050919050565b7f5468652073706563696669656420746f6b656e20776173206e6f7420666f756e60008201527f6420210000000000000000000000000000000000000000000000000000000000602082015250565b6000615b36602383614a0f565b9150615b4182615ada565b604082019050919050565b60006020820190508181036000830152615b6581615b29565b905091905056fea26469706673582212206fe1617509049002ff5e71026c90c1a6080ce449b3f651da81a1cccbd1820a3964736f6c634300080c0033",
  "immutableReferences": {},
  "source": "// SPDX-License-Identifier: GPL-3.0\r\n\r\npragma solidity >=0.4.24;\r\n\r\n/**\r\n * @title \r\n * @dev \r\n */\r\nlibrary SafeMath {\r\n    /**\r\n     * @dev \r\n     */\r\n    function mul(uint256 a, uint256 b) internal pure returns (uint256) {\r\n        if (a == 0) {\r\n            return 0;\r\n        }\r\n\r\n        uint256 c = a * b;\r\n        require(c / a == b);\r\n\r\n        return c;\r\n    }\r\n\r\n    /**\r\n     * @dev \r\n     */\r\n    function div(uint256 a, uint256 b) internal pure returns (uint256) {\r\n        require(b > 0);\r\n        uint256 c = a / b;\r\n\r\n        return c;\r\n    }\r\n\r\n    /**\r\n     * @dev \r\n     */\r\n    function sub(uint256 a, uint256 b) internal pure returns (uint256) {\r\n        require(b <= a);\r\n        uint256 c = a - b;\r\n\r\n        return c;\r\n    }\r\n\r\n    /**\r\n     * @dev \r\n     */\r\n    function add(uint256 a, uint256 b) internal pure returns (uint256) {\r\n        uint256 c = a + b;\r\n        require(c >= a);\r\n\r\n        return c;\r\n    }\r\n\r\n    /**\r\n     * @dev \r\n     */\r\n    function mod(uint256 a, uint256 b) internal pure returns (uint256) {\r\n        require(b != 0);\r\n        return a % b;\r\n    }\r\n}\r\n\r\n/**\r\n *@dev ,\r\n */\r\nlibrary StringUtils {\r\n    function CompareInternal(string memory a, string memory b)\r\n        internal\r\n        pure\r\n        returns (bool)\r\n    {\r\n        if (bytes(a).length != bytes(b).length) {\r\n            return false;\r\n        }\r\n        for (uint256 i = 0; i < bytes(a).length; i++) {\r\n            if (bytes(a)[i] != bytes(b)[i]) {\r\n                return false;\r\n            }\r\n        }\r\n        return true;\r\n    }\r\n}\r\n\r\n//========================================================================================\r\n\r\n/**\r\n * @title ERC20 interface\r\n */\r\ninterface IERC20 {\r\n    // methods\r\n    function totalSupply() external view returns (uint256);\r\n\r\n    function balanceOf(address who) external view returns (uint256);\r\n\r\n    function allowance(address owner, address spender)\r\n        external\r\n        view\r\n        returns (uint256);\r\n\r\n    function transfer(address to, uint256 value) external returns (bool);\r\n\r\n    function approve(address spender, uint256 value) external returns (bool);\r\n\r\n    function transferFrom(\r\n        address from,\r\n        address to,\r\n        uint256 value\r\n    ) external returns (bool);\r\n\r\n    // event\r\n    event Transfer(address indexed from, address indexed to, uint256 value);\r\n\r\n    event Approval(\r\n        address indexed owner,\r\n        address indexed spender,\r\n        uint256 value\r\n    );\r\n}\r\n\r\n//=======================================================================================\r\n/**\r\n * @title ERC20\r\n *\r\n */\r\ncontract ERC20 is IERC20 {\r\n    using SafeMath for uint256;\r\n\r\n    string private _name = \"ivil.world\"; //\r\n    string private _symbol = \"IVIL\"; //\r\n    uint8 private _decimals = 0; //\r\n    uint256 private _totalSupply = 21000000; //\r\n\r\n    mapping(address => uint256) private _balances;\r\n\r\n    mapping(address => mapping(address => uint256)) private _allowed;\r\n\r\n    address private root; //\r\n\r\n    constructor() {\r\n        root = msg.sender;\r\n        _balances[msg.sender] = _balances[msg.sender].add(_totalSupply);\r\n    }\r\n\r\n    function name() public view returns (string memory) {\r\n        return _name;\r\n    }\r\n\r\n    function symbol() public view returns (string memory) {\r\n        return _symbol;\r\n    }\r\n\r\n    function decimals() public view returns (uint8) {\r\n        return _decimals;\r\n    }\r\n\r\n    // \r\n    function createIVIL(uint256 value) public returns (bool) {\r\n        require(msg.sender == root, \"Only the root can create token!\");\r\n        _balances[msg.sender] = _balances[msg.sender].add(value);\r\n        _totalSupply = _totalSupply.add(value);\r\n        return true;\r\n    }\r\n\r\n    // \r\n    function destoryIVIL(uint256 value) public returns (bool) {\r\n        require(msg.sender == root, \"Only the root can destory token!\");\r\n        require(_balances[msg.sender] >= value, \"Insufficient balance !\");\r\n        _balances[msg.sender] = _balances[msg.sender].sub(value);\r\n        _totalSupply = _totalSupply.sub(value);\r\n        return true;\r\n    }\r\n\r\n    function totalSupply() public view returns (uint256) {\r\n        return _totalSupply;\r\n    }\r\n\r\n    function balanceOf(address owner) public view returns (uint256) {\r\n        return _balances[owner];\r\n    }\r\n\r\n    function allowance(address owner, address spender)\r\n        public\r\n        view\r\n        returns (uint256)\r\n    {\r\n        return _allowed[owner][spender];\r\n    }\r\n\r\n    function transfer(address to, uint256 value) public returns (bool) {\r\n        require(value <= _balances[msg.sender]);\r\n        require(to != address(0));\r\n\r\n        _balances[msg.sender] = _balances[msg.sender].sub(value);\r\n        _balances[to] = _balances[to].add(value);\r\n        emit Transfer(msg.sender, to, value);\r\n        return true;\r\n    }\r\n\r\n    function approve(address spender, uint256 value) public returns (bool) {\r\n        require(spender != address(0));\r\n\r\n        _allowed[msg.sender][spender] = value;\r\n        emit Approval(msg.sender, spender, value);\r\n        return true;\r\n    }\r\n\r\n    function transferFrom(\r\n        address from,\r\n        address to,\r\n        uint256 value\r\n    ) public returns (bool) {\r\n        require(value <= _balances[from]);\r\n        require(value <= _allowed[from][msg.sender]);\r\n        require(to != address(0));\r\n\r\n        _balances[from] = _balances[from].sub(value);\r\n        _balances[to] = _balances[to].add(value);\r\n        _allowed[from][msg.sender] = _allowed[from][msg.sender].sub(value);\r\n        emit Transfer(from, to, value);\r\n        return true;\r\n    }\r\n}\r\n\r\n//===================================================================================\r\n\r\ncontract IvilWorld is ERC20 {\r\n    using SafeMath for uint256;\r\n    using StringUtils for string;\r\n\r\n    struct Token {\r\n        string name; //\r\n        string symbol; //\r\n        uint8 decimals; //20.01\r\n        uint256 totalSupply; //\r\n    }\r\n\r\n    address private ice; //\r\n    address private root; //\r\n\r\n    mapping(address => mapping(string => uint256)) private balance; //\r\n\r\n    Token[] private tokens;\r\n    /*\r\n     *constant , , , , constant(: block.number , now , msg.sender  )\r\n     *constant  strings  .\r\n     */\r\n    Token private godToken = Token(\"ivil.world\", \"IVIL\", 9, 21000000); // token,\r\n\r\n    constructor() {\r\n        root = msg.sender;\r\n        tokens.push(godToken);\r\n        balance[msg.sender][godToken.symbol] = balance[msg.sender][\r\n            godToken.symbol\r\n        ].add(godToken.totalSupply);\r\n    }\r\n\r\n    // \r\n    function createToken(\r\n        string memory name,\r\n        string memory symbol,\r\n        uint8 decimals,\r\n        uint256 total\r\n    ) public returns (Token[] memory) {\r\n        require(msg.sender == root, \"Only root can create the token !\");\r\n        bool status = false;\r\n        for (uint256 i = 0; i < tokens.length; i++) {\r\n            if (\r\n                tokens[i].name.CompareInternal(name) ||\r\n                tokens[i].symbol.CompareInternal(symbol)\r\n            ) {\r\n                require(\r\n                    status,\r\n                    \"failed to create token ! The name or symbol has already existed !\"\r\n                );\r\n                return tokens;\r\n            }\r\n        }\r\n        Token memory token = Token(name, symbol, decimals, total);\r\n        tokens.push(token);\r\n        balance[msg.sender][token.symbol] = balance[msg.sender][token.symbol]\r\n            .add(token.totalSupply);\r\n        return tokens;\r\n    }\r\n\r\n    // \r\n    function destoryToken(string memory symbol)\r\n        public\r\n        returns (Token[] memory)\r\n    {\r\n        require(msg.sender == root, \"Only root can create the token !\");\r\n        require(\r\n            !symbol.CompareInternal(\"IVIL\"),\r\n            \"The IVIL is can't be destoryed !\"\r\n        );\r\n        bool status = false;\r\n        for (uint256 i = 0; i < tokens.length; i++) {\r\n            if (tokens[i].symbol.CompareInternal(symbol)) {\r\n                delete tokens[i];\r\n                while (i + 1 < tokens.length) {\r\n                    tokens[i] = tokens[i + 1];\r\n                    i++;\r\n                }\r\n                Token[] memory temp;\r\n                temp = tokens;\r\n                delete tokens;\r\n                for (uint256 k = 0; k < temp.length - 1; k++) {\r\n                    tokens.push(temp[k]);\r\n                }\r\n                return tokens;\r\n            }\r\n        }\r\n        require(status, \"failed to delete !\");\r\n        return tokens;\r\n    }\r\n\r\n    // token\r\n    function increaseToken(string memory symbol, uint256 value) public {\r\n        require(msg.sender == root, \"Only root can add the token !\");\r\n        (uint256 index, bool isExisted) = getLocationBySymbol(symbol);\r\n        require(isExisted, \"The token is not existed !\");\r\n        tokens[index].totalSupply = tokens[index].totalSupply.add(value);\r\n        balance[msg.sender][symbol] = balance[msg.sender][symbol].add(value);\r\n    }\r\n\r\n    // token\r\n    function decreaseToken(string memory symbol, uint256 value) public {\r\n        require(msg.sender == root, \"Only root can add the token !\");\r\n        (uint256 index, bool isExisted) = getLocationBySymbol(symbol);\r\n        require(isExisted, \"The token is not existed !\");\r\n        require(balance[msg.sender][symbol] >= value, \"Insufficient balance !\");\r\n        tokens[index].totalSupply = tokens[index].totalSupply.sub(value);\r\n        balance[msg.sender][symbol] = balance[msg.sender][symbol].sub(value);\r\n    }\r\n\r\n    // token\r\n    function getLocationBySymbol(string memory symbol)\r\n        internal\r\n        view\r\n        returns (uint256, bool)\r\n    {\r\n        for (uint256 i = 0; i < tokens.length; i++) {\r\n            if (tokens[i].symbol.CompareInternal(symbol)) {\r\n                return (i, true);\r\n            }\r\n        }\r\n        require(false, \"The specified token was not found !\");\r\n        return (0, false);\r\n    }\r\n\r\n    // token\r\n    function getTokenInfo(string memory symbol)\r\n        public\r\n        view\r\n        returns (Token memory)\r\n    {\r\n        (uint256 index, bool isExisted) = getLocationBySymbol(symbol);\r\n        require(isExisted, \" The token is not existed ! \");\r\n        return tokens[index];\r\n    }\r\n\r\n    // \r\n    function getAllTokensInfo() public view returns (Token[] memory) {\r\n        return tokens;\r\n    }\r\n\r\n    // \r\n    function getTokenBalance(string memory symbol)\r\n        public\r\n        view\r\n        returns (uint256)\r\n    {\r\n        (, bool isExisted) = getLocationBySymbol(symbol);\r\n        require(isExisted, \" The token is not existed ! \");\r\n        return balance[msg.sender][symbol];\r\n    }\r\n\r\n    // token\r\n    function getSpecificTokenBalance(string memory symbol, address who)\r\n        internal\r\n        view\r\n        returns (uint256)\r\n    {\r\n        (, bool isExisted) = getLocationBySymbol(symbol);\r\n        require(isExisted, \" The token is not existed ! \");\r\n        return balance[who][symbol];\r\n    }\r\n\r\n    // \r\n    function transferToken(\r\n        string memory symbol,\r\n        address to,\r\n        uint256 value\r\n    ) public returns (bool) {\r\n        (, bool isExisted) = getLocationBySymbol(symbol);\r\n        require(isExisted, \"The token is not existed\");\r\n        require(value <= getTokenBalance(symbol), \"The token is not enough !\");\r\n        require(to != address(0));\r\n        balance[msg.sender][symbol] = balance[msg.sender][symbol].sub(value);\r\n        balance[to][symbol] = balance[to][symbol].add(value);\r\n        emit Transfer(msg.sender, to, value);\r\n        return true;\r\n    }\r\n\r\n    // token\r\n    function freezeToken(string memory symbol, uint256 value)\r\n        internal\r\n        returns (bool)\r\n    {\r\n        (, bool isExisted) = getLocationBySymbol(symbol);\r\n        require(isExisted, \"The token is not existed\");\r\n        require(value <= getTokenBalance(symbol), \"The token is not enough !\");\r\n        balance[msg.sender][symbol] = balance[msg.sender][symbol].sub(value);\r\n        balance[ice][symbol] = balance[ice][symbol].add(value);\r\n        emit Transfer(msg.sender, ice, value);\r\n        return true;\r\n    }\r\n\r\n    // token\r\n    function unfreezeToken(string memory symbol, uint256 value)\r\n        internal\r\n        returns (bool)\r\n    {\r\n        (, bool isExisted) = getLocationBySymbol(symbol);\r\n        require(isExisted, \"The token is not existed\");\r\n        balance[ice][symbol] = balance[ice][symbol].sub(value);\r\n        balance[msg.sender][symbol] = balance[msg.sender][symbol].add(value);\r\n        emit Transfer(ice, msg.sender, value);\r\n        return true;\r\n    }\r\n}\r\n\r\n// ===========================================================================\r\n\r\ncontract TradingSystem is IvilWorld {\r\n    using SafeMath for uint256;\r\n    // using StringUtils for string;\r\n\r\n    struct Transaction {\r\n        address sender; //\r\n        string symbol; //\r\n        uint256 value; //\r\n        uint256 price; //\r\n        bool status; //\r\n        uint256 index; //\r\n    }\r\n    mapping(uint256 => Transaction) private tradingPool; //\r\n    Transaction[] private transactions; //\r\n    mapping(address => Transaction[]) personalPool; //\r\n\r\n    uint256 private counter;\r\n\r\n    address private root; //\r\n\r\n    constructor() {\r\n        root = msg.sender;\r\n    }\r\n\r\n    // \r\n    function depthOfPool() public view returns (uint256) {\r\n        return counter;\r\n    }\r\n\r\n    // \r\n    function transactionsOfPool() public returns (Transaction[] memory) {\r\n        delete transactions; //\r\n        for (uint256 i; i <= counter; i++) {\r\n            if (tradingPool[i].status == false) {\r\n                transactions.push(tradingPool[i]);\r\n            }\r\n        }\r\n        return transactions;\r\n    }\r\n\r\n    // \r\n    function getPersonalPool() public view returns (Transaction[] memory) {\r\n        return personalPool[msg.sender];\r\n    }\r\n\r\n    // \r\n    function getDealFromPersonalPool(uint256 index)\r\n        internal\r\n        view\r\n        returns (uint256, bool)\r\n    {\r\n        for (uint256 i; i < personalPool[msg.sender].length; i++) {\r\n            if (personalPool[msg.sender][i].index == index) {\r\n                return (i, true);\r\n            }\r\n        }\r\n        return (0, false);\r\n    }\r\n\r\n    // \r\n    function sell(\r\n        string memory symbol,\r\n        uint256 value,\r\n        uint256 price\r\n    ) public {\r\n        (, bool isExisted) = getLocationBySymbol(symbol);\r\n        require(isExisted, \"The token is not existed !\");\r\n        uint256 temp = getTokenBalance(symbol);\r\n        require(value <= temp, \"The token is not enough !\");\r\n        Transaction memory deal = Transaction(\r\n            msg.sender,\r\n            symbol,\r\n            value,\r\n            price,\r\n            false,\r\n            counter\r\n        );\r\n        tradingPool[counter] = deal;\r\n        personalPool[msg.sender].push(deal);\r\n        freezeToken(symbol, value);\r\n    }\r\n\r\n    // \r\n    function cancelSell(uint256 index) public {\r\n        require(index <= counter, \"The transaction is not existed !\");\r\n        require(\r\n            !tradingPool[index].status,\r\n            \"The transaction has already been completed !\"\r\n        );\r\n        require(msg.sender == tradingPool[index].sender);\r\n        unfreezeToken(tradingPool[index].symbol, tradingPool[index].value);\r\n        tradingPool[index].status = true;\r\n        (uint256 i, bool isExisted) = getDealFromPersonalPool(index);\r\n        require(isExisted, \"you does not have this transaction !\");\r\n        personalPool[msg.sender][i].status = true;\r\n    }\r\n\r\n    // \r\n    function buy(uint256 index) public {\r\n        require(index <= counter, \"The transaction is not existed !\");\r\n        require(\r\n            !tradingPool[index].status,\r\n            \"The transaction has already been completed !\"\r\n        );\r\n        transfer(tradingPool[index].sender, tradingPool[index].price);\r\n        unfreezeToken(tradingPool[index].symbol, tradingPool[index].value);\r\n        tradingPool[index].status = true;\r\n        personalPool[msg.sender].push(tradingPool[index]);\r\n    }\r\n}\r\n",
  "sourcePath": "E:\\Project\\Blockchain\\TradingSystemBasedOnBlockchain\\smart_contract\\contracts\\TradingSystem.sol",
  "compiler": {
    "name": "solc",
    "version": "0.8.12+commit.f00d7308.Emscripten.clang"
  },
  "schemaVersion": "3.4.7",
  "updatedAt": "2022-05-01T10:19:00.427Z",
  "networkType": "ethereum",
  "devdoc": {
    "kind": "dev",
    "methods": {},
    "version": 1
  },
  "userdoc": {
    "kind": "user",
    "methods": {},
    "version": 1
  }
}