{
  "contractName": "TradingSystem",
  "abi": [
    {
      "inputs": [],
      "stateMutability": "nonpayable",
      "type": "constructor"
    },
    {
      "anonymous": false,
      "inputs": [
        {
          "indexed": true,
          "internalType": "address",
          "name": "owner",
          "type": "address"
        },
        {
          "indexed": true,
          "internalType": "address",
          "name": "spender",
          "type": "address"
        },
        {
          "indexed": false,
          "internalType": "uint256",
          "name": "value",
          "type": "uint256"
        }
      ],
      "name": "Approval",
      "type": "event"
    },
    {
      "anonymous": false,
      "inputs": [
        {
          "indexed": true,
          "internalType": "address",
          "name": "from",
          "type": "address"
        },
        {
          "indexed": true,
          "internalType": "address",
          "name": "to",
          "type": "address"
        },
        {
          "indexed": false,
          "internalType": "uint256",
          "name": "value",
          "type": "uint256"
        }
      ],
      "name": "Transfer",
      "type": "event"
    },
    {
      "inputs": [
        {
          "internalType": "address",
          "name": "owner",
          "type": "address"
        },
        {
          "internalType": "address",
          "name": "spender",
          "type": "address"
        }
      ],
      "name": "allowance",
      "outputs": [
        {
          "internalType": "uint256",
          "name": "",
          "type": "uint256"
        }
      ],
      "stateMutability": "view",
      "type": "function",
      "constant": true
    },
    {
      "inputs": [
        {
          "internalType": "address",
          "name": "spender",
          "type": "address"
        },
        {
          "internalType": "uint256",
          "name": "value",
          "type": "uint256"
        }
      ],
      "name": "approve",
      "outputs": [
        {
          "internalType": "bool",
          "name": "",
          "type": "bool"
        }
      ],
      "stateMutability": "nonpayable",
      "type": "function"
    },
    {
      "inputs": [
        {
          "internalType": "address",
          "name": "owner",
          "type": "address"
        }
      ],
      "name": "balanceOf",
      "outputs": [
        {
          "internalType": "uint256",
          "name": "",
          "type": "uint256"
        }
      ],
      "stateMutability": "view",
      "type": "function",
      "constant": true
    },
    {
      "inputs": [
        {
          "internalType": "uint256",
          "name": "value",
          "type": "uint256"
        }
      ],
      "name": "createIVIL",
      "outputs": [
        {
          "internalType": "bool",
          "name": "",
          "type": "bool"
        }
      ],
      "stateMutability": "nonpayable",
      "type": "function"
    },
    {
      "inputs": [
        {
          "internalType": "string",
          "name": "name",
          "type": "string"
        },
        {
          "internalType": "string",
          "name": "symbol",
          "type": "string"
        },
        {
          "internalType": "uint8",
          "name": "decimals",
          "type": "uint8"
        },
        {
          "internalType": "uint256",
          "name": "total",
          "type": "uint256"
        }
      ],
      "name": "createToken",
      "outputs": [
        {
          "components": [
            {
              "internalType": "string",
              "name": "name",
              "type": "string"
            },
            {
              "internalType": "string",
              "name": "symbol",
              "type": "string"
            },
            {
              "internalType": "uint8",
              "name": "decimals",
              "type": "uint8"
            },
            {
              "internalType": "uint256",
              "name": "totalSupply",
              "type": "uint256"
            }
          ],
          "internalType": "struct IvilWorld.Token[]",
          "name": "",
          "type": "tuple[]"
        }
      ],
      "stateMutability": "nonpayable",
      "type": "function"
    },
    {
      "inputs": [],
      "name": "decimals",
      "outputs": [
        {
          "internalType": "uint8",
          "name": "",
          "type": "uint8"
        }
      ],
      "stateMutability": "view",
      "type": "function",
      "constant": true
    },
    {
      "inputs": [
        {
          "internalType": "string",
          "name": "symbol",
          "type": "string"
        },
        {
          "internalType": "uint256",
          "name": "value",
          "type": "uint256"
        }
      ],
      "name": "decreaseToken",
      "outputs": [],
      "stateMutability": "nonpayable",
      "type": "function"
    },
    {
      "inputs": [
        {
          "internalType": "uint256",
          "name": "value",
          "type": "uint256"
        }
      ],
      "name": "destoryIVIL",
      "outputs": [
        {
          "internalType": "bool",
          "name": "",
          "type": "bool"
        }
      ],
      "stateMutability": "nonpayable",
      "type": "function"
    },
    {
      "inputs": [
        {
          "internalType": "string",
          "name": "symbol",
          "type": "string"
        }
      ],
      "name": "destoryToken",
      "outputs": [
        {
          "components": [
            {
              "internalType": "string",
              "name": "name",
              "type": "string"
            },
            {
              "internalType": "string",
              "name": "symbol",
              "type": "string"
            },
            {
              "internalType": "uint8",
              "name": "decimals",
              "type": "uint8"
            },
            {
              "internalType": "uint256",
              "name": "totalSupply",
              "type": "uint256"
            }
          ],
          "internalType": "struct IvilWorld.Token[]",
          "name": "",
          "type": "tuple[]"
        }
      ],
      "stateMutability": "nonpayable",
      "type": "function"
    },
    {
      "inputs": [],
      "name": "getAllTokensInfo",
      "outputs": [
        {
          "components": [
            {
              "internalType": "string",
              "name": "name",
              "type": "string"
            },
            {
              "internalType": "string",
              "name": "symbol",
              "type": "string"
            },
            {
              "internalType": "uint8",
              "name": "decimals",
              "type": "uint8"
            },
            {
              "internalType": "uint256",
              "name": "totalSupply",
              "type": "uint256"
            }
          ],
          "internalType": "struct IvilWorld.Token[]",
          "name": "",
          "type": "tuple[]"
        }
      ],
      "stateMutability": "view",
      "type": "function",
      "constant": true
    },
    {
      "inputs": [
        {
          "internalType": "string",
          "name": "symbol",
          "type": "string"
        }
      ],
      "name": "getTokenBalance",
      "outputs": [
        {
          "internalType": "uint256",
          "name": "",
          "type": "uint256"
        }
      ],
      "stateMutability": "view",
      "type": "function",
      "constant": true
    },
    {
      "inputs": [
        {
          "internalType": "string",
          "name": "symbol",
          "type": "string"
        }
      ],
      "name": "getTokenInfo",
      "outputs": [
        {
          "components": [
            {
              "internalType": "string",
              "name": "name",
              "type": "string"
            },
            {
              "internalType": "string",
              "name": "symbol",
              "type": "string"
            },
            {
              "internalType": "uint8",
              "name": "decimals",
              "type": "uint8"
            },
            {
              "internalType": "uint256",
              "name": "totalSupply",
              "type": "uint256"
            }
          ],
          "internalType": "struct IvilWorld.Token",
          "name": "",
          "type": "tuple"
        }
      ],
      "stateMutability": "view",
      "type": "function",
      "constant": true
    },
    {
      "inputs": [
        {
          "internalType": "string",
          "name": "symbol",
          "type": "string"
        },
        {
          "internalType": "uint256",
          "name": "value",
          "type": "uint256"
        }
      ],
      "name": "increaseToken",
      "outputs": [],
      "stateMutability": "nonpayable",
      "type": "function"
    },
    {
      "inputs": [],
      "name": "name",
      "outputs": [
        {
          "internalType": "string",
          "name": "",
          "type": "string"
        }
      ],
      "stateMutability": "view",
      "type": "function",
      "constant": true
    },
    {
      "inputs": [],
      "name": "symbol",
      "outputs": [
        {
          "internalType": "string",
          "name": "",
          "type": "string"
        }
      ],
      "stateMutability": "view",
      "type": "function",
      "constant": true
    },
    {
      "inputs": [],
      "name": "totalSupply",
      "outputs": [
        {
          "internalType": "uint256",
          "name": "",
          "type": "uint256"
        }
      ],
      "stateMutability": "view",
      "type": "function",
      "constant": true
    },
    {
      "inputs": [
        {
          "internalType": "address",
          "name": "to",
          "type": "address"
        },
        {
          "internalType": "uint256",
          "name": "value",
          "type": "uint256"
        }
      ],
      "name": "transfer",
      "outputs": [
        {
          "internalType": "bool",
          "name": "",
          "type": "bool"
        }
      ],
      "stateMutability": "nonpayable",
      "type": "function"
    },
    {
      "inputs": [
        {
          "internalType": "address",
          "name": "from",
          "type": "address"
        },
        {
          "internalType": "address",
          "name": "to",
          "type": "address"
        },
        {
          "internalType": "uint256",
          "name": "value",
          "type": "uint256"
        }
      ],
      "name": "transferFrom",
      "outputs": [
        {
          "internalType": "bool",
          "name": "",
          "type": "bool"
        }
      ],
      "stateMutability": "nonpayable",
      "type": "function"
    },
    {
      "inputs": [
        {
          "internalType": "string",
          "name": "symbol",
          "type": "string"
        },
        {
          "internalType": "address",
          "name": "to",
          "type": "address"
        },
        {
          "internalType": "uint256",
          "name": "value",
          "type": "uint256"
        }
      ],
      "name": "transferToken",
      "outputs": [
        {
          "internalType": "bool",
          "name": "",
          "type": "bool"
        }
      ],
      "stateMutability": "nonpayable",
      "type": "function"
    },
    {
      "inputs": [],
      "name": "depthOfPool",
      "outputs": [
        {
          "internalType": "uint256",
          "name": "",
          "type": "uint256"
        }
      ],
      "stateMutability": "view",
      "type": "function",
      "constant": true
    },
    {
      "inputs": [],
      "name": "transactionsOfPool",
      "outputs": [
        {
          "components": [
            {
              "internalType": "address",
              "name": "sender",
              "type": "address"
            },
            {
              "internalType": "string",
              "name": "symbol",
              "type": "string"
            },
            {
              "internalType": "uint256",
              "name": "value",
              "type": "uint256"
            },
            {
              "internalType": "uint256",
              "name": "price",
              "type": "uint256"
            },
            {
              "internalType": "bool",
              "name": "status",
              "type": "bool"
            },
            {
              "internalType": "uint256",
              "name": "index",
              "type": "uint256"
            }
          ],
          "internalType": "struct TradingSystem.Transaction[]",
          "name": "",
          "type": "tuple[]"
        }
      ],
      "stateMutability": "nonpayable",
      "type": "function"
    },
    {
      "inputs": [],
      "name": "getPersonalPool",
      "outputs": [
        {
          "components": [
            {
              "internalType": "address",
              "name": "sender",
              "type": "address"
            },
            {
              "internalType": "string",
              "name": "symbol",
              "type": "string"
            },
            {
              "internalType": "uint256",
              "name": "value",
              "type": "uint256"
            },
            {
              "internalType": "uint256",
              "name": "price",
              "type": "uint256"
            },
            {
              "internalType": "bool",
              "name": "status",
              "type": "bool"
            },
            {
              "internalType": "uint256",
              "name": "index",
              "type": "uint256"
            }
          ],
          "internalType": "struct TradingSystem.Transaction[]",
          "name": "",
          "type": "tuple[]"
        }
      ],
      "stateMutability": "view",
      "type": "function",
      "constant": true
    },
    {
      "inputs": [
        {
          "internalType": "string",
          "name": "symbol",
          "type": "string"
        },
        {
          "internalType": "uint256",
          "name": "value",
          "type": "uint256"
        },
        {
          "internalType": "uint256",
          "name": "price",
          "type": "uint256"
        }
      ],
      "name": "sell",
      "outputs": [],
      "stateMutability": "nonpayable",
      "type": "function"
    },
    {
      "inputs": [
        {
          "internalType": "uint256",
          "name": "index",
          "type": "uint256"
        }
      ],
      "name": "cancelSell",
      "outputs": [],
      "stateMutability": "nonpayable",
      "type": "function"
    },
    {
      "inputs": [
        {
          "internalType": "uint256",
          "name": "index",
          "type": "uint256"
        }
      ],
      "name": "buy",
      "outputs": [],
      "stateMutability": "nonpayable",
      "type": "function"
    }
  ],
  "bytecode": "0x60806040526040518060400160405280600a81526020017f6976696c2e776f726c64000000000000000000000000000000000000000000008152506000908051906020019062000051929190620004f8565b506040518060400160405280600481526020017f4956494c00000000000000000000000000000000000000000000000000000000815250600190805190602001906200009f929190620004f8565b506000600260006101000a81548160ff021916908360ff1602179055506301406f4060035560405180608001604052806040518060400160405280600a81526020017f6976696c2e776f726c640000000000000000000000000000000000000000000081525081526020016040518060400160405280600481526020017f4956494c000000000000000000000000000000000000000000000000000000008152508152602001600960ff1681526020016301406f40815250600b600082015181600001908051906020019062000177929190620004f8565b50602082015181600101908051906020019062000196929190620004f8565b5060408201518160020160006101000a81548160ff021916908360ff160217905550606082015181600301555050348015620001d157600080fd5b5033600660006101000a81548173ffffffffffffffffffffffffffffffffffffffff021916908373ffffffffffffffffffffffffffffffffffffffff1602179055506200026e600354600460003373ffffffffffffffffffffffffffffffffffffffff1673ffffffffffffffffffffffffffffffffffffffff16815260200190815260200160002054620004cd60201b62003b881790919060201c565b600460003373ffffffffffffffffffffffffffffffffffffffff1673ffffffffffffffffffffffffffffffffffffffff1681526020019081526020016000208190555033600860006101000a81548173ffffffffffffffffffffffffffffffffffffffff021916908373ffffffffffffffffffffffffffffffffffffffff160217905550600a600b9080600181540180825580915050600190039060005260206000209060040201600090919091909150600082018160000190805462000335906200066f565b6200034292919062000589565b50600182018160010190805462000359906200066f565b6200036692919062000589565b506002820160009054906101000a900460ff168160020160006101000a81548160ff021916908360ff16021790555060038201548160030155505062000421600b60030154600960003373ffffffffffffffffffffffffffffffffffffffff1673ffffffffffffffffffffffffffffffffffffffff168152602001908152602001600020600b600101604051620003fe919062000750565b908152602001604051809103902054620004cd60201b62003b881790919060201c565b600960003373ffffffffffffffffffffffffffffffffffffffff1673ffffffffffffffffffffffffffffffffffffffff168152602001908152602001600020600b60010160405162000474919062000750565b90815260200160405180910390208190555033601360006101000a81548173ffffffffffffffffffffffffffffffffffffffff021916908373ffffffffffffffffffffffffffffffffffffffff160217905550620007ff565b6000808284620004de9190620007a2565b905083811015620004ee57600080fd5b8091505092915050565b82805462000506906200066f565b90600052602060002090601f0160209004810192826200052a576000855562000576565b82601f106200054557805160ff191683800117855562000576565b8280016001018555821562000576579182015b828111156200057557825182559160200191906001019062000558565b5b50905062000585919062000621565b5090565b82805462000597906200066f565b90600052602060002090601f016020900481019282620005bb57600085556200060e565b82601f10620005ce57805485556200060e565b828001600101855582156200060e57600052602060002091601f016020900482015b828111156200060d578254825591600101919060010190620005f0565b5b5090506200061d919062000621565b5090565b5b808211156200063c57600081600090555060010162000622565b5090565b7f4e487b7100000000000000000000000000000000000000000000000000000000600052602260045260246000fd5b600060028204905060018216806200068857607f821691505b602082108114156200069f576200069e62000640565b5b50919050565b600081905092915050565b60008190508160005260206000209050919050565b60008154620006d4816200066f565b620006e08186620006a5565b94506001821660008114620006fe5760018114620007105762000747565b60ff1983168652818601935062000747565b6200071b85620006b0565b60005b838110156200073f578154818901526001820191506020810190506200071e565b838801955050505b50505092915050565b60006200075e8284620006c5565b915081905092915050565b6000819050919050565b7f4e487b7100000000000000000000000000000000000000000000000000000000600052601160045260246000fd5b6000620007af8262000769565b9150620007bc8362000769565b9250827fffffffffffffffffffffffffffffffffffffffffffffffffffffffffffffffff03821115620007f457620007f362000773565b5b828201905092915050565b615b5f806200080f6000396000f3fe608060405234801561001057600080fd5b50600436106101735760003560e01c806370a08231116100de578063bc43c02011610097578063d6ea49d711610071578063d6ea49d71461049a578063d96a094a146104b8578063dd62ed3e146104d4578063ee91035e1461050457610173565b8063bc43c02014610432578063c5d5901614610462578063c8f956a61461047e57610173565b806370a08231146103365780638e0ad1cc146103665780639293848c1461039657806395d89b41146103c65780639a24a25b146103e4578063a9059cbb1461040257610173565b806318160ddd1161013057806318160ddd1461025e578063210f5dda1461027c57806323b872dd146102ac578063313ce567146102dc57806341f0bd67146102fa57806356673fdd1461031857610173565b8063025abd581461017857806304804ee8146101a857806306fdde03146101c457806307c9cd45146101e2578063095ea7b3146101fe5780630bb5a4e01461022e575b600080fd5b610192600480360381019061018d91906148a9565b610534565b60405161019f919061490b565b60405180910390f35b6101c260048036038101906101bd9190614952565b6105a4565b005b6101cc610869565b6040516101d99190614a49565b60405180910390f35b6101fc60048036038101906101f79190614a6b565b6108fb565b005b61021860048036038101906102139190614af6565b610bd0565b6040516102259190614b51565b60405180910390f35b61024860048036038101906102439190614a6b565b610cfb565b6040516102559190614b51565b60405180910390f35b610266610ec8565b604051610273919061490b565b60405180910390f35b61029660048036038101906102919190614ba5565b610ed2565b6040516102a39190614dd8565b60405180910390f35b6102c660048036038101906102c19190614dfa565b611645565b6040516102d39190614b51565b60405180910390f35b6102e46119ff565b6040516102f19190614e5c565b60405180910390f35b610302611a16565b60405161030f9190614fe0565b60405180910390f35b610320611bd3565b60405161032d9190614fe0565b60405180910390f35b610350600480360381019061034b9190615002565b611ec4565b60405161035d919061490b565b60405180910390f35b610380600480360381019061037b91906148a9565b611f0d565b60405161038d9190615099565b60405180910390f35b6103b060048036038101906103ab9190614a6b565b6120e6565b6040516103bd9190614b51565b60405180910390f35b6103ce612231565b6040516103db9190614a49565b60405180910390f35b6103ec6122c3565b6040516103f99190614dd8565b60405180910390f35b61041c60048036038101906104179190614af6565b61246d565b6040516104299190614b51565b60405180910390f35b61044c600480360381019061044791906148a9565b61268e565b6040516104599190614dd8565b60405180910390f35b61047c600480360381019061047791906150bb565b613012565b005b610498600480360381019061049391906150bb565b613226565b005b6104a26134d8565b6040516104af919061490b565b60405180910390f35b6104d260048036038101906104cd9190614a6b565b6134e2565b005b6104ee60048036038101906104e99190615117565b613822565b6040516104fb919061490b565b60405180910390f35b61051e60048036038101906105199190615157565b6138a9565b60405161052b9190614b51565b60405180910390f35b600061053f82613bb0565b5050600960003373ffffffffffffffffffffffffffffffffffffffff1673ffffffffffffffffffffffffffffffffffffffff1681526020019081526020016000208260405161058e9190615202565b9081526020016040518091039020549050919050565b60006105af84613bb0565b915050806105f2576040517f08c379a00000000000000000000000000000000000000000000000000000000081526004016105e990615265565b60405180910390fd5b60006105fd85610534565b905080841115610642576040517f08c379a0000000000000000000000000000000000000000000000000000000008152600401610639906152d1565b60405180910390fd5b60006040518060c001604052803373ffffffffffffffffffffffffffffffffffffffff168152602001878152602001868152602001858152602001600015158152602001601254815250905080600f6000601254815260200190815260200160002060008201518160000160006101000a81548173ffffffffffffffffffffffffffffffffffffffff021916908373ffffffffffffffffffffffffffffffffffffffff160217905550602082015181600101908051906020019061070792919061449f565b50604082015181600201556060820151816003015560808201518160040160006101000a81548160ff02191690831515021790555060a08201518160050155905050601160003373ffffffffffffffffffffffffffffffffffffffff1673ffffffffffffffffffffffffffffffffffffffff16815260200190815260200160002081908060018154018082558091505060019003906000526020600020906006020160009091909190915060008201518160000160006101000a81548173ffffffffffffffffffffffffffffffffffffffff021916908373ffffffffffffffffffffffffffffffffffffffff160217905550602082015181600101908051906020019061081592919061449f565b50604082015181600201556060820151816003015560808201518160040160006101000a81548160ff02191690831515021790555060a0820151816005015550506108608686613cf7565b50505050505050565b60606000805461087890615320565b80601f01602080910402602001604051908101604052809291908181526020018280546108a490615320565b80156108f15780601f106108c6576101008083540402835291602001916108f1565b820191906000526020600020905b8154815290600101906020018083116108d457829003601f168201915b5050505050905090565b601254811115610940576040517f08c379a00000000000000000000000000000000000000000000000000000000081526004016109379061539e565b60405180910390fd5b600f600082815260200190815260200160002060040160009054906101000a900460ff16156109a4576040517f08c379a000000000000000000000000000000000000000000000000000000000815260040161099b90615430565b60405180910390fd5b600f600082815260200190815260200160002060000160009054906101000a900473ffffffffffffffffffffffffffffffffffffffff1673ffffffffffffffffffffffffffffffffffffffff163373ffffffffffffffffffffffffffffffffffffffff1614610a1257600080fd5b610ad0600f60008381526020019081526020016000206001018054610a3690615320565b80601f0160208091040260200160405190810160405280929190818152602001828054610a6290615320565b8015610aaf5780601f10610a8457610100808354040283529160200191610aaf565b820191906000526020600020905b815481529060010190602001808311610a9257829003601f168201915b5050505050600f600084815260200190815260200160002060020154614001565b506001600f600083815260200190815260200160002060040160006101000a81548160ff021916908315150217905550600080610b0c836142c0565b9150915080610b50576040517f08c379a0000000000000000000000000000000000000000000000000000000008152600401610b47906154c2565b60405180910390fd5b6001601160003373ffffffffffffffffffffffffffffffffffffffff1673ffffffffffffffffffffffffffffffffffffffff1681526020019081526020016000208381548110610ba357610ba26154e2565b5b906000526020600020906006020160040160006101000a81548160ff021916908315150217905550505050565b60008073ffffffffffffffffffffffffffffffffffffffff168373ffffffffffffffffffffffffffffffffffffffff161415610c0b57600080fd5b81600560003373ffffffffffffffffffffffffffffffffffffffff1673ffffffffffffffffffffffffffffffffffffffff16815260200190815260200160002060008573ffffffffffffffffffffffffffffffffffffffff1673ffffffffffffffffffffffffffffffffffffffff168152602001908152602001600020819055508273ffffffffffffffffffffffffffffffffffffffff163373ffffffffffffffffffffffffffffffffffffffff167f8c5be1e5ebec7d5bd14f71427d1e84f3dd0314c0f7b2291e5b200ac8c7c3b92584604051610ce9919061490b565b60405180910390a36001905092915050565b6000600660009054906101000a900473ffffffffffffffffffffffffffffffffffffffff1673ffffffffffffffffffffffffffffffffffffffff163373ffffffffffffffffffffffffffffffffffffffff1614610d8d576040517f08c379a0000000000000000000000000000000000000000000000000000000008152600401610d849061555d565b60405180910390fd5b81600460003373ffffffffffffffffffffffffffffffffffffffff1673ffffffffffffffffffffffffffffffffffffffff168152602001908152602001600020541015610e0f576040517f08c379a0000000000000000000000000000000000000000000000000000000008152600401610e06906155c9565b60405180910390fd5b610e6182600460003373ffffffffffffffffffffffffffffffffffffffff1673ffffffffffffffffffffffffffffffffffffffff168152602001908152602001600020546143a890919063ffffffff16565b600460003373ffffffffffffffffffffffffffffffffffffffff1673ffffffffffffffffffffffffffffffffffffffff16815260200190815260200160002081905550610eb9826003546143a890919063ffffffff16565b60038190555060019050919050565b6000600354905090565b6060600860009054906101000a900473ffffffffffffffffffffffffffffffffffffffff1673ffffffffffffffffffffffffffffffffffffffff163373ffffffffffffffffffffffffffffffffffffffff1614610f64576040517f08c379a0000000000000000000000000000000000000000000000000000000008152600401610f5b90615635565b60405180910390fd5b6000805b600a805490508110156113005761103587600a8381548110610f8d57610f8c6154e2565b5b90600052602060002090600402016000018054610fa990615320565b80601f0160208091040260200160405190810160405280929190818152602001828054610fd590615320565b80156110225780601f10610ff757610100808354040283529160200191611022565b820191906000526020600020905b81548152906001019060200180831161100557829003601f168201915b50505050506143d190919063ffffffff16565b806110fc57506110fb86600a8381548110611053576110526154e2565b5b9060005260206000209060040201600101805461106f90615320565b80601f016020809104026020016040519081016040528092919081815260200182805461109b90615320565b80156110e85780601f106110bd576101008083540402835291602001916110e8565b820191906000526020600020905b8154815290600101906020018083116110cb57829003601f168201915b50505050506143d190919063ffffffff16565b5b156112ed5781611141576040517f08c379a0000000000000000000000000000000000000000000000000000000008152600401611138906156ed565b60405180910390fd5b600a805480602002602001604051908101604052809291908181526020016000905b828210156112e0578382906000526020600020906004020160405180608001604052908160008201805461119690615320565b80601f01602080910402602001604051908101604052809291908181526020018280546111c290615320565b801561120f5780601f106111e45761010080835404028352916020019161120f565b820191906000526020600020905b8154815290600101906020018083116111f257829003601f168201915b5050505050815260200160018201805461122890615320565b80601f016020809104026020016040519081016040528092919081815260200182805461125490615320565b80156112a15780601f10611276576101008083540402835291602001916112a1565b820191906000526020600020905b81548152906001019060200180831161128457829003601f168201915b505050505081526020016002820160009054906101000a900460ff1660ff1660ff16815260200160038201548152505081526020019060010190611163565b505050509250505061163d565b80806112f89061573c565b915050610f68565b50600060405180608001604052808881526020018781526020018660ff168152602001858152509050600a819080600181540180825580915050600190039060005260206000209060040201600090919091909150600082015181600001908051906020019061137192919061449f565b50602082015181600101908051906020019061138e92919061449f565b5060408201518160020160006101000a81548160ff021916908360ff1602179055506060820151816003015550506114328160600151600960003373ffffffffffffffffffffffffffffffffffffffff1673ffffffffffffffffffffffffffffffffffffffff16815260200190815260200160002083602001516040516114159190615202565b908152602001604051809103902054613b8890919063ffffffff16565b600960003373ffffffffffffffffffffffffffffffffffffffff1673ffffffffffffffffffffffffffffffffffffffff16815260200190815260200160002082602001516040516114839190615202565b908152602001604051809103902081905550600a805480602002602001604051908101604052809291908181526020016000905b8282101561163457838290600052602060002090600402016040518060800160405290816000820180546114ea90615320565b80601f016020809104026020016040519081016040528092919081815260200182805461151690615320565b80156115635780601f1061153857610100808354040283529160200191611563565b820191906000526020600020905b81548152906001019060200180831161154657829003601f168201915b5050505050815260200160018201805461157c90615320565b80601f01602080910402602001604051908101604052809291908181526020018280546115a890615320565b80156115f55780601f106115ca576101008083540402835291602001916115f5565b820191906000526020600020905b8154815290600101906020018083116115d857829003601f168201915b505050505081526020016002820160009054906101000a900460ff1660ff1660ff168152602001600382015481525050815260200190600101906114b7565b50505050925050505b949350505050565b6000600460008573ffffffffffffffffffffffffffffffffffffffff1673ffffffffffffffffffffffffffffffffffffffff1681526020019081526020016000205482111561169357600080fd5b600560008573ffffffffffffffffffffffffffffffffffffffff1673ffffffffffffffffffffffffffffffffffffffff16815260200190815260200160002060003373ffffffffffffffffffffffffffffffffffffffff1673ffffffffffffffffffffffffffffffffffffffff1681526020019081526020016000205482111561171c57600080fd5b600073ffffffffffffffffffffffffffffffffffffffff168373ffffffffffffffffffffffffffffffffffffffff16141561175657600080fd5b6117a882600460008773ffffffffffffffffffffffffffffffffffffffff1673ffffffffffffffffffffffffffffffffffffffff168152602001908152602001600020546143a890919063ffffffff16565b600460008673ffffffffffffffffffffffffffffffffffffffff1673ffffffffffffffffffffffffffffffffffffffff1681526020019081526020016000208190555061183d82600460008673ffffffffffffffffffffffffffffffffffffffff1673ffffffffffffffffffffffffffffffffffffffff16815260200190815260200160002054613b8890919063ffffffff16565b600460008573ffffffffffffffffffffffffffffffffffffffff1673ffffffffffffffffffffffffffffffffffffffff1681526020019081526020016000208190555061190f82600560008773ffffffffffffffffffffffffffffffffffffffff1673ffffffffffffffffffffffffffffffffffffffff16815260200190815260200160002060003373ffffffffffffffffffffffffffffffffffffffff1673ffffffffffffffffffffffffffffffffffffffff168152602001908152602001600020546143a890919063ffffffff16565b600560008673ffffffffffffffffffffffffffffffffffffffff1673ffffffffffffffffffffffffffffffffffffffff16815260200190815260200160002060003373ffffffffffffffffffffffffffffffffffffffff1673ffffffffffffffffffffffffffffffffffffffff168152602001908152602001600020819055508273ffffffffffffffffffffffffffffffffffffffff168473ffffffffffffffffffffffffffffffffffffffff167fddf252ad1be2c89b69c2b068fc378daa952ba7f163c4a11628f55a4df523b3ef846040516119ec919061490b565b60405180910390a3600190509392505050565b6000600260009054906101000a900460ff16905090565b6060601160003373ffffffffffffffffffffffffffffffffffffffff1673ffffffffffffffffffffffffffffffffffffffff168152602001908152602001600020805480602002602001604051908101604052809291908181526020016000905b82821015611bca57838290600052602060002090600602016040518060c00160405290816000820160009054906101000a900473ffffffffffffffffffffffffffffffffffffffff1673ffffffffffffffffffffffffffffffffffffffff1673ffffffffffffffffffffffffffffffffffffffff168152602001600182018054611b0090615320565b80601f0160208091040260200160405190810160405280929190818152602001828054611b2c90615320565b8015611b795780601f10611b4e57610100808354040283529160200191611b79565b820191906000526020600020905b815481529060010190602001808311611b5c57829003601f168201915b5050505050815260200160028201548152602001600382015481526020016004820160009054906101000a900460ff1615151515815260200160058201548152505081526020019060010190611a77565b50505050905090565b606060106000611be39190614525565b60005b6012548111611d455760001515600f600083815260200190815260200160002060040160009054906101000a900460ff1615151415611d32576010600f600083815260200190815260200160002090806001815401808255809150506001900390600052602060002090600602016000909190919091506000820160009054906101000a900473ffffffffffffffffffffffffffffffffffffffff168160000160006101000a81548173ffffffffffffffffffffffffffffffffffffffff021916908373ffffffffffffffffffffffffffffffffffffffff1602179055506001820181600101908054611cd890615320565b611ce3929190614549565b5060028201548160020155600382015481600301556004820160009054906101000a900460ff168160040160006101000a81548160ff0219169083151502179055506005820154816005015550505b8080611d3d9061573c565b915050611be6565b506010805480602002602001604051908101604052809291908181526020016000905b82821015611ebb57838290600052602060002090600602016040518060c00160405290816000820160009054906101000a900473ffffffffffffffffffffffffffffffffffffffff1673ffffffffffffffffffffffffffffffffffffffff1673ffffffffffffffffffffffffffffffffffffffff168152602001600182018054611df190615320565b80601f0160208091040260200160405190810160405280929190818152602001828054611e1d90615320565b8015611e6a5780601f10611e3f57610100808354040283529160200191611e6a565b820191906000526020600020905b815481529060010190602001808311611e4d57829003601f168201915b5050505050815260200160028201548152602001600382015481526020016004820160009054906101000a900460ff1615151515815260200160058201548152505081526020019060010190611d68565b50505050905090565b6000600460008373ffffffffffffffffffffffffffffffffffffffff1673ffffffffffffffffffffffffffffffffffffffff168152602001908152602001600020549050919050565b611f156145d6565b600080611f2184613bb0565b9150915080611f65576040517f08c379a0000000000000000000000000000000000000000000000000000000008152600401611f5c906157d1565b60405180910390fd5b600a8281548110611f7957611f786154e2565b5b9060005260206000209060040201604051806080016040529081600082018054611fa290615320565b80601f0160208091040260200160405190810160405280929190818152602001828054611fce90615320565b801561201b5780601f10611ff05761010080835404028352916020019161201b565b820191906000526020600020905b815481529060010190602001808311611ffe57829003601f168201915b5050505050815260200160018201805461203490615320565b80601f016020809104026020016040519081016040528092919081815260200182805461206090615320565b80156120ad5780601f10612082576101008083540402835291602001916120ad565b820191906000526020600020905b81548152906001019060200180831161209057829003601f168201915b505050505081526020016002820160009054906101000a900460ff1660ff1660ff16815260200160038201548152505092505050919050565b6000600660009054906101000a900473ffffffffffffffffffffffffffffffffffffffff1673ffffffffffffffffffffffffffffffffffffffff163373ffffffffffffffffffffffffffffffffffffffff1614612178576040517f08c379a000000000000000000000000000000000000000000000000000000000815260040161216f9061583d565b60405180910390fd5b6121ca82600460003373ffffffffffffffffffffffffffffffffffffffff1673ffffffffffffffffffffffffffffffffffffffff16815260200190815260200160002054613b8890919063ffffffff16565b600460003373ffffffffffffffffffffffffffffffffffffffff1673ffffffffffffffffffffffffffffffffffffffff1681526020019081526020016000208190555061222282600354613b8890919063ffffffff16565b60038190555060019050919050565b60606001805461224090615320565b80601f016020809104026020016040519081016040528092919081815260200182805461226c90615320565b80156122b95780601f1061228e576101008083540402835291602001916122b9565b820191906000526020600020905b81548152906001019060200180831161229c57829003601f168201915b5050505050905090565b6060600a805480602002602001604051908101604052809291908181526020016000905b82821015612464578382906000526020600020906004020160405180608001604052908160008201805461231a90615320565b80601f016020809104026020016040519081016040528092919081815260200182805461234690615320565b80156123935780601f1061236857610100808354040283529160200191612393565b820191906000526020600020905b81548152906001019060200180831161237657829003601f168201915b505050505081526020016001820180546123ac90615320565b80601f01602080910402602001604051908101604052809291908181526020018280546123d890615320565b80156124255780601f106123fa57610100808354040283529160200191612425565b820191906000526020600020905b81548152906001019060200180831161240857829003601f168201915b505050505081526020016002820160009054906101000a900460ff1660ff1660ff168152602001600382015481525050815260200190600101906122e7565b50505050905090565b6000600460003373ffffffffffffffffffffffffffffffffffffffff1673ffffffffffffffffffffffffffffffffffffffff168152602001908152602001600020548211156124bb57600080fd5b600073ffffffffffffffffffffffffffffffffffffffff168373ffffffffffffffffffffffffffffffffffffffff1614156124f557600080fd5b61254782600460003373ffffffffffffffffffffffffffffffffffffffff1673ffffffffffffffffffffffffffffffffffffffff168152602001908152602001600020546143a890919063ffffffff16565b600460003373ffffffffffffffffffffffffffffffffffffffff1673ffffffffffffffffffffffffffffffffffffffff168152602001908152602001600020819055506125dc82600460008673ffffffffffffffffffffffffffffffffffffffff1673ffffffffffffffffffffffffffffffffffffffff16815260200190815260200160002054613b8890919063ffffffff16565b600460008573ffffffffffffffffffffffffffffffffffffffff1673ffffffffffffffffffffffffffffffffffffffff168152602001908152602001600020819055508273ffffffffffffffffffffffffffffffffffffffff163373ffffffffffffffffffffffffffffffffffffffff167fddf252ad1be2c89b69c2b068fc378daa952ba7f163c4a11628f55a4df523b3ef8460405161267c919061490b565b60405180910390a36001905092915050565b6060600860009054906101000a900473ffffffffffffffffffffffffffffffffffffffff1673ffffffffffffffffffffffffffffffffffffffff163373ffffffffffffffffffffffffffffffffffffffff1614612720576040517f08c379a000000000000000000000000000000000000000000000000000000000815260040161271790615635565b60405180910390fd5b6127686040518060400160405280600481526020017f4956494c00000000000000000000000000000000000000000000000000000000815250836143d190919063ffffffff16565b156127a8576040517f08c379a000000000000000000000000000000000000000000000000000000000815260040161279f906158a9565b60405180910390fd5b6000805b600a80549050811015612e255761287984600a83815481106127d1576127d06154e2565b5b906000526020600020906004020160010180546127ed90615320565b80601f016020809104026020016040519081016040528092919081815260200182805461281990615320565b80156128665780601f1061283b57610100808354040283529160200191612866565b820191906000526020600020905b81548152906001019060200180831161284957829003601f168201915b50505050506143d190919063ffffffff16565b15612e1257600a8181548110612892576128916154e2565b5b9060005260206000209060040201600080820160006128b19190614601565b6001820160006128c19190614601565b6002820160006101000a81549060ff0219169055600382016000905550505b600a805490506001826128f391906158c9565b10156129d757600a60018261290891906158c9565b81548110612919576129186154e2565b5b9060005260206000209060040201600a828154811061293b5761293a6154e2565b5b9060005260206000209060040201600082018160000190805461295d90615320565b612968929190614549565b50600182018160010190805461297d90615320565b612988929190614549565b506002820160009054906101000a900460ff168160020160006101000a81548160ff021916908360ff1602179055506003820154816003015590505080806129cf9061573c565b9150506128e0565b6060600a805480602002602001604051908101604052809291908181526020016000905b82821015612b785783829060005260206000209060040201604051806080016040529081600082018054612a2e90615320565b80601f0160208091040260200160405190810160405280929190818152602001828054612a5a90615320565b8015612aa75780601f10612a7c57610100808354040283529160200191612aa7565b820191906000526020600020905b815481529060010190602001808311612a8a57829003601f168201915b50505050508152602001600182018054612ac090615320565b80601f0160208091040260200160405190810160405280929190818152602001828054612aec90615320565b8015612b395780601f10612b0e57610100808354040283529160200191612b39565b820191906000526020600020905b815481529060010190602001808311612b1c57829003601f168201915b505050505081526020016002820160009054906101000a900460ff1660ff1660ff168152602001600382015481525050815260200190600101906129fb565b505050509050600a6000612b8c9190614641565b60005b60018251612b9d919061591f565b811015612c6457600a828281518110612bb957612bb86154e2565b5b602002602001015190806001815401808255809150506001900390600052602060002090600402016000909190919091506000820151816000019080519060200190612c0692919061449f565b506020820151816001019080519060200190612c2392919061449f565b5060408201518160020160006101000a81548160ff021916908360ff1602179055506060820151816003015550508080612c5c9061573c565b915050612b8f565b50600a805480602002602001604051908101604052809291908181526020016000905b82821015612e045783829060005260206000209060040201604051806080016040529081600082018054612cba90615320565b80601f0160208091040260200160405190810160405280929190818152602001828054612ce690615320565b8015612d335780601f10612d0857610100808354040283529160200191612d33565b820191906000526020600020905b815481529060010190602001808311612d1657829003601f168201915b50505050508152602001600182018054612d4c90615320565b80601f0160208091040260200160405190810160405280929190818152602001828054612d7890615320565b8015612dc55780601f10612d9a57610100808354040283529160200191612dc5565b820191906000526020600020905b815481529060010190602001808311612da857829003601f168201915b505050505081526020016002820160009054906101000a900460ff1660ff1660ff16815260200160038201548152505081526020019060010190612c87565b50505050935050505061300d565b8080612e1d9061573c565b9150506127ac565b5080612e66576040517f08c379a0000000000000000000000000000000000000000000000000000000008152600401612e5d9061599f565b60405180910390fd5b600a805480602002602001604051908101604052809291908181526020016000905b828210156130055783829060005260206000209060040201604051806080016040529081600082018054612ebb90615320565b80601f0160208091040260200160405190810160405280929190818152602001828054612ee790615320565b8015612f345780601f10612f0957610100808354040283529160200191612f34565b820191906000526020600020905b815481529060010190602001808311612f1757829003601f168201915b50505050508152602001600182018054612f4d90615320565b80601f0160208091040260200160405190810160405280929190818152602001828054612f7990615320565b8015612fc65780601f10612f9b57610100808354040283529160200191612fc6565b820191906000526020600020905b815481529060010190602001808311612fa957829003601f168201915b505050505081526020016002820160009054906101000a900460ff1660ff1660ff16815260200160038201548152505081526020019060010190612e88565b505050509150505b919050565b600860009054906101000a900473ffffffffffffffffffffffffffffffffffffffff1673ffffffffffffffffffffffffffffffffffffffff163373ffffffffffffffffffffffffffffffffffffffff16146130a2576040517f08c379a000000000000000000000000000000000000000000000000000000000815260040161309990615a0b565b60405180910390fd5b6000806130ae84613bb0565b91509150806130f2576040517f08c379a00000000000000000000000000000000000000000000000000000000081526004016130e990615265565b60405180910390fd5b61312a83600a848154811061310a576131096154e2565b5b906000526020600020906004020160030154613b8890919063ffffffff16565b600a838154811061313e5761313d6154e2565b5b9060005260206000209060040201600301819055506131c183600960003373ffffffffffffffffffffffffffffffffffffffff1673ffffffffffffffffffffffffffffffffffffffff168152602001908152602001600020866040516131a49190615202565b908152602001604051809103902054613b8890919063ffffffff16565b600960003373ffffffffffffffffffffffffffffffffffffffff1673ffffffffffffffffffffffffffffffffffffffff1681526020019081526020016000208560405161320e9190615202565b90815260200160405180910390208190555050505050565b600860009054906101000a900473ffffffffffffffffffffffffffffffffffffffff1673ffffffffffffffffffffffffffffffffffffffff163373ffffffffffffffffffffffffffffffffffffffff16146132b6576040517f08c379a00000000000000000000000000000000000000000000000000000000081526004016132ad90615a0b565b60405180910390fd5b6000806132c284613bb0565b9150915080613306576040517f08c379a00000000000000000000000000000000000000000000000000000000081526004016132fd90615265565b60405180910390fd5b82600960003373ffffffffffffffffffffffffffffffffffffffff1673ffffffffffffffffffffffffffffffffffffffff168152602001908152602001600020856040516133549190615202565b90815260200160405180910390205410156133a4576040517f08c379a000000000000000000000000000000000000000000000000000000000815260040161339b906155c9565b60405180910390fd5b6133dc83600a84815481106133bc576133bb6154e2565b5b9060005260206000209060040201600301546143a890919063ffffffff16565b600a83815481106133f0576133ef6154e2565b5b90600052602060002090600402016003018190555061347383600960003373ffffffffffffffffffffffffffffffffffffffff1673ffffffffffffffffffffffffffffffffffffffff168152602001908152602001600020866040516134569190615202565b9081526020016040518091039020546143a890919063ffffffff16565b600960003373ffffffffffffffffffffffffffffffffffffffff1673ffffffffffffffffffffffffffffffffffffffff168152602001908152602001600020856040516134c09190615202565b90815260200160405180910390208190555050505050565b6000601254905090565b601254811115613527576040517f08c379a000000000000000000000000000000000000000000000000000000000815260040161351e9061539e565b60405180910390fd5b600f600082815260200190815260200160002060040160009054906101000a900460ff161561358b576040517f08c379a000000000000000000000000000000000000000000000000000000000815260040161358290615430565b60405180910390fd5b6135e1600f600083815260200190815260200160002060000160009054906101000a900473ffffffffffffffffffffffffffffffffffffffff16600f60008481526020019081526020016000206003015461246d565b506136a0600f6000838152602001908152602001600020600101805461360690615320565b80601f016020809104026020016040519081016040528092919081815260200182805461363290615320565b801561367f5780601f106136545761010080835404028352916020019161367f565b820191906000526020600020905b81548152906001019060200180831161366257829003601f168201915b5050505050600f600084815260200190815260200160002060020154614001565b506001600f600083815260200190815260200160002060040160006101000a81548160ff021916908315150217905550601160003373ffffffffffffffffffffffffffffffffffffffff1673ffffffffffffffffffffffffffffffffffffffff168152602001908152602001600020600f600083815260200190815260200160002090806001815401808255809150506001900390600052602060002090600602016000909190919091506000820160009054906101000a900473ffffffffffffffffffffffffffffffffffffffff168160000160006101000a81548173ffffffffffffffffffffffffffffffffffffffff021916908373ffffffffffffffffffffffffffffffffffffffff16021790555060018201816001019080546137c690615320565b6137d1929190614549565b5060028201548160020155600382015481600301556004820160009054906101000a900460ff168160040160006101000a81548160ff02191690831515021790555060058201548160050155505050565b6000600560008473ffffffffffffffffffffffffffffffffffffffff1673ffffffffffffffffffffffffffffffffffffffff16815260200190815260200160002060008373ffffffffffffffffffffffffffffffffffffffff1673ffffffffffffffffffffffffffffffffffffffff16815260200190815260200160002054905092915050565b6000806138b585613bb0565b915050806138f8576040517f08c379a00000000000000000000000000000000000000000000000000000000081526004016138ef90615a77565b60405180910390fd5b61390185610534565b831115613943576040517f08c379a000000000000000000000000000000000000000000000000000000000815260040161393a906152d1565b60405180910390fd5b600073ffffffffffffffffffffffffffffffffffffffff168473ffffffffffffffffffffffffffffffffffffffff16141561397d57600080fd5b6139eb83600960003373ffffffffffffffffffffffffffffffffffffffff1673ffffffffffffffffffffffffffffffffffffffff168152602001908152602001600020876040516139ce9190615202565b9081526020016040518091039020546143a890919063ffffffff16565b600960003373ffffffffffffffffffffffffffffffffffffffff1673ffffffffffffffffffffffffffffffffffffffff16815260200190815260200160002086604051613a389190615202565b908152602001604051809103902081905550613ab883600960008773ffffffffffffffffffffffffffffffffffffffff1673ffffffffffffffffffffffffffffffffffffffff16815260200190815260200160002087604051613a9b9190615202565b908152602001604051809103902054613b8890919063ffffffff16565b600960008673ffffffffffffffffffffffffffffffffffffffff1673ffffffffffffffffffffffffffffffffffffffff16815260200190815260200160002086604051613b059190615202565b9081526020016040518091039020819055508373ffffffffffffffffffffffffffffffffffffffff163373ffffffffffffffffffffffffffffffffffffffff167fddf252ad1be2c89b69c2b068fc378daa952ba7f163c4a11628f55a4df523b3ef85604051613b74919061490b565b60405180910390a360019150509392505050565b6000808284613b9791906158c9565b905083811015613ba657600080fd5b8091505092915050565b60008060005b600a80549050811015613ca857613c8384600a8381548110613bdb57613bda6154e2565b5b90600052602060002090600402016001018054613bf790615320565b80601f0160208091040260200160405190810160405280929190818152602001828054613c2390615320565b8015613c705780601f10613c4557610100808354040283529160200191613c70565b820191906000526020600020905b815481529060010190602001808311613c5357829003601f168201915b50505050506143d190919063ffffffff16565b15613c95578060019250925050613cf2565b8080613ca09061573c565b915050613bb6565b506000613cea576040517f08c379a0000000000000000000000000000000000000000000000000000000008152600401613ce190615b09565b60405180910390fd5b600080915091505b915091565b600080613d0384613bb0565b91505080613d46576040517f08c379a0000000000000000000000000000000000000000000000000000000008152600401613d3d90615a77565b60405180910390fd5b613d4f84610534565b831115613d91576040517f08c379a0000000000000000000000000000000000000000000000000000000008152600401613d88906152d1565b60405180910390fd5b613dff83600960003373ffffffffffffffffffffffffffffffffffffffff1673ffffffffffffffffffffffffffffffffffffffff16815260200190815260200160002086604051613de29190615202565b9081526020016040518091039020546143a890919063ffffffff16565b600960003373ffffffffffffffffffffffffffffffffffffffff1673ffffffffffffffffffffffffffffffffffffffff16815260200190815260200160002085604051613e4c9190615202565b908152602001604051809103902081905550613eee8360096000600760009054906101000a900473ffffffffffffffffffffffffffffffffffffffff1673ffffffffffffffffffffffffffffffffffffffff1673ffffffffffffffffffffffffffffffffffffffff16815260200190815260200160002086604051613ed19190615202565b908152602001604051809103902054613b8890919063ffffffff16565b60096000600760009054906101000a900473ffffffffffffffffffffffffffffffffffffffff1673ffffffffffffffffffffffffffffffffffffffff1673ffffffffffffffffffffffffffffffffffffffff16815260200190815260200160002085604051613f5d9190615202565b908152602001604051809103902081905550600760009054906101000a900473ffffffffffffffffffffffffffffffffffffffff1673ffffffffffffffffffffffffffffffffffffffff163373ffffffffffffffffffffffffffffffffffffffff167fddf252ad1be2c89b69c2b068fc378daa952ba7f163c4a11628f55a4df523b3ef85604051613fee919061490b565b60405180910390a3600191505092915050565b60008061400d84613bb0565b91505080614050576040517f08c379a000000000000000000000000000000000000000000000000000000000815260040161404790615a77565b60405180910390fd5b6140e08360096000600760009054906101000a900473ffffffffffffffffffffffffffffffffffffffff1673ffffffffffffffffffffffffffffffffffffffff1673ffffffffffffffffffffffffffffffffffffffff168152602001908152602001600020866040516140c39190615202565b9081526020016040518091039020546143a890919063ffffffff16565b60096000600760009054906101000a900473ffffffffffffffffffffffffffffffffffffffff1673ffffffffffffffffffffffffffffffffffffffff1673ffffffffffffffffffffffffffffffffffffffff1681526020019081526020016000208560405161414f9190615202565b9081526020016040518091039020819055506141cf83600960003373ffffffffffffffffffffffffffffffffffffffff1673ffffffffffffffffffffffffffffffffffffffff168152602001908152602001600020866040516141b29190615202565b908152602001604051809103902054613b8890919063ffffffff16565b600960003373ffffffffffffffffffffffffffffffffffffffff1673ffffffffffffffffffffffffffffffffffffffff1681526020019081526020016000208560405161421c9190615202565b9081526020016040518091039020819055503373ffffffffffffffffffffffffffffffffffffffff16600760009054906101000a900473ffffffffffffffffffffffffffffffffffffffff1673ffffffffffffffffffffffffffffffffffffffff167fddf252ad1be2c89b69c2b068fc378daa952ba7f163c4a11628f55a4df523b3ef856040516142ad919061490b565b60405180910390a3600191505092915050565b60008060005b601160003373ffffffffffffffffffffffffffffffffffffffff1673ffffffffffffffffffffffffffffffffffffffff1681526020019081526020016000208054905081101561439a5783601160003373ffffffffffffffffffffffffffffffffffffffff1673ffffffffffffffffffffffffffffffffffffffff1681526020019081526020016000208281548110614362576143616154e2565b5b90600052602060002090600602016005015414156143875780600192509250506143a3565b80806143929061573c565b9150506142c6565b50600080915091505b915091565b6000828211156143b757600080fd5b600082846143c5919061591f565b90508091505092915050565b600081518351146143e55760009050614499565b60005b835181101561449357828181518110614404576144036154e2565b5b602001015160f81c60f81b7effffffffffffffffffffffffffffffffffffffffffffffffffffffffffffff1916848281518110614444576144436154e2565b5b602001015160f81c60f81b7effffffffffffffffffffffffffffffffffffffffffffffffffffffffffffff191614614480576000915050614499565b808061448b9061573c565b9150506143e8565b50600190505b92915050565b8280546144ab90615320565b90600052602060002090601f0160209004810192826144cd5760008555614514565b82601f106144e657805160ff1916838001178555614514565b82800160010185558215614514579182015b828111156145135782518255916020019190600101906144f8565b5b5090506145219190614665565b5090565b50805460008255600602906000526020600020908101906145469190614682565b50565b82805461455590615320565b90600052602060002090601f01602090048101928261457757600085556145c5565b82601f1061458857805485556145c5565b828001600101855582156145c557600052602060002091601f016020900482015b828111156145c45782548255916001019190600101906145a9565b5b5090506145d29190614665565b5090565b60405180608001604052806060815260200160608152602001600060ff168152602001600081525090565b50805461460d90615320565b6000825580601f1061461f575061463e565b601f01602090049060005260206000209081019061463d9190614665565b5b50565b508054600082556004029060005260206000209081019061466291906146fc565b50565b5b8082111561467e576000816000905550600101614666565b5090565b5b808211156146f857600080820160006101000a81549073ffffffffffffffffffffffffffffffffffffffff02191690556001820160006146c39190614601565b600282016000905560038201600090556004820160006101000a81549060ff0219169055600582016000905550600601614683565b5090565b5b8082111561474b57600080820160006147169190614601565b6001820160006147269190614601565b6002820160006101000a81549060ff02191690556003820160009055506004016146fd565b5090565b6000604051905090565b600080fd5b600080fd5b600080fd5b600080fd5b6000601f19601f8301169050919050565b7f4e487b7100000000000000000000000000000000000000000000000000000000600052604160045260246000fd5b6147b68261476d565b810181811067ffffffffffffffff821117156147d5576147d461477e565b5b80604052505050565b60006147e861474f565b90506147f482826147ad565b919050565b600067ffffffffffffffff8211156148145761481361477e565b5b61481d8261476d565b9050602081019050919050565b82818337600083830152505050565b600061484c614847846147f9565b6147de565b90508281526020810184848401111561486857614867614768565b5b61487384828561482a565b509392505050565b600082601f8301126148905761488f614763565b5b81356148a0848260208601614839565b91505092915050565b6000602082840312156148bf576148be614759565b5b600082013567ffffffffffffffff8111156148dd576148dc61475e565b5b6148e98482850161487b565b91505092915050565b6000819050919050565b614905816148f2565b82525050565b600060208201905061492060008301846148fc565b92915050565b61492f816148f2565b811461493a57600080fd5b50565b60008135905061494c81614926565b92915050565b60008060006060848603121561496b5761496a614759565b5b600084013567ffffffffffffffff8111156149895761498861475e565b5b6149958682870161487b565b93505060206149a68682870161493d565b92505060406149b78682870161493d565b9150509250925092565b600081519050919050565b600082825260208201905092915050565b60005b838110156149fb5780820151818401526020810190506149e0565b83811115614a0a576000848401525b50505050565b6000614a1b826149c1565b614a2581856149cc565b9350614a358185602086016149dd565b614a3e8161476d565b840191505092915050565b60006020820190508181036000830152614a638184614a10565b905092915050565b600060208284031215614a8157614a80614759565b5b6000614a8f8482850161493d565b91505092915050565b600073ffffffffffffffffffffffffffffffffffffffff82169050919050565b6000614ac382614a98565b9050919050565b614ad381614ab8565b8114614ade57600080fd5b50565b600081359050614af081614aca565b92915050565b60008060408385031215614b0d57614b0c614759565b5b6000614b1b85828601614ae1565b9250506020614b2c8582860161493d565b9150509250929050565b60008115159050919050565b614b4b81614b36565b82525050565b6000602082019050614b666000830184614b42565b92915050565b600060ff82169050919050565b614b8281614b6c565b8114614b8d57600080fd5b50565b600081359050614b9f81614b79565b92915050565b60008060008060808587031215614bbf57614bbe614759565b5b600085013567ffffffffffffffff811115614bdd57614bdc61475e565b5b614be98782880161487b565b945050602085013567ffffffffffffffff811115614c0a57614c0961475e565b5b614c168782880161487b565b9350506040614c2787828801614b90565b9250506060614c388782880161493d565b91505092959194509250565b600081519050919050565b600082825260208201905092915050565b6000819050602082019050919050565b600082825260208201905092915050565b6000614c8c826149c1565b614c968185614c70565b9350614ca68185602086016149dd565b614caf8161476d565b840191505092915050565b614cc381614b6c565b82525050565b614cd2816148f2565b82525050565b60006080830160008301518482036000860152614cf58282614c81565b91505060208301518482036020860152614d0f8282614c81565b9150506040830151614d246040860182614cba565b506060830151614d376060860182614cc9565b508091505092915050565b6000614d4e8383614cd8565b905092915050565b6000602082019050919050565b6000614d6e82614c44565b614d788185614c4f565b935083602082028501614d8a85614c60565b8060005b85811015614dc65784840389528151614da78582614d42565b9450614db283614d56565b925060208a01995050600181019050614d8e565b50829750879550505050505092915050565b60006020820190508181036000830152614df28184614d63565b905092915050565b600080600060608486031215614e1357614e12614759565b5b6000614e2186828701614ae1565b9350506020614e3286828701614ae1565b9250506040614e438682870161493d565b9150509250925092565b614e5681614b6c565b82525050565b6000602082019050614e716000830184614e4d565b92915050565b600081519050919050565b600082825260208201905092915050565b6000819050602082019050919050565b614eac81614ab8565b82525050565b614ebb81614b36565b82525050565b600060c083016000830151614ed96000860182614ea3565b5060208301518482036020860152614ef18282614c81565b9150506040830151614f066040860182614cc9565b506060830151614f196060860182614cc9565b506080830151614f2c6080860182614eb2565b5060a0830151614f3f60a0860182614cc9565b508091505092915050565b6000614f568383614ec1565b905092915050565b6000602082019050919050565b6000614f7682614e77565b614f808185614e82565b935083602082028501614f9285614e93565b8060005b85811015614fce5784840389528151614faf8582614f4a565b9450614fba83614f5e565b925060208a01995050600181019050614f96565b50829750879550505050505092915050565b60006020820190508181036000830152614ffa8184614f6b565b905092915050565b60006020828403121561501857615017614759565b5b600061502684828501614ae1565b91505092915050565b6000608083016000830151848203600086015261504c8282614c81565b915050602083015184820360208601526150668282614c81565b915050604083015161507b6040860182614cba565b50606083015161508e6060860182614cc9565b508091505092915050565b600060208201905081810360008301526150b3818461502f565b905092915050565b600080604083850312156150d2576150d1614759565b5b600083013567ffffffffffffffff8111156150f0576150ef61475e565b5b6150fc8582860161487b565b925050602061510d8582860161493d565b9150509250929050565b6000806040838503121561512e5761512d614759565b5b600061513c85828601614ae1565b925050602061514d85828601614ae1565b9150509250929050565b6000806000606084860312156151705761516f614759565b5b600084013567ffffffffffffffff81111561518e5761518d61475e565b5b61519a8682870161487b565b93505060206151ab86828701614ae1565b92505060406151bc8682870161493d565b9150509250925092565b600081905092915050565b60006151dc826149c1565b6151e681856151c6565b93506151f68185602086016149dd565b80840191505092915050565b600061520e82846151d1565b915081905092915050565b7f54686520746f6b656e206973206e6f7420657869737465642021000000000000600082015250565b600061524f601a836149cc565b915061525a82615219565b602082019050919050565b6000602082019050818103600083015261527e81615242565b9050919050565b7f54686520746f6b656e206973206e6f7420656e6f756768202100000000000000600082015250565b60006152bb6019836149cc565b91506152c682615285565b602082019050919050565b600060208201905081810360008301526152ea816152ae565b9050919050565b7f4e487b7100000000000000000000000000000000000000000000000000000000600052602260045260246000fd5b6000600282049050600182168061533857607f821691505b6020821081141561534c5761534b6152f1565b5b50919050565b7f546865207472616e73616374696f6e206973206e6f7420657869737465642021600082015250565b60006153886020836149cc565b915061539382615352565b602082019050919050565b600060208201905081810360008301526153b78161537b565b9050919050565b7f546865207472616e73616374696f6e2068617320616c7265616479206265656e60008201527f20636f6d706c6574656420210000000000000000000000000000000000000000602082015250565b600061541a602c836149cc565b9150615425826153be565b604082019050919050565b600060208201905081810360008301526154498161540d565b9050919050565b7f796f7520646f6573206e6f7420686176652074686973207472616e736163746960008201527f6f6e202100000000000000000000000000000000000000000000000000000000602082015250565b60006154ac6024836149cc565b91506154b782615450565b604082019050919050565b600060208201905081810360008301526154db8161549f565b9050919050565b7f4e487b7100000000000000000000000000000000000000000000000000000000600052603260045260246000fd5b7f4f6e6c792074686520726f6f742063616e20646573746f727920746f6b656e21600082015250565b60006155476020836149cc565b915061555282615511565b602082019050919050565b600060208201905081810360008301526155768161553a565b9050919050565b7f496e73756666696369656e742062616c616e6365202100000000000000000000600082015250565b60006155b36016836149cc565b91506155be8261557d565b602082019050919050565b600060208201905081810360008301526155e2816155a6565b9050919050565b7f4f6e6c7920726f6f742063616e206372656174652074686520746f6b656e2021600082015250565b600061561f6020836149cc565b915061562a826155e9565b602082019050919050565b6000602082019050818103600083015261564e81615612565b9050919050565b7f6661696c656420746f2063726561746520746f6b656e202120546865206e616d60008201527f65206f722073796d626f6c2068617320616c726561647920657869737465642060208201527f2100000000000000000000000000000000000000000000000000000000000000604082015250565b60006156d76041836149cc565b91506156e282615655565b606082019050919050565b60006020820190508181036000830152615706816156ca565b9050919050565b7f4e487b7100000000000000000000000000000000000000000000000000000000600052601160045260246000fd5b6000615747826148f2565b91507fffffffffffffffffffffffffffffffffffffffffffffffffffffffffffffffff82141561577a5761577961570d565b5b600182019050919050565b7f2054686520746f6b656e206973206e6f74206578697374656420212000000000600082015250565b60006157bb601c836149cc565b91506157c682615785565b602082019050919050565b600060208201905081810360008301526157ea816157ae565b9050919050565b7f4f6e6c792074686520726f6f742063616e2063726561746520746f6b656e2100600082015250565b6000615827601f836149cc565b9150615832826157f1565b602082019050919050565b600060208201905081810360008301526158568161581a565b9050919050565b7f546865204956494c2069732063616e277420626520646573746f727965642021600082015250565b60006158936020836149cc565b915061589e8261585d565b602082019050919050565b600060208201905081810360008301526158c281615886565b9050919050565b60006158d4826148f2565b91506158df836148f2565b9250827fffffffffffffffffffffffffffffffffffffffffffffffffffffffffffffffff038211156159145761591361570d565b5b828201905092915050565b600061592a826148f2565b9150615935836148f2565b9250828210156159485761594761570d565b5b828203905092915050565b7f6661696c656420746f2064656c65746520210000000000000000000000000000600082015250565b60006159896012836149cc565b915061599482615953565b602082019050919050565b600060208201905081810360008301526159b88161597c565b9050919050565b7f4f6e6c7920726f6f742063616e206164642074686520746f6b656e2021000000600082015250565b60006159f5601d836149cc565b9150615a00826159bf565b602082019050919050565b60006020820190508181036000830152615a24816159e8565b9050919050565b7f54686520746f6b656e206973206e6f7420657869737465640000000000000000600082015250565b6000615a616018836149cc565b9150615a6c82615a2b565b602082019050919050565b60006020820190508181036000830152615a9081615a54565b9050919050565b7f5468652073706563696669656420746f6b656e20776173206e6f7420666f756e60008201527f6420210000000000000000000000000000000000000000000000000000000000602082015250565b6000615af36023836149cc565b9150615afe82615a97565b604082019050919050565b60006020820190508181036000830152615b2281615ae6565b905091905056fea26469706673582212205906874ce0280d4042dd1000712d6f1ad5e1b21f8f3e7784743d4ddc9b6d885664736f6c634300080c0033",
  "immutableReferences": {},
  "source": "// SPDX-License-Identifier: GPL-3.0\r\n\r\npragma solidity >=0.4.24;\r\n\r\n/**\r\n * @title \r\n * @dev \r\n */\r\nlibrary SafeMath {\r\n    /**\r\n     * @dev \r\n     */\r\n    function mul(uint256 a, uint256 b) internal pure returns (uint256) {\r\n        if (a == 0) {\r\n            return 0;\r\n        }\r\n\r\n        uint256 c = a * b;\r\n        require(c / a == b);\r\n\r\n        return c;\r\n    }\r\n\r\n    /**\r\n     * @dev \r\n     */\r\n    function div(uint256 a, uint256 b) internal pure returns (uint256) {\r\n        require(b > 0);\r\n        uint256 c = a / b;\r\n\r\n        return c;\r\n    }\r\n\r\n    /**\r\n     * @dev \r\n     */\r\n    function sub(uint256 a, uint256 b) internal pure returns (uint256) {\r\n        require(b <= a);\r\n        uint256 c = a - b;\r\n\r\n        return c;\r\n    }\r\n\r\n    /**\r\n     * @dev \r\n     */\r\n    function add(uint256 a, uint256 b) internal pure returns (uint256) {\r\n        uint256 c = a + b;\r\n        require(c >= a);\r\n\r\n        return c;\r\n    }\r\n\r\n    /**\r\n     * @dev \r\n     */\r\n    function mod(uint256 a, uint256 b) internal pure returns (uint256) {\r\n        require(b != 0);\r\n        return a % b;\r\n    }\r\n}\r\n\r\n/**\r\n *@dev ,\r\n */\r\nlibrary StringUtils {\r\n    function CompareInternal(string memory a, string memory b)\r\n        internal\r\n        pure\r\n        returns (bool)\r\n    {\r\n        if (bytes(a).length != bytes(b).length) {\r\n            return false;\r\n        }\r\n        for (uint256 i = 0; i < bytes(a).length; i++) {\r\n            if (bytes(a)[i] != bytes(b)[i]) {\r\n                return false;\r\n            }\r\n        }\r\n        return true;\r\n    }\r\n}\r\n\r\n//========================================================================================\r\n\r\n/**\r\n * @title ERC20 interface\r\n */\r\ninterface IERC20 {\r\n    // methods\r\n    function totalSupply() external view returns (uint256);\r\n\r\n    function balanceOf(address who) external view returns (uint256);\r\n\r\n    function allowance(address owner, address spender)\r\n        external\r\n        view\r\n        returns (uint256);\r\n\r\n    function transfer(address to, uint256 value) external returns (bool);\r\n\r\n    function approve(address spender, uint256 value) external returns (bool);\r\n\r\n    function transferFrom(\r\n        address from,\r\n        address to,\r\n        uint256 value\r\n    ) external returns (bool);\r\n\r\n    // event\r\n    event Transfer(address indexed from, address indexed to, uint256 value);\r\n\r\n    event Approval(\r\n        address indexed owner,\r\n        address indexed spender,\r\n        uint256 value\r\n    );\r\n}\r\n\r\n//=======================================================================================\r\n/**\r\n * @title ERC20\r\n *\r\n */\r\ncontract ERC20 is IERC20 {\r\n    using SafeMath for uint256;\r\n\r\n    string private _name = \"ivil.world\"; //\r\n    string private _symbol = \"IVIL\"; //\r\n    uint8 private _decimals = 0; //\r\n    uint256 private _totalSupply = 21000000; //\r\n\r\n    mapping(address => uint256) private _balances;\r\n\r\n    mapping(address => mapping(address => uint256)) private _allowed;\r\n\r\n    address private root; //\r\n\r\n    constructor() {\r\n        root = msg.sender;\r\n        _balances[msg.sender] = _balances[msg.sender].add(_totalSupply);\r\n    }\r\n\r\n    function name() public view returns (string memory) {\r\n        return _name;\r\n    }\r\n\r\n    function symbol() public view returns (string memory) {\r\n        return _symbol;\r\n    }\r\n\r\n    function decimals() public view returns (uint8) {\r\n        return _decimals;\r\n    }\r\n\r\n    // \r\n    function createIVIL(uint256 value) public returns (bool) {\r\n        require(msg.sender == root, \"Only the root can create token!\");\r\n        _balances[msg.sender] = _balances[msg.sender].add(value);\r\n        _totalSupply = _totalSupply.add(value);\r\n        return true;\r\n    }\r\n\r\n    // \r\n    function destoryIVIL(uint256 value) public returns (bool) {\r\n        require(msg.sender == root, \"Only the root can destory token!\");\r\n        require(_balances[msg.sender] >= value, \"Insufficient balance !\");\r\n        _balances[msg.sender] = _balances[msg.sender].sub(value);\r\n        _totalSupply = _totalSupply.sub(value);\r\n        return true;\r\n    }\r\n\r\n    function totalSupply() public view returns (uint256) {\r\n        return _totalSupply;\r\n    }\r\n\r\n    function balanceOf(address owner) public view returns (uint256) {\r\n        return _balances[owner];\r\n    }\r\n\r\n    function allowance(address owner, address spender)\r\n        public\r\n        view\r\n        returns (uint256)\r\n    {\r\n        return _allowed[owner][spender];\r\n    }\r\n\r\n    function transfer(address to, uint256 value) public returns (bool) {\r\n        require(value <= _balances[msg.sender]);\r\n        require(to != address(0));\r\n\r\n        _balances[msg.sender] = _balances[msg.sender].sub(value);\r\n        _balances[to] = _balances[to].add(value);\r\n        emit Transfer(msg.sender, to, value);\r\n        return true;\r\n    }\r\n\r\n    function approve(address spender, uint256 value) public returns (bool) {\r\n        require(spender != address(0));\r\n\r\n        _allowed[msg.sender][spender] = value;\r\n        emit Approval(msg.sender, spender, value);\r\n        return true;\r\n    }\r\n\r\n    function transferFrom(\r\n        address from,\r\n        address to,\r\n        uint256 value\r\n    ) public returns (bool) {\r\n        require(value <= _balances[from]);\r\n        require(value <= _allowed[from][msg.sender]);\r\n        require(to != address(0));\r\n\r\n        _balances[from] = _balances[from].sub(value);\r\n        _balances[to] = _balances[to].add(value);\r\n        _allowed[from][msg.sender] = _allowed[from][msg.sender].sub(value);\r\n        emit Transfer(from, to, value);\r\n        return true;\r\n    }\r\n}\r\n\r\n//===================================================================================\r\n\r\ncontract IvilWorld is ERC20 {\r\n    using SafeMath for uint256;\r\n    using StringUtils for string;\r\n\r\n    struct Token {\r\n        string name; //\r\n        string symbol; //\r\n        uint8 decimals; //20.01\r\n        uint256 totalSupply; //\r\n    }\r\n\r\n    address private ice; //\r\n    address private root; //\r\n\r\n    mapping(address => mapping(string => uint256)) private balance; //\r\n\r\n    Token[] private tokens;\r\n    /*\r\n     *constant , , , , constant(: block.number , now , msg.sender  )\r\n     *constant  strings  .\r\n     */\r\n    Token private godToken = Token(\"ivil.world\", \"IVIL\", 9, 21000000); // token,\r\n\r\n    constructor() {\r\n        root = msg.sender;\r\n        tokens.push(godToken);\r\n        balance[msg.sender][godToken.symbol] = balance[msg.sender][\r\n            godToken.symbol\r\n        ].add(godToken.totalSupply);\r\n    }\r\n\r\n    // \r\n    function createToken(\r\n        string memory name,\r\n        string memory symbol,\r\n        uint8 decimals,\r\n        uint256 total\r\n    ) public returns (Token[] memory) {\r\n        require(msg.sender == root, \"Only root can create the token !\");\r\n        bool status = false;\r\n        for (uint256 i = 0; i < tokens.length; i++) {\r\n            if (\r\n                tokens[i].name.CompareInternal(name) ||\r\n                tokens[i].symbol.CompareInternal(symbol)\r\n            ) {\r\n                require(\r\n                    status,\r\n                    \"failed to create token ! The name or symbol has already existed !\"\r\n                );\r\n                return tokens;\r\n            }\r\n        }\r\n        Token memory token = Token(name, symbol, decimals, total);\r\n        tokens.push(token);\r\n        balance[msg.sender][token.symbol] = balance[msg.sender][token.symbol]\r\n            .add(token.totalSupply);\r\n        return tokens;\r\n    }\r\n\r\n    // \r\n    function destoryToken(string memory symbol)\r\n        public\r\n        returns (Token[] memory)\r\n    {\r\n        require(msg.sender == root, \"Only root can create the token !\");\r\n        require(\r\n            !symbol.CompareInternal(\"IVIL\"),\r\n            \"The IVIL is can't be destoryed !\"\r\n        );\r\n        bool status = false;\r\n        for (uint256 i = 0; i < tokens.length; i++) {\r\n            if (tokens[i].symbol.CompareInternal(symbol)) {\r\n                delete tokens[i];\r\n                while (i + 1 < tokens.length) {\r\n                    tokens[i] = tokens[i + 1];\r\n                    i++;\r\n                }\r\n                Token[] memory temp;\r\n                temp = tokens;\r\n                delete tokens;\r\n                for (uint256 k = 0; k < temp.length - 1; k++) {\r\n                    tokens.push(temp[k]);\r\n                }\r\n                return tokens;\r\n            }\r\n        }\r\n        require(status, \"failed to delete !\");\r\n        return tokens;\r\n    }\r\n\r\n    // token\r\n    function increaseToken(string memory symbol, uint256 value) public {\r\n        require(msg.sender == root, \"Only root can add the token !\");\r\n        (uint256 index, bool isExisted) = getLocationBySymbol(symbol);\r\n        require(isExisted, \"The token is not existed !\");\r\n        tokens[index].totalSupply = tokens[index].totalSupply.add(value);\r\n        balance[msg.sender][symbol] = balance[msg.sender][symbol].add(value);\r\n    }\r\n\r\n    // token\r\n    function decreaseToken(string memory symbol, uint256 value) public {\r\n        require(msg.sender == root, \"Only root can add the token !\");\r\n        (uint256 index, bool isExisted) = getLocationBySymbol(symbol);\r\n        require(isExisted, \"The token is not existed !\");\r\n        require(balance[msg.sender][symbol] >= value, \"Insufficient balance !\");\r\n        tokens[index].totalSupply = tokens[index].totalSupply.sub(value);\r\n        balance[msg.sender][symbol] = balance[msg.sender][symbol].sub(value);\r\n    }\r\n\r\n    // token\r\n    function getLocationBySymbol(string memory symbol)\r\n        internal\r\n        view\r\n        returns (uint256, bool)\r\n    {\r\n        for (uint256 i = 0; i < tokens.length; i++) {\r\n            if (tokens[i].symbol.CompareInternal(symbol)) {\r\n                return (i, true);\r\n            }\r\n        }\r\n        require(false, \"The specified token was not found !\");\r\n        return (0, false);\r\n    }\r\n\r\n    // token\r\n    function getTokenInfo(string memory symbol)\r\n        public\r\n        view\r\n        returns (Token memory)\r\n    {\r\n        (uint256 index, bool isExisted) = getLocationBySymbol(symbol);\r\n        require(isExisted, \" The token is not existed ! \");\r\n        return tokens[index];\r\n    }\r\n\r\n    // \r\n    function getAllTokensInfo() public view returns (Token[] memory) {\r\n        return tokens;\r\n    }\r\n\r\n    // \r\n    function getTokenBalance(string memory symbol)\r\n        public\r\n        view\r\n        returns (uint256)\r\n    {\r\n        getLocationBySymbol(symbol);\r\n        return balance[msg.sender][symbol];\r\n    }\r\n\r\n    // token\r\n    function getSpecificTokenBalance(string memory symbol, address who)\r\n        internal\r\n        view\r\n        returns (uint256)\r\n    {\r\n        (, bool isExisted) = getLocationBySymbol(symbol);\r\n        require(isExisted, \" The token is not existed ! \");\r\n        return balance[who][symbol];\r\n    }\r\n\r\n    // \r\n    function transferToken(\r\n        string memory symbol,\r\n        address to,\r\n        uint256 value\r\n    ) public returns (bool) {\r\n        (, bool isExisted) = getLocationBySymbol(symbol);\r\n        require(isExisted, \"The token is not existed\");\r\n        require(value <= getTokenBalance(symbol), \"The token is not enough !\");\r\n        require(to != address(0));\r\n        balance[msg.sender][symbol] = balance[msg.sender][symbol].sub(value);\r\n        balance[to][symbol] = balance[to][symbol].add(value);\r\n        emit Transfer(msg.sender, to, value);\r\n        return true;\r\n    }\r\n\r\n    // token\r\n    function freezeToken(string memory symbol, uint256 value)\r\n        internal\r\n        returns (bool)\r\n    {\r\n        (, bool isExisted) = getLocationBySymbol(symbol);\r\n        require(isExisted, \"The token is not existed\");\r\n        require(value <= getTokenBalance(symbol), \"The token is not enough !\");\r\n        balance[msg.sender][symbol] = balance[msg.sender][symbol].sub(value);\r\n        balance[ice][symbol] = balance[ice][symbol].add(value);\r\n        emit Transfer(msg.sender, ice, value);\r\n        return true;\r\n    }\r\n\r\n    // token\r\n    function unfreezeToken(string memory symbol, uint256 value)\r\n        internal\r\n        returns (bool)\r\n    {\r\n        (, bool isExisted) = getLocationBySymbol(symbol);\r\n        require(isExisted, \"The token is not existed\");\r\n        balance[ice][symbol] = balance[ice][symbol].sub(value);\r\n        balance[msg.sender][symbol] = balance[msg.sender][symbol].add(value);\r\n        emit Transfer(ice, msg.sender, value);\r\n        return true;\r\n    }\r\n}\r\n\r\n// ===========================================================================\r\n\r\ncontract TradingSystem is IvilWorld {\r\n    using SafeMath for uint256;\r\n    // using StringUtils for string;\r\n\r\n    struct Transaction {\r\n        address sender; //\r\n        string symbol; //\r\n        uint256 value; //\r\n        uint256 price; //\r\n        bool status; //\r\n        uint256 index; //\r\n    }\r\n    mapping(uint256 => Transaction) private tradingPool; //\r\n    Transaction[] private transactions; //\r\n    mapping(address => Transaction[]) personalPool; //\r\n\r\n    uint256 private counter;\r\n\r\n    address private root; //\r\n\r\n    constructor() {\r\n        root = msg.sender;\r\n    }\r\n\r\n    // \r\n    function depthOfPool() public view returns (uint256) {\r\n        return counter;\r\n    }\r\n\r\n    // \r\n    function transactionsOfPool() public returns (Transaction[] memory) {\r\n        delete transactions; //\r\n        for (uint256 i; i <= counter; i++) {\r\n            if (tradingPool[i].status == false) {\r\n                transactions.push(tradingPool[i]);\r\n            }\r\n        }\r\n        return transactions;\r\n    }\r\n\r\n    // \r\n    function getPersonalPool() public view returns (Transaction[] memory) {\r\n        return personalPool[msg.sender];\r\n    }\r\n\r\n    // \r\n    function getDealFromPersonalPool(uint256 index)\r\n        internal\r\n        view\r\n        returns (uint256, bool)\r\n    {\r\n        for (uint256 i; i < personalPool[msg.sender].length; i++) {\r\n            if (personalPool[msg.sender][i].index == index) {\r\n                return (i, true);\r\n            }\r\n        }\r\n        return (0, false);\r\n    }\r\n\r\n    // \r\n    function sell(\r\n        string memory symbol,\r\n        uint256 value,\r\n        uint256 price\r\n    ) public {\r\n        (, bool isExisted) = getLocationBySymbol(symbol);\r\n        require(isExisted, \"The token is not existed !\");\r\n        uint256 temp = getTokenBalance(symbol);\r\n        require(value <= temp, \"The token is not enough !\");\r\n        Transaction memory deal = Transaction(\r\n            msg.sender,\r\n            symbol,\r\n            value,\r\n            price,\r\n            false,\r\n            counter\r\n        );\r\n        tradingPool[counter] = deal;\r\n        personalPool[msg.sender].push(deal);\r\n        freezeToken(symbol, value);\r\n    }\r\n\r\n    // \r\n    function cancelSell(uint256 index) public {\r\n        require(index <= counter, \"The transaction is not existed !\");\r\n        require(\r\n            !tradingPool[index].status,\r\n            \"The transaction has already been completed !\"\r\n        );\r\n        require(msg.sender == tradingPool[index].sender);\r\n        unfreezeToken(tradingPool[index].symbol, tradingPool[index].value);\r\n        tradingPool[index].status = true;\r\n        (uint256 i, bool isExisted) = getDealFromPersonalPool(index);\r\n        require(isExisted, \"you does not have this transaction !\");\r\n        personalPool[msg.sender][i].status = true;\r\n    }\r\n\r\n    // \r\n    function buy(uint256 index) public {\r\n        require(index <= counter, \"The transaction is not existed !\");\r\n        require(\r\n            !tradingPool[index].status,\r\n            \"The transaction has already been completed !\"\r\n        );\r\n        transfer(tradingPool[index].sender, tradingPool[index].price);\r\n        unfreezeToken(tradingPool[index].symbol, tradingPool[index].value);\r\n        tradingPool[index].status = true;\r\n        personalPool[msg.sender].push(tradingPool[index]);\r\n    }\r\n}\r\n",
  "sourcePath": "E:\\Project\\Blockchain\\TradingSystemBasedOnBlockchain\\smart_contract\\contracts\\TradingSystem.sol",
  "compiler": {
    "name": "solc",
    "version": "0.8.12+commit.f00d7308.Emscripten.clang"
  },
  "schemaVersion": "3.4.7",
  "updatedAt": "2022-05-01T11:23:31.875Z",
  "networkType": "ethereum",
  "devdoc": {
    "kind": "dev",
    "methods": {},
    "version": 1
  },
  "userdoc": {
    "kind": "user",
    "methods": {},
    "version": 1
  }
}